{
	"data": {
		"bytecode": {
			"linkReferences": {},
			"object": "608060405234801561000f575f80fd5b5060405161075a38038061075a833981810160405281019061003191906101ad565b805f908161003f9190610401565b50506104d0565b5f604051905090565b5f80fd5b5f80fd5b5f80fd5b5f80fd5b5f601f19601f8301169050919050565b7f4e487b71000000000000000000000000000000000000000000000000000000005f52604160045260245ffd5b6100a58261005f565b810181811067ffffffffffffffff821117156100c4576100c361006f565b5b80604052505050565b5f6100d6610046565b90506100e2828261009c565b919050565b5f67ffffffffffffffff8211156101015761010061006f565b5b61010a8261005f565b9050602081019050919050565b5f5b83811015610134578082015181840152602081019050610119565b5f8484015250505050565b5f61015161014c846100e7565b6100cd565b90508281526020810184848401111561016d5761016c61005b565b5b610178848285610117565b509392505050565b5f82601f83011261019457610193610057565b5b81516101a484826020860161013f565b91505092915050565b5f602082840312156101c2576101c161004f565b5b5f82015167ffffffffffffffff8111156101df576101de610053565b5b6101eb84828501610180565b91505092915050565b5f81519050919050565b7f4e487b71000000000000000000000000000000000000000000000000000000005f52602260045260245ffd5b5f600282049050600182168061024257607f821691505b602082108103610255576102546101fe565b5b50919050565b5f819050815f5260205f209050919050565b5f6020601f8301049050919050565b5f82821b905092915050565b5f600883026102b77fffffffffffffffffffffffffffffffffffffffffffffffffffffffffffffffff8261027c565b6102c1868361027c565b95508019841693508086168417925050509392505050565b5f819050919050565b5f819050919050565b5f6103056103006102fb846102d9565b6102e2565b6102d9565b9050919050565b5f819050919050565b61031e836102eb565b61033261032a8261030c565b848454610288565b825550505050565b5f90565b61034661033a565b610351818484610315565b505050565b5b81811015610374576103695f8261033e565b600181019050610357565b5050565b601f8211156103b95761038a8161025b565b6103938461026d565b810160208510156103a2578190505b6103b66103ae8561026d565b830182610356565b50505b505050565b5f82821c905092915050565b5f6103d95f19846008026103be565b1980831691505092915050565b5f6103f183836103ca565b9150826002028217905092915050565b61040a826101f4565b67ffffffffffffffff8111156104235761042261006f565b5b61042d825461022b565b610438828285610378565b5f60209050601f831160018114610469575f8415610457578287015190505b61046185826103e6565b8655506104c8565b601f1984166104778661025b565b5f5b8281101561049e57848901518255600182019150602085019450602081019050610479565b868310156104bb57848901516104b7601f8916826103ca565b8355505b6001600288020188555050505b505050505050565b61027d806104dd5f395ff3fe608060405234801561000f575f80fd5b5060043610610034575f3560e01c806319ff1d2114610038578063665871bf14610056575b5f80fd5b610040610074565b60405161004d91906101ca565b60405180910390f35b61005e610103565b60405161006b91906101ca565b60405180910390f35b60605f805461008290610217565b80601f01602080910402602001604051908101604052809291908181526020018280546100ae90610217565b80156100f95780601f106100d0576101008083540402835291602001916100f9565b820191905f5260205f20905b8154815290600101906020018083116100dc57829003601f168201915b5050505050905090565b60606040518060400160405280600b81526020017f68656c6c6f20776f726c64000000000000000000000000000000000000000000815250905090565b5f81519050919050565b5f82825260208201905092915050565b5f5b8381101561017757808201518184015260208101905061015c565b5f8484015250505050565b5f601f19601f8301169050919050565b5f61019c82610140565b6101a6818561014a565b93506101b681856020860161015a565b6101bf81610182565b840191505092915050565b5f6020820190508181035f8301526101e28184610192565b905092915050565b7f4e487b71000000000000000000000000000000000000000000000000000000005f52602260045260245ffd5b5f600282049050600182168061022e57607f821691505b602082108103610241576102406101ea565b5b5091905056fea26469706673582212203772f3331d115c0455c77a0881fccf7f1ac735cfe8f0fbfc62509303c575fd8664736f6c63430008160033",
			"opcodes": "PUSH1 0x80 PUSH1 0x40 MSTORE CALLVALUE DUP1 ISZERO PUSH2 0xF JUMPI PUSH0 DUP1 REVERT JUMPDEST POP PUSH1 0x40 MLOAD PUSH2 0x75A CODESIZE SUB DUP1 PUSH2 0x75A DUP4 CODECOPY DUP2 DUP2 ADD PUSH1 0x40 MSTORE DUP2 ADD SWAP1 PUSH2 0x31 SWAP2 SWAP1 PUSH2 0x1AD JUMP JUMPDEST DUP1 PUSH0 SWAP1 DUP2 PUSH2 0x3F SWAP2 SWAP1 PUSH2 0x401 JUMP JUMPDEST POP POP PUSH2 0x4D0 JUMP JUMPDEST PUSH0 PUSH1 0x40 MLOAD SWAP1 POP SWAP1 JUMP JUMPDEST PUSH0 DUP1 REVERT JUMPDEST PUSH0 DUP1 REVERT JUMPDEST PUSH0 DUP1 REVERT JUMPDEST PUSH0 DUP1 REVERT JUMPDEST PUSH0 PUSH1 0x1F NOT PUSH1 0x1F DUP4 ADD AND SWAP1 POP SWAP2 SWAP1 POP JUMP JUMPDEST PUSH32 0x4E487B7100000000000000000000000000000000000000000000000000000000 PUSH0 MSTORE PUSH1 0x41 PUSH1 0x4 MSTORE PUSH1 0x24 PUSH0 REVERT JUMPDEST PUSH2 0xA5 DUP3 PUSH2 0x5F JUMP JUMPDEST DUP2 ADD DUP2 DUP2 LT PUSH8 0xFFFFFFFFFFFFFFFF DUP3 GT OR ISZERO PUSH2 0xC4 JUMPI PUSH2 0xC3 PUSH2 0x6F JUMP JUMPDEST JUMPDEST DUP1 PUSH1 0x40 MSTORE POP POP POP JUMP JUMPDEST PUSH0 PUSH2 0xD6 PUSH2 0x46 JUMP JUMPDEST SWAP1 POP PUSH2 0xE2 DUP3 DUP3 PUSH2 0x9C JUMP JUMPDEST SWAP2 SWAP1 POP JUMP JUMPDEST PUSH0 PUSH8 0xFFFFFFFFFFFFFFFF DUP3 GT ISZERO PUSH2 0x101 JUMPI PUSH2 0x100 PUSH2 0x6F JUMP JUMPDEST JUMPDEST PUSH2 0x10A DUP3 PUSH2 0x5F JUMP JUMPDEST SWAP1 POP PUSH1 0x20 DUP2 ADD SWAP1 POP SWAP2 SWAP1 POP JUMP JUMPDEST PUSH0 JUMPDEST DUP4 DUP2 LT ISZERO PUSH2 0x134 JUMPI DUP1 DUP3 ADD MLOAD DUP2 DUP5 ADD MSTORE PUSH1 0x20 DUP2 ADD SWAP1 POP PUSH2 0x119 JUMP JUMPDEST PUSH0 DUP5 DUP5 ADD MSTORE POP POP POP POP JUMP JUMPDEST PUSH0 PUSH2 0x151 PUSH2 0x14C DUP5 PUSH2 0xE7 JUMP JUMPDEST PUSH2 0xCD JUMP JUMPDEST SWAP1 POP DUP3 DUP2 MSTORE PUSH1 0x20 DUP2 ADD DUP5 DUP5 DUP5 ADD GT ISZERO PUSH2 0x16D JUMPI PUSH2 0x16C PUSH2 0x5B JUMP JUMPDEST JUMPDEST PUSH2 0x178 DUP5 DUP3 DUP6 PUSH2 0x117 JUMP JUMPDEST POP SWAP4 SWAP3 POP POP POP JUMP JUMPDEST PUSH0 DUP3 PUSH1 0x1F DUP4 ADD SLT PUSH2 0x194 JUMPI PUSH2 0x193 PUSH2 0x57 JUMP JUMPDEST JUMPDEST DUP2 MLOAD PUSH2 0x1A4 DUP5 DUP3 PUSH1 0x20 DUP7 ADD PUSH2 0x13F JUMP JUMPDEST SWAP2 POP POP SWAP3 SWAP2 POP POP JUMP JUMPDEST PUSH0 PUSH1 0x20 DUP3 DUP5 SUB SLT ISZERO PUSH2 0x1C2 JUMPI PUSH2 0x1C1 PUSH2 0x4F JUMP JUMPDEST JUMPDEST PUSH0 DUP3 ADD MLOAD PUSH8 0xFFFFFFFFFFFFFFFF DUP2 GT ISZERO PUSH2 0x1DF JUMPI PUSH2 0x1DE PUSH2 0x53 JUMP JUMPDEST JUMPDEST PUSH2 0x1EB DUP5 DUP3 DUP6 ADD PUSH2 0x180 JUMP JUMPDEST SWAP2 POP POP SWAP3 SWAP2 POP POP JUMP JUMPDEST PUSH0 DUP2 MLOAD SWAP1 POP SWAP2 SWAP1 POP JUMP JUMPDEST PUSH32 0x4E487B7100000000000000000000000000000000000000000000000000000000 PUSH0 MSTORE PUSH1 0x22 PUSH1 0x4 MSTORE PUSH1 0x24 PUSH0 REVERT JUMPDEST PUSH0 PUSH1 0x2 DUP3 DIV SWAP1 POP PUSH1 0x1 DUP3 AND DUP1 PUSH2 0x242 JUMPI PUSH1 0x7F DUP3 AND SWAP2 POP JUMPDEST PUSH1 0x20 DUP3 LT DUP2 SUB PUSH2 0x255 JUMPI PUSH2 0x254 PUSH2 0x1FE JUMP JUMPDEST JUMPDEST POP SWAP2 SWAP1 POP JUMP JUMPDEST PUSH0 DUP2 SWAP1 POP DUP2 PUSH0 MSTORE PUSH1 0x20 PUSH0 KECCAK256 SWAP1 POP SWAP2 SWAP1 POP JUMP JUMPDEST PUSH0 PUSH1 0x20 PUSH1 0x1F DUP4 ADD DIV SWAP1 POP SWAP2 SWAP1 POP JUMP JUMPDEST PUSH0 DUP3 DUP3 SHL SWAP1 POP SWAP3 SWAP2 POP POP JUMP JUMPDEST PUSH0 PUSH1 0x8 DUP4 MUL PUSH2 0x2B7 PUSH32 0xFFFFFFFFFFFFFFFFFFFFFFFFFFFFFFFFFFFFFFFFFFFFFFFFFFFFFFFFFFFFFFFF DUP3 PUSH2 0x27C JUMP JUMPDEST PUSH2 0x2C1 DUP7 DUP4 PUSH2 0x27C JUMP JUMPDEST SWAP6 POP DUP1 NOT DUP5 AND SWAP4 POP DUP1 DUP7 AND DUP5 OR SWAP3 POP POP POP SWAP4 SWAP3 POP POP POP JUMP JUMPDEST PUSH0 DUP2 SWAP1 POP SWAP2 SWAP1 POP JUMP JUMPDEST PUSH0 DUP2 SWAP1 POP SWAP2 SWAP1 POP JUMP JUMPDEST PUSH0 PUSH2 0x305 PUSH2 0x300 PUSH2 0x2FB DUP5 PUSH2 0x2D9 JUMP JUMPDEST PUSH2 0x2E2 JUMP JUMPDEST PUSH2 0x2D9 JUMP JUMPDEST SWAP1 POP SWAP2 SWAP1 POP JUMP JUMPDEST PUSH0 DUP2 SWAP1 POP SWAP2 SWAP1 POP JUMP JUMPDEST PUSH2 0x31E DUP4 PUSH2 0x2EB JUMP JUMPDEST PUSH2 0x332 PUSH2 0x32A DUP3 PUSH2 0x30C JUMP JUMPDEST DUP5 DUP5 SLOAD PUSH2 0x288 JUMP JUMPDEST DUP3 SSTORE POP POP POP POP JUMP JUMPDEST PUSH0 SWAP1 JUMP JUMPDEST PUSH2 0x346 PUSH2 0x33A JUMP JUMPDEST PUSH2 0x351 DUP2 DUP5 DUP5 PUSH2 0x315 JUMP JUMPDEST POP POP POP JUMP JUMPDEST JUMPDEST DUP2 DUP2 LT ISZERO PUSH2 0x374 JUMPI PUSH2 0x369 PUSH0 DUP3 PUSH2 0x33E JUMP JUMPDEST PUSH1 0x1 DUP2 ADD SWAP1 POP PUSH2 0x357 JUMP JUMPDEST POP POP JUMP JUMPDEST PUSH1 0x1F DUP3 GT ISZERO PUSH2 0x3B9 JUMPI PUSH2 0x38A DUP2 PUSH2 0x25B JUMP JUMPDEST PUSH2 0x393 DUP5 PUSH2 0x26D JUMP JUMPDEST DUP2 ADD PUSH1 0x20 DUP6 LT ISZERO PUSH2 0x3A2 JUMPI DUP2 SWAP1 POP JUMPDEST PUSH2 0x3B6 PUSH2 0x3AE DUP6 PUSH2 0x26D JUMP JUMPDEST DUP4 ADD DUP3 PUSH2 0x356 JUMP JUMPDEST POP POP JUMPDEST POP POP POP JUMP JUMPDEST PUSH0 DUP3 DUP3 SHR SWAP1 POP SWAP3 SWAP2 POP POP JUMP JUMPDEST PUSH0 PUSH2 0x3D9 PUSH0 NOT DUP5 PUSH1 0x8 MUL PUSH2 0x3BE JUMP JUMPDEST NOT DUP1 DUP4 AND SWAP2 POP POP SWAP3 SWAP2 POP POP JUMP JUMPDEST PUSH0 PUSH2 0x3F1 DUP4 DUP4 PUSH2 0x3CA JUMP JUMPDEST SWAP2 POP DUP3 PUSH1 0x2 MUL DUP3 OR SWAP1 POP SWAP3 SWAP2 POP POP JUMP JUMPDEST PUSH2 0x40A DUP3 PUSH2 0x1F4 JUMP JUMPDEST PUSH8 0xFFFFFFFFFFFFFFFF DUP2 GT ISZERO PUSH2 0x423 JUMPI PUSH2 0x422 PUSH2 0x6F JUMP JUMPDEST JUMPDEST PUSH2 0x42D DUP3 SLOAD PUSH2 0x22B JUMP JUMPDEST PUSH2 0x438 DUP3 DUP3 DUP6 PUSH2 0x378 JUMP JUMPDEST PUSH0 PUSH1 0x20 SWAP1 POP PUSH1 0x1F DUP4 GT PUSH1 0x1 DUP2 EQ PUSH2 0x469 JUMPI PUSH0 DUP5 ISZERO PUSH2 0x457 JUMPI DUP3 DUP8 ADD MLOAD SWAP1 POP JUMPDEST PUSH2 0x461 DUP6 DUP3 PUSH2 0x3E6 JUMP JUMPDEST DUP7 SSTORE POP PUSH2 0x4C8 JUMP JUMPDEST PUSH1 0x1F NOT DUP5 AND PUSH2 0x477 DUP7 PUSH2 0x25B JUMP JUMPDEST PUSH0 JUMPDEST DUP3 DUP2 LT ISZERO PUSH2 0x49E JUMPI DUP5 DUP10 ADD MLOAD DUP3 SSTORE PUSH1 0x1 DUP3 ADD SWAP2 POP PUSH1 0x20 DUP6 ADD SWAP5 POP PUSH1 0x20 DUP2 ADD SWAP1 POP PUSH2 0x479 JUMP JUMPDEST DUP7 DUP4 LT ISZERO PUSH2 0x4BB JUMPI DUP5 DUP10 ADD MLOAD PUSH2 0x4B7 PUSH1 0x1F DUP10 AND DUP3 PUSH2 0x3CA JUMP JUMPDEST DUP4 SSTORE POP JUMPDEST PUSH1 0x1 PUSH1 0x2 DUP9 MUL ADD DUP9 SSTORE POP POP POP JUMPDEST POP POP POP POP POP POP JUMP JUMPDEST PUSH2 0x27D DUP1 PUSH2 0x4DD PUSH0 CODECOPY PUSH0 RETURN INVALID PUSH1 0x80 PUSH1 0x40 MSTORE CALLVALUE DUP1 ISZERO PUSH2 0xF JUMPI PUSH0 DUP1 REVERT JUMPDEST POP PUSH1 0x4 CALLDATASIZE LT PUSH2 0x34 JUMPI PUSH0 CALLDATALOAD PUSH1 0xE0 SHR DUP1 PUSH4 0x19FF1D21 EQ PUSH2 0x38 JUMPI DUP1 PUSH4 0x665871BF EQ PUSH2 0x56 JUMPI JUMPDEST PUSH0 DUP1 REVERT JUMPDEST PUSH2 0x40 PUSH2 0x74 JUMP JUMPDEST PUSH1 0x40 MLOAD PUSH2 0x4D SWAP2 SWAP1 PUSH2 0x1CA JUMP JUMPDEST PUSH1 0x40 MLOAD DUP1 SWAP2 SUB SWAP1 RETURN JUMPDEST PUSH2 0x5E PUSH2 0x103 JUMP JUMPDEST PUSH1 0x40 MLOAD PUSH2 0x6B SWAP2 SWAP1 PUSH2 0x1CA JUMP JUMPDEST PUSH1 0x40 MLOAD DUP1 SWAP2 SUB SWAP1 RETURN JUMPDEST PUSH1 0x60 PUSH0 DUP1 SLOAD PUSH2 0x82 SWAP1 PUSH2 0x217 JUMP JUMPDEST DUP1 PUSH1 0x1F ADD PUSH1 0x20 DUP1 SWAP2 DIV MUL PUSH1 0x20 ADD PUSH1 0x40 MLOAD SWAP1 DUP2 ADD PUSH1 0x40 MSTORE DUP1 SWAP3 SWAP2 SWAP1 DUP2 DUP2 MSTORE PUSH1 0x20 ADD DUP3 DUP1 SLOAD PUSH2 0xAE SWAP1 PUSH2 0x217 JUMP JUMPDEST DUP1 ISZERO PUSH2 0xF9 JUMPI DUP1 PUSH1 0x1F LT PUSH2 0xD0 JUMPI PUSH2 0x100 DUP1 DUP4 SLOAD DIV MUL DUP4 MSTORE SWAP2 PUSH1 0x20 ADD SWAP2 PUSH2 0xF9 JUMP JUMPDEST DUP3 ADD SWAP2 SWAP1 PUSH0 MSTORE PUSH1 0x20 PUSH0 KECCAK256 SWAP1 JUMPDEST DUP2 SLOAD DUP2 MSTORE SWAP1 PUSH1 0x1 ADD SWAP1 PUSH1 0x20 ADD DUP1 DUP4 GT PUSH2 0xDC JUMPI DUP3 SWAP1 SUB PUSH1 0x1F AND DUP3 ADD SWAP2 JUMPDEST POP POP POP POP POP SWAP1 POP SWAP1 JUMP JUMPDEST PUSH1 0x60 PUSH1 0x40 MLOAD DUP1 PUSH1 0x40 ADD PUSH1 0x40 MSTORE DUP1 PUSH1 0xB DUP2 MSTORE PUSH1 0x20 ADD PUSH32 0x68656C6C6F20776F726C64000000000000000000000000000000000000000000 DUP2 MSTORE POP SWAP1 POP SWAP1 JUMP JUMPDEST PUSH0 DUP2 MLOAD SWAP1 POP SWAP2 SWAP1 POP JUMP JUMPDEST PUSH0 DUP3 DUP3 MSTORE PUSH1 0x20 DUP3 ADD SWAP1 POP SWAP3 SWAP2 POP POP JUMP JUMPDEST PUSH0 JUMPDEST DUP4 DUP2 LT ISZERO PUSH2 0x177 JUMPI DUP1 DUP3 ADD MLOAD DUP2 DUP5 ADD MSTORE PUSH1 0x20 DUP2 ADD SWAP1 POP PUSH2 0x15C JUMP JUMPDEST PUSH0 DUP5 DUP5 ADD MSTORE POP POP POP POP JUMP JUMPDEST PUSH0 PUSH1 0x1F NOT PUSH1 0x1F DUP4 ADD AND SWAP1 POP SWAP2 SWAP1 POP JUMP JUMPDEST PUSH0 PUSH2 0x19C DUP3 PUSH2 0x140 JUMP JUMPDEST PUSH2 0x1A6 DUP2 DUP6 PUSH2 0x14A JUMP JUMPDEST SWAP4 POP PUSH2 0x1B6 DUP2 DUP6 PUSH1 0x20 DUP7 ADD PUSH2 0x15A JUMP JUMPDEST PUSH2 0x1BF DUP2 PUSH2 0x182 JUMP JUMPDEST DUP5 ADD SWAP2 POP POP SWAP3 SWAP2 POP POP JUMP JUMPDEST PUSH0 PUSH1 0x20 DUP3 ADD SWAP1 POP DUP2 DUP2 SUB PUSH0 DUP4 ADD MSTORE PUSH2 0x1E2 DUP2 DUP5 PUSH2 0x192 JUMP JUMPDEST SWAP1 POP SWAP3 SWAP2 POP POP JUMP JUMPDEST PUSH32 0x4E487B7100000000000000000000000000000000000000000000000000000000 PUSH0 MSTORE PUSH1 0x22 PUSH1 0x4 MSTORE PUSH1 0x24 PUSH0 REVERT JUMPDEST PUSH0 PUSH1 0x2 DUP3 DIV SWAP1 POP PUSH1 0x1 DUP3 AND DUP1 PUSH2 0x22E JUMPI PUSH1 0x7F DUP3 AND SWAP2 POP JUMPDEST PUSH1 0x20 DUP3 LT DUP2 SUB PUSH2 0x241 JUMPI PUSH2 0x240 PUSH2 0x1EA JUMP JUMPDEST JUMPDEST POP SWAP2 SWAP1 POP JUMP INVALID LOG2 PUSH5 0x6970667358 0x22 SLT KECCAK256 CALLDATACOPY PUSH19 0xF3331D115C0455C77A0881FCCF7F1AC735CFE8 CREATE 0xFB 0xFC PUSH3 0x509303 0xC5 PUSH22 0xFD8664736F6C63430008160033000000000000000000 "
		},
		"gasEstimates": {
			"creation": {
				"codeDepositCost": "127400",
				"executionCost": "infinite",
				"totalCost": "infinite"
			},
			"external": {
				"hello()": "infinite",
				"helloasic()": "infinite"
			}
		},
		"methodIdentifiers": {
			"hello()": "19ff1d21",
			"helloasic()": "665871bf"
		}
	},
	"abi": [
		{
			"inputs": [
				{
					"internalType": "string",
					"name": "_message",
					"type": "string"
				}
			],
			"stateMutability": "nonpayable",
			"type": "constructor"
		},
		{
			"inputs": [],
			"name": "hello",
			"outputs": [
				{
					"internalType": "string",
					"name": "",
					"type": "string"
				}
			],
			"stateMutability": "view",
			"type": "function"
		},
		{
			"inputs": [],
			"name": "helloasic",
			"outputs": [
				{
					"internalType": "string",
					"name": "",
					"type": "string"
				}
			],
			"stateMutability": "pure",
			"type": "function"
		}
	]
}