{
	"constructors/ErrorHandling.sol": {
		"Test": {
			"abi": [
				{
					"inputs": [],
					"stateMutability": "nonpayable",
					"type": "constructor"
				},
				{
					"inputs": [
						{
							"internalType": "uint256",
							"name": "_toAdd",
							"type": "uint256"
						}
					],
					"name": "addBalance",
					"outputs": [
						{
							"internalType": "uint256",
							"name": "",
							"type": "uint256"
						}
					],
					"stateMutability": "nonpayable",
					"type": "function"
				},
				{
					"inputs": [],
					"name": "getBalance",
					"outputs": [
						{
							"internalType": "uint256",
							"name": "",
							"type": "uint256"
						}
					],
					"stateMutability": "view",
					"type": "function"
				},
				{
					"inputs": [
						{
							"internalType": "address",
							"name": "reciever",
							"type": "address"
						},
						{
							"internalType": "uint256",
							"name": "amount",
							"type": "uint256"
						}
					],
					"name": "transfer",
					"outputs": [],
					"stateMutability": "nonpayable",
					"type": "function"
				}
			],
			"devdoc": {
				"kind": "dev",
				"methods": {},
				"version": 1
			},
			"evm": {
				"assembly": "    /* \"constructors/ErrorHandling.sol\":57:1127  contract Test {... */\n  mstore(0x40, 0x80)\n    /* \"constructors/ErrorHandling.sol\":135:183  constructor(){... */\n  callvalue\n  dup1\n  iszero\n  tag_1\n  jumpi\n  0x00\n  dup1\n  revert\ntag_1:\n  pop\n    /* \"constructors/ErrorHandling.sol\":166:176  msg.sender */\n  caller\n    /* \"constructors/ErrorHandling.sol\":158:163  owner */\n  0x01\n  0x00\n    /* \"constructors/ErrorHandling.sol\":158:176  owner = msg.sender */\n  0x0100\n  exp\n  dup2\n  sload\n  dup2\n  0xffffffffffffffffffffffffffffffffffffffff\n  mul\n  not\n  and\n  swap1\n  dup4\n  0xffffffffffffffffffffffffffffffffffffffff\n  and\n  mul\n  or\n  swap1\n  sstore\n  pop\n    /* \"constructors/ErrorHandling.sol\":57:1127  contract Test {... */\n  dataSize(sub_0)\n  dup1\n  dataOffset(sub_0)\n  0x00\n  codecopy\n  0x00\n  return\nstop\n\nsub_0: assembly {\n        /* \"constructors/ErrorHandling.sol\":57:1127  contract Test {... */\n      mstore(0x40, 0x80)\n      callvalue\n      dup1\n      iszero\n      tag_1\n      jumpi\n      0x00\n      dup1\n      revert\n    tag_1:\n      pop\n      jumpi(tag_2, lt(calldatasize, 0x04))\n      shr(0xe0, calldataload(0x00))\n      dup1\n      0x12065fe0\n      eq\n      tag_3\n      jumpi\n      dup1\n      0xa9059cbb\n      eq\n      tag_4\n      jumpi\n      dup1\n      0xd91921ed\n      eq\n      tag_5\n      jumpi\n    tag_2:\n      0x00\n      dup1\n      revert\n        /* \"constructors/ErrorHandling.sol\":371:463  function getBalance() public view returns (uint) {... */\n    tag_3:\n      tag_6\n      tag_7\n      jump\t// in\n    tag_6:\n      mload(0x40)\n      tag_8\n      swap2\n      swap1\n      tag_9\n      jump\t// in\n    tag_8:\n      mload(0x40)\n      dup1\n      swap2\n      sub\n      swap1\n      return\n        /* \"constructors/ErrorHandling.sol\":469:977  function transfer(address reciever, uint amount) public {... */\n    tag_4:\n      tag_10\n      0x04\n      dup1\n      calldatasize\n      sub\n      dup2\n      add\n      swap1\n      tag_11\n      swap2\n      swap1\n      tag_12\n      jump\t// in\n    tag_11:\n      tag_13\n      jump\t// in\n    tag_10:\n      stop\n        /* \"constructors/ErrorHandling.sol\":189:365  function addBalance(uint _toAdd) public returns (uint) {... */\n    tag_5:\n      tag_14\n      0x04\n      dup1\n      calldatasize\n      sub\n      dup2\n      add\n      swap1\n      tag_15\n      swap2\n      swap1\n      tag_16\n      jump\t// in\n    tag_15:\n      tag_17\n      jump\t// in\n    tag_14:\n      mload(0x40)\n      tag_18\n      swap2\n      swap1\n      tag_9\n      jump\t// in\n    tag_18:\n      mload(0x40)\n      dup1\n      swap2\n      sub\n      swap1\n      return\n        /* \"constructors/ErrorHandling.sol\":371:463  function getBalance() public view returns (uint) {... */\n    tag_7:\n        /* \"constructors/ErrorHandling.sol\":414:418  uint */\n      0x00\n        /* \"constructors/ErrorHandling.sol\":437:444  balance */\n      dup1\n        /* \"constructors/ErrorHandling.sol\":437:456  balance[msg.sender] */\n      0x00\n        /* \"constructors/ErrorHandling.sol\":445:455  msg.sender */\n      caller\n        /* \"constructors/ErrorHandling.sol\":437:456  balance[msg.sender] */\n      0xffffffffffffffffffffffffffffffffffffffff\n      and\n      0xffffffffffffffffffffffffffffffffffffffff\n      and\n      dup2\n      mstore\n      0x20\n      add\n      swap1\n      dup2\n      mstore\n      0x20\n      add\n      0x00\n      keccak256\n      sload\n        /* \"constructors/ErrorHandling.sol\":430:456  return balance[msg.sender] */\n      swap1\n      pop\n        /* \"constructors/ErrorHandling.sol\":371:463  function getBalance() public view returns (uint) {... */\n      swap1\n      jump\t// out\n        /* \"constructors/ErrorHandling.sol\":469:977  function transfer(address reciever, uint amount) public {... */\n    tag_13:\n        /* \"constructors/ErrorHandling.sol\":649:655  amount */\n      dup1\n        /* \"constructors/ErrorHandling.sol\":626:633  balance */\n      0x00\n        /* \"constructors/ErrorHandling.sol\":626:645  balance[msg.sender] */\n      dup1\n        /* \"constructors/ErrorHandling.sol\":634:644  msg.sender */\n      caller\n        /* \"constructors/ErrorHandling.sol\":626:645  balance[msg.sender] */\n      0xffffffffffffffffffffffffffffffffffffffff\n      and\n      0xffffffffffffffffffffffffffffffffffffffff\n      and\n      dup2\n      mstore\n      0x20\n      add\n      swap1\n      dup2\n      mstore\n      0x20\n      add\n      0x00\n      keccak256\n      sload\n        /* \"constructors/ErrorHandling.sol\":626:655  balance[msg.sender] >= amount */\n      lt\n      iszero\n        /* \"constructors/ErrorHandling.sol\":618:682  require(balance[msg.sender] >= amount, \"Balance not sufficient\") */\n      tag_21\n      jumpi\n      mload(0x40)\n      0x08c379a000000000000000000000000000000000000000000000000000000000\n      dup2\n      mstore\n      0x04\n      add\n      tag_22\n      swap1\n      tag_23\n      jump\t// in\n    tag_22:\n      mload(0x40)\n      dup1\n      swap2\n      sub\n      swap1\n      revert\n    tag_21:\n        /* \"constructors/ErrorHandling.sol\":714:722  reciever */\n      dup2\n        /* \"constructors/ErrorHandling.sol\":700:722  msg.sender != reciever */\n      0xffffffffffffffffffffffffffffffffffffffff\n      and\n        /* \"constructors/ErrorHandling.sol\":700:710  msg.sender */\n      caller\n        /* \"constructors/ErrorHandling.sol\":700:722  msg.sender != reciever */\n      0xffffffffffffffffffffffffffffffffffffffff\n      and\n      sub\n        /* \"constructors/ErrorHandling.sol\":692:759  require(msg.sender != reciever, \"Don't transfer money to yourself\") */\n      tag_24\n      jumpi\n      mload(0x40)\n      0x08c379a000000000000000000000000000000000000000000000000000000000\n      dup2\n      mstore\n      0x04\n      add\n      tag_25\n      swap1\n      tag_26\n      jump\t// in\n    tag_25:\n      mload(0x40)\n      dup1\n      swap2\n      sub\n      swap1\n      revert\n    tag_24:\n        /* \"constructors/ErrorHandling.sol\":770:796  uint previousSenderBalance */\n      0x00\n        /* \"constructors/ErrorHandling.sol\":799:806  balance */\n      dup1\n        /* \"constructors/ErrorHandling.sol\":799:818  balance[msg.sender] */\n      0x00\n        /* \"constructors/ErrorHandling.sol\":807:817  msg.sender */\n      caller\n        /* \"constructors/ErrorHandling.sol\":799:818  balance[msg.sender] */\n      0xffffffffffffffffffffffffffffffffffffffff\n      and\n      0xffffffffffffffffffffffffffffffffffffffff\n      and\n      dup2\n      mstore\n      0x20\n      add\n      swap1\n      dup2\n      mstore\n      0x20\n      add\n      0x00\n      keccak256\n      sload\n        /* \"constructors/ErrorHandling.sol\":770:818  uint previousSenderBalance = balance[msg.sender] */\n      swap1\n      pop\n        /* \"constructors/ErrorHandling.sol\":829:868  _transfer(msg.sender, reciever, amount) */\n      tag_27\n        /* \"constructors/ErrorHandling.sol\":839:849  msg.sender */\n      caller\n        /* \"constructors/ErrorHandling.sol\":851:859  reciever */\n      dup5\n        /* \"constructors/ErrorHandling.sol\":861:867  amount */\n      dup5\n        /* \"constructors/ErrorHandling.sol\":829:838  _transfer */\n      tag_28\n        /* \"constructors/ErrorHandling.sol\":829:868  _transfer(msg.sender, reciever, amount) */\n      jump\t// in\n    tag_27:\n        /* \"constructors/ErrorHandling.sol\":933:939  amount */\n      dup2\n        /* \"constructors/ErrorHandling.sol\":909:930  previousSenderBalance */\n      dup2\n        /* \"constructors/ErrorHandling.sol\":909:939  previousSenderBalance - amount */\n      tag_29\n      swap2\n      swap1\n      tag_30\n      jump\t// in\n    tag_29:\n        /* \"constructors/ErrorHandling.sol\":886:893  balance */\n      0x00\n        /* \"constructors/ErrorHandling.sol\":886:905  balance[msg.sender] */\n      dup1\n        /* \"constructors/ErrorHandling.sol\":894:904  msg.sender */\n      caller\n        /* \"constructors/ErrorHandling.sol\":886:905  balance[msg.sender] */\n      0xffffffffffffffffffffffffffffffffffffffff\n      and\n      0xffffffffffffffffffffffffffffffffffffffff\n      and\n      dup2\n      mstore\n      0x20\n      add\n      swap1\n      dup2\n      mstore\n      0x20\n      add\n      0x00\n      keccak256\n      sload\n        /* \"constructors/ErrorHandling.sol\":886:939  balance[msg.sender] == previousSenderBalance - amount */\n      eq\n        /* \"constructors/ErrorHandling.sol\":879:940  assert(balance[msg.sender] == previousSenderBalance - amount) */\n      tag_31\n      jumpi\n      tag_32\n      tag_33\n      jump\t// in\n    tag_32:\n    tag_31:\n        /* \"constructors/ErrorHandling.sol\":525:977  {... */\n      pop\n        /* \"constructors/ErrorHandling.sol\":469:977  function transfer(address reciever, uint amount) public {... */\n      pop\n      pop\n      jump\t// out\n        /* \"constructors/ErrorHandling.sol\":189:365  function addBalance(uint _toAdd) public returns (uint) {... */\n    tag_17:\n        /* \"constructors/ErrorHandling.sol\":238:242  uint */\n      0x00\n        /* \"constructors/ErrorHandling.sol\":276:281  owner */\n      0x01\n      0x00\n      swap1\n      sload\n      swap1\n      0x0100\n      exp\n      swap1\n      div\n      0xffffffffffffffffffffffffffffffffffffffff\n      and\n        /* \"constructors/ErrorHandling.sol\":262:281  msg.sender == owner */\n      0xffffffffffffffffffffffffffffffffffffffff\n      and\n        /* \"constructors/ErrorHandling.sol\":262:272  msg.sender */\n      caller\n        /* \"constructors/ErrorHandling.sol\":262:281  msg.sender == owner */\n      0xffffffffffffffffffffffffffffffffffffffff\n      and\n      eq\n        /* \"constructors/ErrorHandling.sol\":254:282  require(msg.sender == owner) */\n      tag_35\n      jumpi\n      0x00\n      dup1\n      revert\n    tag_35:\n        /* \"constructors/ErrorHandling.sol\":315:321  _toAdd */\n      dup2\n        /* \"constructors/ErrorHandling.sol\":292:299  balance */\n      0x00\n        /* \"constructors/ErrorHandling.sol\":292:311  balance[msg.sender] */\n      dup1\n        /* \"constructors/ErrorHandling.sol\":300:310  msg.sender */\n      caller\n        /* \"constructors/ErrorHandling.sol\":292:311  balance[msg.sender] */\n      0xffffffffffffffffffffffffffffffffffffffff\n      and\n      0xffffffffffffffffffffffffffffffffffffffff\n      and\n      dup2\n      mstore\n      0x20\n      add\n      swap1\n      dup2\n      mstore\n      0x20\n      add\n      0x00\n      keccak256\n      0x00\n        /* \"constructors/ErrorHandling.sol\":292:321  balance[msg.sender] += _toAdd */\n      dup3\n      dup3\n      sload\n      tag_36\n      swap2\n      swap1\n      tag_37\n      jump\t// in\n    tag_36:\n      swap3\n      pop\n      pop\n      dup2\n      swap1\n      sstore\n      pop\n        /* \"constructors/ErrorHandling.sol\":339:346  balance */\n      0x00\n        /* \"constructors/ErrorHandling.sol\":339:358  balance[msg.sender] */\n      dup1\n        /* \"constructors/ErrorHandling.sol\":347:357  msg.sender */\n      caller\n        /* \"constructors/ErrorHandling.sol\":339:358  balance[msg.sender] */\n      0xffffffffffffffffffffffffffffffffffffffff\n      and\n      0xffffffffffffffffffffffffffffffffffffffff\n      and\n      dup2\n      mstore\n      0x20\n      add\n      swap1\n      dup2\n      mstore\n      0x20\n      add\n      0x00\n      keccak256\n      sload\n        /* \"constructors/ErrorHandling.sol\":331:358  return  balance[msg.sender] */\n      swap1\n      pop\n        /* \"constructors/ErrorHandling.sol\":189:365  function addBalance(uint _toAdd) public returns (uint) {... */\n      swap2\n      swap1\n      pop\n      jump\t// out\n        /* \"constructors/ErrorHandling.sol\":983:1120  function _transfer(address from, address to, uint amount) private {... */\n    tag_28:\n        /* \"constructors/ErrorHandling.sol\":1076:1082  amount */\n      dup1\n        /* \"constructors/ErrorHandling.sol\":1059:1066  balance */\n      0x00\n        /* \"constructors/ErrorHandling.sol\":1059:1072  balance[from] */\n      dup1\n        /* \"constructors/ErrorHandling.sol\":1067:1071  from */\n      dup6\n        /* \"constructors/ErrorHandling.sol\":1059:1072  balance[from] */\n      0xffffffffffffffffffffffffffffffffffffffff\n      and\n      0xffffffffffffffffffffffffffffffffffffffff\n      and\n      dup2\n      mstore\n      0x20\n      add\n      swap1\n      dup2\n      mstore\n      0x20\n      add\n      0x00\n      keccak256\n      0x00\n        /* \"constructors/ErrorHandling.sol\":1059:1082  balance[from] -= amount */\n      dup3\n      dup3\n      sload\n      tag_39\n      swap2\n      swap1\n      tag_30\n      jump\t// in\n    tag_39:\n      swap3\n      pop\n      pop\n      dup2\n      swap1\n      sstore\n      pop\n        /* \"constructors/ErrorHandling.sol\":1107:1113  amount */\n      dup1\n        /* \"constructors/ErrorHandling.sol\":1092:1099  balance */\n      0x00\n        /* \"constructors/ErrorHandling.sol\":1092:1103  balance[to] */\n      dup1\n        /* \"constructors/ErrorHandling.sol\":1100:1102  to */\n      dup5\n        /* \"constructors/ErrorHandling.sol\":1092:1103  balance[to] */\n      0xffffffffffffffffffffffffffffffffffffffff\n      and\n      0xffffffffffffffffffffffffffffffffffffffff\n      and\n      dup2\n      mstore\n      0x20\n      add\n      swap1\n      dup2\n      mstore\n      0x20\n      add\n      0x00\n      keccak256\n      0x00\n        /* \"constructors/ErrorHandling.sol\":1092:1113  balance[to] += amount */\n      dup3\n      dup3\n      sload\n      tag_40\n      swap2\n      swap1\n      tag_37\n      jump\t// in\n    tag_40:\n      swap3\n      pop\n      pop\n      dup2\n      swap1\n      sstore\n      pop\n        /* \"constructors/ErrorHandling.sol\":983:1120  function _transfer(address from, address to, uint amount) private {... */\n      pop\n      pop\n      pop\n      jump\t// out\n        /* \"#utility.yul\":7:84   */\n    tag_41:\n        /* \"#utility.yul\":44:51   */\n      0x00\n        /* \"#utility.yul\":73:78   */\n      dup2\n        /* \"#utility.yul\":62:78   */\n      swap1\n      pop\n        /* \"#utility.yul\":7:84   */\n      swap2\n      swap1\n      pop\n      jump\t// out\n        /* \"#utility.yul\":90:208   */\n    tag_42:\n        /* \"#utility.yul\":177:201   */\n      tag_61\n        /* \"#utility.yul\":195:200   */\n      dup2\n        /* \"#utility.yul\":177:201   */\n      tag_41\n      jump\t// in\n    tag_61:\n        /* \"#utility.yul\":172:175   */\n      dup3\n        /* \"#utility.yul\":165:202   */\n      mstore\n        /* \"#utility.yul\":90:208   */\n      pop\n      pop\n      jump\t// out\n        /* \"#utility.yul\":214:436   */\n    tag_9:\n        /* \"#utility.yul\":307:311   */\n      0x00\n        /* \"#utility.yul\":345:347   */\n      0x20\n        /* \"#utility.yul\":334:343   */\n      dup3\n        /* \"#utility.yul\":330:348   */\n      add\n        /* \"#utility.yul\":322:348   */\n      swap1\n      pop\n        /* \"#utility.yul\":358:429   */\n      tag_63\n        /* \"#utility.yul\":426:427   */\n      0x00\n        /* \"#utility.yul\":415:424   */\n      dup4\n        /* \"#utility.yul\":411:428   */\n      add\n        /* \"#utility.yul\":402:408   */\n      dup5\n        /* \"#utility.yul\":358:429   */\n      tag_42\n      jump\t// in\n    tag_63:\n        /* \"#utility.yul\":214:436   */\n      swap3\n      swap2\n      pop\n      pop\n      jump\t// out\n        /* \"#utility.yul\":523:640   */\n    tag_44:\n        /* \"#utility.yul\":632:633   */\n      0x00\n        /* \"#utility.yul\":629:630   */\n      dup1\n        /* \"#utility.yul\":622:634   */\n      revert\n        /* \"#utility.yul\":769:895   */\n    tag_46:\n        /* \"#utility.yul\":806:813   */\n      0x00\n        /* \"#utility.yul\":846:888   */\n      0xffffffffffffffffffffffffffffffffffffffff\n        /* \"#utility.yul\":839:844   */\n      dup3\n        /* \"#utility.yul\":835:889   */\n      and\n        /* \"#utility.yul\":824:889   */\n      swap1\n      pop\n        /* \"#utility.yul\":769:895   */\n      swap2\n      swap1\n      pop\n      jump\t// out\n        /* \"#utility.yul\":901:997   */\n    tag_47:\n        /* \"#utility.yul\":938:945   */\n      0x00\n        /* \"#utility.yul\":967:991   */\n      tag_69\n        /* \"#utility.yul\":985:990   */\n      dup3\n        /* \"#utility.yul\":967:991   */\n      tag_46\n      jump\t// in\n    tag_69:\n        /* \"#utility.yul\":956:991   */\n      swap1\n      pop\n        /* \"#utility.yul\":901:997   */\n      swap2\n      swap1\n      pop\n      jump\t// out\n        /* \"#utility.yul\":1003:1125   */\n    tag_48:\n        /* \"#utility.yul\":1076:1100   */\n      tag_71\n        /* \"#utility.yul\":1094:1099   */\n      dup2\n        /* \"#utility.yul\":1076:1100   */\n      tag_47\n      jump\t// in\n    tag_71:\n        /* \"#utility.yul\":1069:1074   */\n      dup2\n        /* \"#utility.yul\":1066:1101   */\n      eq\n        /* \"#utility.yul\":1056:1119   */\n      tag_72\n      jumpi\n        /* \"#utility.yul\":1115:1116   */\n      0x00\n        /* \"#utility.yul\":1112:1113   */\n      dup1\n        /* \"#utility.yul\":1105:1117   */\n      revert\n        /* \"#utility.yul\":1056:1119   */\n    tag_72:\n        /* \"#utility.yul\":1003:1125   */\n      pop\n      jump\t// out\n        /* \"#utility.yul\":1131:1270   */\n    tag_49:\n        /* \"#utility.yul\":1177:1182   */\n      0x00\n        /* \"#utility.yul\":1215:1221   */\n      dup2\n        /* \"#utility.yul\":1202:1222   */\n      calldataload\n        /* \"#utility.yul\":1193:1222   */\n      swap1\n      pop\n        /* \"#utility.yul\":1231:1264   */\n      tag_74\n        /* \"#utility.yul\":1258:1263   */\n      dup2\n        /* \"#utility.yul\":1231:1264   */\n      tag_48\n      jump\t// in\n    tag_74:\n        /* \"#utility.yul\":1131:1270   */\n      swap3\n      swap2\n      pop\n      pop\n      jump\t// out\n        /* \"#utility.yul\":1276:1398   */\n    tag_50:\n        /* \"#utility.yul\":1349:1373   */\n      tag_76\n        /* \"#utility.yul\":1367:1372   */\n      dup2\n        /* \"#utility.yul\":1349:1373   */\n      tag_41\n      jump\t// in\n    tag_76:\n        /* \"#utility.yul\":1342:1347   */\n      dup2\n        /* \"#utility.yul\":1339:1374   */\n      eq\n        /* \"#utility.yul\":1329:1392   */\n      tag_77\n      jumpi\n        /* \"#utility.yul\":1388:1389   */\n      0x00\n        /* \"#utility.yul\":1385:1386   */\n      dup1\n        /* \"#utility.yul\":1378:1390   */\n      revert\n        /* \"#utility.yul\":1329:1392   */\n    tag_77:\n        /* \"#utility.yul\":1276:1398   */\n      pop\n      jump\t// out\n        /* \"#utility.yul\":1404:1543   */\n    tag_51:\n        /* \"#utility.yul\":1450:1455   */\n      0x00\n        /* \"#utility.yul\":1488:1494   */\n      dup2\n        /* \"#utility.yul\":1475:1495   */\n      calldataload\n        /* \"#utility.yul\":1466:1495   */\n      swap1\n      pop\n        /* \"#utility.yul\":1504:1537   */\n      tag_79\n        /* \"#utility.yul\":1531:1536   */\n      dup2\n        /* \"#utility.yul\":1504:1537   */\n      tag_50\n      jump\t// in\n    tag_79:\n        /* \"#utility.yul\":1404:1543   */\n      swap3\n      swap2\n      pop\n      pop\n      jump\t// out\n        /* \"#utility.yul\":1549:2023   */\n    tag_12:\n        /* \"#utility.yul\":1617:1623   */\n      0x00\n        /* \"#utility.yul\":1625:1631   */\n      dup1\n        /* \"#utility.yul\":1674:1676   */\n      0x40\n        /* \"#utility.yul\":1662:1671   */\n      dup4\n        /* \"#utility.yul\":1653:1660   */\n      dup6\n        /* \"#utility.yul\":1649:1672   */\n      sub\n        /* \"#utility.yul\":1645:1677   */\n      slt\n        /* \"#utility.yul\":1642:1761   */\n      iszero\n      tag_81\n      jumpi\n        /* \"#utility.yul\":1680:1759   */\n      tag_82\n      tag_44\n      jump\t// in\n    tag_82:\n        /* \"#utility.yul\":1642:1761   */\n    tag_81:\n        /* \"#utility.yul\":1800:1801   */\n      0x00\n        /* \"#utility.yul\":1825:1878   */\n      tag_83\n        /* \"#utility.yul\":1870:1877   */\n      dup6\n        /* \"#utility.yul\":1861:1867   */\n      dup3\n        /* \"#utility.yul\":1850:1859   */\n      dup7\n        /* \"#utility.yul\":1846:1868   */\n      add\n        /* \"#utility.yul\":1825:1878   */\n      tag_49\n      jump\t// in\n    tag_83:\n        /* \"#utility.yul\":1815:1878   */\n      swap3\n      pop\n        /* \"#utility.yul\":1771:1888   */\n      pop\n        /* \"#utility.yul\":1927:1929   */\n      0x20\n        /* \"#utility.yul\":1953:2006   */\n      tag_84\n        /* \"#utility.yul\":1998:2005   */\n      dup6\n        /* \"#utility.yul\":1989:1995   */\n      dup3\n        /* \"#utility.yul\":1978:1987   */\n      dup7\n        /* \"#utility.yul\":1974:1996   */\n      add\n        /* \"#utility.yul\":1953:2006   */\n      tag_51\n      jump\t// in\n    tag_84:\n        /* \"#utility.yul\":1943:2006   */\n      swap2\n      pop\n        /* \"#utility.yul\":1898:2016   */\n      pop\n        /* \"#utility.yul\":1549:2023   */\n      swap3\n      pop\n      swap3\n      swap1\n      pop\n      jump\t// out\n        /* \"#utility.yul\":2029:2358   */\n    tag_16:\n        /* \"#utility.yul\":2088:2094   */\n      0x00\n        /* \"#utility.yul\":2137:2139   */\n      0x20\n        /* \"#utility.yul\":2125:2134   */\n      dup3\n        /* \"#utility.yul\":2116:2123   */\n      dup5\n        /* \"#utility.yul\":2112:2135   */\n      sub\n        /* \"#utility.yul\":2108:2140   */\n      slt\n        /* \"#utility.yul\":2105:2224   */\n      iszero\n      tag_86\n      jumpi\n        /* \"#utility.yul\":2143:2222   */\n      tag_87\n      tag_44\n      jump\t// in\n    tag_87:\n        /* \"#utility.yul\":2105:2224   */\n    tag_86:\n        /* \"#utility.yul\":2263:2264   */\n      0x00\n        /* \"#utility.yul\":2288:2341   */\n      tag_88\n        /* \"#utility.yul\":2333:2340   */\n      dup5\n        /* \"#utility.yul\":2324:2330   */\n      dup3\n        /* \"#utility.yul\":2313:2322   */\n      dup6\n        /* \"#utility.yul\":2309:2331   */\n      add\n        /* \"#utility.yul\":2288:2341   */\n      tag_51\n      jump\t// in\n    tag_88:\n        /* \"#utility.yul\":2278:2341   */\n      swap2\n      pop\n        /* \"#utility.yul\":2234:2351   */\n      pop\n        /* \"#utility.yul\":2029:2358   */\n      swap3\n      swap2\n      pop\n      pop\n      jump\t// out\n        /* \"#utility.yul\":2364:2533   */\n    tag_52:\n        /* \"#utility.yul\":2448:2459   */\n      0x00\n        /* \"#utility.yul\":2482:2488   */\n      dup3\n        /* \"#utility.yul\":2477:2480   */\n      dup3\n        /* \"#utility.yul\":2470:2489   */\n      mstore\n        /* \"#utility.yul\":2522:2526   */\n      0x20\n        /* \"#utility.yul\":2517:2520   */\n      dup3\n        /* \"#utility.yul\":2513:2527   */\n      add\n        /* \"#utility.yul\":2498:2527   */\n      swap1\n      pop\n        /* \"#utility.yul\":2364:2533   */\n      swap3\n      swap2\n      pop\n      pop\n      jump\t// out\n        /* \"#utility.yul\":2539:2711   */\n    tag_53:\n        /* \"#utility.yul\":2679:2703   */\n      0x42616c616e6365206e6f742073756666696369656e7400000000000000000000\n        /* \"#utility.yul\":2675:2676   */\n      0x00\n        /* \"#utility.yul\":2667:2673   */\n      dup3\n        /* \"#utility.yul\":2663:2677   */\n      add\n        /* \"#utility.yul\":2656:2704   */\n      mstore\n        /* \"#utility.yul\":2539:2711   */\n      pop\n      jump\t// out\n        /* \"#utility.yul\":2717:3083   */\n    tag_54:\n        /* \"#utility.yul\":2859:2862   */\n      0x00\n        /* \"#utility.yul\":2880:2947   */\n      tag_92\n        /* \"#utility.yul\":2944:2946   */\n      0x16\n        /* \"#utility.yul\":2939:2942   */\n      dup4\n        /* \"#utility.yul\":2880:2947   */\n      tag_52\n      jump\t// in\n    tag_92:\n        /* \"#utility.yul\":2873:2947   */\n      swap2\n      pop\n        /* \"#utility.yul\":2956:3049   */\n      tag_93\n        /* \"#utility.yul\":3045:3048   */\n      dup3\n        /* \"#utility.yul\":2956:3049   */\n      tag_53\n      jump\t// in\n    tag_93:\n        /* \"#utility.yul\":3074:3076   */\n      0x20\n        /* \"#utility.yul\":3069:3072   */\n      dup3\n        /* \"#utility.yul\":3065:3077   */\n      add\n        /* \"#utility.yul\":3058:3077   */\n      swap1\n      pop\n        /* \"#utility.yul\":2717:3083   */\n      swap2\n      swap1\n      pop\n      jump\t// out\n        /* \"#utility.yul\":3089:3508   */\n    tag_23:\n        /* \"#utility.yul\":3255:3259   */\n      0x00\n        /* \"#utility.yul\":3293:3295   */\n      0x20\n        /* \"#utility.yul\":3282:3291   */\n      dup3\n        /* \"#utility.yul\":3278:3296   */\n      add\n        /* \"#utility.yul\":3270:3296   */\n      swap1\n      pop\n        /* \"#utility.yul\":3342:3351   */\n      dup2\n        /* \"#utility.yul\":3336:3340   */\n      dup2\n        /* \"#utility.yul\":3332:3352   */\n      sub\n        /* \"#utility.yul\":3328:3329   */\n      0x00\n        /* \"#utility.yul\":3317:3326   */\n      dup4\n        /* \"#utility.yul\":3313:3330   */\n      add\n        /* \"#utility.yul\":3306:3353   */\n      mstore\n        /* \"#utility.yul\":3370:3501   */\n      tag_95\n        /* \"#utility.yul\":3496:3500   */\n      dup2\n        /* \"#utility.yul\":3370:3501   */\n      tag_54\n      jump\t// in\n    tag_95:\n        /* \"#utility.yul\":3362:3501   */\n      swap1\n      pop\n        /* \"#utility.yul\":3089:3508   */\n      swap2\n      swap1\n      pop\n      jump\t// out\n        /* \"#utility.yul\":3514:3696   */\n    tag_55:\n        /* \"#utility.yul\":3654:3688   */\n      0x446f6e2774207472616e73666572206d6f6e657920746f20796f757273656c66\n        /* \"#utility.yul\":3650:3651   */\n      0x00\n        /* \"#utility.yul\":3642:3648   */\n      dup3\n        /* \"#utility.yul\":3638:3652   */\n      add\n        /* \"#utility.yul\":3631:3689   */\n      mstore\n        /* \"#utility.yul\":3514:3696   */\n      pop\n      jump\t// out\n        /* \"#utility.yul\":3702:4068   */\n    tag_56:\n        /* \"#utility.yul\":3844:3847   */\n      0x00\n        /* \"#utility.yul\":3865:3932   */\n      tag_98\n        /* \"#utility.yul\":3929:3931   */\n      0x20\n        /* \"#utility.yul\":3924:3927   */\n      dup4\n        /* \"#utility.yul\":3865:3932   */\n      tag_52\n      jump\t// in\n    tag_98:\n        /* \"#utility.yul\":3858:3932   */\n      swap2\n      pop\n        /* \"#utility.yul\":3941:4034   */\n      tag_99\n        /* \"#utility.yul\":4030:4033   */\n      dup3\n        /* \"#utility.yul\":3941:4034   */\n      tag_55\n      jump\t// in\n    tag_99:\n        /* \"#utility.yul\":4059:4061   */\n      0x20\n        /* \"#utility.yul\":4054:4057   */\n      dup3\n        /* \"#utility.yul\":4050:4062   */\n      add\n        /* \"#utility.yul\":4043:4062   */\n      swap1\n      pop\n        /* \"#utility.yul\":3702:4068   */\n      swap2\n      swap1\n      pop\n      jump\t// out\n        /* \"#utility.yul\":4074:4493   */\n    tag_26:\n        /* \"#utility.yul\":4240:4244   */\n      0x00\n        /* \"#utility.yul\":4278:4280   */\n      0x20\n        /* \"#utility.yul\":4267:4276   */\n      dup3\n        /* \"#utility.yul\":4263:4281   */\n      add\n        /* \"#utility.yul\":4255:4281   */\n      swap1\n      pop\n        /* \"#utility.yul\":4327:4336   */\n      dup2\n        /* \"#utility.yul\":4321:4325   */\n      dup2\n        /* \"#utility.yul\":4317:4337   */\n      sub\n        /* \"#utility.yul\":4313:4314   */\n      0x00\n        /* \"#utility.yul\":4302:4311   */\n      dup4\n        /* \"#utility.yul\":4298:4315   */\n      add\n        /* \"#utility.yul\":4291:4338   */\n      mstore\n        /* \"#utility.yul\":4355:4486   */\n      tag_101\n        /* \"#utility.yul\":4481:4485   */\n      dup2\n        /* \"#utility.yul\":4355:4486   */\n      tag_56\n      jump\t// in\n    tag_101:\n        /* \"#utility.yul\":4347:4486   */\n      swap1\n      pop\n        /* \"#utility.yul\":4074:4493   */\n      swap2\n      swap1\n      pop\n      jump\t// out\n        /* \"#utility.yul\":4499:4679   */\n    tag_57:\n        /* \"#utility.yul\":4547:4624   */\n      0x4e487b7100000000000000000000000000000000000000000000000000000000\n        /* \"#utility.yul\":4544:4545   */\n      0x00\n        /* \"#utility.yul\":4537:4625   */\n      mstore\n        /* \"#utility.yul\":4644:4648   */\n      0x11\n        /* \"#utility.yul\":4641:4642   */\n      0x04\n        /* \"#utility.yul\":4634:4649   */\n      mstore\n        /* \"#utility.yul\":4668:4672   */\n      0x24\n        /* \"#utility.yul\":4665:4666   */\n      0x00\n        /* \"#utility.yul\":4658:4673   */\n      revert\n        /* \"#utility.yul\":4685:4879   */\n    tag_30:\n        /* \"#utility.yul\":4725:4729   */\n      0x00\n        /* \"#utility.yul\":4745:4765   */\n      tag_104\n        /* \"#utility.yul\":4763:4764   */\n      dup3\n        /* \"#utility.yul\":4745:4765   */\n      tag_41\n      jump\t// in\n    tag_104:\n        /* \"#utility.yul\":4740:4765   */\n      swap2\n      pop\n        /* \"#utility.yul\":4779:4799   */\n      tag_105\n        /* \"#utility.yul\":4797:4798   */\n      dup4\n        /* \"#utility.yul\":4779:4799   */\n      tag_41\n      jump\t// in\n    tag_105:\n        /* \"#utility.yul\":4774:4799   */\n      swap3\n      pop\n        /* \"#utility.yul\":4823:4824   */\n      dup3\n        /* \"#utility.yul\":4820:4821   */\n      dup3\n        /* \"#utility.yul\":4816:4825   */\n      sub\n        /* \"#utility.yul\":4808:4825   */\n      swap1\n      pop\n        /* \"#utility.yul\":4847:4848   */\n      dup2\n        /* \"#utility.yul\":4841:4845   */\n      dup2\n        /* \"#utility.yul\":4838:4849   */\n      gt\n        /* \"#utility.yul\":4835:4872   */\n      iszero\n      tag_106\n      jumpi\n        /* \"#utility.yul\":4852:4870   */\n      tag_107\n      tag_57\n      jump\t// in\n    tag_107:\n        /* \"#utility.yul\":4835:4872   */\n    tag_106:\n        /* \"#utility.yul\":4685:4879   */\n      swap3\n      swap2\n      pop\n      pop\n      jump\t// out\n        /* \"#utility.yul\":4885:5065   */\n    tag_33:\n        /* \"#utility.yul\":4933:5010   */\n      0x4e487b7100000000000000000000000000000000000000000000000000000000\n        /* \"#utility.yul\":4930:4931   */\n      0x00\n        /* \"#utility.yul\":4923:5011   */\n      mstore\n        /* \"#utility.yul\":5030:5034   */\n      0x01\n        /* \"#utility.yul\":5027:5028   */\n      0x04\n        /* \"#utility.yul\":5020:5035   */\n      mstore\n        /* \"#utility.yul\":5054:5058   */\n      0x24\n        /* \"#utility.yul\":5051:5052   */\n      0x00\n        /* \"#utility.yul\":5044:5059   */\n      revert\n        /* \"#utility.yul\":5071:5262   */\n    tag_37:\n        /* \"#utility.yul\":5111:5114   */\n      0x00\n        /* \"#utility.yul\":5130:5150   */\n      tag_110\n        /* \"#utility.yul\":5148:5149   */\n      dup3\n        /* \"#utility.yul\":5130:5150   */\n      tag_41\n      jump\t// in\n    tag_110:\n        /* \"#utility.yul\":5125:5150   */\n      swap2\n      pop\n        /* \"#utility.yul\":5164:5184   */\n      tag_111\n        /* \"#utility.yul\":5182:5183   */\n      dup4\n        /* \"#utility.yul\":5164:5184   */\n      tag_41\n      jump\t// in\n    tag_111:\n        /* \"#utility.yul\":5159:5184   */\n      swap3\n      pop\n        /* \"#utility.yul\":5207:5208   */\n      dup3\n        /* \"#utility.yul\":5204:5205   */\n      dup3\n        /* \"#utility.yul\":5200:5209   */\n      add\n        /* \"#utility.yul\":5193:5209   */\n      swap1\n      pop\n        /* \"#utility.yul\":5228:5231   */\n      dup1\n        /* \"#utility.yul\":5225:5226   */\n      dup3\n        /* \"#utility.yul\":5222:5232   */\n      gt\n        /* \"#utility.yul\":5219:5255   */\n      iszero\n      tag_112\n      jumpi\n        /* \"#utility.yul\":5235:5253   */\n      tag_113\n      tag_57\n      jump\t// in\n    tag_113:\n        /* \"#utility.yul\":5219:5255   */\n    tag_112:\n        /* \"#utility.yul\":5071:5262   */\n      swap3\n      swap2\n      pop\n      pop\n      jump\t// out\n\n    auxdata: 0xa264697066735822122068cdeda777e820968586179a184e00f376e3a8928fa4ccb515f27b3c45b10d5b64736f6c63430008160033\n}\n",
				"bytecode": {
					"linkReferences": {},
					"object": "608060405234801561000f575f80fd5b503360015f6101000a81548173ffffffffffffffffffffffffffffffffffffffff021916908373ffffffffffffffffffffffffffffffffffffffff1602179055506107148061005d5f395ff3fe608060405234801561000f575f80fd5b506004361061003f575f3560e01c806312065fe014610043578063a9059cbb14610061578063d91921ed1461007d575b5f80fd5b61004b6100ad565b6040516100589190610434565b60405180910390f35b61007b600480360381019061007691906104d5565b6100f0565b005b61009760048036038101906100929190610513565b610284565b6040516100a49190610434565b60405180910390f35b5f805f3373ffffffffffffffffffffffffffffffffffffffff1673ffffffffffffffffffffffffffffffffffffffff1681526020019081526020015f2054905090565b805f803373ffffffffffffffffffffffffffffffffffffffff1673ffffffffffffffffffffffffffffffffffffffff1681526020019081526020015f2054101561016f576040517f08c379a000000000000000000000000000000000000000000000000000000000815260040161016690610598565b60405180910390fd5b8173ffffffffffffffffffffffffffffffffffffffff163373ffffffffffffffffffffffffffffffffffffffff16036101dd576040517f08c379a00000000000000000000000000000000000000000000000000000000081526004016101d490610600565b60405180910390fd5b5f805f3373ffffffffffffffffffffffffffffffffffffffff1673ffffffffffffffffffffffffffffffffffffffff1681526020019081526020015f20549050610228338484610373565b8181610234919061064b565b5f803373ffffffffffffffffffffffffffffffffffffffff1673ffffffffffffffffffffffffffffffffffffffff1681526020019081526020015f20541461027f5761027e61067e565b5b505050565b5f60015f9054906101000a900473ffffffffffffffffffffffffffffffffffffffff1673ffffffffffffffffffffffffffffffffffffffff163373ffffffffffffffffffffffffffffffffffffffff16146102dd575f80fd5b815f803373ffffffffffffffffffffffffffffffffffffffff1673ffffffffffffffffffffffffffffffffffffffff1681526020019081526020015f205f82825461032891906106ab565b925050819055505f803373ffffffffffffffffffffffffffffffffffffffff1673ffffffffffffffffffffffffffffffffffffffff1681526020019081526020015f20549050919050565b805f808573ffffffffffffffffffffffffffffffffffffffff1673ffffffffffffffffffffffffffffffffffffffff1681526020019081526020015f205f8282546103be919061064b565b92505081905550805f808473ffffffffffffffffffffffffffffffffffffffff1673ffffffffffffffffffffffffffffffffffffffff1681526020019081526020015f205f82825461041091906106ab565b92505081905550505050565b5f819050919050565b61042e8161041c565b82525050565b5f6020820190506104475f830184610425565b92915050565b5f80fd5b5f73ffffffffffffffffffffffffffffffffffffffff82169050919050565b5f61047a82610451565b9050919050565b61048a81610470565b8114610494575f80fd5b50565b5f813590506104a581610481565b92915050565b6104b48161041c565b81146104be575f80fd5b50565b5f813590506104cf816104ab565b92915050565b5f80604083850312156104eb576104ea61044d565b5b5f6104f885828601610497565b9250506020610509858286016104c1565b9150509250929050565b5f602082840312156105285761052761044d565b5b5f610535848285016104c1565b91505092915050565b5f82825260208201905092915050565b7f42616c616e6365206e6f742073756666696369656e74000000000000000000005f82015250565b5f61058260168361053e565b915061058d8261054e565b602082019050919050565b5f6020820190508181035f8301526105af81610576565b9050919050565b7f446f6e2774207472616e73666572206d6f6e657920746f20796f757273656c665f82015250565b5f6105ea60208361053e565b91506105f5826105b6565b602082019050919050565b5f6020820190508181035f830152610617816105de565b9050919050565b7f4e487b71000000000000000000000000000000000000000000000000000000005f52601160045260245ffd5b5f6106558261041c565b91506106608361041c565b92508282039050818111156106785761067761061e565b5b92915050565b7f4e487b71000000000000000000000000000000000000000000000000000000005f52600160045260245ffd5b5f6106b58261041c565b91506106c08361041c565b92508282019050808211156106d8576106d761061e565b5b9291505056fea264697066735822122068cdeda777e820968586179a184e00f376e3a8928fa4ccb515f27b3c45b10d5b64736f6c63430008160033",
					"opcodes": "PUSH1 0x80 PUSH1 0x40 MSTORE CALLVALUE DUP1 ISZERO PUSH2 0xF JUMPI PUSH0 DUP1 REVERT JUMPDEST POP CALLER PUSH1 0x1 PUSH0 PUSH2 0x100 EXP DUP2 SLOAD DUP2 PUSH20 0xFFFFFFFFFFFFFFFFFFFFFFFFFFFFFFFFFFFFFFFF MUL NOT AND SWAP1 DUP4 PUSH20 0xFFFFFFFFFFFFFFFFFFFFFFFFFFFFFFFFFFFFFFFF AND MUL OR SWAP1 SSTORE POP PUSH2 0x714 DUP1 PUSH2 0x5D PUSH0 CODECOPY PUSH0 RETURN INVALID PUSH1 0x80 PUSH1 0x40 MSTORE CALLVALUE DUP1 ISZERO PUSH2 0xF JUMPI PUSH0 DUP1 REVERT JUMPDEST POP PUSH1 0x4 CALLDATASIZE LT PUSH2 0x3F JUMPI PUSH0 CALLDATALOAD PUSH1 0xE0 SHR DUP1 PUSH4 0x12065FE0 EQ PUSH2 0x43 JUMPI DUP1 PUSH4 0xA9059CBB EQ PUSH2 0x61 JUMPI DUP1 PUSH4 0xD91921ED EQ PUSH2 0x7D JUMPI JUMPDEST PUSH0 DUP1 REVERT JUMPDEST PUSH2 0x4B PUSH2 0xAD JUMP JUMPDEST PUSH1 0x40 MLOAD PUSH2 0x58 SWAP2 SWAP1 PUSH2 0x434 JUMP JUMPDEST PUSH1 0x40 MLOAD DUP1 SWAP2 SUB SWAP1 RETURN JUMPDEST PUSH2 0x7B PUSH1 0x4 DUP1 CALLDATASIZE SUB DUP2 ADD SWAP1 PUSH2 0x76 SWAP2 SWAP1 PUSH2 0x4D5 JUMP JUMPDEST PUSH2 0xF0 JUMP JUMPDEST STOP JUMPDEST PUSH2 0x97 PUSH1 0x4 DUP1 CALLDATASIZE SUB DUP2 ADD SWAP1 PUSH2 0x92 SWAP2 SWAP1 PUSH2 0x513 JUMP JUMPDEST PUSH2 0x284 JUMP JUMPDEST PUSH1 0x40 MLOAD PUSH2 0xA4 SWAP2 SWAP1 PUSH2 0x434 JUMP JUMPDEST PUSH1 0x40 MLOAD DUP1 SWAP2 SUB SWAP1 RETURN JUMPDEST PUSH0 DUP1 PUSH0 CALLER PUSH20 0xFFFFFFFFFFFFFFFFFFFFFFFFFFFFFFFFFFFFFFFF AND PUSH20 0xFFFFFFFFFFFFFFFFFFFFFFFFFFFFFFFFFFFFFFFF AND DUP2 MSTORE PUSH1 0x20 ADD SWAP1 DUP2 MSTORE PUSH1 0x20 ADD PUSH0 KECCAK256 SLOAD SWAP1 POP SWAP1 JUMP JUMPDEST DUP1 PUSH0 DUP1 CALLER PUSH20 0xFFFFFFFFFFFFFFFFFFFFFFFFFFFFFFFFFFFFFFFF AND PUSH20 0xFFFFFFFFFFFFFFFFFFFFFFFFFFFFFFFFFFFFFFFF AND DUP2 MSTORE PUSH1 0x20 ADD SWAP1 DUP2 MSTORE PUSH1 0x20 ADD PUSH0 KECCAK256 SLOAD LT ISZERO PUSH2 0x16F JUMPI PUSH1 0x40 MLOAD PUSH32 0x8C379A000000000000000000000000000000000000000000000000000000000 DUP2 MSTORE PUSH1 0x4 ADD PUSH2 0x166 SWAP1 PUSH2 0x598 JUMP JUMPDEST PUSH1 0x40 MLOAD DUP1 SWAP2 SUB SWAP1 REVERT JUMPDEST DUP2 PUSH20 0xFFFFFFFFFFFFFFFFFFFFFFFFFFFFFFFFFFFFFFFF AND CALLER PUSH20 0xFFFFFFFFFFFFFFFFFFFFFFFFFFFFFFFFFFFFFFFF AND SUB PUSH2 0x1DD JUMPI PUSH1 0x40 MLOAD PUSH32 0x8C379A000000000000000000000000000000000000000000000000000000000 DUP2 MSTORE PUSH1 0x4 ADD PUSH2 0x1D4 SWAP1 PUSH2 0x600 JUMP JUMPDEST PUSH1 0x40 MLOAD DUP1 SWAP2 SUB SWAP1 REVERT JUMPDEST PUSH0 DUP1 PUSH0 CALLER PUSH20 0xFFFFFFFFFFFFFFFFFFFFFFFFFFFFFFFFFFFFFFFF AND PUSH20 0xFFFFFFFFFFFFFFFFFFFFFFFFFFFFFFFFFFFFFFFF AND DUP2 MSTORE PUSH1 0x20 ADD SWAP1 DUP2 MSTORE PUSH1 0x20 ADD PUSH0 KECCAK256 SLOAD SWAP1 POP PUSH2 0x228 CALLER DUP5 DUP5 PUSH2 0x373 JUMP JUMPDEST DUP2 DUP2 PUSH2 0x234 SWAP2 SWAP1 PUSH2 0x64B JUMP JUMPDEST PUSH0 DUP1 CALLER PUSH20 0xFFFFFFFFFFFFFFFFFFFFFFFFFFFFFFFFFFFFFFFF AND PUSH20 0xFFFFFFFFFFFFFFFFFFFFFFFFFFFFFFFFFFFFFFFF AND DUP2 MSTORE PUSH1 0x20 ADD SWAP1 DUP2 MSTORE PUSH1 0x20 ADD PUSH0 KECCAK256 SLOAD EQ PUSH2 0x27F JUMPI PUSH2 0x27E PUSH2 0x67E JUMP JUMPDEST JUMPDEST POP POP POP JUMP JUMPDEST PUSH0 PUSH1 0x1 PUSH0 SWAP1 SLOAD SWAP1 PUSH2 0x100 EXP SWAP1 DIV PUSH20 0xFFFFFFFFFFFFFFFFFFFFFFFFFFFFFFFFFFFFFFFF AND PUSH20 0xFFFFFFFFFFFFFFFFFFFFFFFFFFFFFFFFFFFFFFFF AND CALLER PUSH20 0xFFFFFFFFFFFFFFFFFFFFFFFFFFFFFFFFFFFFFFFF AND EQ PUSH2 0x2DD JUMPI PUSH0 DUP1 REVERT JUMPDEST DUP2 PUSH0 DUP1 CALLER PUSH20 0xFFFFFFFFFFFFFFFFFFFFFFFFFFFFFFFFFFFFFFFF AND PUSH20 0xFFFFFFFFFFFFFFFFFFFFFFFFFFFFFFFFFFFFFFFF AND DUP2 MSTORE PUSH1 0x20 ADD SWAP1 DUP2 MSTORE PUSH1 0x20 ADD PUSH0 KECCAK256 PUSH0 DUP3 DUP3 SLOAD PUSH2 0x328 SWAP2 SWAP1 PUSH2 0x6AB JUMP JUMPDEST SWAP3 POP POP DUP2 SWAP1 SSTORE POP PUSH0 DUP1 CALLER PUSH20 0xFFFFFFFFFFFFFFFFFFFFFFFFFFFFFFFFFFFFFFFF AND PUSH20 0xFFFFFFFFFFFFFFFFFFFFFFFFFFFFFFFFFFFFFFFF AND DUP2 MSTORE PUSH1 0x20 ADD SWAP1 DUP2 MSTORE PUSH1 0x20 ADD PUSH0 KECCAK256 SLOAD SWAP1 POP SWAP2 SWAP1 POP JUMP JUMPDEST DUP1 PUSH0 DUP1 DUP6 PUSH20 0xFFFFFFFFFFFFFFFFFFFFFFFFFFFFFFFFFFFFFFFF AND PUSH20 0xFFFFFFFFFFFFFFFFFFFFFFFFFFFFFFFFFFFFFFFF AND DUP2 MSTORE PUSH1 0x20 ADD SWAP1 DUP2 MSTORE PUSH1 0x20 ADD PUSH0 KECCAK256 PUSH0 DUP3 DUP3 SLOAD PUSH2 0x3BE SWAP2 SWAP1 PUSH2 0x64B JUMP JUMPDEST SWAP3 POP POP DUP2 SWAP1 SSTORE POP DUP1 PUSH0 DUP1 DUP5 PUSH20 0xFFFFFFFFFFFFFFFFFFFFFFFFFFFFFFFFFFFFFFFF AND PUSH20 0xFFFFFFFFFFFFFFFFFFFFFFFFFFFFFFFFFFFFFFFF AND DUP2 MSTORE PUSH1 0x20 ADD SWAP1 DUP2 MSTORE PUSH1 0x20 ADD PUSH0 KECCAK256 PUSH0 DUP3 DUP3 SLOAD PUSH2 0x410 SWAP2 SWAP1 PUSH2 0x6AB JUMP JUMPDEST SWAP3 POP POP DUP2 SWAP1 SSTORE POP POP POP POP JUMP JUMPDEST PUSH0 DUP2 SWAP1 POP SWAP2 SWAP1 POP JUMP JUMPDEST PUSH2 0x42E DUP2 PUSH2 0x41C JUMP JUMPDEST DUP3 MSTORE POP POP JUMP JUMPDEST PUSH0 PUSH1 0x20 DUP3 ADD SWAP1 POP PUSH2 0x447 PUSH0 DUP4 ADD DUP5 PUSH2 0x425 JUMP JUMPDEST SWAP3 SWAP2 POP POP JUMP JUMPDEST PUSH0 DUP1 REVERT JUMPDEST PUSH0 PUSH20 0xFFFFFFFFFFFFFFFFFFFFFFFFFFFFFFFFFFFFFFFF DUP3 AND SWAP1 POP SWAP2 SWAP1 POP JUMP JUMPDEST PUSH0 PUSH2 0x47A DUP3 PUSH2 0x451 JUMP JUMPDEST SWAP1 POP SWAP2 SWAP1 POP JUMP JUMPDEST PUSH2 0x48A DUP2 PUSH2 0x470 JUMP JUMPDEST DUP2 EQ PUSH2 0x494 JUMPI PUSH0 DUP1 REVERT JUMPDEST POP JUMP JUMPDEST PUSH0 DUP2 CALLDATALOAD SWAP1 POP PUSH2 0x4A5 DUP2 PUSH2 0x481 JUMP JUMPDEST SWAP3 SWAP2 POP POP JUMP JUMPDEST PUSH2 0x4B4 DUP2 PUSH2 0x41C JUMP JUMPDEST DUP2 EQ PUSH2 0x4BE JUMPI PUSH0 DUP1 REVERT JUMPDEST POP JUMP JUMPDEST PUSH0 DUP2 CALLDATALOAD SWAP1 POP PUSH2 0x4CF DUP2 PUSH2 0x4AB JUMP JUMPDEST SWAP3 SWAP2 POP POP JUMP JUMPDEST PUSH0 DUP1 PUSH1 0x40 DUP4 DUP6 SUB SLT ISZERO PUSH2 0x4EB JUMPI PUSH2 0x4EA PUSH2 0x44D JUMP JUMPDEST JUMPDEST PUSH0 PUSH2 0x4F8 DUP6 DUP3 DUP7 ADD PUSH2 0x497 JUMP JUMPDEST SWAP3 POP POP PUSH1 0x20 PUSH2 0x509 DUP6 DUP3 DUP7 ADD PUSH2 0x4C1 JUMP JUMPDEST SWAP2 POP POP SWAP3 POP SWAP3 SWAP1 POP JUMP JUMPDEST PUSH0 PUSH1 0x20 DUP3 DUP5 SUB SLT ISZERO PUSH2 0x528 JUMPI PUSH2 0x527 PUSH2 0x44D JUMP JUMPDEST JUMPDEST PUSH0 PUSH2 0x535 DUP5 DUP3 DUP6 ADD PUSH2 0x4C1 JUMP JUMPDEST SWAP2 POP POP SWAP3 SWAP2 POP POP JUMP JUMPDEST PUSH0 DUP3 DUP3 MSTORE PUSH1 0x20 DUP3 ADD SWAP1 POP SWAP3 SWAP2 POP POP JUMP JUMPDEST PUSH32 0x42616C616E6365206E6F742073756666696369656E7400000000000000000000 PUSH0 DUP3 ADD MSTORE POP JUMP JUMPDEST PUSH0 PUSH2 0x582 PUSH1 0x16 DUP4 PUSH2 0x53E JUMP JUMPDEST SWAP2 POP PUSH2 0x58D DUP3 PUSH2 0x54E JUMP JUMPDEST PUSH1 0x20 DUP3 ADD SWAP1 POP SWAP2 SWAP1 POP JUMP JUMPDEST PUSH0 PUSH1 0x20 DUP3 ADD SWAP1 POP DUP2 DUP2 SUB PUSH0 DUP4 ADD MSTORE PUSH2 0x5AF DUP2 PUSH2 0x576 JUMP JUMPDEST SWAP1 POP SWAP2 SWAP1 POP JUMP JUMPDEST PUSH32 0x446F6E2774207472616E73666572206D6F6E657920746F20796F757273656C66 PUSH0 DUP3 ADD MSTORE POP JUMP JUMPDEST PUSH0 PUSH2 0x5EA PUSH1 0x20 DUP4 PUSH2 0x53E JUMP JUMPDEST SWAP2 POP PUSH2 0x5F5 DUP3 PUSH2 0x5B6 JUMP JUMPDEST PUSH1 0x20 DUP3 ADD SWAP1 POP SWAP2 SWAP1 POP JUMP JUMPDEST PUSH0 PUSH1 0x20 DUP3 ADD SWAP1 POP DUP2 DUP2 SUB PUSH0 DUP4 ADD MSTORE PUSH2 0x617 DUP2 PUSH2 0x5DE JUMP JUMPDEST SWAP1 POP SWAP2 SWAP1 POP JUMP JUMPDEST PUSH32 0x4E487B7100000000000000000000000000000000000000000000000000000000 PUSH0 MSTORE PUSH1 0x11 PUSH1 0x4 MSTORE PUSH1 0x24 PUSH0 REVERT JUMPDEST PUSH0 PUSH2 0x655 DUP3 PUSH2 0x41C JUMP JUMPDEST SWAP2 POP PUSH2 0x660 DUP4 PUSH2 0x41C JUMP JUMPDEST SWAP3 POP DUP3 DUP3 SUB SWAP1 POP DUP2 DUP2 GT ISZERO PUSH2 0x678 JUMPI PUSH2 0x677 PUSH2 0x61E JUMP JUMPDEST JUMPDEST SWAP3 SWAP2 POP POP JUMP JUMPDEST PUSH32 0x4E487B7100000000000000000000000000000000000000000000000000000000 PUSH0 MSTORE PUSH1 0x1 PUSH1 0x4 MSTORE PUSH1 0x24 PUSH0 REVERT JUMPDEST PUSH0 PUSH2 0x6B5 DUP3 PUSH2 0x41C JUMP JUMPDEST SWAP2 POP PUSH2 0x6C0 DUP4 PUSH2 0x41C JUMP JUMPDEST SWAP3 POP DUP3 DUP3 ADD SWAP1 POP DUP1 DUP3 GT ISZERO PUSH2 0x6D8 JUMPI PUSH2 0x6D7 PUSH2 0x61E JUMP JUMPDEST JUMPDEST SWAP3 SWAP2 POP POP JUMP INVALID LOG2 PUSH5 0x6970667358 0x22 SLT KECCAK256 PUSH9 0xCDEDA777E820968586 OR SWAP11 XOR 0x4E STOP RETURN PUSH23 0xE3A8928FA4CCB515F27B3C45B10D5B64736F6C63430008 AND STOP CALLER "
				},
				"gasEstimates": {
					"creation": {
						"codeDepositCost": "362400",
						"executionCost": "24662",
						"totalCost": "387062"
					},
					"external": {
						"addBalance(uint256)": "infinite",
						"getBalance()": "2497",
						"transfer(address,uint256)": "infinite"
					},
					"internal": {
						"_transfer(address,address,uint256)": "infinite"
					}
				},
				"methodIdentifiers": {
					"addBalance(uint256)": "d91921ed",
					"getBalance()": "12065fe0",
					"transfer(address,uint256)": "a9059cbb"
				}
			},
			"storageLayout": {
				"storage": [
					{
						"astId": 5,
						"contract": "constructors/ErrorHandling.sol:Test",
						"label": "balance",
						"offset": 0,
						"slot": "0",
						"type": "t_mapping(t_address,t_uint256)"
					},
					{
						"astId": 7,
						"contract": "constructors/ErrorHandling.sol:Test",
						"label": "owner",
						"offset": 0,
						"slot": "1",
						"type": "t_address"
					}
				],
				"types": {
					"t_address": {
						"encoding": "inplace",
						"label": "address",
						"numberOfBytes": "20"
					},
					"t_mapping(t_address,t_uint256)": {
						"encoding": "mapping",
						"key": "t_address",
						"label": "mapping(address => uint256)",
						"numberOfBytes": "32",
						"value": "t_uint256"
					},
					"t_uint256": {
						"encoding": "inplace",
						"label": "uint256",
						"numberOfBytes": "32"
					}
				}
			},
			"userdoc": {
				"kind": "user",
				"methods": {},
				"version": 1
			}
		}
	}
}