{
	"constructors/Copy_UseCase2.sol": {
		"Bank": {
			"abi": [
				{
					"inputs": [],
					"stateMutability": "nonpayable",
					"type": "constructor"
				},
				{
					"anonymous": false,
					"inputs": [
						{
							"indexed": false,
							"internalType": "uint256",
							"name": "amount",
							"type": "uint256"
						},
						{
							"indexed": true,
							"internalType": "address",
							"name": "depositedOwner",
							"type": "address"
						}
					],
					"name": "depositedFund",
					"type": "event"
				},
				{
					"anonymous": false,
					"inputs": [
						{
							"indexed": false,
							"internalType": "uint256",
							"name": "amount",
							"type": "uint256"
						},
						{
							"indexed": true,
							"internalType": "address",
							"name": "withdrawalOwner",
							"type": "address"
						}
					],
					"name": "withdrawalFund",
					"type": "event"
				},
				{
					"inputs": [
						{
							"internalType": "address",
							"name": "",
							"type": "address"
						}
					],
					"name": "depositFund",
					"outputs": [
						{
							"internalType": "uint256",
							"name": "",
							"type": "uint256"
						}
					],
					"stateMutability": "view",
					"type": "function"
				},
				{
					"inputs": [],
					"name": "deposite",
					"outputs": [],
					"stateMutability": "payable",
					"type": "function"
				},
				{
					"inputs": [],
					"name": "getBalance",
					"outputs": [
						{
							"internalType": "uint256",
							"name": "balance",
							"type": "uint256"
						}
					],
					"stateMutability": "view",
					"type": "function"
				},
				{
					"inputs": [
						{
							"internalType": "uint256",
							"name": "_amount",
							"type": "uint256"
						}
					],
					"name": "withdrawal",
					"outputs": [],
					"stateMutability": "nonpayable",
					"type": "function"
				},
				{
					"inputs": [
						{
							"internalType": "address",
							"name": "",
							"type": "address"
						}
					],
					"name": "withdrawlFund",
					"outputs": [
						{
							"internalType": "uint256",
							"name": "",
							"type": "uint256"
						}
					],
					"stateMutability": "view",
					"type": "function"
				}
			],
			"devdoc": {
				"kind": "dev",
				"methods": {},
				"version": 1
			},
			"evm": {
				"assembly": "    /* \"constructors/Copy_UseCase2.sol\":57:1268  contract Bank{... */\n  mstore(0x40, 0x80)\n    /* \"constructors/Copy_UseCase2.sol\":743:792  constructor() {... */\n  callvalue\n  dup1\n  iszero\n  tag_1\n  jumpi\n  0x00\n  dup1\n  revert\ntag_1:\n  pop\n    /* \"constructors/Copy_UseCase2.sol\":775:785  msg.sender */\n  caller\n    /* \"constructors/Copy_UseCase2.sol\":767:772  owner */\n  0x02\n  0x00\n    /* \"constructors/Copy_UseCase2.sol\":767:785  owner = msg.sender */\n  0x0100\n  exp\n  dup2\n  sload\n  dup2\n  0xffffffffffffffffffffffffffffffffffffffff\n  mul\n  not\n  and\n  swap1\n  dup4\n  0xffffffffffffffffffffffffffffffffffffffff\n  and\n  mul\n  or\n  swap1\n  sstore\n  pop\n    /* \"constructors/Copy_UseCase2.sol\":57:1268  contract Bank{... */\n  dataSize(sub_0)\n  dup1\n  dataOffset(sub_0)\n  0x00\n  codecopy\n  0x00\n  return\nstop\n\nsub_0: assembly {\n        /* \"constructors/Copy_UseCase2.sol\":57:1268  contract Bank{... */\n      mstore(0x40, 0x80)\n      jumpi(tag_1, lt(calldatasize, 0x04))\n      shr(0xe0, calldataload(0x00))\n      dup1\n      0x12065fe0\n      eq\n      tag_2\n      jumpi\n      dup1\n      0x835fc6ca\n      eq\n      tag_3\n      jumpi\n      dup1\n      0xa14c2d5b\n      eq\n      tag_4\n      jumpi\n      dup1\n      0xa50ec326\n      eq\n      tag_5\n      jumpi\n      dup1\n      0xe12d4a52\n      eq\n      tag_6\n      jumpi\n    tag_1:\n      0x00\n      dup1\n      revert\n        /* \"constructors/Copy_UseCase2.sol\":1135:1266  function getBalance() public view returns (uint balance){... */\n    tag_2:\n      callvalue\n      dup1\n      iszero\n      tag_7\n      jumpi\n      0x00\n      dup1\n      revert\n    tag_7:\n      pop\n      tag_8\n      tag_9\n      jump\t// in\n    tag_8:\n      mload(0x40)\n      tag_10\n      swap2\n      swap1\n      tag_11\n      jump\t// in\n    tag_10:\n      mload(0x40)\n      dup1\n      swap2\n      sub\n      swap1\n      return\n        /* \"constructors/Copy_UseCase2.sol\":953:1129  function withdrawal(uint _amount) public onlyOwner isWithdraw(_amount) {... */\n    tag_3:\n      callvalue\n      dup1\n      iszero\n      tag_12\n      jumpi\n      0x00\n      dup1\n      revert\n    tag_12:\n      pop\n      tag_13\n      0x04\n      dup1\n      calldatasize\n      sub\n      dup2\n      add\n      swap1\n      tag_14\n      swap2\n      swap1\n      tag_15\n      jump\t// in\n    tag_14:\n      tag_16\n      jump\t// in\n    tag_13:\n      stop\n        /* \"constructors/Copy_UseCase2.sol\":125:171  mapping (address => uint) public withdrawlFund */\n    tag_4:\n      callvalue\n      dup1\n      iszero\n      tag_17\n      jumpi\n      0x00\n      dup1\n      revert\n    tag_17:\n      pop\n      tag_18\n      0x04\n      dup1\n      calldatasize\n      sub\n      dup2\n      add\n      swap1\n      tag_19\n      swap2\n      swap1\n      tag_20\n      jump\t// in\n    tag_19:\n      tag_21\n      jump\t// in\n    tag_18:\n      mload(0x40)\n      tag_22\n      swap2\n      swap1\n      tag_11\n      jump\t// in\n    tag_22:\n      mload(0x40)\n      dup1\n      swap2\n      sub\n      swap1\n      return\n        /* \"constructors/Copy_UseCase2.sol\":798:947  function deposite() public onlyOwner payable {... */\n    tag_5:\n      tag_23\n      tag_24\n      jump\t// in\n    tag_23:\n      stop\n        /* \"constructors/Copy_UseCase2.sol\":76:119  mapping(address => uint) public depositFund */\n    tag_6:\n      callvalue\n      dup1\n      iszero\n      tag_25\n      jumpi\n      0x00\n      dup1\n      revert\n    tag_25:\n      pop\n      tag_26\n      0x04\n      dup1\n      calldatasize\n      sub\n      dup2\n      add\n      swap1\n      tag_27\n      swap2\n      swap1\n      tag_20\n      jump\t// in\n    tag_27:\n      tag_28\n      jump\t// in\n    tag_26:\n      mload(0x40)\n      tag_29\n      swap2\n      swap1\n      tag_11\n      jump\t// in\n    tag_29:\n      mload(0x40)\n      dup1\n      swap2\n      sub\n      swap1\n      return\n        /* \"constructors/Copy_UseCase2.sol\":1135:1266  function getBalance() public view returns (uint balance){... */\n    tag_9:\n        /* \"constructors/Copy_UseCase2.sol\":1178:1190  uint balance */\n      0x00\n        /* \"constructors/Copy_UseCase2.sol\":1234:1247  withdrawlFund */\n      0x01\n        /* \"constructors/Copy_UseCase2.sol\":1234:1259  withdrawlFund[msg.sender] */\n      0x00\n        /* \"constructors/Copy_UseCase2.sol\":1248:1258  msg.sender */\n      caller\n        /* \"constructors/Copy_UseCase2.sol\":1234:1259  withdrawlFund[msg.sender] */\n      0xffffffffffffffffffffffffffffffffffffffff\n      and\n      0xffffffffffffffffffffffffffffffffffffffff\n      and\n      dup2\n      mstore\n      0x20\n      add\n      swap1\n      dup2\n      mstore\n      0x20\n      add\n      0x00\n      keccak256\n      sload\n        /* \"constructors/Copy_UseCase2.sol\":1208:1219  depositFund */\n      0x00\n        /* \"constructors/Copy_UseCase2.sol\":1208:1231  depositFund[msg.sender] */\n      dup1\n        /* \"constructors/Copy_UseCase2.sol\":1220:1230  msg.sender */\n      caller\n        /* \"constructors/Copy_UseCase2.sol\":1208:1231  depositFund[msg.sender] */\n      0xffffffffffffffffffffffffffffffffffffffff\n      and\n      0xffffffffffffffffffffffffffffffffffffffff\n      and\n      dup2\n      mstore\n      0x20\n      add\n      swap1\n      dup2\n      mstore\n      0x20\n      add\n      0x00\n      keccak256\n      sload\n        /* \"constructors/Copy_UseCase2.sol\":1208:1259  depositFund[msg.sender] - withdrawlFund[msg.sender] */\n      tag_31\n      swap2\n      swap1\n      tag_32\n      jump\t// in\n    tag_31:\n        /* \"constructors/Copy_UseCase2.sol\":1201:1259  return depositFund[msg.sender] - withdrawlFund[msg.sender] */\n      swap1\n      pop\n        /* \"constructors/Copy_UseCase2.sol\":1135:1266  function getBalance() public view returns (uint balance){... */\n      swap1\n      jump\t// out\n        /* \"constructors/Copy_UseCase2.sol\":953:1129  function withdrawal(uint _amount) public onlyOwner isWithdraw(_amount) {... */\n    tag_16:\n        /* \"constructors/Copy_UseCase2.sol\":464:469  owner */\n      0x02\n      0x00\n      swap1\n      sload\n      swap1\n      0x0100\n      exp\n      swap1\n      div\n      0xffffffffffffffffffffffffffffffffffffffff\n      and\n        /* \"constructors/Copy_UseCase2.sol\":450:469  msg.sender == owner */\n      0xffffffffffffffffffffffffffffffffffffffff\n      and\n        /* \"constructors/Copy_UseCase2.sol\":450:460  msg.sender */\n      caller\n        /* \"constructors/Copy_UseCase2.sol\":450:469  msg.sender == owner */\n      0xffffffffffffffffffffffffffffffffffffffff\n      and\n      eq\n        /* \"constructors/Copy_UseCase2.sol\":442:491  require(msg.sender == owner, \"Must be the owner\") */\n      tag_34\n      jumpi\n      mload(0x40)\n      0x08c379a000000000000000000000000000000000000000000000000000000000\n      dup2\n      mstore\n      0x04\n      add\n      tag_35\n      swap1\n      tag_36\n      jump\t// in\n    tag_35:\n      mload(0x40)\n      dup1\n      swap2\n      sub\n      swap1\n      revert\n    tag_34:\n        /* \"constructors/Copy_UseCase2.sol\":1015:1022  _amount */\n      dup1\n        /* \"constructors/Copy_UseCase2.sol\":558:581  uint previousWithdrawal */\n      0x00\n        /* \"constructors/Copy_UseCase2.sol\":584:597  withdrawlFund */\n      0x01\n        /* \"constructors/Copy_UseCase2.sol\":584:609  withdrawlFund[msg.sender] */\n      0x00\n        /* \"constructors/Copy_UseCase2.sol\":598:608  msg.sender */\n      caller\n        /* \"constructors/Copy_UseCase2.sol\":584:609  withdrawlFund[msg.sender] */\n      0xffffffffffffffffffffffffffffffffffffffff\n      and\n      0xffffffffffffffffffffffffffffffffffffffff\n      and\n      dup2\n      mstore\n      0x20\n      add\n      swap1\n      dup2\n      mstore\n      0x20\n      add\n      0x00\n      keccak256\n      sload\n        /* \"constructors/Copy_UseCase2.sol\":558:609  uint previousWithdrawal = withdrawlFund[msg.sender] */\n      swap1\n      pop\n        /* \"constructors/Copy_UseCase2.sol\":675:681  amount */\n      dup2\n        /* \"constructors/Copy_UseCase2.sol\":653:671  previousWithdrawal */\n      dup2\n        /* \"constructors/Copy_UseCase2.sol\":627:638  depositFund */\n      0x00\n        /* \"constructors/Copy_UseCase2.sol\":627:650  depositFund[msg.sender] */\n      dup1\n        /* \"constructors/Copy_UseCase2.sol\":639:649  msg.sender */\n      caller\n        /* \"constructors/Copy_UseCase2.sol\":627:650  depositFund[msg.sender] */\n      0xffffffffffffffffffffffffffffffffffffffff\n      and\n      0xffffffffffffffffffffffffffffffffffffffff\n      and\n      dup2\n      mstore\n      0x20\n      add\n      swap1\n      dup2\n      mstore\n      0x20\n      add\n      0x00\n      keccak256\n      sload\n        /* \"constructors/Copy_UseCase2.sol\":627:671  depositFund[msg.sender] - previousWithdrawal */\n      tag_38\n      swap2\n      swap1\n      tag_32\n      jump\t// in\n    tag_38:\n        /* \"constructors/Copy_UseCase2.sol\":627:681  depositFund[msg.sender] - previousWithdrawal >= amount */\n      lt\n      iszero\n        /* \"constructors/Copy_UseCase2.sol\":619:714  require(depositFund[msg.sender] - previousWithdrawal >= amount, \"Insufficient Account Balance\") */\n      tag_39\n      jumpi\n      mload(0x40)\n      0x08c379a000000000000000000000000000000000000000000000000000000000\n      dup2\n      mstore\n      0x04\n      add\n      tag_40\n      swap1\n      tag_41\n      jump\t// in\n    tag_40:\n      mload(0x40)\n      dup1\n      swap2\n      sub\n      swap1\n      revert\n    tag_39:\n        /* \"constructors/Copy_UseCase2.sol\":1063:1070  _amount */\n      dup3\n        /* \"constructors/Copy_UseCase2.sol\":1034:1047  withdrawlFund */\n      0x01\n        /* \"constructors/Copy_UseCase2.sol\":1034:1059  withdrawlFund[msg.sender] */\n      0x00\n        /* \"constructors/Copy_UseCase2.sol\":1048:1058  msg.sender */\n      caller\n        /* \"constructors/Copy_UseCase2.sol\":1034:1059  withdrawlFund[msg.sender] */\n      0xffffffffffffffffffffffffffffffffffffffff\n      and\n      0xffffffffffffffffffffffffffffffffffffffff\n      and\n      dup2\n      mstore\n      0x20\n      add\n      swap1\n      dup2\n      mstore\n      0x20\n      add\n      0x00\n      keccak256\n      0x00\n        /* \"constructors/Copy_UseCase2.sol\":1034:1070  withdrawlFund[msg.sender] += _amount */\n      dup3\n      dup3\n      sload\n      tag_43\n      swap2\n      swap1\n      tag_44\n      jump\t// in\n    tag_43:\n      swap3\n      pop\n      pop\n      dup2\n      swap1\n      sstore\n      pop\n        /* \"constructors/Copy_UseCase2.sol\":1110:1120  msg.sender */\n      caller\n        /* \"constructors/Copy_UseCase2.sol\":1086:1121  withdrawalFund(_amount, msg.sender) */\n      0xffffffffffffffffffffffffffffffffffffffff\n      and\n      0x5abb37b6a6e999ed1b32adaa92157f682779d5c878f8133de3e53cfdd319fafb\n        /* \"constructors/Copy_UseCase2.sol\":1101:1108  _amount */\n      dup5\n        /* \"constructors/Copy_UseCase2.sol\":1086:1121  withdrawalFund(_amount, msg.sender) */\n      mload(0x40)\n      tag_45\n      swap2\n      swap1\n      tag_11\n      jump\t// in\n    tag_45:\n      mload(0x40)\n      dup1\n      swap2\n      sub\n      swap1\n      log2\n        /* \"constructors/Copy_UseCase2.sol\":548:732  {... */\n      pop\n        /* \"constructors/Copy_UseCase2.sol\":501:502  _ */\n      pop\n        /* \"constructors/Copy_UseCase2.sol\":953:1129  function withdrawal(uint _amount) public onlyOwner isWithdraw(_amount) {... */\n      pop\n      jump\t// out\n        /* \"constructors/Copy_UseCase2.sol\":125:171  mapping (address => uint) public withdrawlFund */\n    tag_21:\n      mstore(0x20, 0x01)\n      dup1\n      0x00\n      mstore\n      keccak256(0x00, 0x40)\n      0x00\n      swap2\n      pop\n      swap1\n      pop\n      sload\n      dup2\n      jump\t// out\n        /* \"constructors/Copy_UseCase2.sol\":798:947  function deposite() public onlyOwner payable {... */\n    tag_24:\n        /* \"constructors/Copy_UseCase2.sol\":464:469  owner */\n      0x02\n      0x00\n      swap1\n      sload\n      swap1\n      0x0100\n      exp\n      swap1\n      div\n      0xffffffffffffffffffffffffffffffffffffffff\n      and\n        /* \"constructors/Copy_UseCase2.sol\":450:469  msg.sender == owner */\n      0xffffffffffffffffffffffffffffffffffffffff\n      and\n        /* \"constructors/Copy_UseCase2.sol\":450:460  msg.sender */\n      caller\n        /* \"constructors/Copy_UseCase2.sol\":450:469  msg.sender == owner */\n      0xffffffffffffffffffffffffffffffffffffffff\n      and\n      eq\n        /* \"constructors/Copy_UseCase2.sol\":442:491  require(msg.sender == owner, \"Must be the owner\") */\n      tag_47\n      jumpi\n      mload(0x40)\n      0x08c379a000000000000000000000000000000000000000000000000000000000\n      dup2\n      mstore\n      0x04\n      add\n      tag_48\n      swap1\n      tag_36\n      jump\t// in\n    tag_48:\n      mload(0x40)\n      dup1\n      swap2\n      sub\n      swap1\n      revert\n    tag_47:\n        /* \"constructors/Copy_UseCase2.sol\":880:889  msg.value */\n      callvalue\n        /* \"constructors/Copy_UseCase2.sol\":853:864  depositFund */\n      0x00\n        /* \"constructors/Copy_UseCase2.sol\":853:876  depositFund[msg.sender] */\n      dup1\n        /* \"constructors/Copy_UseCase2.sol\":865:875  msg.sender */\n      caller\n        /* \"constructors/Copy_UseCase2.sol\":853:876  depositFund[msg.sender] */\n      0xffffffffffffffffffffffffffffffffffffffff\n      and\n      0xffffffffffffffffffffffffffffffffffffffff\n      and\n      dup2\n      mstore\n      0x20\n      add\n      swap1\n      dup2\n      mstore\n      0x20\n      add\n      0x00\n      keccak256\n      0x00\n        /* \"constructors/Copy_UseCase2.sol\":853:889  depositFund[msg.sender] += msg.value */\n      dup3\n      dup3\n      sload\n      tag_50\n      swap2\n      swap1\n      tag_44\n      jump\t// in\n    tag_50:\n      swap3\n      pop\n      pop\n      dup2\n      swap1\n      sstore\n      pop\n        /* \"constructors/Copy_UseCase2.sol\":929:939  msg.sender */\n      caller\n        /* \"constructors/Copy_UseCase2.sol\":904:940  depositedFund(msg.value, msg.sender) */\n      0xffffffffffffffffffffffffffffffffffffffff\n      and\n      0xe5249d60e46bc17c93ebe0077404ce0986693b526789d52d468942ca2eba7ad3\n        /* \"constructors/Copy_UseCase2.sol\":918:927  msg.value */\n      callvalue\n        /* \"constructors/Copy_UseCase2.sol\":904:940  depositedFund(msg.value, msg.sender) */\n      mload(0x40)\n      tag_51\n      swap2\n      swap1\n      tag_11\n      jump\t// in\n    tag_51:\n      mload(0x40)\n      dup1\n      swap2\n      sub\n      swap1\n      log2\n        /* \"constructors/Copy_UseCase2.sol\":798:947  function deposite() public onlyOwner payable {... */\n      jump\t// out\n        /* \"constructors/Copy_UseCase2.sol\":76:119  mapping(address => uint) public depositFund */\n    tag_28:\n      mstore(0x20, 0x00)\n      dup1\n      0x00\n      mstore\n      keccak256(0x00, 0x40)\n      0x00\n      swap2\n      pop\n      swap1\n      pop\n      sload\n      dup2\n      jump\t// out\n        /* \"#utility.yul\":7:84   */\n    tag_52:\n        /* \"#utility.yul\":44:51   */\n      0x00\n        /* \"#utility.yul\":73:78   */\n      dup2\n        /* \"#utility.yul\":62:78   */\n      swap1\n      pop\n        /* \"#utility.yul\":7:84   */\n      swap2\n      swap1\n      pop\n      jump\t// out\n        /* \"#utility.yul\":90:208   */\n    tag_53:\n        /* \"#utility.yul\":177:201   */\n      tag_72\n        /* \"#utility.yul\":195:200   */\n      dup2\n        /* \"#utility.yul\":177:201   */\n      tag_52\n      jump\t// in\n    tag_72:\n        /* \"#utility.yul\":172:175   */\n      dup3\n        /* \"#utility.yul\":165:202   */\n      mstore\n        /* \"#utility.yul\":90:208   */\n      pop\n      pop\n      jump\t// out\n        /* \"#utility.yul\":214:436   */\n    tag_11:\n        /* \"#utility.yul\":307:311   */\n      0x00\n        /* \"#utility.yul\":345:347   */\n      0x20\n        /* \"#utility.yul\":334:343   */\n      dup3\n        /* \"#utility.yul\":330:348   */\n      add\n        /* \"#utility.yul\":322:348   */\n      swap1\n      pop\n        /* \"#utility.yul\":358:429   */\n      tag_74\n        /* \"#utility.yul\":426:427   */\n      0x00\n        /* \"#utility.yul\":415:424   */\n      dup4\n        /* \"#utility.yul\":411:428   */\n      add\n        /* \"#utility.yul\":402:408   */\n      dup5\n        /* \"#utility.yul\":358:429   */\n      tag_53\n      jump\t// in\n    tag_74:\n        /* \"#utility.yul\":214:436   */\n      swap3\n      swap2\n      pop\n      pop\n      jump\t// out\n        /* \"#utility.yul\":523:640   */\n    tag_55:\n        /* \"#utility.yul\":632:633   */\n      0x00\n        /* \"#utility.yul\":629:630   */\n      dup1\n        /* \"#utility.yul\":622:634   */\n      revert\n        /* \"#utility.yul\":769:891   */\n    tag_57:\n        /* \"#utility.yul\":842:866   */\n      tag_79\n        /* \"#utility.yul\":860:865   */\n      dup2\n        /* \"#utility.yul\":842:866   */\n      tag_52\n      jump\t// in\n    tag_79:\n        /* \"#utility.yul\":835:840   */\n      dup2\n        /* \"#utility.yul\":832:867   */\n      eq\n        /* \"#utility.yul\":822:885   */\n      tag_80\n      jumpi\n        /* \"#utility.yul\":881:882   */\n      0x00\n        /* \"#utility.yul\":878:879   */\n      dup1\n        /* \"#utility.yul\":871:883   */\n      revert\n        /* \"#utility.yul\":822:885   */\n    tag_80:\n        /* \"#utility.yul\":769:891   */\n      pop\n      jump\t// out\n        /* \"#utility.yul\":897:1036   */\n    tag_58:\n        /* \"#utility.yul\":943:948   */\n      0x00\n        /* \"#utility.yul\":981:987   */\n      dup2\n        /* \"#utility.yul\":968:988   */\n      calldataload\n        /* \"#utility.yul\":959:988   */\n      swap1\n      pop\n        /* \"#utility.yul\":997:1030   */\n      tag_82\n        /* \"#utility.yul\":1024:1029   */\n      dup2\n        /* \"#utility.yul\":997:1030   */\n      tag_57\n      jump\t// in\n    tag_82:\n        /* \"#utility.yul\":897:1036   */\n      swap3\n      swap2\n      pop\n      pop\n      jump\t// out\n        /* \"#utility.yul\":1042:1371   */\n    tag_15:\n        /* \"#utility.yul\":1101:1107   */\n      0x00\n        /* \"#utility.yul\":1150:1152   */\n      0x20\n        /* \"#utility.yul\":1138:1147   */\n      dup3\n        /* \"#utility.yul\":1129:1136   */\n      dup5\n        /* \"#utility.yul\":1125:1148   */\n      sub\n        /* \"#utility.yul\":1121:1153   */\n      slt\n        /* \"#utility.yul\":1118:1237   */\n      iszero\n      tag_84\n      jumpi\n        /* \"#utility.yul\":1156:1235   */\n      tag_85\n      tag_55\n      jump\t// in\n    tag_85:\n        /* \"#utility.yul\":1118:1237   */\n    tag_84:\n        /* \"#utility.yul\":1276:1277   */\n      0x00\n        /* \"#utility.yul\":1301:1354   */\n      tag_86\n        /* \"#utility.yul\":1346:1353   */\n      dup5\n        /* \"#utility.yul\":1337:1343   */\n      dup3\n        /* \"#utility.yul\":1326:1335   */\n      dup6\n        /* \"#utility.yul\":1322:1344   */\n      add\n        /* \"#utility.yul\":1301:1354   */\n      tag_58\n      jump\t// in\n    tag_86:\n        /* \"#utility.yul\":1291:1354   */\n      swap2\n      pop\n        /* \"#utility.yul\":1247:1364   */\n      pop\n        /* \"#utility.yul\":1042:1371   */\n      swap3\n      swap2\n      pop\n      pop\n      jump\t// out\n        /* \"#utility.yul\":1377:1503   */\n    tag_59:\n        /* \"#utility.yul\":1414:1421   */\n      0x00\n        /* \"#utility.yul\":1454:1496   */\n      0xffffffffffffffffffffffffffffffffffffffff\n        /* \"#utility.yul\":1447:1452   */\n      dup3\n        /* \"#utility.yul\":1443:1497   */\n      and\n        /* \"#utility.yul\":1432:1497   */\n      swap1\n      pop\n        /* \"#utility.yul\":1377:1503   */\n      swap2\n      swap1\n      pop\n      jump\t// out\n        /* \"#utility.yul\":1509:1605   */\n    tag_60:\n        /* \"#utility.yul\":1546:1553   */\n      0x00\n        /* \"#utility.yul\":1575:1599   */\n      tag_89\n        /* \"#utility.yul\":1593:1598   */\n      dup3\n        /* \"#utility.yul\":1575:1599   */\n      tag_59\n      jump\t// in\n    tag_89:\n        /* \"#utility.yul\":1564:1599   */\n      swap1\n      pop\n        /* \"#utility.yul\":1509:1605   */\n      swap2\n      swap1\n      pop\n      jump\t// out\n        /* \"#utility.yul\":1611:1733   */\n    tag_61:\n        /* \"#utility.yul\":1684:1708   */\n      tag_91\n        /* \"#utility.yul\":1702:1707   */\n      dup2\n        /* \"#utility.yul\":1684:1708   */\n      tag_60\n      jump\t// in\n    tag_91:\n        /* \"#utility.yul\":1677:1682   */\n      dup2\n        /* \"#utility.yul\":1674:1709   */\n      eq\n        /* \"#utility.yul\":1664:1727   */\n      tag_92\n      jumpi\n        /* \"#utility.yul\":1723:1724   */\n      0x00\n        /* \"#utility.yul\":1720:1721   */\n      dup1\n        /* \"#utility.yul\":1713:1725   */\n      revert\n        /* \"#utility.yul\":1664:1727   */\n    tag_92:\n        /* \"#utility.yul\":1611:1733   */\n      pop\n      jump\t// out\n        /* \"#utility.yul\":1739:1878   */\n    tag_62:\n        /* \"#utility.yul\":1785:1790   */\n      0x00\n        /* \"#utility.yul\":1823:1829   */\n      dup2\n        /* \"#utility.yul\":1810:1830   */\n      calldataload\n        /* \"#utility.yul\":1801:1830   */\n      swap1\n      pop\n        /* \"#utility.yul\":1839:1872   */\n      tag_94\n        /* \"#utility.yul\":1866:1871   */\n      dup2\n        /* \"#utility.yul\":1839:1872   */\n      tag_61\n      jump\t// in\n    tag_94:\n        /* \"#utility.yul\":1739:1878   */\n      swap3\n      swap2\n      pop\n      pop\n      jump\t// out\n        /* \"#utility.yul\":1884:2213   */\n    tag_20:\n        /* \"#utility.yul\":1943:1949   */\n      0x00\n        /* \"#utility.yul\":1992:1994   */\n      0x20\n        /* \"#utility.yul\":1980:1989   */\n      dup3\n        /* \"#utility.yul\":1971:1978   */\n      dup5\n        /* \"#utility.yul\":1967:1990   */\n      sub\n        /* \"#utility.yul\":1963:1995   */\n      slt\n        /* \"#utility.yul\":1960:2079   */\n      iszero\n      tag_96\n      jumpi\n        /* \"#utility.yul\":1998:2077   */\n      tag_97\n      tag_55\n      jump\t// in\n    tag_97:\n        /* \"#utility.yul\":1960:2079   */\n    tag_96:\n        /* \"#utility.yul\":2118:2119   */\n      0x00\n        /* \"#utility.yul\":2143:2196   */\n      tag_98\n        /* \"#utility.yul\":2188:2195   */\n      dup5\n        /* \"#utility.yul\":2179:2185   */\n      dup3\n        /* \"#utility.yul\":2168:2177   */\n      dup6\n        /* \"#utility.yul\":2164:2186   */\n      add\n        /* \"#utility.yul\":2143:2196   */\n      tag_62\n      jump\t// in\n    tag_98:\n        /* \"#utility.yul\":2133:2196   */\n      swap2\n      pop\n        /* \"#utility.yul\":2089:2206   */\n      pop\n        /* \"#utility.yul\":1884:2213   */\n      swap3\n      swap2\n      pop\n      pop\n      jump\t// out\n        /* \"#utility.yul\":2219:2399   */\n    tag_63:\n        /* \"#utility.yul\":2267:2344   */\n      0x4e487b7100000000000000000000000000000000000000000000000000000000\n        /* \"#utility.yul\":2264:2265   */\n      0x00\n        /* \"#utility.yul\":2257:2345   */\n      mstore\n        /* \"#utility.yul\":2364:2368   */\n      0x11\n        /* \"#utility.yul\":2361:2362   */\n      0x04\n        /* \"#utility.yul\":2354:2369   */\n      mstore\n        /* \"#utility.yul\":2388:2392   */\n      0x24\n        /* \"#utility.yul\":2385:2386   */\n      0x00\n        /* \"#utility.yul\":2378:2393   */\n      revert\n        /* \"#utility.yul\":2405:2599   */\n    tag_32:\n        /* \"#utility.yul\":2445:2449   */\n      0x00\n        /* \"#utility.yul\":2465:2485   */\n      tag_101\n        /* \"#utility.yul\":2483:2484   */\n      dup3\n        /* \"#utility.yul\":2465:2485   */\n      tag_52\n      jump\t// in\n    tag_101:\n        /* \"#utility.yul\":2460:2485   */\n      swap2\n      pop\n        /* \"#utility.yul\":2499:2519   */\n      tag_102\n        /* \"#utility.yul\":2517:2518   */\n      dup4\n        /* \"#utility.yul\":2499:2519   */\n      tag_52\n      jump\t// in\n    tag_102:\n        /* \"#utility.yul\":2494:2519   */\n      swap3\n      pop\n        /* \"#utility.yul\":2543:2544   */\n      dup3\n        /* \"#utility.yul\":2540:2541   */\n      dup3\n        /* \"#utility.yul\":2536:2545   */\n      sub\n        /* \"#utility.yul\":2528:2545   */\n      swap1\n      pop\n        /* \"#utility.yul\":2567:2568   */\n      dup2\n        /* \"#utility.yul\":2561:2565   */\n      dup2\n        /* \"#utility.yul\":2558:2569   */\n      gt\n        /* \"#utility.yul\":2555:2592   */\n      iszero\n      tag_103\n      jumpi\n        /* \"#utility.yul\":2572:2590   */\n      tag_104\n      tag_63\n      jump\t// in\n    tag_104:\n        /* \"#utility.yul\":2555:2592   */\n    tag_103:\n        /* \"#utility.yul\":2405:2599   */\n      swap3\n      swap2\n      pop\n      pop\n      jump\t// out\n        /* \"#utility.yul\":2605:2774   */\n    tag_64:\n        /* \"#utility.yul\":2689:2700   */\n      0x00\n        /* \"#utility.yul\":2723:2729   */\n      dup3\n        /* \"#utility.yul\":2718:2721   */\n      dup3\n        /* \"#utility.yul\":2711:2730   */\n      mstore\n        /* \"#utility.yul\":2763:2767   */\n      0x20\n        /* \"#utility.yul\":2758:2761   */\n      dup3\n        /* \"#utility.yul\":2754:2768   */\n      add\n        /* \"#utility.yul\":2739:2768   */\n      swap1\n      pop\n        /* \"#utility.yul\":2605:2774   */\n      swap3\n      swap2\n      pop\n      pop\n      jump\t// out\n        /* \"#utility.yul\":2780:2947   */\n    tag_65:\n        /* \"#utility.yul\":2920:2939   */\n      0x4d75737420626520746865206f776e6572000000000000000000000000000000\n        /* \"#utility.yul\":2916:2917   */\n      0x00\n        /* \"#utility.yul\":2908:2914   */\n      dup3\n        /* \"#utility.yul\":2904:2918   */\n      add\n        /* \"#utility.yul\":2897:2940   */\n      mstore\n        /* \"#utility.yul\":2780:2947   */\n      pop\n      jump\t// out\n        /* \"#utility.yul\":2953:3319   */\n    tag_66:\n        /* \"#utility.yul\":3095:3098   */\n      0x00\n        /* \"#utility.yul\":3116:3183   */\n      tag_108\n        /* \"#utility.yul\":3180:3182   */\n      0x11\n        /* \"#utility.yul\":3175:3178   */\n      dup4\n        /* \"#utility.yul\":3116:3183   */\n      tag_64\n      jump\t// in\n    tag_108:\n        /* \"#utility.yul\":3109:3183   */\n      swap2\n      pop\n        /* \"#utility.yul\":3192:3285   */\n      tag_109\n        /* \"#utility.yul\":3281:3284   */\n      dup3\n        /* \"#utility.yul\":3192:3285   */\n      tag_65\n      jump\t// in\n    tag_109:\n        /* \"#utility.yul\":3310:3312   */\n      0x20\n        /* \"#utility.yul\":3305:3308   */\n      dup3\n        /* \"#utility.yul\":3301:3313   */\n      add\n        /* \"#utility.yul\":3294:3313   */\n      swap1\n      pop\n        /* \"#utility.yul\":2953:3319   */\n      swap2\n      swap1\n      pop\n      jump\t// out\n        /* \"#utility.yul\":3325:3744   */\n    tag_36:\n        /* \"#utility.yul\":3491:3495   */\n      0x00\n        /* \"#utility.yul\":3529:3531   */\n      0x20\n        /* \"#utility.yul\":3518:3527   */\n      dup3\n        /* \"#utility.yul\":3514:3532   */\n      add\n        /* \"#utility.yul\":3506:3532   */\n      swap1\n      pop\n        /* \"#utility.yul\":3578:3587   */\n      dup2\n        /* \"#utility.yul\":3572:3576   */\n      dup2\n        /* \"#utility.yul\":3568:3588   */\n      sub\n        /* \"#utility.yul\":3564:3565   */\n      0x00\n        /* \"#utility.yul\":3553:3562   */\n      dup4\n        /* \"#utility.yul\":3549:3566   */\n      add\n        /* \"#utility.yul\":3542:3589   */\n      mstore\n        /* \"#utility.yul\":3606:3737   */\n      tag_111\n        /* \"#utility.yul\":3732:3736   */\n      dup2\n        /* \"#utility.yul\":3606:3737   */\n      tag_66\n      jump\t// in\n    tag_111:\n        /* \"#utility.yul\":3598:3737   */\n      swap1\n      pop\n        /* \"#utility.yul\":3325:3744   */\n      swap2\n      swap1\n      pop\n      jump\t// out\n        /* \"#utility.yul\":3750:3928   */\n    tag_67:\n        /* \"#utility.yul\":3890:3920   */\n      0x496e73756666696369656e74204163636f756e742042616c616e636500000000\n        /* \"#utility.yul\":3886:3887   */\n      0x00\n        /* \"#utility.yul\":3878:3884   */\n      dup3\n        /* \"#utility.yul\":3874:3888   */\n      add\n        /* \"#utility.yul\":3867:3921   */\n      mstore\n        /* \"#utility.yul\":3750:3928   */\n      pop\n      jump\t// out\n        /* \"#utility.yul\":3934:4300   */\n    tag_68:\n        /* \"#utility.yul\":4076:4079   */\n      0x00\n        /* \"#utility.yul\":4097:4164   */\n      tag_114\n        /* \"#utility.yul\":4161:4163   */\n      0x1c\n        /* \"#utility.yul\":4156:4159   */\n      dup4\n        /* \"#utility.yul\":4097:4164   */\n      tag_64\n      jump\t// in\n    tag_114:\n        /* \"#utility.yul\":4090:4164   */\n      swap2\n      pop\n        /* \"#utility.yul\":4173:4266   */\n      tag_115\n        /* \"#utility.yul\":4262:4265   */\n      dup3\n        /* \"#utility.yul\":4173:4266   */\n      tag_67\n      jump\t// in\n    tag_115:\n        /* \"#utility.yul\":4291:4293   */\n      0x20\n        /* \"#utility.yul\":4286:4289   */\n      dup3\n        /* \"#utility.yul\":4282:4294   */\n      add\n        /* \"#utility.yul\":4275:4294   */\n      swap1\n      pop\n        /* \"#utility.yul\":3934:4300   */\n      swap2\n      swap1\n      pop\n      jump\t// out\n        /* \"#utility.yul\":4306:4725   */\n    tag_41:\n        /* \"#utility.yul\":4472:4476   */\n      0x00\n        /* \"#utility.yul\":4510:4512   */\n      0x20\n        /* \"#utility.yul\":4499:4508   */\n      dup3\n        /* \"#utility.yul\":4495:4513   */\n      add\n        /* \"#utility.yul\":4487:4513   */\n      swap1\n      pop\n        /* \"#utility.yul\":4559:4568   */\n      dup2\n        /* \"#utility.yul\":4553:4557   */\n      dup2\n        /* \"#utility.yul\":4549:4569   */\n      sub\n        /* \"#utility.yul\":4545:4546   */\n      0x00\n        /* \"#utility.yul\":4534:4543   */\n      dup4\n        /* \"#utility.yul\":4530:4547   */\n      add\n        /* \"#utility.yul\":4523:4570   */\n      mstore\n        /* \"#utility.yul\":4587:4718   */\n      tag_117\n        /* \"#utility.yul\":4713:4717   */\n      dup2\n        /* \"#utility.yul\":4587:4718   */\n      tag_68\n      jump\t// in\n    tag_117:\n        /* \"#utility.yul\":4579:4718   */\n      swap1\n      pop\n        /* \"#utility.yul\":4306:4725   */\n      swap2\n      swap1\n      pop\n      jump\t// out\n        /* \"#utility.yul\":4731:4922   */\n    tag_44:\n        /* \"#utility.yul\":4771:4774   */\n      0x00\n        /* \"#utility.yul\":4790:4810   */\n      tag_119\n        /* \"#utility.yul\":4808:4809   */\n      dup3\n        /* \"#utility.yul\":4790:4810   */\n      tag_52\n      jump\t// in\n    tag_119:\n        /* \"#utility.yul\":4785:4810   */\n      swap2\n      pop\n        /* \"#utility.yul\":4824:4844   */\n      tag_120\n        /* \"#utility.yul\":4842:4843   */\n      dup4\n        /* \"#utility.yul\":4824:4844   */\n      tag_52\n      jump\t// in\n    tag_120:\n        /* \"#utility.yul\":4819:4844   */\n      swap3\n      pop\n        /* \"#utility.yul\":4867:4868   */\n      dup3\n        /* \"#utility.yul\":4864:4865   */\n      dup3\n        /* \"#utility.yul\":4860:4869   */\n      add\n        /* \"#utility.yul\":4853:4869   */\n      swap1\n      pop\n        /* \"#utility.yul\":4888:4891   */\n      dup1\n        /* \"#utility.yul\":4885:4886   */\n      dup3\n        /* \"#utility.yul\":4882:4892   */\n      gt\n        /* \"#utility.yul\":4879:4915   */\n      iszero\n      tag_121\n      jumpi\n        /* \"#utility.yul\":4895:4913   */\n      tag_122\n      tag_63\n      jump\t// in\n    tag_122:\n        /* \"#utility.yul\":4879:4915   */\n    tag_121:\n        /* \"#utility.yul\":4731:4922   */\n      swap3\n      swap2\n      pop\n      pop\n      jump\t// out\n\n    auxdata: 0xa2646970667358221220ce8ef1ea0f85f5ed109ed7a97a1bd37ad02f02b6a4a0885f1bb17137732e774f64736f6c63430008160033\n}\n",
				"bytecode": {
					"linkReferences": {},
					"object": "608060405234801561000f575f80fd5b503360025f6101000a81548173ffffffffffffffffffffffffffffffffffffffff021916908373ffffffffffffffffffffffffffffffffffffffff1602179055506107bf8061005d5f395ff3fe608060405260043610610049575f3560e01c806312065fe01461004d578063835fc6ca14610077578063a14c2d5b1461009f578063a50ec326146100db578063e12d4a52146100e5575b5f80fd5b348015610058575f80fd5b50610061610121565b60405161006e919061051f565b60405180910390f35b348015610082575f80fd5b5061009d60048036038101906100989190610566565b6101ac565b005b3480156100aa575f80fd5b506100c560048036038101906100c091906105eb565b6103ad565b6040516100d2919061051f565b60405180910390f35b6100e36103c2565b005b3480156100f0575f80fd5b5061010b600480360381019061010691906105eb565b6104f3565b604051610118919061051f565b60405180910390f35b5f60015f3373ffffffffffffffffffffffffffffffffffffffff1673ffffffffffffffffffffffffffffffffffffffff1681526020019081526020015f20545f803373ffffffffffffffffffffffffffffffffffffffff1673ffffffffffffffffffffffffffffffffffffffff1681526020019081526020015f20546101a79190610643565b905090565b60025f9054906101000a900473ffffffffffffffffffffffffffffffffffffffff1673ffffffffffffffffffffffffffffffffffffffff163373ffffffffffffffffffffffffffffffffffffffff161461023b576040517f08c379a0000000000000000000000000000000000000000000000000000000008152600401610232906106d0565b60405180910390fd5b805f60015f3373ffffffffffffffffffffffffffffffffffffffff1673ffffffffffffffffffffffffffffffffffffffff1681526020019081526020015f2054905081815f803373ffffffffffffffffffffffffffffffffffffffff1673ffffffffffffffffffffffffffffffffffffffff1681526020019081526020015f20546102c69190610643565b1015610307576040517f08c379a00000000000000000000000000000000000000000000000000000000081526004016102fe90610738565b60405180910390fd5b8260015f3373ffffffffffffffffffffffffffffffffffffffff1673ffffffffffffffffffffffffffffffffffffffff1681526020019081526020015f205f8282546103539190610756565b925050819055503373ffffffffffffffffffffffffffffffffffffffff167f5abb37b6a6e999ed1b32adaa92157f682779d5c878f8133de3e53cfdd319fafb846040516103a0919061051f565b60405180910390a2505050565b6001602052805f5260405f205f915090505481565b60025f9054906101000a900473ffffffffffffffffffffffffffffffffffffffff1673ffffffffffffffffffffffffffffffffffffffff163373ffffffffffffffffffffffffffffffffffffffff1614610451576040517f08c379a0000000000000000000000000000000000000000000000000000000008152600401610448906106d0565b60405180910390fd5b345f803373ffffffffffffffffffffffffffffffffffffffff1673ffffffffffffffffffffffffffffffffffffffff1681526020019081526020015f205f82825461049c9190610756565b925050819055503373ffffffffffffffffffffffffffffffffffffffff167fe5249d60e46bc17c93ebe0077404ce0986693b526789d52d468942ca2eba7ad3346040516104e9919061051f565b60405180910390a2565b5f602052805f5260405f205f915090505481565b5f819050919050565b61051981610507565b82525050565b5f6020820190506105325f830184610510565b92915050565b5f80fd5b61054581610507565b811461054f575f80fd5b50565b5f813590506105608161053c565b92915050565b5f6020828403121561057b5761057a610538565b5b5f61058884828501610552565b91505092915050565b5f73ffffffffffffffffffffffffffffffffffffffff82169050919050565b5f6105ba82610591565b9050919050565b6105ca816105b0565b81146105d4575f80fd5b50565b5f813590506105e5816105c1565b92915050565b5f60208284031215610600576105ff610538565b5b5f61060d848285016105d7565b91505092915050565b7f4e487b71000000000000000000000000000000000000000000000000000000005f52601160045260245ffd5b5f61064d82610507565b915061065883610507565b92508282039050818111156106705761066f610616565b5b92915050565b5f82825260208201905092915050565b7f4d75737420626520746865206f776e65720000000000000000000000000000005f82015250565b5f6106ba601183610676565b91506106c582610686565b602082019050919050565b5f6020820190508181035f8301526106e7816106ae565b9050919050565b7f496e73756666696369656e74204163636f756e742042616c616e6365000000005f82015250565b5f610722601c83610676565b915061072d826106ee565b602082019050919050565b5f6020820190508181035f83015261074f81610716565b9050919050565b5f61076082610507565b915061076b83610507565b925082820190508082111561078357610782610616565b5b9291505056fea2646970667358221220ce8ef1ea0f85f5ed109ed7a97a1bd37ad02f02b6a4a0885f1bb17137732e774f64736f6c63430008160033",
					"opcodes": "PUSH1 0x80 PUSH1 0x40 MSTORE CALLVALUE DUP1 ISZERO PUSH2 0xF JUMPI PUSH0 DUP1 REVERT JUMPDEST POP CALLER PUSH1 0x2 PUSH0 PUSH2 0x100 EXP DUP2 SLOAD DUP2 PUSH20 0xFFFFFFFFFFFFFFFFFFFFFFFFFFFFFFFFFFFFFFFF MUL NOT AND SWAP1 DUP4 PUSH20 0xFFFFFFFFFFFFFFFFFFFFFFFFFFFFFFFFFFFFFFFF AND MUL OR SWAP1 SSTORE POP PUSH2 0x7BF DUP1 PUSH2 0x5D PUSH0 CODECOPY PUSH0 RETURN INVALID PUSH1 0x80 PUSH1 0x40 MSTORE PUSH1 0x4 CALLDATASIZE LT PUSH2 0x49 JUMPI PUSH0 CALLDATALOAD PUSH1 0xE0 SHR DUP1 PUSH4 0x12065FE0 EQ PUSH2 0x4D JUMPI DUP1 PUSH4 0x835FC6CA EQ PUSH2 0x77 JUMPI DUP1 PUSH4 0xA14C2D5B EQ PUSH2 0x9F JUMPI DUP1 PUSH4 0xA50EC326 EQ PUSH2 0xDB JUMPI DUP1 PUSH4 0xE12D4A52 EQ PUSH2 0xE5 JUMPI JUMPDEST PUSH0 DUP1 REVERT JUMPDEST CALLVALUE DUP1 ISZERO PUSH2 0x58 JUMPI PUSH0 DUP1 REVERT JUMPDEST POP PUSH2 0x61 PUSH2 0x121 JUMP JUMPDEST PUSH1 0x40 MLOAD PUSH2 0x6E SWAP2 SWAP1 PUSH2 0x51F JUMP JUMPDEST PUSH1 0x40 MLOAD DUP1 SWAP2 SUB SWAP1 RETURN JUMPDEST CALLVALUE DUP1 ISZERO PUSH2 0x82 JUMPI PUSH0 DUP1 REVERT JUMPDEST POP PUSH2 0x9D PUSH1 0x4 DUP1 CALLDATASIZE SUB DUP2 ADD SWAP1 PUSH2 0x98 SWAP2 SWAP1 PUSH2 0x566 JUMP JUMPDEST PUSH2 0x1AC JUMP JUMPDEST STOP JUMPDEST CALLVALUE DUP1 ISZERO PUSH2 0xAA JUMPI PUSH0 DUP1 REVERT JUMPDEST POP PUSH2 0xC5 PUSH1 0x4 DUP1 CALLDATASIZE SUB DUP2 ADD SWAP1 PUSH2 0xC0 SWAP2 SWAP1 PUSH2 0x5EB JUMP JUMPDEST PUSH2 0x3AD JUMP JUMPDEST PUSH1 0x40 MLOAD PUSH2 0xD2 SWAP2 SWAP1 PUSH2 0x51F JUMP JUMPDEST PUSH1 0x40 MLOAD DUP1 SWAP2 SUB SWAP1 RETURN JUMPDEST PUSH2 0xE3 PUSH2 0x3C2 JUMP JUMPDEST STOP JUMPDEST CALLVALUE DUP1 ISZERO PUSH2 0xF0 JUMPI PUSH0 DUP1 REVERT JUMPDEST POP PUSH2 0x10B PUSH1 0x4 DUP1 CALLDATASIZE SUB DUP2 ADD SWAP1 PUSH2 0x106 SWAP2 SWAP1 PUSH2 0x5EB JUMP JUMPDEST PUSH2 0x4F3 JUMP JUMPDEST PUSH1 0x40 MLOAD PUSH2 0x118 SWAP2 SWAP1 PUSH2 0x51F JUMP JUMPDEST PUSH1 0x40 MLOAD DUP1 SWAP2 SUB SWAP1 RETURN JUMPDEST PUSH0 PUSH1 0x1 PUSH0 CALLER PUSH20 0xFFFFFFFFFFFFFFFFFFFFFFFFFFFFFFFFFFFFFFFF AND PUSH20 0xFFFFFFFFFFFFFFFFFFFFFFFFFFFFFFFFFFFFFFFF AND DUP2 MSTORE PUSH1 0x20 ADD SWAP1 DUP2 MSTORE PUSH1 0x20 ADD PUSH0 KECCAK256 SLOAD PUSH0 DUP1 CALLER PUSH20 0xFFFFFFFFFFFFFFFFFFFFFFFFFFFFFFFFFFFFFFFF AND PUSH20 0xFFFFFFFFFFFFFFFFFFFFFFFFFFFFFFFFFFFFFFFF AND DUP2 MSTORE PUSH1 0x20 ADD SWAP1 DUP2 MSTORE PUSH1 0x20 ADD PUSH0 KECCAK256 SLOAD PUSH2 0x1A7 SWAP2 SWAP1 PUSH2 0x643 JUMP JUMPDEST SWAP1 POP SWAP1 JUMP JUMPDEST PUSH1 0x2 PUSH0 SWAP1 SLOAD SWAP1 PUSH2 0x100 EXP SWAP1 DIV PUSH20 0xFFFFFFFFFFFFFFFFFFFFFFFFFFFFFFFFFFFFFFFF AND PUSH20 0xFFFFFFFFFFFFFFFFFFFFFFFFFFFFFFFFFFFFFFFF AND CALLER PUSH20 0xFFFFFFFFFFFFFFFFFFFFFFFFFFFFFFFFFFFFFFFF AND EQ PUSH2 0x23B JUMPI PUSH1 0x40 MLOAD PUSH32 0x8C379A000000000000000000000000000000000000000000000000000000000 DUP2 MSTORE PUSH1 0x4 ADD PUSH2 0x232 SWAP1 PUSH2 0x6D0 JUMP JUMPDEST PUSH1 0x40 MLOAD DUP1 SWAP2 SUB SWAP1 REVERT JUMPDEST DUP1 PUSH0 PUSH1 0x1 PUSH0 CALLER PUSH20 0xFFFFFFFFFFFFFFFFFFFFFFFFFFFFFFFFFFFFFFFF AND PUSH20 0xFFFFFFFFFFFFFFFFFFFFFFFFFFFFFFFFFFFFFFFF AND DUP2 MSTORE PUSH1 0x20 ADD SWAP1 DUP2 MSTORE PUSH1 0x20 ADD PUSH0 KECCAK256 SLOAD SWAP1 POP DUP2 DUP2 PUSH0 DUP1 CALLER PUSH20 0xFFFFFFFFFFFFFFFFFFFFFFFFFFFFFFFFFFFFFFFF AND PUSH20 0xFFFFFFFFFFFFFFFFFFFFFFFFFFFFFFFFFFFFFFFF AND DUP2 MSTORE PUSH1 0x20 ADD SWAP1 DUP2 MSTORE PUSH1 0x20 ADD PUSH0 KECCAK256 SLOAD PUSH2 0x2C6 SWAP2 SWAP1 PUSH2 0x643 JUMP JUMPDEST LT ISZERO PUSH2 0x307 JUMPI PUSH1 0x40 MLOAD PUSH32 0x8C379A000000000000000000000000000000000000000000000000000000000 DUP2 MSTORE PUSH1 0x4 ADD PUSH2 0x2FE SWAP1 PUSH2 0x738 JUMP JUMPDEST PUSH1 0x40 MLOAD DUP1 SWAP2 SUB SWAP1 REVERT JUMPDEST DUP3 PUSH1 0x1 PUSH0 CALLER PUSH20 0xFFFFFFFFFFFFFFFFFFFFFFFFFFFFFFFFFFFFFFFF AND PUSH20 0xFFFFFFFFFFFFFFFFFFFFFFFFFFFFFFFFFFFFFFFF AND DUP2 MSTORE PUSH1 0x20 ADD SWAP1 DUP2 MSTORE PUSH1 0x20 ADD PUSH0 KECCAK256 PUSH0 DUP3 DUP3 SLOAD PUSH2 0x353 SWAP2 SWAP1 PUSH2 0x756 JUMP JUMPDEST SWAP3 POP POP DUP2 SWAP1 SSTORE POP CALLER PUSH20 0xFFFFFFFFFFFFFFFFFFFFFFFFFFFFFFFFFFFFFFFF AND PUSH32 0x5ABB37B6A6E999ED1B32ADAA92157F682779D5C878F8133DE3E53CFDD319FAFB DUP5 PUSH1 0x40 MLOAD PUSH2 0x3A0 SWAP2 SWAP1 PUSH2 0x51F JUMP JUMPDEST PUSH1 0x40 MLOAD DUP1 SWAP2 SUB SWAP1 LOG2 POP POP POP JUMP JUMPDEST PUSH1 0x1 PUSH1 0x20 MSTORE DUP1 PUSH0 MSTORE PUSH1 0x40 PUSH0 KECCAK256 PUSH0 SWAP2 POP SWAP1 POP SLOAD DUP2 JUMP JUMPDEST PUSH1 0x2 PUSH0 SWAP1 SLOAD SWAP1 PUSH2 0x100 EXP SWAP1 DIV PUSH20 0xFFFFFFFFFFFFFFFFFFFFFFFFFFFFFFFFFFFFFFFF AND PUSH20 0xFFFFFFFFFFFFFFFFFFFFFFFFFFFFFFFFFFFFFFFF AND CALLER PUSH20 0xFFFFFFFFFFFFFFFFFFFFFFFFFFFFFFFFFFFFFFFF AND EQ PUSH2 0x451 JUMPI PUSH1 0x40 MLOAD PUSH32 0x8C379A000000000000000000000000000000000000000000000000000000000 DUP2 MSTORE PUSH1 0x4 ADD PUSH2 0x448 SWAP1 PUSH2 0x6D0 JUMP JUMPDEST PUSH1 0x40 MLOAD DUP1 SWAP2 SUB SWAP1 REVERT JUMPDEST CALLVALUE PUSH0 DUP1 CALLER PUSH20 0xFFFFFFFFFFFFFFFFFFFFFFFFFFFFFFFFFFFFFFFF AND PUSH20 0xFFFFFFFFFFFFFFFFFFFFFFFFFFFFFFFFFFFFFFFF AND DUP2 MSTORE PUSH1 0x20 ADD SWAP1 DUP2 MSTORE PUSH1 0x20 ADD PUSH0 KECCAK256 PUSH0 DUP3 DUP3 SLOAD PUSH2 0x49C SWAP2 SWAP1 PUSH2 0x756 JUMP JUMPDEST SWAP3 POP POP DUP2 SWAP1 SSTORE POP CALLER PUSH20 0xFFFFFFFFFFFFFFFFFFFFFFFFFFFFFFFFFFFFFFFF AND PUSH32 0xE5249D60E46BC17C93EBE0077404CE0986693B526789D52D468942CA2EBA7AD3 CALLVALUE PUSH1 0x40 MLOAD PUSH2 0x4E9 SWAP2 SWAP1 PUSH2 0x51F JUMP JUMPDEST PUSH1 0x40 MLOAD DUP1 SWAP2 SUB SWAP1 LOG2 JUMP JUMPDEST PUSH0 PUSH1 0x20 MSTORE DUP1 PUSH0 MSTORE PUSH1 0x40 PUSH0 KECCAK256 PUSH0 SWAP2 POP SWAP1 POP SLOAD DUP2 JUMP JUMPDEST PUSH0 DUP2 SWAP1 POP SWAP2 SWAP1 POP JUMP JUMPDEST PUSH2 0x519 DUP2 PUSH2 0x507 JUMP JUMPDEST DUP3 MSTORE POP POP JUMP JUMPDEST PUSH0 PUSH1 0x20 DUP3 ADD SWAP1 POP PUSH2 0x532 PUSH0 DUP4 ADD DUP5 PUSH2 0x510 JUMP JUMPDEST SWAP3 SWAP2 POP POP JUMP JUMPDEST PUSH0 DUP1 REVERT JUMPDEST PUSH2 0x545 DUP2 PUSH2 0x507 JUMP JUMPDEST DUP2 EQ PUSH2 0x54F JUMPI PUSH0 DUP1 REVERT JUMPDEST POP JUMP JUMPDEST PUSH0 DUP2 CALLDATALOAD SWAP1 POP PUSH2 0x560 DUP2 PUSH2 0x53C JUMP JUMPDEST SWAP3 SWAP2 POP POP JUMP JUMPDEST PUSH0 PUSH1 0x20 DUP3 DUP5 SUB SLT ISZERO PUSH2 0x57B JUMPI PUSH2 0x57A PUSH2 0x538 JUMP JUMPDEST JUMPDEST PUSH0 PUSH2 0x588 DUP5 DUP3 DUP6 ADD PUSH2 0x552 JUMP JUMPDEST SWAP2 POP POP SWAP3 SWAP2 POP POP JUMP JUMPDEST PUSH0 PUSH20 0xFFFFFFFFFFFFFFFFFFFFFFFFFFFFFFFFFFFFFFFF DUP3 AND SWAP1 POP SWAP2 SWAP1 POP JUMP JUMPDEST PUSH0 PUSH2 0x5BA DUP3 PUSH2 0x591 JUMP JUMPDEST SWAP1 POP SWAP2 SWAP1 POP JUMP JUMPDEST PUSH2 0x5CA DUP2 PUSH2 0x5B0 JUMP JUMPDEST DUP2 EQ PUSH2 0x5D4 JUMPI PUSH0 DUP1 REVERT JUMPDEST POP JUMP JUMPDEST PUSH0 DUP2 CALLDATALOAD SWAP1 POP PUSH2 0x5E5 DUP2 PUSH2 0x5C1 JUMP JUMPDEST SWAP3 SWAP2 POP POP JUMP JUMPDEST PUSH0 PUSH1 0x20 DUP3 DUP5 SUB SLT ISZERO PUSH2 0x600 JUMPI PUSH2 0x5FF PUSH2 0x538 JUMP JUMPDEST JUMPDEST PUSH0 PUSH2 0x60D DUP5 DUP3 DUP6 ADD PUSH2 0x5D7 JUMP JUMPDEST SWAP2 POP POP SWAP3 SWAP2 POP POP JUMP JUMPDEST PUSH32 0x4E487B7100000000000000000000000000000000000000000000000000000000 PUSH0 MSTORE PUSH1 0x11 PUSH1 0x4 MSTORE PUSH1 0x24 PUSH0 REVERT JUMPDEST PUSH0 PUSH2 0x64D DUP3 PUSH2 0x507 JUMP JUMPDEST SWAP2 POP PUSH2 0x658 DUP4 PUSH2 0x507 JUMP JUMPDEST SWAP3 POP DUP3 DUP3 SUB SWAP1 POP DUP2 DUP2 GT ISZERO PUSH2 0x670 JUMPI PUSH2 0x66F PUSH2 0x616 JUMP JUMPDEST JUMPDEST SWAP3 SWAP2 POP POP JUMP JUMPDEST PUSH0 DUP3 DUP3 MSTORE PUSH1 0x20 DUP3 ADD SWAP1 POP SWAP3 SWAP2 POP POP JUMP JUMPDEST PUSH32 0x4D75737420626520746865206F776E6572000000000000000000000000000000 PUSH0 DUP3 ADD MSTORE POP JUMP JUMPDEST PUSH0 PUSH2 0x6BA PUSH1 0x11 DUP4 PUSH2 0x676 JUMP JUMPDEST SWAP2 POP PUSH2 0x6C5 DUP3 PUSH2 0x686 JUMP JUMPDEST PUSH1 0x20 DUP3 ADD SWAP1 POP SWAP2 SWAP1 POP JUMP JUMPDEST PUSH0 PUSH1 0x20 DUP3 ADD SWAP1 POP DUP2 DUP2 SUB PUSH0 DUP4 ADD MSTORE PUSH2 0x6E7 DUP2 PUSH2 0x6AE JUMP JUMPDEST SWAP1 POP SWAP2 SWAP1 POP JUMP JUMPDEST PUSH32 0x496E73756666696369656E74204163636F756E742042616C616E636500000000 PUSH0 DUP3 ADD MSTORE POP JUMP JUMPDEST PUSH0 PUSH2 0x722 PUSH1 0x1C DUP4 PUSH2 0x676 JUMP JUMPDEST SWAP2 POP PUSH2 0x72D DUP3 PUSH2 0x6EE JUMP JUMPDEST PUSH1 0x20 DUP3 ADD SWAP1 POP SWAP2 SWAP1 POP JUMP JUMPDEST PUSH0 PUSH1 0x20 DUP3 ADD SWAP1 POP DUP2 DUP2 SUB PUSH0 DUP4 ADD MSTORE PUSH2 0x74F DUP2 PUSH2 0x716 JUMP JUMPDEST SWAP1 POP SWAP2 SWAP1 POP JUMP JUMPDEST PUSH0 PUSH2 0x760 DUP3 PUSH2 0x507 JUMP JUMPDEST SWAP2 POP PUSH2 0x76B DUP4 PUSH2 0x507 JUMP JUMPDEST SWAP3 POP DUP3 DUP3 ADD SWAP1 POP DUP1 DUP3 GT ISZERO PUSH2 0x783 JUMPI PUSH2 0x782 PUSH2 0x616 JUMP JUMPDEST JUMPDEST SWAP3 SWAP2 POP POP JUMP INVALID LOG2 PUSH5 0x6970667358 0x22 SLT KECCAK256 0xCE DUP15 CALL 0xEA 0xF DUP6 CREATE2 0xED LT SWAP15 0xD7 0xA9 PUSH27 0x1BD37AD02F02B6A4A0885F1BB17137732E774F64736F6C63430008 AND STOP CALLER "
				},
				"gasEstimates": {
					"creation": {
						"codeDepositCost": "396600",
						"executionCost": "24693",
						"totalCost": "421293"
					},
					"external": {
						"depositFund(address)": "2867",
						"deposite()": "infinite",
						"getBalance()": "infinite",
						"withdrawal(uint256)": "infinite",
						"withdrawlFund(address)": "2824"
					}
				},
				"methodIdentifiers": {
					"depositFund(address)": "e12d4a52",
					"deposite()": "a50ec326",
					"getBalance()": "12065fe0",
					"withdrawal(uint256)": "835fc6ca",
					"withdrawlFund(address)": "a14c2d5b"
				}
			},
			"storageLayout": {
				"storage": [
					{
						"astId": 5,
						"contract": "constructors/Copy_UseCase2.sol:Bank",
						"label": "depositFund",
						"offset": 0,
						"slot": "0",
						"type": "t_mapping(t_address,t_uint256)"
					},
					{
						"astId": 9,
						"contract": "constructors/Copy_UseCase2.sol:Bank",
						"label": "withdrawlFund",
						"offset": 0,
						"slot": "1",
						"type": "t_mapping(t_address,t_uint256)"
					},
					{
						"astId": 11,
						"contract": "constructors/Copy_UseCase2.sol:Bank",
						"label": "owner",
						"offset": 0,
						"slot": "2",
						"type": "t_address"
					}
				],
				"types": {
					"t_address": {
						"encoding": "inplace",
						"label": "address",
						"numberOfBytes": "20"
					},
					"t_mapping(t_address,t_uint256)": {
						"encoding": "mapping",
						"key": "t_address",
						"label": "mapping(address => uint256)",
						"numberOfBytes": "32",
						"value": "t_uint256"
					},
					"t_uint256": {
						"encoding": "inplace",
						"label": "uint256",
						"numberOfBytes": "32"
					}
				}
			},
			"userdoc": {
				"kind": "user",
				"methods": {},
				"version": 1
			}
		}
	}
}