{
	"constructors/VisibilityTest.sol": {
		"Test": {
			"abi": [
				{
					"inputs": [
						{
							"internalType": "uint256",
							"name": "_toAdd",
							"type": "uint256"
						}
					],
					"name": "addBalance",
					"outputs": [
						{
							"internalType": "uint256",
							"name": "",
							"type": "uint256"
						}
					],
					"stateMutability": "nonpayable",
					"type": "function"
				},
				{
					"inputs": [],
					"name": "getBalance",
					"outputs": [
						{
							"internalType": "uint256",
							"name": "",
							"type": "uint256"
						}
					],
					"stateMutability": "view",
					"type": "function"
				},
				{
					"inputs": [
						{
							"internalType": "address",
							"name": "reciever",
							"type": "address"
						},
						{
							"internalType": "uint256",
							"name": "amount",
							"type": "uint256"
						}
					],
					"name": "transfer",
					"outputs": [],
					"stateMutability": "nonpayable",
					"type": "function"
				}
			],
			"devdoc": {
				"kind": "dev",
				"methods": {},
				"version": 1
			},
			"evm": {
				"assembly": "    /* \"constructors/VisibilityTest.sol\":57:778  contract Test {... */\n  mstore(0x40, 0x80)\n  callvalue\n  dup1\n  iszero\n  tag_1\n  jumpi\n  0x00\n  dup1\n  revert\ntag_1:\n  pop\n  dataSize(sub_0)\n  dup1\n  dataOffset(sub_0)\n  0x00\n  codecopy\n  0x00\n  return\nstop\n\nsub_0: assembly {\n        /* \"constructors/VisibilityTest.sol\":57:778  contract Test {... */\n      mstore(0x40, 0x80)\n      callvalue\n      dup1\n      iszero\n      tag_1\n      jumpi\n      0x00\n      dup1\n      revert\n    tag_1:\n      pop\n      jumpi(tag_2, lt(calldatasize, 0x04))\n      shr(0xe0, calldataload(0x00))\n      dup1\n      0x12065fe0\n      eq\n      tag_3\n      jumpi\n      dup1\n      0xa9059cbb\n      eq\n      tag_4\n      jumpi\n      dup1\n      0xd91921ed\n      eq\n      tag_5\n      jumpi\n    tag_2:\n      0x00\n      dup1\n      revert\n        /* \"constructors/VisibilityTest.sol\":260:352  function getBalance() public view returns (uint) {... */\n    tag_3:\n      tag_6\n      tag_7\n      jump\t// in\n    tag_6:\n      mload(0x40)\n      tag_8\n      swap2\n      swap1\n      tag_9\n      jump\t// in\n    tag_8:\n      mload(0x40)\n      dup1\n      swap2\n      sub\n      swap1\n      return\n        /* \"constructors/VisibilityTest.sol\":358:633  function transfer(address reciever, uint amount) public {... */\n    tag_4:\n      tag_10\n      0x04\n      dup1\n      calldatasize\n      sub\n      dup2\n      add\n      swap1\n      tag_11\n      swap2\n      swap1\n      tag_12\n      jump\t// in\n    tag_11:\n      tag_13\n      jump\t// in\n    tag_10:\n      stop\n        /* \"constructors/VisibilityTest.sol\":117:254  function addBalance(uint _toAdd) public returns (uint) {... */\n    tag_5:\n      tag_14\n      0x04\n      dup1\n      calldatasize\n      sub\n      dup2\n      add\n      swap1\n      tag_15\n      swap2\n      swap1\n      tag_16\n      jump\t// in\n    tag_15:\n      tag_17\n      jump\t// in\n    tag_14:\n      mload(0x40)\n      tag_18\n      swap2\n      swap1\n      tag_9\n      jump\t// in\n    tag_18:\n      mload(0x40)\n      dup1\n      swap2\n      sub\n      swap1\n      return\n        /* \"constructors/VisibilityTest.sol\":260:352  function getBalance() public view returns (uint) {... */\n    tag_7:\n        /* \"constructors/VisibilityTest.sol\":303:307  uint */\n      0x00\n        /* \"constructors/VisibilityTest.sol\":326:333  balance */\n      dup1\n        /* \"constructors/VisibilityTest.sol\":326:345  balance[msg.sender] */\n      0x00\n        /* \"constructors/VisibilityTest.sol\":334:344  msg.sender */\n      caller\n        /* \"constructors/VisibilityTest.sol\":326:345  balance[msg.sender] */\n      0xffffffffffffffffffffffffffffffffffffffff\n      and\n      0xffffffffffffffffffffffffffffffffffffffff\n      and\n      dup2\n      mstore\n      0x20\n      add\n      swap1\n      dup2\n      mstore\n      0x20\n      add\n      0x00\n      keccak256\n      sload\n        /* \"constructors/VisibilityTest.sol\":319:345  return balance[msg.sender] */\n      swap1\n      pop\n        /* \"constructors/VisibilityTest.sol\":260:352  function getBalance() public view returns (uint) {... */\n      swap1\n      jump\t// out\n        /* \"constructors/VisibilityTest.sol\":358:633  function transfer(address reciever, uint amount) public {... */\n    tag_13:\n        /* \"constructors/VisibilityTest.sol\":545:584  _transfer(msg.sender, reciever, amount) */\n      tag_21\n        /* \"constructors/VisibilityTest.sol\":555:565  msg.sender */\n      caller\n        /* \"constructors/VisibilityTest.sol\":567:575  reciever */\n      dup4\n        /* \"constructors/VisibilityTest.sol\":577:583  amount */\n      dup4\n        /* \"constructors/VisibilityTest.sol\":545:554  _transfer */\n      tag_22\n        /* \"constructors/VisibilityTest.sol\":545:584  _transfer(msg.sender, reciever, amount) */\n      jump\t// in\n    tag_21:\n        /* \"constructors/VisibilityTest.sol\":358:633  function transfer(address reciever, uint amount) public {... */\n      pop\n      pop\n      jump\t// out\n        /* \"constructors/VisibilityTest.sol\":117:254  function addBalance(uint _toAdd) public returns (uint) {... */\n    tag_17:\n        /* \"constructors/VisibilityTest.sol\":166:170  uint */\n      0x00\n        /* \"constructors/VisibilityTest.sol\":205:211  _toAdd */\n      dup2\n        /* \"constructors/VisibilityTest.sol\":182:189  balance */\n      0x00\n        /* \"constructors/VisibilityTest.sol\":182:201  balance[msg.sender] */\n      dup1\n        /* \"constructors/VisibilityTest.sol\":190:200  msg.sender */\n      caller\n        /* \"constructors/VisibilityTest.sol\":182:201  balance[msg.sender] */\n      0xffffffffffffffffffffffffffffffffffffffff\n      and\n      0xffffffffffffffffffffffffffffffffffffffff\n      and\n      dup2\n      mstore\n      0x20\n      add\n      swap1\n      dup2\n      mstore\n      0x20\n      add\n      0x00\n      keccak256\n      0x00\n        /* \"constructors/VisibilityTest.sol\":182:211  balance[msg.sender] += _toAdd */\n      dup3\n      dup3\n      sload\n      tag_24\n      swap2\n      swap1\n      tag_25\n      jump\t// in\n    tag_24:\n      swap3\n      pop\n      pop\n      dup2\n      swap1\n      sstore\n      pop\n        /* \"constructors/VisibilityTest.sol\":228:235  balance */\n      0x00\n        /* \"constructors/VisibilityTest.sol\":228:247  balance[msg.sender] */\n      dup1\n        /* \"constructors/VisibilityTest.sol\":236:246  msg.sender */\n      caller\n        /* \"constructors/VisibilityTest.sol\":228:247  balance[msg.sender] */\n      0xffffffffffffffffffffffffffffffffffffffff\n      and\n      0xffffffffffffffffffffffffffffffffffffffff\n      and\n      dup2\n      mstore\n      0x20\n      add\n      swap1\n      dup2\n      mstore\n      0x20\n      add\n      0x00\n      keccak256\n      sload\n        /* \"constructors/VisibilityTest.sol\":221:247  return balance[msg.sender] */\n      swap1\n      pop\n        /* \"constructors/VisibilityTest.sol\":117:254  function addBalance(uint _toAdd) public returns (uint) {... */\n      swap2\n      swap1\n      pop\n      jump\t// out\n        /* \"constructors/VisibilityTest.sol\":639:776  function _transfer(address from, address to, uint amount) private {... */\n    tag_22:\n        /* \"constructors/VisibilityTest.sol\":732:738  amount */\n      dup1\n        /* \"constructors/VisibilityTest.sol\":715:722  balance */\n      0x00\n        /* \"constructors/VisibilityTest.sol\":715:728  balance[from] */\n      dup1\n        /* \"constructors/VisibilityTest.sol\":723:727  from */\n      dup6\n        /* \"constructors/VisibilityTest.sol\":715:728  balance[from] */\n      0xffffffffffffffffffffffffffffffffffffffff\n      and\n      0xffffffffffffffffffffffffffffffffffffffff\n      and\n      dup2\n      mstore\n      0x20\n      add\n      swap1\n      dup2\n      mstore\n      0x20\n      add\n      0x00\n      keccak256\n      0x00\n        /* \"constructors/VisibilityTest.sol\":715:738  balance[from] -= amount */\n      dup3\n      dup3\n      sload\n      tag_27\n      swap2\n      swap1\n      tag_28\n      jump\t// in\n    tag_27:\n      swap3\n      pop\n      pop\n      dup2\n      swap1\n      sstore\n      pop\n        /* \"constructors/VisibilityTest.sol\":763:769  amount */\n      dup1\n        /* \"constructors/VisibilityTest.sol\":748:755  balance */\n      0x00\n        /* \"constructors/VisibilityTest.sol\":748:759  balance[to] */\n      dup1\n        /* \"constructors/VisibilityTest.sol\":756:758  to */\n      dup5\n        /* \"constructors/VisibilityTest.sol\":748:759  balance[to] */\n      0xffffffffffffffffffffffffffffffffffffffff\n      and\n      0xffffffffffffffffffffffffffffffffffffffff\n      and\n      dup2\n      mstore\n      0x20\n      add\n      swap1\n      dup2\n      mstore\n      0x20\n      add\n      0x00\n      keccak256\n      0x00\n        /* \"constructors/VisibilityTest.sol\":748:769  balance[to] += amount */\n      dup3\n      dup3\n      sload\n      tag_29\n      swap2\n      swap1\n      tag_25\n      jump\t// in\n    tag_29:\n      swap3\n      pop\n      pop\n      dup2\n      swap1\n      sstore\n      pop\n        /* \"constructors/VisibilityTest.sol\":639:776  function _transfer(address from, address to, uint amount) private {... */\n      pop\n      pop\n      pop\n      jump\t// out\n        /* \"#utility.yul\":7:84   */\n    tag_30:\n        /* \"#utility.yul\":44:51   */\n      0x00\n        /* \"#utility.yul\":73:78   */\n      dup2\n        /* \"#utility.yul\":62:78   */\n      swap1\n      pop\n        /* \"#utility.yul\":7:84   */\n      swap2\n      swap1\n      pop\n      jump\t// out\n        /* \"#utility.yul\":90:208   */\n    tag_31:\n        /* \"#utility.yul\":177:201   */\n      tag_45\n        /* \"#utility.yul\":195:200   */\n      dup2\n        /* \"#utility.yul\":177:201   */\n      tag_30\n      jump\t// in\n    tag_45:\n        /* \"#utility.yul\":172:175   */\n      dup3\n        /* \"#utility.yul\":165:202   */\n      mstore\n        /* \"#utility.yul\":90:208   */\n      pop\n      pop\n      jump\t// out\n        /* \"#utility.yul\":214:436   */\n    tag_9:\n        /* \"#utility.yul\":307:311   */\n      0x00\n        /* \"#utility.yul\":345:347   */\n      0x20\n        /* \"#utility.yul\":334:343   */\n      dup3\n        /* \"#utility.yul\":330:348   */\n      add\n        /* \"#utility.yul\":322:348   */\n      swap1\n      pop\n        /* \"#utility.yul\":358:429   */\n      tag_47\n        /* \"#utility.yul\":426:427   */\n      0x00\n        /* \"#utility.yul\":415:424   */\n      dup4\n        /* \"#utility.yul\":411:428   */\n      add\n        /* \"#utility.yul\":402:408   */\n      dup5\n        /* \"#utility.yul\":358:429   */\n      tag_31\n      jump\t// in\n    tag_47:\n        /* \"#utility.yul\":214:436   */\n      swap3\n      swap2\n      pop\n      pop\n      jump\t// out\n        /* \"#utility.yul\":523:640   */\n    tag_33:\n        /* \"#utility.yul\":632:633   */\n      0x00\n        /* \"#utility.yul\":629:630   */\n      dup1\n        /* \"#utility.yul\":622:634   */\n      revert\n        /* \"#utility.yul\":769:895   */\n    tag_35:\n        /* \"#utility.yul\":806:813   */\n      0x00\n        /* \"#utility.yul\":846:888   */\n      0xffffffffffffffffffffffffffffffffffffffff\n        /* \"#utility.yul\":839:844   */\n      dup3\n        /* \"#utility.yul\":835:889   */\n      and\n        /* \"#utility.yul\":824:889   */\n      swap1\n      pop\n        /* \"#utility.yul\":769:895   */\n      swap2\n      swap1\n      pop\n      jump\t// out\n        /* \"#utility.yul\":901:997   */\n    tag_36:\n        /* \"#utility.yul\":938:945   */\n      0x00\n        /* \"#utility.yul\":967:991   */\n      tag_53\n        /* \"#utility.yul\":985:990   */\n      dup3\n        /* \"#utility.yul\":967:991   */\n      tag_35\n      jump\t// in\n    tag_53:\n        /* \"#utility.yul\":956:991   */\n      swap1\n      pop\n        /* \"#utility.yul\":901:997   */\n      swap2\n      swap1\n      pop\n      jump\t// out\n        /* \"#utility.yul\":1003:1125   */\n    tag_37:\n        /* \"#utility.yul\":1076:1100   */\n      tag_55\n        /* \"#utility.yul\":1094:1099   */\n      dup2\n        /* \"#utility.yul\":1076:1100   */\n      tag_36\n      jump\t// in\n    tag_55:\n        /* \"#utility.yul\":1069:1074   */\n      dup2\n        /* \"#utility.yul\":1066:1101   */\n      eq\n        /* \"#utility.yul\":1056:1119   */\n      tag_56\n      jumpi\n        /* \"#utility.yul\":1115:1116   */\n      0x00\n        /* \"#utility.yul\":1112:1113   */\n      dup1\n        /* \"#utility.yul\":1105:1117   */\n      revert\n        /* \"#utility.yul\":1056:1119   */\n    tag_56:\n        /* \"#utility.yul\":1003:1125   */\n      pop\n      jump\t// out\n        /* \"#utility.yul\":1131:1270   */\n    tag_38:\n        /* \"#utility.yul\":1177:1182   */\n      0x00\n        /* \"#utility.yul\":1215:1221   */\n      dup2\n        /* \"#utility.yul\":1202:1222   */\n      calldataload\n        /* \"#utility.yul\":1193:1222   */\n      swap1\n      pop\n        /* \"#utility.yul\":1231:1264   */\n      tag_58\n        /* \"#utility.yul\":1258:1263   */\n      dup2\n        /* \"#utility.yul\":1231:1264   */\n      tag_37\n      jump\t// in\n    tag_58:\n        /* \"#utility.yul\":1131:1270   */\n      swap3\n      swap2\n      pop\n      pop\n      jump\t// out\n        /* \"#utility.yul\":1276:1398   */\n    tag_39:\n        /* \"#utility.yul\":1349:1373   */\n      tag_60\n        /* \"#utility.yul\":1367:1372   */\n      dup2\n        /* \"#utility.yul\":1349:1373   */\n      tag_30\n      jump\t// in\n    tag_60:\n        /* \"#utility.yul\":1342:1347   */\n      dup2\n        /* \"#utility.yul\":1339:1374   */\n      eq\n        /* \"#utility.yul\":1329:1392   */\n      tag_61\n      jumpi\n        /* \"#utility.yul\":1388:1389   */\n      0x00\n        /* \"#utility.yul\":1385:1386   */\n      dup1\n        /* \"#utility.yul\":1378:1390   */\n      revert\n        /* \"#utility.yul\":1329:1392   */\n    tag_61:\n        /* \"#utility.yul\":1276:1398   */\n      pop\n      jump\t// out\n        /* \"#utility.yul\":1404:1543   */\n    tag_40:\n        /* \"#utility.yul\":1450:1455   */\n      0x00\n        /* \"#utility.yul\":1488:1494   */\n      dup2\n        /* \"#utility.yul\":1475:1495   */\n      calldataload\n        /* \"#utility.yul\":1466:1495   */\n      swap1\n      pop\n        /* \"#utility.yul\":1504:1537   */\n      tag_63\n        /* \"#utility.yul\":1531:1536   */\n      dup2\n        /* \"#utility.yul\":1504:1537   */\n      tag_39\n      jump\t// in\n    tag_63:\n        /* \"#utility.yul\":1404:1543   */\n      swap3\n      swap2\n      pop\n      pop\n      jump\t// out\n        /* \"#utility.yul\":1549:2023   */\n    tag_12:\n        /* \"#utility.yul\":1617:1623   */\n      0x00\n        /* \"#utility.yul\":1625:1631   */\n      dup1\n        /* \"#utility.yul\":1674:1676   */\n      0x40\n        /* \"#utility.yul\":1662:1671   */\n      dup4\n        /* \"#utility.yul\":1653:1660   */\n      dup6\n        /* \"#utility.yul\":1649:1672   */\n      sub\n        /* \"#utility.yul\":1645:1677   */\n      slt\n        /* \"#utility.yul\":1642:1761   */\n      iszero\n      tag_65\n      jumpi\n        /* \"#utility.yul\":1680:1759   */\n      tag_66\n      tag_33\n      jump\t// in\n    tag_66:\n        /* \"#utility.yul\":1642:1761   */\n    tag_65:\n        /* \"#utility.yul\":1800:1801   */\n      0x00\n        /* \"#utility.yul\":1825:1878   */\n      tag_67\n        /* \"#utility.yul\":1870:1877   */\n      dup6\n        /* \"#utility.yul\":1861:1867   */\n      dup3\n        /* \"#utility.yul\":1850:1859   */\n      dup7\n        /* \"#utility.yul\":1846:1868   */\n      add\n        /* \"#utility.yul\":1825:1878   */\n      tag_38\n      jump\t// in\n    tag_67:\n        /* \"#utility.yul\":1815:1878   */\n      swap3\n      pop\n        /* \"#utility.yul\":1771:1888   */\n      pop\n        /* \"#utility.yul\":1927:1929   */\n      0x20\n        /* \"#utility.yul\":1953:2006   */\n      tag_68\n        /* \"#utility.yul\":1998:2005   */\n      dup6\n        /* \"#utility.yul\":1989:1995   */\n      dup3\n        /* \"#utility.yul\":1978:1987   */\n      dup7\n        /* \"#utility.yul\":1974:1996   */\n      add\n        /* \"#utility.yul\":1953:2006   */\n      tag_40\n      jump\t// in\n    tag_68:\n        /* \"#utility.yul\":1943:2006   */\n      swap2\n      pop\n        /* \"#utility.yul\":1898:2016   */\n      pop\n        /* \"#utility.yul\":1549:2023   */\n      swap3\n      pop\n      swap3\n      swap1\n      pop\n      jump\t// out\n        /* \"#utility.yul\":2029:2358   */\n    tag_16:\n        /* \"#utility.yul\":2088:2094   */\n      0x00\n        /* \"#utility.yul\":2137:2139   */\n      0x20\n        /* \"#utility.yul\":2125:2134   */\n      dup3\n        /* \"#utility.yul\":2116:2123   */\n      dup5\n        /* \"#utility.yul\":2112:2135   */\n      sub\n        /* \"#utility.yul\":2108:2140   */\n      slt\n        /* \"#utility.yul\":2105:2224   */\n      iszero\n      tag_70\n      jumpi\n        /* \"#utility.yul\":2143:2222   */\n      tag_71\n      tag_33\n      jump\t// in\n    tag_71:\n        /* \"#utility.yul\":2105:2224   */\n    tag_70:\n        /* \"#utility.yul\":2263:2264   */\n      0x00\n        /* \"#utility.yul\":2288:2341   */\n      tag_72\n        /* \"#utility.yul\":2333:2340   */\n      dup5\n        /* \"#utility.yul\":2324:2330   */\n      dup3\n        /* \"#utility.yul\":2313:2322   */\n      dup6\n        /* \"#utility.yul\":2309:2331   */\n      add\n        /* \"#utility.yul\":2288:2341   */\n      tag_40\n      jump\t// in\n    tag_72:\n        /* \"#utility.yul\":2278:2341   */\n      swap2\n      pop\n        /* \"#utility.yul\":2234:2351   */\n      pop\n        /* \"#utility.yul\":2029:2358   */\n      swap3\n      swap2\n      pop\n      pop\n      jump\t// out\n        /* \"#utility.yul\":2364:2544   */\n    tag_41:\n        /* \"#utility.yul\":2412:2489   */\n      0x4e487b7100000000000000000000000000000000000000000000000000000000\n        /* \"#utility.yul\":2409:2410   */\n      0x00\n        /* \"#utility.yul\":2402:2490   */\n      mstore\n        /* \"#utility.yul\":2509:2513   */\n      0x11\n        /* \"#utility.yul\":2506:2507   */\n      0x04\n        /* \"#utility.yul\":2499:2514   */\n      mstore\n        /* \"#utility.yul\":2533:2537   */\n      0x24\n        /* \"#utility.yul\":2530:2531   */\n      0x00\n        /* \"#utility.yul\":2523:2538   */\n      revert\n        /* \"#utility.yul\":2550:2741   */\n    tag_25:\n        /* \"#utility.yul\":2590:2593   */\n      0x00\n        /* \"#utility.yul\":2609:2629   */\n      tag_75\n        /* \"#utility.yul\":2627:2628   */\n      dup3\n        /* \"#utility.yul\":2609:2629   */\n      tag_30\n      jump\t// in\n    tag_75:\n        /* \"#utility.yul\":2604:2629   */\n      swap2\n      pop\n        /* \"#utility.yul\":2643:2663   */\n      tag_76\n        /* \"#utility.yul\":2661:2662   */\n      dup4\n        /* \"#utility.yul\":2643:2663   */\n      tag_30\n      jump\t// in\n    tag_76:\n        /* \"#utility.yul\":2638:2663   */\n      swap3\n      pop\n        /* \"#utility.yul\":2686:2687   */\n      dup3\n        /* \"#utility.yul\":2683:2684   */\n      dup3\n        /* \"#utility.yul\":2679:2688   */\n      add\n        /* \"#utility.yul\":2672:2688   */\n      swap1\n      pop\n        /* \"#utility.yul\":2707:2710   */\n      dup1\n        /* \"#utility.yul\":2704:2705   */\n      dup3\n        /* \"#utility.yul\":2701:2711   */\n      gt\n        /* \"#utility.yul\":2698:2734   */\n      iszero\n      tag_77\n      jumpi\n        /* \"#utility.yul\":2714:2732   */\n      tag_78\n      tag_41\n      jump\t// in\n    tag_78:\n        /* \"#utility.yul\":2698:2734   */\n    tag_77:\n        /* \"#utility.yul\":2550:2741   */\n      swap3\n      swap2\n      pop\n      pop\n      jump\t// out\n        /* \"#utility.yul\":2747:2941   */\n    tag_28:\n        /* \"#utility.yul\":2787:2791   */\n      0x00\n        /* \"#utility.yul\":2807:2827   */\n      tag_80\n        /* \"#utility.yul\":2825:2826   */\n      dup3\n        /* \"#utility.yul\":2807:2827   */\n      tag_30\n      jump\t// in\n    tag_80:\n        /* \"#utility.yul\":2802:2827   */\n      swap2\n      pop\n        /* \"#utility.yul\":2841:2861   */\n      tag_81\n        /* \"#utility.yul\":2859:2860   */\n      dup4\n        /* \"#utility.yul\":2841:2861   */\n      tag_30\n      jump\t// in\n    tag_81:\n        /* \"#utility.yul\":2836:2861   */\n      swap3\n      pop\n        /* \"#utility.yul\":2885:2886   */\n      dup3\n        /* \"#utility.yul\":2882:2883   */\n      dup3\n        /* \"#utility.yul\":2878:2887   */\n      sub\n        /* \"#utility.yul\":2870:2887   */\n      swap1\n      pop\n        /* \"#utility.yul\":2909:2910   */\n      dup2\n        /* \"#utility.yul\":2903:2907   */\n      dup2\n        /* \"#utility.yul\":2900:2911   */\n      gt\n        /* \"#utility.yul\":2897:2934   */\n      iszero\n      tag_82\n      jumpi\n        /* \"#utility.yul\":2914:2932   */\n      tag_83\n      tag_41\n      jump\t// in\n    tag_83:\n        /* \"#utility.yul\":2897:2934   */\n    tag_82:\n        /* \"#utility.yul\":2747:2941   */\n      swap3\n      swap2\n      pop\n      pop\n      jump\t// out\n\n    auxdata: 0xa26469706673582212202b1112a12f6d07efc658d18ead0ca1174b498898ac3db643048ce5674c16923664736f6c63430008160033\n}\n",
				"bytecode": {
					"linkReferences": {},
					"object": "608060405234801561000f575f80fd5b5061042a8061001d5f395ff3fe608060405234801561000f575f80fd5b506004361061003f575f3560e01c806312065fe014610043578063a9059cbb14610061578063d91921ed1461007d575b5f80fd5b61004b6100ad565b6040516100589190610257565b60405180910390f35b61007b600480360381019061007691906102f8565b6100f0565b005b61009760048036038101906100929190610336565b6100ff565b6040516100a49190610257565b60405180910390f35b5f805f3373ffffffffffffffffffffffffffffffffffffffff1673ffffffffffffffffffffffffffffffffffffffff1681526020019081526020015f2054905090565b6100fb338383610196565b5050565b5f815f803373ffffffffffffffffffffffffffffffffffffffff1673ffffffffffffffffffffffffffffffffffffffff1681526020019081526020015f205f82825461014b919061038e565b925050819055505f803373ffffffffffffffffffffffffffffffffffffffff1673ffffffffffffffffffffffffffffffffffffffff1681526020019081526020015f20549050919050565b805f808573ffffffffffffffffffffffffffffffffffffffff1673ffffffffffffffffffffffffffffffffffffffff1681526020019081526020015f205f8282546101e191906103c1565b92505081905550805f808473ffffffffffffffffffffffffffffffffffffffff1673ffffffffffffffffffffffffffffffffffffffff1681526020019081526020015f205f828254610233919061038e565b92505081905550505050565b5f819050919050565b6102518161023f565b82525050565b5f60208201905061026a5f830184610248565b92915050565b5f80fd5b5f73ffffffffffffffffffffffffffffffffffffffff82169050919050565b5f61029d82610274565b9050919050565b6102ad81610293565b81146102b7575f80fd5b50565b5f813590506102c8816102a4565b92915050565b6102d78161023f565b81146102e1575f80fd5b50565b5f813590506102f2816102ce565b92915050565b5f806040838503121561030e5761030d610270565b5b5f61031b858286016102ba565b925050602061032c858286016102e4565b9150509250929050565b5f6020828403121561034b5761034a610270565b5b5f610358848285016102e4565b91505092915050565b7f4e487b71000000000000000000000000000000000000000000000000000000005f52601160045260245ffd5b5f6103988261023f565b91506103a38361023f565b92508282019050808211156103bb576103ba610361565b5b92915050565b5f6103cb8261023f565b91506103d68361023f565b92508282039050818111156103ee576103ed610361565b5b9291505056fea26469706673582212202b1112a12f6d07efc658d18ead0ca1174b498898ac3db643048ce5674c16923664736f6c63430008160033",
					"opcodes": "PUSH1 0x80 PUSH1 0x40 MSTORE CALLVALUE DUP1 ISZERO PUSH2 0xF JUMPI PUSH0 DUP1 REVERT JUMPDEST POP PUSH2 0x42A DUP1 PUSH2 0x1D PUSH0 CODECOPY PUSH0 RETURN INVALID PUSH1 0x80 PUSH1 0x40 MSTORE CALLVALUE DUP1 ISZERO PUSH2 0xF JUMPI PUSH0 DUP1 REVERT JUMPDEST POP PUSH1 0x4 CALLDATASIZE LT PUSH2 0x3F JUMPI PUSH0 CALLDATALOAD PUSH1 0xE0 SHR DUP1 PUSH4 0x12065FE0 EQ PUSH2 0x43 JUMPI DUP1 PUSH4 0xA9059CBB EQ PUSH2 0x61 JUMPI DUP1 PUSH4 0xD91921ED EQ PUSH2 0x7D JUMPI JUMPDEST PUSH0 DUP1 REVERT JUMPDEST PUSH2 0x4B PUSH2 0xAD JUMP JUMPDEST PUSH1 0x40 MLOAD PUSH2 0x58 SWAP2 SWAP1 PUSH2 0x257 JUMP JUMPDEST PUSH1 0x40 MLOAD DUP1 SWAP2 SUB SWAP1 RETURN JUMPDEST PUSH2 0x7B PUSH1 0x4 DUP1 CALLDATASIZE SUB DUP2 ADD SWAP1 PUSH2 0x76 SWAP2 SWAP1 PUSH2 0x2F8 JUMP JUMPDEST PUSH2 0xF0 JUMP JUMPDEST STOP JUMPDEST PUSH2 0x97 PUSH1 0x4 DUP1 CALLDATASIZE SUB DUP2 ADD SWAP1 PUSH2 0x92 SWAP2 SWAP1 PUSH2 0x336 JUMP JUMPDEST PUSH2 0xFF JUMP JUMPDEST PUSH1 0x40 MLOAD PUSH2 0xA4 SWAP2 SWAP1 PUSH2 0x257 JUMP JUMPDEST PUSH1 0x40 MLOAD DUP1 SWAP2 SUB SWAP1 RETURN JUMPDEST PUSH0 DUP1 PUSH0 CALLER PUSH20 0xFFFFFFFFFFFFFFFFFFFFFFFFFFFFFFFFFFFFFFFF AND PUSH20 0xFFFFFFFFFFFFFFFFFFFFFFFFFFFFFFFFFFFFFFFF AND DUP2 MSTORE PUSH1 0x20 ADD SWAP1 DUP2 MSTORE PUSH1 0x20 ADD PUSH0 KECCAK256 SLOAD SWAP1 POP SWAP1 JUMP JUMPDEST PUSH2 0xFB CALLER DUP4 DUP4 PUSH2 0x196 JUMP JUMPDEST POP POP JUMP JUMPDEST PUSH0 DUP2 PUSH0 DUP1 CALLER PUSH20 0xFFFFFFFFFFFFFFFFFFFFFFFFFFFFFFFFFFFFFFFF AND PUSH20 0xFFFFFFFFFFFFFFFFFFFFFFFFFFFFFFFFFFFFFFFF AND DUP2 MSTORE PUSH1 0x20 ADD SWAP1 DUP2 MSTORE PUSH1 0x20 ADD PUSH0 KECCAK256 PUSH0 DUP3 DUP3 SLOAD PUSH2 0x14B SWAP2 SWAP1 PUSH2 0x38E JUMP JUMPDEST SWAP3 POP POP DUP2 SWAP1 SSTORE POP PUSH0 DUP1 CALLER PUSH20 0xFFFFFFFFFFFFFFFFFFFFFFFFFFFFFFFFFFFFFFFF AND PUSH20 0xFFFFFFFFFFFFFFFFFFFFFFFFFFFFFFFFFFFFFFFF AND DUP2 MSTORE PUSH1 0x20 ADD SWAP1 DUP2 MSTORE PUSH1 0x20 ADD PUSH0 KECCAK256 SLOAD SWAP1 POP SWAP2 SWAP1 POP JUMP JUMPDEST DUP1 PUSH0 DUP1 DUP6 PUSH20 0xFFFFFFFFFFFFFFFFFFFFFFFFFFFFFFFFFFFFFFFF AND PUSH20 0xFFFFFFFFFFFFFFFFFFFFFFFFFFFFFFFFFFFFFFFF AND DUP2 MSTORE PUSH1 0x20 ADD SWAP1 DUP2 MSTORE PUSH1 0x20 ADD PUSH0 KECCAK256 PUSH0 DUP3 DUP3 SLOAD PUSH2 0x1E1 SWAP2 SWAP1 PUSH2 0x3C1 JUMP JUMPDEST SWAP3 POP POP DUP2 SWAP1 SSTORE POP DUP1 PUSH0 DUP1 DUP5 PUSH20 0xFFFFFFFFFFFFFFFFFFFFFFFFFFFFFFFFFFFFFFFF AND PUSH20 0xFFFFFFFFFFFFFFFFFFFFFFFFFFFFFFFFFFFFFFFF AND DUP2 MSTORE PUSH1 0x20 ADD SWAP1 DUP2 MSTORE PUSH1 0x20 ADD PUSH0 KECCAK256 PUSH0 DUP3 DUP3 SLOAD PUSH2 0x233 SWAP2 SWAP1 PUSH2 0x38E JUMP JUMPDEST SWAP3 POP POP DUP2 SWAP1 SSTORE POP POP POP POP JUMP JUMPDEST PUSH0 DUP2 SWAP1 POP SWAP2 SWAP1 POP JUMP JUMPDEST PUSH2 0x251 DUP2 PUSH2 0x23F JUMP JUMPDEST DUP3 MSTORE POP POP JUMP JUMPDEST PUSH0 PUSH1 0x20 DUP3 ADD SWAP1 POP PUSH2 0x26A PUSH0 DUP4 ADD DUP5 PUSH2 0x248 JUMP JUMPDEST SWAP3 SWAP2 POP POP JUMP JUMPDEST PUSH0 DUP1 REVERT JUMPDEST PUSH0 PUSH20 0xFFFFFFFFFFFFFFFFFFFFFFFFFFFFFFFFFFFFFFFF DUP3 AND SWAP1 POP SWAP2 SWAP1 POP JUMP JUMPDEST PUSH0 PUSH2 0x29D DUP3 PUSH2 0x274 JUMP JUMPDEST SWAP1 POP SWAP2 SWAP1 POP JUMP JUMPDEST PUSH2 0x2AD DUP2 PUSH2 0x293 JUMP JUMPDEST DUP2 EQ PUSH2 0x2B7 JUMPI PUSH0 DUP1 REVERT JUMPDEST POP JUMP JUMPDEST PUSH0 DUP2 CALLDATALOAD SWAP1 POP PUSH2 0x2C8 DUP2 PUSH2 0x2A4 JUMP JUMPDEST SWAP3 SWAP2 POP POP JUMP JUMPDEST PUSH2 0x2D7 DUP2 PUSH2 0x23F JUMP JUMPDEST DUP2 EQ PUSH2 0x2E1 JUMPI PUSH0 DUP1 REVERT JUMPDEST POP JUMP JUMPDEST PUSH0 DUP2 CALLDATALOAD SWAP1 POP PUSH2 0x2F2 DUP2 PUSH2 0x2CE JUMP JUMPDEST SWAP3 SWAP2 POP POP JUMP JUMPDEST PUSH0 DUP1 PUSH1 0x40 DUP4 DUP6 SUB SLT ISZERO PUSH2 0x30E JUMPI PUSH2 0x30D PUSH2 0x270 JUMP JUMPDEST JUMPDEST PUSH0 PUSH2 0x31B DUP6 DUP3 DUP7 ADD PUSH2 0x2BA JUMP JUMPDEST SWAP3 POP POP PUSH1 0x20 PUSH2 0x32C DUP6 DUP3 DUP7 ADD PUSH2 0x2E4 JUMP JUMPDEST SWAP2 POP POP SWAP3 POP SWAP3 SWAP1 POP JUMP JUMPDEST PUSH0 PUSH1 0x20 DUP3 DUP5 SUB SLT ISZERO PUSH2 0x34B JUMPI PUSH2 0x34A PUSH2 0x270 JUMP JUMPDEST JUMPDEST PUSH0 PUSH2 0x358 DUP5 DUP3 DUP6 ADD PUSH2 0x2E4 JUMP JUMPDEST SWAP2 POP POP SWAP3 SWAP2 POP POP JUMP JUMPDEST PUSH32 0x4E487B7100000000000000000000000000000000000000000000000000000000 PUSH0 MSTORE PUSH1 0x11 PUSH1 0x4 MSTORE PUSH1 0x24 PUSH0 REVERT JUMPDEST PUSH0 PUSH2 0x398 DUP3 PUSH2 0x23F JUMP JUMPDEST SWAP2 POP PUSH2 0x3A3 DUP4 PUSH2 0x23F JUMP JUMPDEST SWAP3 POP DUP3 DUP3 ADD SWAP1 POP DUP1 DUP3 GT ISZERO PUSH2 0x3BB JUMPI PUSH2 0x3BA PUSH2 0x361 JUMP JUMPDEST JUMPDEST SWAP3 SWAP2 POP POP JUMP JUMPDEST PUSH0 PUSH2 0x3CB DUP3 PUSH2 0x23F JUMP JUMPDEST SWAP2 POP PUSH2 0x3D6 DUP4 PUSH2 0x23F JUMP JUMPDEST SWAP3 POP DUP3 DUP3 SUB SWAP1 POP DUP2 DUP2 GT ISZERO PUSH2 0x3EE JUMPI PUSH2 0x3ED PUSH2 0x361 JUMP JUMPDEST JUMPDEST SWAP3 SWAP2 POP POP JUMP INVALID LOG2 PUSH5 0x6970667358 0x22 SLT KECCAK256 0x2B GT SLT LOG1 0x2F PUSH14 0x7EFC658D18EAD0CA1174B498898 0xAC RETURNDATASIZE 0xB6 NUMBER DIV DUP13 0xE5 PUSH8 0x4C16923664736F6C PUSH4 0x43000816 STOP CALLER "
				},
				"gasEstimates": {
					"creation": {
						"codeDepositCost": "213200",
						"executionCost": "255",
						"totalCost": "213455"
					},
					"external": {
						"addBalance(uint256)": "infinite",
						"getBalance()": "2497",
						"transfer(address,uint256)": "infinite"
					},
					"internal": {
						"_transfer(address,address,uint256)": "infinite"
					}
				},
				"methodIdentifiers": {
					"addBalance(uint256)": "d91921ed",
					"getBalance()": "12065fe0",
					"transfer(address,uint256)": "a9059cbb"
				}
			},
			"storageLayout": {
				"storage": [
					{
						"astId": 5,
						"contract": "constructors/VisibilityTest.sol:Test",
						"label": "balance",
						"offset": 0,
						"slot": "0",
						"type": "t_mapping(t_address,t_uint256)"
					}
				],
				"types": {
					"t_address": {
						"encoding": "inplace",
						"label": "address",
						"numberOfBytes": "20"
					},
					"t_mapping(t_address,t_uint256)": {
						"encoding": "mapping",
						"key": "t_address",
						"label": "mapping(address => uint256)",
						"numberOfBytes": "32",
						"value": "t_uint256"
					},
					"t_uint256": {
						"encoding": "inplace",
						"label": "uint256",
						"numberOfBytes": "32"
					}
				}
			},
			"userdoc": {
				"kind": "user",
				"methods": {},
				"version": 1
			}
		}
	}
}