{
	"constructors/Government.sol": {
		"Government": {
			"abi": [
				{
					"inputs": [
						{
							"internalType": "address",
							"name": "_from",
							"type": "address"
						},
						{
							"internalType": "address",
							"name": "_to",
							"type": "address"
						},
						{
							"internalType": "uint256",
							"name": "_amount",
							"type": "uint256"
						}
					],
					"name": "addTransaction",
					"outputs": [],
					"stateMutability": "nonpayable",
					"type": "function"
				},
				{
					"inputs": [
						{
							"internalType": "uint256",
							"name": "_index",
							"type": "uint256"
						}
					],
					"name": "getTransaction",
					"outputs": [
						{
							"internalType": "address",
							"name": "",
							"type": "address"
						},
						{
							"internalType": "address",
							"name": "",
							"type": "address"
						},
						{
							"internalType": "uint256",
							"name": "",
							"type": "uint256"
						}
					],
					"stateMutability": "view",
					"type": "function"
				}
			],
			"devdoc": {
				"kind": "dev",
				"methods": {},
				"version": 1
			},
			"evm": {
				"assembly": "    /* \"constructors/Government.sol\":57:743  contract Government {... */\n  mstore(0x40, 0x80)\n  callvalue\n  dup1\n  iszero\n  tag_1\n  jumpi\n  0x00\n  dup1\n  revert\ntag_1:\n  pop\n  dataSize(sub_0)\n  dup1\n  dataOffset(sub_0)\n  0x00\n  codecopy\n  0x00\n  return\nstop\n\nsub_0: assembly {\n        /* \"constructors/Government.sol\":57:743  contract Government {... */\n      mstore(0x40, 0x80)\n      callvalue\n      dup1\n      iszero\n      tag_1\n      jumpi\n      0x00\n      dup1\n      revert\n    tag_1:\n      pop\n      jumpi(tag_2, lt(calldatasize, 0x04))\n      shr(0xe0, calldataload(0x00))\n      dup1\n      0x33ea3dc8\n      eq\n      tag_3\n      jumpi\n      dup1\n      0xfe73b27f\n      eq\n      tag_4\n      jumpi\n    tag_2:\n      0x00\n      dup1\n      revert\n        /* \"constructors/Government.sol\":550:741  function getTransaction(uint _index) public view returns(address, address, uint){... */\n    tag_3:\n      tag_5\n      0x04\n      dup1\n      calldatasize\n      sub\n      dup2\n      add\n      swap1\n      tag_6\n      swap2\n      swap1\n      tag_7\n      jump\t// in\n    tag_6:\n      tag_8\n      jump\t// in\n    tag_5:\n      mload(0x40)\n      tag_9\n      swap4\n      swap3\n      swap2\n      swap1\n      tag_10\n      jump\t// in\n    tag_9:\n      mload(0x40)\n      dup1\n      swap2\n      sub\n      swap1\n      return\n        /* \"constructors/Government.sol\":231:544  function addTransaction(address _from, address _to, uint _amount) external {... */\n    tag_4:\n      tag_11\n      0x04\n      dup1\n      calldatasize\n      sub\n      dup2\n      add\n      swap1\n      tag_12\n      swap2\n      swap1\n      tag_13\n      jump\t// in\n    tag_12:\n      tag_14\n      jump\t// in\n    tag_11:\n      stop\n        /* \"constructors/Government.sol\":550:741  function getTransaction(uint _index) public view returns(address, address, uint){... */\n    tag_8:\n        /* \"constructors/Government.sol\":607:614  address */\n      0x00\n        /* \"constructors/Government.sol\":616:623  address */\n      dup1\n        /* \"constructors/Government.sol\":625:629  uint */\n      0x00\n        /* \"constructors/Government.sol\":648:662  transactionLog */\n      dup1\n        /* \"constructors/Government.sol\":663:669  _index */\n      dup5\n        /* \"constructors/Government.sol\":648:670  transactionLog[_index] */\n      dup2\n      sload\n      dup2\n      lt\n      tag_16\n      jumpi\n      tag_17\n      tag_18\n      jump\t// in\n    tag_17:\n    tag_16:\n      swap1\n      0x00\n      mstore\n      keccak256(0x00, 0x20)\n      swap1\n      0x04\n      mul\n      add\n        /* \"constructors/Government.sol\":648:675  transactionLog[_index].from */\n      0x00\n      add\n      0x00\n      swap1\n      sload\n      swap1\n      0x0100\n      exp\n      swap1\n      div\n      0xffffffffffffffffffffffffffffffffffffffff\n      and\n        /* \"constructors/Government.sol\":677:691  transactionLog */\n      0x00\n        /* \"constructors/Government.sol\":692:698  _index */\n      dup6\n        /* \"constructors/Government.sol\":677:699  transactionLog[_index] */\n      dup2\n      sload\n      dup2\n      lt\n      tag_20\n      jumpi\n      tag_21\n      tag_18\n      jump\t// in\n    tag_21:\n    tag_20:\n      swap1\n      0x00\n      mstore\n      keccak256(0x00, 0x20)\n      swap1\n      0x04\n      mul\n      add\n        /* \"constructors/Government.sol\":677:702  transactionLog[_index].to */\n      0x01\n      add\n      0x00\n      swap1\n      sload\n      swap1\n      0x0100\n      exp\n      swap1\n      div\n      0xffffffffffffffffffffffffffffffffffffffff\n      and\n        /* \"constructors/Government.sol\":704:718  transactionLog */\n      0x00\n        /* \"constructors/Government.sol\":719:725  _index */\n      dup7\n        /* \"constructors/Government.sol\":704:726  transactionLog[_index] */\n      dup2\n      sload\n      dup2\n      lt\n      tag_23\n      jumpi\n      tag_24\n      tag_18\n      jump\t// in\n    tag_24:\n    tag_23:\n      swap1\n      0x00\n      mstore\n      keccak256(0x00, 0x20)\n      swap1\n      0x04\n      mul\n      add\n        /* \"constructors/Government.sol\":704:733  transactionLog[_index].amount */\n      0x02\n      add\n      sload\n        /* \"constructors/Government.sol\":640:734  return (transactionLog[_index].from, transactionLog[_index].to, transactionLog[_index].amount) */\n      swap3\n      pop\n      swap3\n      pop\n      swap3\n      pop\n        /* \"constructors/Government.sol\":550:741  function getTransaction(uint _index) public view returns(address, address, uint){... */\n      swap2\n      swap4\n      swap1\n      swap3\n      pop\n      jump\t// out\n        /* \"constructors/Government.sol\":231:544  function addTransaction(address _from, address _to, uint _amount) external {... */\n    tag_14:\n        /* \"constructors/Government.sol\":316:347  Transaction memory _transaction */\n      0x00\n        /* \"constructors/Government.sol\":350:405  Transaction(_from, _to, _amount, transactionLog.length) */\n      mload(0x40)\n      dup1\n      0x80\n      add\n      0x40\n      mstore\n      dup1\n        /* \"constructors/Government.sol\":362:367  _from */\n      dup6\n        /* \"constructors/Government.sol\":350:405  Transaction(_from, _to, _amount, transactionLog.length) */\n      0xffffffffffffffffffffffffffffffffffffffff\n      and\n      dup2\n      mstore\n      0x20\n      add\n        /* \"constructors/Government.sol\":369:372  _to */\n      dup5\n        /* \"constructors/Government.sol\":350:405  Transaction(_from, _to, _amount, transactionLog.length) */\n      0xffffffffffffffffffffffffffffffffffffffff\n      and\n      dup2\n      mstore\n      0x20\n      add\n        /* \"constructors/Government.sol\":374:381  _amount */\n      dup4\n        /* \"constructors/Government.sol\":350:405  Transaction(_from, _to, _amount, transactionLog.length) */\n      dup2\n      mstore\n      0x20\n      add\n        /* \"constructors/Government.sol\":383:397  transactionLog */\n      0x00\n        /* \"constructors/Government.sol\":383:404  transactionLog.length */\n      dup1\n      sload\n      swap1\n      pop\n        /* \"constructors/Government.sol\":350:405  Transaction(_from, _to, _amount, transactionLog.length) */\n      dup2\n      mstore\n      pop\n        /* \"constructors/Government.sol\":316:405  Transaction memory _transaction = Transaction(_from, _to, _amount, transactionLog.length) */\n      swap1\n      pop\n        /* \"constructors/Government.sol\":415:429  transactionLog */\n      0x00\n        /* \"constructors/Government.sol\":435:447  _transaction */\n      dup2\n        /* \"constructors/Government.sol\":415:448  transactionLog.push(_transaction) */\n      swap1\n      dup1\n      0x01\n      dup2\n      sload\n      add\n      dup1\n      dup3\n      sstore\n      dup1\n      swap2\n      pop\n      pop\n      0x01\n      swap1\n      sub\n      swap1\n      0x00\n      mstore\n      keccak256(0x00, 0x20)\n      swap1\n      0x04\n      mul\n      add\n      0x00\n      swap1\n      swap2\n      swap1\n      swap2\n      swap1\n      swap2\n      pop\n      0x00\n      dup3\n      add\n      mload\n      dup2\n      0x00\n      add\n      exp(0x0100, 0x00)\n      dup2\n      sload\n      dup2\n      0xffffffffffffffffffffffffffffffffffffffff\n      mul\n      not\n      and\n      swap1\n      dup4\n      0xffffffffffffffffffffffffffffffffffffffff\n      and\n      mul\n      or\n      swap1\n      sstore\n      pop\n      0x20\n      dup3\n      add\n      mload\n      dup2\n      0x01\n      add\n      exp(0x0100, 0x00)\n      dup2\n      sload\n      dup2\n      0xffffffffffffffffffffffffffffffffffffffff\n      mul\n      not\n      and\n      swap1\n      dup4\n      0xffffffffffffffffffffffffffffffffffffffff\n      and\n      mul\n      or\n      swap1\n      sstore\n      pop\n      0x40\n      dup3\n      add\n      mload\n      dup2\n      0x02\n      add\n      sstore\n      0x60\n      dup3\n      add\n      mload\n      dup2\n      0x03\n      add\n      sstore\n      pop\n      pop\n        /* \"constructors/Government.sol\":306:544  {... */\n      pop\n        /* \"constructors/Government.sol\":231:544  function addTransaction(address _from, address _to, uint _amount) external {... */\n      pop\n      pop\n      pop\n      jump\t// out\n        /* \"#utility.yul\":88:205   */\n    tag_29:\n        /* \"#utility.yul\":197:198   */\n      0x00\n        /* \"#utility.yul\":194:195   */\n      dup1\n        /* \"#utility.yul\":187:199   */\n      revert\n        /* \"#utility.yul\":334:411   */\n    tag_31:\n        /* \"#utility.yul\":371:378   */\n      0x00\n        /* \"#utility.yul\":400:405   */\n      dup2\n        /* \"#utility.yul\":389:405   */\n      swap1\n      pop\n        /* \"#utility.yul\":334:411   */\n      swap2\n      swap1\n      pop\n      jump\t// out\n        /* \"#utility.yul\":417:539   */\n    tag_32:\n        /* \"#utility.yul\":490:514   */\n      tag_46\n        /* \"#utility.yul\":508:513   */\n      dup2\n        /* \"#utility.yul\":490:514   */\n      tag_31\n      jump\t// in\n    tag_46:\n        /* \"#utility.yul\":483:488   */\n      dup2\n        /* \"#utility.yul\":480:515   */\n      eq\n        /* \"#utility.yul\":470:533   */\n      tag_47\n      jumpi\n        /* \"#utility.yul\":529:530   */\n      0x00\n        /* \"#utility.yul\":526:527   */\n      dup1\n        /* \"#utility.yul\":519:531   */\n      revert\n        /* \"#utility.yul\":470:533   */\n    tag_47:\n        /* \"#utility.yul\":417:539   */\n      pop\n      jump\t// out\n        /* \"#utility.yul\":545:684   */\n    tag_33:\n        /* \"#utility.yul\":591:596   */\n      0x00\n        /* \"#utility.yul\":629:635   */\n      dup2\n        /* \"#utility.yul\":616:636   */\n      calldataload\n        /* \"#utility.yul\":607:636   */\n      swap1\n      pop\n        /* \"#utility.yul\":645:678   */\n      tag_49\n        /* \"#utility.yul\":672:677   */\n      dup2\n        /* \"#utility.yul\":645:678   */\n      tag_32\n      jump\t// in\n    tag_49:\n        /* \"#utility.yul\":545:684   */\n      swap3\n      swap2\n      pop\n      pop\n      jump\t// out\n        /* \"#utility.yul\":690:1019   */\n    tag_7:\n        /* \"#utility.yul\":749:755   */\n      0x00\n        /* \"#utility.yul\":798:800   */\n      0x20\n        /* \"#utility.yul\":786:795   */\n      dup3\n        /* \"#utility.yul\":777:784   */\n      dup5\n        /* \"#utility.yul\":773:796   */\n      sub\n        /* \"#utility.yul\":769:801   */\n      slt\n        /* \"#utility.yul\":766:885   */\n      iszero\n      tag_51\n      jumpi\n        /* \"#utility.yul\":804:883   */\n      tag_52\n      tag_29\n      jump\t// in\n    tag_52:\n        /* \"#utility.yul\":766:885   */\n    tag_51:\n        /* \"#utility.yul\":924:925   */\n      0x00\n        /* \"#utility.yul\":949:1002   */\n      tag_53\n        /* \"#utility.yul\":994:1001   */\n      dup5\n        /* \"#utility.yul\":985:991   */\n      dup3\n        /* \"#utility.yul\":974:983   */\n      dup6\n        /* \"#utility.yul\":970:992   */\n      add\n        /* \"#utility.yul\":949:1002   */\n      tag_33\n      jump\t// in\n    tag_53:\n        /* \"#utility.yul\":939:1002   */\n      swap2\n      pop\n        /* \"#utility.yul\":895:1012   */\n      pop\n        /* \"#utility.yul\":690:1019   */\n      swap3\n      swap2\n      pop\n      pop\n      jump\t// out\n        /* \"#utility.yul\":1025:1151   */\n    tag_34:\n        /* \"#utility.yul\":1062:1069   */\n      0x00\n        /* \"#utility.yul\":1102:1144   */\n      0xffffffffffffffffffffffffffffffffffffffff\n        /* \"#utility.yul\":1095:1100   */\n      dup3\n        /* \"#utility.yul\":1091:1145   */\n      and\n        /* \"#utility.yul\":1080:1145   */\n      swap1\n      pop\n        /* \"#utility.yul\":1025:1151   */\n      swap2\n      swap1\n      pop\n      jump\t// out\n        /* \"#utility.yul\":1157:1253   */\n    tag_35:\n        /* \"#utility.yul\":1194:1201   */\n      0x00\n        /* \"#utility.yul\":1223:1247   */\n      tag_56\n        /* \"#utility.yul\":1241:1246   */\n      dup3\n        /* \"#utility.yul\":1223:1247   */\n      tag_34\n      jump\t// in\n    tag_56:\n        /* \"#utility.yul\":1212:1247   */\n      swap1\n      pop\n        /* \"#utility.yul\":1157:1253   */\n      swap2\n      swap1\n      pop\n      jump\t// out\n        /* \"#utility.yul\":1259:1377   */\n    tag_36:\n        /* \"#utility.yul\":1346:1370   */\n      tag_58\n        /* \"#utility.yul\":1364:1369   */\n      dup2\n        /* \"#utility.yul\":1346:1370   */\n      tag_35\n      jump\t// in\n    tag_58:\n        /* \"#utility.yul\":1341:1344   */\n      dup3\n        /* \"#utility.yul\":1334:1371   */\n      mstore\n        /* \"#utility.yul\":1259:1377   */\n      pop\n      pop\n      jump\t// out\n        /* \"#utility.yul\":1383:1501   */\n    tag_37:\n        /* \"#utility.yul\":1470:1494   */\n      tag_60\n        /* \"#utility.yul\":1488:1493   */\n      dup2\n        /* \"#utility.yul\":1470:1494   */\n      tag_31\n      jump\t// in\n    tag_60:\n        /* \"#utility.yul\":1465:1468   */\n      dup3\n        /* \"#utility.yul\":1458:1495   */\n      mstore\n        /* \"#utility.yul\":1383:1501   */\n      pop\n      pop\n      jump\t// out\n        /* \"#utility.yul\":1507:1949   */\n    tag_10:\n        /* \"#utility.yul\":1656:1660   */\n      0x00\n        /* \"#utility.yul\":1694:1696   */\n      0x60\n        /* \"#utility.yul\":1683:1692   */\n      dup3\n        /* \"#utility.yul\":1679:1697   */\n      add\n        /* \"#utility.yul\":1671:1697   */\n      swap1\n      pop\n        /* \"#utility.yul\":1707:1778   */\n      tag_62\n        /* \"#utility.yul\":1775:1776   */\n      0x00\n        /* \"#utility.yul\":1764:1773   */\n      dup4\n        /* \"#utility.yul\":1760:1777   */\n      add\n        /* \"#utility.yul\":1751:1757   */\n      dup7\n        /* \"#utility.yul\":1707:1778   */\n      tag_36\n      jump\t// in\n    tag_62:\n        /* \"#utility.yul\":1788:1860   */\n      tag_63\n        /* \"#utility.yul\":1856:1858   */\n      0x20\n        /* \"#utility.yul\":1845:1854   */\n      dup4\n        /* \"#utility.yul\":1841:1859   */\n      add\n        /* \"#utility.yul\":1832:1838   */\n      dup6\n        /* \"#utility.yul\":1788:1860   */\n      tag_36\n      jump\t// in\n    tag_63:\n        /* \"#utility.yul\":1870:1942   */\n      tag_64\n        /* \"#utility.yul\":1938:1940   */\n      0x40\n        /* \"#utility.yul\":1927:1936   */\n      dup4\n        /* \"#utility.yul\":1923:1941   */\n      add\n        /* \"#utility.yul\":1914:1920   */\n      dup5\n        /* \"#utility.yul\":1870:1942   */\n      tag_37\n      jump\t// in\n    tag_64:\n        /* \"#utility.yul\":1507:1949   */\n      swap5\n      swap4\n      pop\n      pop\n      pop\n      pop\n      jump\t// out\n        /* \"#utility.yul\":1955:2077   */\n    tag_38:\n        /* \"#utility.yul\":2028:2052   */\n      tag_66\n        /* \"#utility.yul\":2046:2051   */\n      dup2\n        /* \"#utility.yul\":2028:2052   */\n      tag_35\n      jump\t// in\n    tag_66:\n        /* \"#utility.yul\":2021:2026   */\n      dup2\n        /* \"#utility.yul\":2018:2053   */\n      eq\n        /* \"#utility.yul\":2008:2071   */\n      tag_67\n      jumpi\n        /* \"#utility.yul\":2067:2068   */\n      0x00\n        /* \"#utility.yul\":2064:2065   */\n      dup1\n        /* \"#utility.yul\":2057:2069   */\n      revert\n        /* \"#utility.yul\":2008:2071   */\n    tag_67:\n        /* \"#utility.yul\":1955:2077   */\n      pop\n      jump\t// out\n        /* \"#utility.yul\":2083:2222   */\n    tag_39:\n        /* \"#utility.yul\":2129:2134   */\n      0x00\n        /* \"#utility.yul\":2167:2173   */\n      dup2\n        /* \"#utility.yul\":2154:2174   */\n      calldataload\n        /* \"#utility.yul\":2145:2174   */\n      swap1\n      pop\n        /* \"#utility.yul\":2183:2216   */\n      tag_69\n        /* \"#utility.yul\":2210:2215   */\n      dup2\n        /* \"#utility.yul\":2183:2216   */\n      tag_38\n      jump\t// in\n    tag_69:\n        /* \"#utility.yul\":2083:2222   */\n      swap3\n      swap2\n      pop\n      pop\n      jump\t// out\n        /* \"#utility.yul\":2228:2847   */\n    tag_13:\n        /* \"#utility.yul\":2305:2311   */\n      0x00\n        /* \"#utility.yul\":2313:2319   */\n      dup1\n        /* \"#utility.yul\":2321:2327   */\n      0x00\n        /* \"#utility.yul\":2370:2372   */\n      0x60\n        /* \"#utility.yul\":2358:2367   */\n      dup5\n        /* \"#utility.yul\":2349:2356   */\n      dup7\n        /* \"#utility.yul\":2345:2368   */\n      sub\n        /* \"#utility.yul\":2341:2373   */\n      slt\n        /* \"#utility.yul\":2338:2457   */\n      iszero\n      tag_71\n      jumpi\n        /* \"#utility.yul\":2376:2455   */\n      tag_72\n      tag_29\n      jump\t// in\n    tag_72:\n        /* \"#utility.yul\":2338:2457   */\n    tag_71:\n        /* \"#utility.yul\":2496:2497   */\n      0x00\n        /* \"#utility.yul\":2521:2574   */\n      tag_73\n        /* \"#utility.yul\":2566:2573   */\n      dup7\n        /* \"#utility.yul\":2557:2563   */\n      dup3\n        /* \"#utility.yul\":2546:2555   */\n      dup8\n        /* \"#utility.yul\":2542:2564   */\n      add\n        /* \"#utility.yul\":2521:2574   */\n      tag_39\n      jump\t// in\n    tag_73:\n        /* \"#utility.yul\":2511:2574   */\n      swap4\n      pop\n        /* \"#utility.yul\":2467:2584   */\n      pop\n        /* \"#utility.yul\":2623:2625   */\n      0x20\n        /* \"#utility.yul\":2649:2702   */\n      tag_74\n        /* \"#utility.yul\":2694:2701   */\n      dup7\n        /* \"#utility.yul\":2685:2691   */\n      dup3\n        /* \"#utility.yul\":2674:2683   */\n      dup8\n        /* \"#utility.yul\":2670:2692   */\n      add\n        /* \"#utility.yul\":2649:2702   */\n      tag_39\n      jump\t// in\n    tag_74:\n        /* \"#utility.yul\":2639:2702   */\n      swap3\n      pop\n        /* \"#utility.yul\":2594:2712   */\n      pop\n        /* \"#utility.yul\":2751:2753   */\n      0x40\n        /* \"#utility.yul\":2777:2830   */\n      tag_75\n        /* \"#utility.yul\":2822:2829   */\n      dup7\n        /* \"#utility.yul\":2813:2819   */\n      dup3\n        /* \"#utility.yul\":2802:2811   */\n      dup8\n        /* \"#utility.yul\":2798:2820   */\n      add\n        /* \"#utility.yul\":2777:2830   */\n      tag_33\n      jump\t// in\n    tag_75:\n        /* \"#utility.yul\":2767:2830   */\n      swap2\n      pop\n        /* \"#utility.yul\":2722:2840   */\n      pop\n        /* \"#utility.yul\":2228:2847   */\n      swap3\n      pop\n      swap3\n      pop\n      swap3\n      jump\t// out\n        /* \"#utility.yul\":2853:3033   */\n    tag_18:\n        /* \"#utility.yul\":2901:2978   */\n      0x4e487b7100000000000000000000000000000000000000000000000000000000\n        /* \"#utility.yul\":2898:2899   */\n      0x00\n        /* \"#utility.yul\":2891:2979   */\n      mstore\n        /* \"#utility.yul\":2998:3002   */\n      0x32\n        /* \"#utility.yul\":2995:2996   */\n      0x04\n        /* \"#utility.yul\":2988:3003   */\n      mstore\n        /* \"#utility.yul\":3022:3026   */\n      0x24\n        /* \"#utility.yul\":3019:3020   */\n      0x00\n        /* \"#utility.yul\":3012:3027   */\n      revert\n\n    auxdata: 0xa26469706673582212209765c0f2af924df54494f4962ca86682682834daf7a9eefbdaebe6bbf6ed233664736f6c63430008160033\n}\n",
				"bytecode": {
					"linkReferences": {},
					"object": "608060405234801561000f575f80fd5b506104208061001d5f395ff3fe608060405234801561000f575f80fd5b5060043610610034575f3560e01c806333ea3dc814610038578063fe73b27f1461006a575b5f80fd5b610052600480360381019061004d9190610295565b610086565b6040516100619392919061030e565b60405180910390f35b610084600480360381019061007f919061036d565b61013c565b005b5f805f80848154811061009c5761009b6103bd565b5b905f5260205f2090600402015f015f9054906101000a900473ffffffffffffffffffffffffffffffffffffffff165f85815481106100dd576100dc6103bd565b5b905f5260205f2090600402016001015f9054906101000a900473ffffffffffffffffffffffffffffffffffffffff165f868154811061011f5761011e6103bd565b5b905f5260205f209060040201600201549250925092509193909250565b5f60405180608001604052808573ffffffffffffffffffffffffffffffffffffffff1681526020018473ffffffffffffffffffffffffffffffffffffffff1681526020018381526020015f8054905081525090505f81908060018154018082558091505060019003905f5260205f2090600402015f909190919091505f820151815f015f6101000a81548173ffffffffffffffffffffffffffffffffffffffff021916908373ffffffffffffffffffffffffffffffffffffffff1602179055506020820151816001015f6101000a81548173ffffffffffffffffffffffffffffffffffffffff021916908373ffffffffffffffffffffffffffffffffffffffff1602179055506040820151816002015560608201518160030155505050505050565b5f80fd5b5f819050919050565b61027481610262565b811461027e575f80fd5b50565b5f8135905061028f8161026b565b92915050565b5f602082840312156102aa576102a961025e565b5b5f6102b784828501610281565b91505092915050565b5f73ffffffffffffffffffffffffffffffffffffffff82169050919050565b5f6102e9826102c0565b9050919050565b6102f9816102df565b82525050565b61030881610262565b82525050565b5f6060820190506103215f8301866102f0565b61032e60208301856102f0565b61033b60408301846102ff565b949350505050565b61034c816102df565b8114610356575f80fd5b50565b5f8135905061036781610343565b92915050565b5f805f606084860312156103845761038361025e565b5b5f61039186828701610359565b93505060206103a286828701610359565b92505060406103b386828701610281565b9150509250925092565b7f4e487b71000000000000000000000000000000000000000000000000000000005f52603260045260245ffdfea26469706673582212209765c0f2af924df54494f4962ca86682682834daf7a9eefbdaebe6bbf6ed233664736f6c63430008160033",
					"opcodes": "PUSH1 0x80 PUSH1 0x40 MSTORE CALLVALUE DUP1 ISZERO PUSH2 0xF JUMPI PUSH0 DUP1 REVERT JUMPDEST POP PUSH2 0x420 DUP1 PUSH2 0x1D PUSH0 CODECOPY PUSH0 RETURN INVALID PUSH1 0x80 PUSH1 0x40 MSTORE CALLVALUE DUP1 ISZERO PUSH2 0xF JUMPI PUSH0 DUP1 REVERT JUMPDEST POP PUSH1 0x4 CALLDATASIZE LT PUSH2 0x34 JUMPI PUSH0 CALLDATALOAD PUSH1 0xE0 SHR DUP1 PUSH4 0x33EA3DC8 EQ PUSH2 0x38 JUMPI DUP1 PUSH4 0xFE73B27F EQ PUSH2 0x6A JUMPI JUMPDEST PUSH0 DUP1 REVERT JUMPDEST PUSH2 0x52 PUSH1 0x4 DUP1 CALLDATASIZE SUB DUP2 ADD SWAP1 PUSH2 0x4D SWAP2 SWAP1 PUSH2 0x295 JUMP JUMPDEST PUSH2 0x86 JUMP JUMPDEST PUSH1 0x40 MLOAD PUSH2 0x61 SWAP4 SWAP3 SWAP2 SWAP1 PUSH2 0x30E JUMP JUMPDEST PUSH1 0x40 MLOAD DUP1 SWAP2 SUB SWAP1 RETURN JUMPDEST PUSH2 0x84 PUSH1 0x4 DUP1 CALLDATASIZE SUB DUP2 ADD SWAP1 PUSH2 0x7F SWAP2 SWAP1 PUSH2 0x36D JUMP JUMPDEST PUSH2 0x13C JUMP JUMPDEST STOP JUMPDEST PUSH0 DUP1 PUSH0 DUP1 DUP5 DUP2 SLOAD DUP2 LT PUSH2 0x9C JUMPI PUSH2 0x9B PUSH2 0x3BD JUMP JUMPDEST JUMPDEST SWAP1 PUSH0 MSTORE PUSH1 0x20 PUSH0 KECCAK256 SWAP1 PUSH1 0x4 MUL ADD PUSH0 ADD PUSH0 SWAP1 SLOAD SWAP1 PUSH2 0x100 EXP SWAP1 DIV PUSH20 0xFFFFFFFFFFFFFFFFFFFFFFFFFFFFFFFFFFFFFFFF AND PUSH0 DUP6 DUP2 SLOAD DUP2 LT PUSH2 0xDD JUMPI PUSH2 0xDC PUSH2 0x3BD JUMP JUMPDEST JUMPDEST SWAP1 PUSH0 MSTORE PUSH1 0x20 PUSH0 KECCAK256 SWAP1 PUSH1 0x4 MUL ADD PUSH1 0x1 ADD PUSH0 SWAP1 SLOAD SWAP1 PUSH2 0x100 EXP SWAP1 DIV PUSH20 0xFFFFFFFFFFFFFFFFFFFFFFFFFFFFFFFFFFFFFFFF AND PUSH0 DUP7 DUP2 SLOAD DUP2 LT PUSH2 0x11F JUMPI PUSH2 0x11E PUSH2 0x3BD JUMP JUMPDEST JUMPDEST SWAP1 PUSH0 MSTORE PUSH1 0x20 PUSH0 KECCAK256 SWAP1 PUSH1 0x4 MUL ADD PUSH1 0x2 ADD SLOAD SWAP3 POP SWAP3 POP SWAP3 POP SWAP2 SWAP4 SWAP1 SWAP3 POP JUMP JUMPDEST PUSH0 PUSH1 0x40 MLOAD DUP1 PUSH1 0x80 ADD PUSH1 0x40 MSTORE DUP1 DUP6 PUSH20 0xFFFFFFFFFFFFFFFFFFFFFFFFFFFFFFFFFFFFFFFF AND DUP2 MSTORE PUSH1 0x20 ADD DUP5 PUSH20 0xFFFFFFFFFFFFFFFFFFFFFFFFFFFFFFFFFFFFFFFF AND DUP2 MSTORE PUSH1 0x20 ADD DUP4 DUP2 MSTORE PUSH1 0x20 ADD PUSH0 DUP1 SLOAD SWAP1 POP DUP2 MSTORE POP SWAP1 POP PUSH0 DUP2 SWAP1 DUP1 PUSH1 0x1 DUP2 SLOAD ADD DUP1 DUP3 SSTORE DUP1 SWAP2 POP POP PUSH1 0x1 SWAP1 SUB SWAP1 PUSH0 MSTORE PUSH1 0x20 PUSH0 KECCAK256 SWAP1 PUSH1 0x4 MUL ADD PUSH0 SWAP1 SWAP2 SWAP1 SWAP2 SWAP1 SWAP2 POP PUSH0 DUP3 ADD MLOAD DUP2 PUSH0 ADD PUSH0 PUSH2 0x100 EXP DUP2 SLOAD DUP2 PUSH20 0xFFFFFFFFFFFFFFFFFFFFFFFFFFFFFFFFFFFFFFFF MUL NOT AND SWAP1 DUP4 PUSH20 0xFFFFFFFFFFFFFFFFFFFFFFFFFFFFFFFFFFFFFFFF AND MUL OR SWAP1 SSTORE POP PUSH1 0x20 DUP3 ADD MLOAD DUP2 PUSH1 0x1 ADD PUSH0 PUSH2 0x100 EXP DUP2 SLOAD DUP2 PUSH20 0xFFFFFFFFFFFFFFFFFFFFFFFFFFFFFFFFFFFFFFFF MUL NOT AND SWAP1 DUP4 PUSH20 0xFFFFFFFFFFFFFFFFFFFFFFFFFFFFFFFFFFFFFFFF AND MUL OR SWAP1 SSTORE POP PUSH1 0x40 DUP3 ADD MLOAD DUP2 PUSH1 0x2 ADD SSTORE PUSH1 0x60 DUP3 ADD MLOAD DUP2 PUSH1 0x3 ADD SSTORE POP POP POP POP POP POP JUMP JUMPDEST PUSH0 DUP1 REVERT JUMPDEST PUSH0 DUP2 SWAP1 POP SWAP2 SWAP1 POP JUMP JUMPDEST PUSH2 0x274 DUP2 PUSH2 0x262 JUMP JUMPDEST DUP2 EQ PUSH2 0x27E JUMPI PUSH0 DUP1 REVERT JUMPDEST POP JUMP JUMPDEST PUSH0 DUP2 CALLDATALOAD SWAP1 POP PUSH2 0x28F DUP2 PUSH2 0x26B JUMP JUMPDEST SWAP3 SWAP2 POP POP JUMP JUMPDEST PUSH0 PUSH1 0x20 DUP3 DUP5 SUB SLT ISZERO PUSH2 0x2AA JUMPI PUSH2 0x2A9 PUSH2 0x25E JUMP JUMPDEST JUMPDEST PUSH0 PUSH2 0x2B7 DUP5 DUP3 DUP6 ADD PUSH2 0x281 JUMP JUMPDEST SWAP2 POP POP SWAP3 SWAP2 POP POP JUMP JUMPDEST PUSH0 PUSH20 0xFFFFFFFFFFFFFFFFFFFFFFFFFFFFFFFFFFFFFFFF DUP3 AND SWAP1 POP SWAP2 SWAP1 POP JUMP JUMPDEST PUSH0 PUSH2 0x2E9 DUP3 PUSH2 0x2C0 JUMP JUMPDEST SWAP1 POP SWAP2 SWAP1 POP JUMP JUMPDEST PUSH2 0x2F9 DUP2 PUSH2 0x2DF JUMP JUMPDEST DUP3 MSTORE POP POP JUMP JUMPDEST PUSH2 0x308 DUP2 PUSH2 0x262 JUMP JUMPDEST DUP3 MSTORE POP POP JUMP JUMPDEST PUSH0 PUSH1 0x60 DUP3 ADD SWAP1 POP PUSH2 0x321 PUSH0 DUP4 ADD DUP7 PUSH2 0x2F0 JUMP JUMPDEST PUSH2 0x32E PUSH1 0x20 DUP4 ADD DUP6 PUSH2 0x2F0 JUMP JUMPDEST PUSH2 0x33B PUSH1 0x40 DUP4 ADD DUP5 PUSH2 0x2FF JUMP JUMPDEST SWAP5 SWAP4 POP POP POP POP JUMP JUMPDEST PUSH2 0x34C DUP2 PUSH2 0x2DF JUMP JUMPDEST DUP2 EQ PUSH2 0x356 JUMPI PUSH0 DUP1 REVERT JUMPDEST POP JUMP JUMPDEST PUSH0 DUP2 CALLDATALOAD SWAP1 POP PUSH2 0x367 DUP2 PUSH2 0x343 JUMP JUMPDEST SWAP3 SWAP2 POP POP JUMP JUMPDEST PUSH0 DUP1 PUSH0 PUSH1 0x60 DUP5 DUP7 SUB SLT ISZERO PUSH2 0x384 JUMPI PUSH2 0x383 PUSH2 0x25E JUMP JUMPDEST JUMPDEST PUSH0 PUSH2 0x391 DUP7 DUP3 DUP8 ADD PUSH2 0x359 JUMP JUMPDEST SWAP4 POP POP PUSH1 0x20 PUSH2 0x3A2 DUP7 DUP3 DUP8 ADD PUSH2 0x359 JUMP JUMPDEST SWAP3 POP POP PUSH1 0x40 PUSH2 0x3B3 DUP7 DUP3 DUP8 ADD PUSH2 0x281 JUMP JUMPDEST SWAP2 POP POP SWAP3 POP SWAP3 POP SWAP3 JUMP JUMPDEST PUSH32 0x4E487B7100000000000000000000000000000000000000000000000000000000 PUSH0 MSTORE PUSH1 0x32 PUSH1 0x4 MSTORE PUSH1 0x24 PUSH0 REVERT INVALID LOG2 PUSH5 0x6970667358 0x22 SLT KECCAK256 SWAP8 PUSH6 0xC0F2AF924DF5 PREVRANDAO SWAP5 DELEGATECALL SWAP7 0x2C 0xA8 PUSH7 0x82682834DAF7A9 0xEE 0xFB 0xDA 0xEB 0xE6 0xBB 0xF6 0xED 0x23 CALLDATASIZE PUSH5 0x736F6C6343 STOP ADDMOD AND STOP CALLER "
				},
				"gasEstimates": {
					"creation": {
						"codeDepositCost": "211200",
						"executionCost": "249",
						"totalCost": "211449"
					},
					"external": {
						"addTransaction(address,address,uint256)": "infinite",
						"getTransaction(uint256)": "infinite"
					}
				},
				"methodIdentifiers": {
					"addTransaction(address,address,uint256)": "fe73b27f",
					"getTransaction(uint256)": "33ea3dc8"
				}
			},
			"storageLayout": {
				"storage": [
					{
						"astId": 14,
						"contract": "constructors/Government.sol:Government",
						"label": "transactionLog",
						"offset": 0,
						"slot": "0",
						"type": "t_array(t_struct(Transaction)10_storage)dyn_storage"
					}
				],
				"types": {
					"t_address": {
						"encoding": "inplace",
						"label": "address",
						"numberOfBytes": "20"
					},
					"t_array(t_struct(Transaction)10_storage)dyn_storage": {
						"base": "t_struct(Transaction)10_storage",
						"encoding": "dynamic_array",
						"label": "struct Government.Transaction[]",
						"numberOfBytes": "32"
					},
					"t_struct(Transaction)10_storage": {
						"encoding": "inplace",
						"label": "struct Government.Transaction",
						"members": [
							{
								"astId": 3,
								"contract": "constructors/Government.sol:Government",
								"label": "from",
								"offset": 0,
								"slot": "0",
								"type": "t_address"
							},
							{
								"astId": 5,
								"contract": "constructors/Government.sol:Government",
								"label": "to",
								"offset": 0,
								"slot": "1",
								"type": "t_address"
							},
							{
								"astId": 7,
								"contract": "constructors/Government.sol:Government",
								"label": "amount",
								"offset": 0,
								"slot": "2",
								"type": "t_uint256"
							},
							{
								"astId": 9,
								"contract": "constructors/Government.sol:Government",
								"label": "txid",
								"offset": 0,
								"slot": "3",
								"type": "t_uint256"
							}
						],
						"numberOfBytes": "128"
					},
					"t_uint256": {
						"encoding": "inplace",
						"label": "uint256",
						"numberOfBytes": "32"
					}
				}
			},
			"userdoc": {
				"kind": "user",
				"methods": {},
				"version": 1
			}
		}
	}
}