{
	"constructors/Project.sol": {
		"Wallet": {
			"abi": [
				{
					"inputs": [
						{
							"internalType": "address[]",
							"name": "_owners",
							"type": "address[]"
						},
						{
							"internalType": "uint256",
							"name": "_limit",
							"type": "uint256"
						}
					],
					"stateMutability": "nonpayable",
					"type": "constructor"
				},
				{
					"anonymous": false,
					"inputs": [
						{
							"indexed": false,
							"internalType": "uint256",
							"name": "_id",
							"type": "uint256"
						},
						{
							"indexed": false,
							"internalType": "uint256",
							"name": "approvals",
							"type": "uint256"
						},
						{
							"indexed": false,
							"internalType": "address",
							"name": "approver",
							"type": "address"
						}
					],
					"name": "ApprovalRecieved",
					"type": "event"
				},
				{
					"anonymous": false,
					"inputs": [
						{
							"indexed": false,
							"internalType": "address",
							"name": "_depositor",
							"type": "address"
						},
						{
							"indexed": false,
							"internalType": "uint256",
							"name": "_amount",
							"type": "uint256"
						}
					],
					"name": "DepositedFund",
					"type": "event"
				},
				{
					"anonymous": false,
					"inputs": [
						{
							"indexed": false,
							"internalType": "uint256",
							"name": "_id",
							"type": "uint256"
						}
					],
					"name": "TransferApproved",
					"type": "event"
				},
				{
					"anonymous": false,
					"inputs": [
						{
							"indexed": false,
							"internalType": "uint256",
							"name": "_id",
							"type": "uint256"
						},
						{
							"indexed": false,
							"internalType": "uint256",
							"name": "_amount",
							"type": "uint256"
						},
						{
							"indexed": false,
							"internalType": "address",
							"name": "_transferer",
							"type": "address"
						},
						{
							"indexed": false,
							"internalType": "address",
							"name": "_receiver",
							"type": "address"
						}
					],
					"name": "TransferRequestCreated",
					"type": "event"
				},
				{
					"anonymous": false,
					"inputs": [
						{
							"indexed": false,
							"internalType": "uint256",
							"name": "amount",
							"type": "uint256"
						},
						{
							"indexed": true,
							"internalType": "address",
							"name": "depositedOwner",
							"type": "address"
						}
					],
					"name": "depositedFund",
					"type": "event"
				},
				{
					"inputs": [
						{
							"internalType": "uint256",
							"name": "_amount",
							"type": "uint256"
						},
						{
							"internalType": "address payable",
							"name": "_receiver",
							"type": "address"
						}
					],
					"name": "createTransfer",
					"outputs": [],
					"stateMutability": "nonpayable",
					"type": "function"
				},
				{
					"inputs": [],
					"name": "depositFund",
					"outputs": [],
					"stateMutability": "payable",
					"type": "function"
				},
				{
					"inputs": [],
					"name": "getBalance",
					"outputs": [
						{
							"internalType": "uint256",
							"name": "",
							"type": "uint256"
						}
					],
					"stateMutability": "view",
					"type": "function"
				},
				{
					"inputs": [],
					"name": "getTransferRequests",
					"outputs": [
						{
							"components": [
								{
									"internalType": "uint256",
									"name": "approvals",
									"type": "uint256"
								},
								{
									"internalType": "address",
									"name": "reciever",
									"type": "address"
								},
								{
									"internalType": "uint256",
									"name": "amount",
									"type": "uint256"
								},
								{
									"internalType": "uint256",
									"name": "id",
									"type": "uint256"
								},
								{
									"internalType": "bool",
									"name": "hasSent",
									"type": "bool"
								}
							],
							"internalType": "struct Wallet.Transfer[]",
							"name": "",
							"type": "tuple[]"
						}
					],
					"stateMutability": "view",
					"type": "function"
				},
				{
					"inputs": [],
					"name": "getWalletBalance",
					"outputs": [
						{
							"internalType": "uint256",
							"name": "",
							"type": "uint256"
						}
					],
					"stateMutability": "view",
					"type": "function"
				},
				{
					"inputs": [
						{
							"internalType": "uint256",
							"name": "_id",
							"type": "uint256"
						}
					],
					"name": "isApprove",
					"outputs": [],
					"stateMutability": "nonpayable",
					"type": "function"
				},
				{
					"inputs": [
						{
							"internalType": "uint256",
							"name": "",
							"type": "uint256"
						}
					],
					"name": "owners",
					"outputs": [
						{
							"internalType": "address",
							"name": "",
							"type": "address"
						}
					],
					"stateMutability": "view",
					"type": "function"
				}
			],
			"devdoc": {
				"kind": "dev",
				"methods": {},
				"version": 1
			},
			"evm": {
				"assembly": "    /* \"constructors/Project.sol\":219:5006  contract Wallet {... */\n  mstore(0x40, 0x80)\n    /* \"constructors/Project.sol\":1889:2466  constructor(address[] memory _owners, uint _limit) {... */\n  callvalue\n  dup1\n  iszero\n  tag_1\n  jumpi\n  0x00\n  dup1\n  revert\ntag_1:\n  pop\n  mload(0x40)\n  sub(codesize, bytecodeSize)\n  dup1\n  bytecodeSize\n  dup4\n  codecopy\n  dup2\n  dup2\n  add\n  0x40\n  mstore\n  dup2\n  add\n  swap1\n  tag_2\n  swap2\n  swap1\n  tag_3\n  jump\t// in\ntag_2:\n    /* \"constructors/Project.sol\":1975:1976  0 */\n  0x00\n    /* \"constructors/Project.sol\":1958:1965  _owners */\n  dup3\n    /* \"constructors/Project.sol\":1958:1972  _owners.length */\n  mload\n    /* \"constructors/Project.sol\":1958:1976  _owners.length > 0 */\n  gt\n    /* \"constructors/Project.sol\":1950:1996  require(_owners.length > 0, \"Owners required\") */\n  tag_6\n  jumpi\n  mload(0x40)\n  0x08c379a000000000000000000000000000000000000000000000000000000000\n  dup2\n  mstore\n  0x04\n  add\n  tag_7\n  swap1\n  tag_8\n  jump\t// in\ntag_7:\n  mload(0x40)\n  dup1\n  swap2\n  sub\n  swap1\n  revert\ntag_6:\n    /* \"constructors/Project.sol\":2023:2024  0 */\n  0x00\n    /* \"constructors/Project.sol\":2014:2020  _limit */\n  dup2\n    /* \"constructors/Project.sol\":2014:2024  _limit > 0 */\n  gt\n    /* \"constructors/Project.sol\":2014:2052  _limit > 0 && _limit <= _owners.length */\n  dup1\n  iszero\n  tag_9\n  jumpi\n  pop\n    /* \"constructors/Project.sol\":2038:2045  _owners */\n  dup2\n    /* \"constructors/Project.sol\":2038:2052  _owners.length */\n  mload\n    /* \"constructors/Project.sol\":2028:2034  _limit */\n  dup2\n    /* \"constructors/Project.sol\":2028:2052  _limit <= _owners.length */\n  gt\n  iszero\n    /* \"constructors/Project.sol\":2014:2052  _limit > 0 && _limit <= _owners.length */\ntag_9:\n    /* \"constructors/Project.sol\":2006:2085  require(_limit > 0 && _limit <= _owners.length, \"Invalid number of signatures\") */\n  tag_10\n  jumpi\n  mload(0x40)\n  0x08c379a000000000000000000000000000000000000000000000000000000000\n  dup2\n  mstore\n  0x04\n  add\n  tag_11\n  swap1\n  tag_12\n  jump\t// in\ntag_11:\n  mload(0x40)\n  dup1\n  swap2\n  sub\n  swap1\n  revert\ntag_10:\n    /* \"constructors/Project.sol\":2157:2163  uint i */\n  0x00\n    /* \"constructors/Project.sol\":2153:2435  for(uint i=0; i < _owners.length; i++) {... */\ntag_13:\n    /* \"constructors/Project.sol\":2171:2178  _owners */\n  dup3\n    /* \"constructors/Project.sol\":2171:2185  _owners.length */\n  mload\n    /* \"constructors/Project.sol\":2167:2168  i */\n  dup2\n    /* \"constructors/Project.sol\":2167:2185  i < _owners.length */\n  lt\n    /* \"constructors/Project.sol\":2153:2435  for(uint i=0; i < _owners.length; i++) {... */\n  iszero\n  tag_14\n  jumpi\n    /* \"constructors/Project.sol\":2206:2219  address owner */\n  0x00\n    /* \"constructors/Project.sol\":2222:2229  _owners */\n  dup4\n    /* \"constructors/Project.sol\":2230:2231  i */\n  dup3\n    /* \"constructors/Project.sol\":2222:2232  _owners[i] */\n  dup2\n  mload\n  dup2\n  lt\n  tag_16\n  jumpi\n  tag_17\n  tag_18\n  jump\t// in\ntag_17:\ntag_16:\n  0x20\n  mul\n  0x20\n  add\n  add\n  mload\n    /* \"constructors/Project.sol\":2206:2232  address owner = _owners[i] */\n  swap1\n  pop\n    /* \"constructors/Project.sol\":2274:2275  0 */\n  0x00\n    /* \"constructors/Project.sol\":2257:2276  owner != address(0) */\n  0xffffffffffffffffffffffffffffffffffffffff\n  and\n    /* \"constructors/Project.sol\":2257:2262  owner */\n  dup2\n    /* \"constructors/Project.sol\":2257:2276  owner != address(0) */\n  0xffffffffffffffffffffffffffffffffffffffff\n  and\n  sub\n    /* \"constructors/Project.sol\":2249:2294  require(owner != address(0), \"Invalid owner\") */\n  tag_19\n  jumpi\n  mload(0x40)\n  0x08c379a000000000000000000000000000000000000000000000000000000000\n  dup2\n  mstore\n  0x04\n  add\n  tag_20\n  swap1\n  tag_21\n  jump\t// in\ntag_20:\n  mload(0x40)\n  dup1\n  swap2\n  sub\n  swap1\n  revert\ntag_19:\n    /* \"constructors/Project.sol\":2317:2324  isOwner */\n  0x04\n    /* \"constructors/Project.sol\":2317:2331  isOwner[owner] */\n  0x00\n    /* \"constructors/Project.sol\":2325:2330  owner */\n  dup3\n    /* \"constructors/Project.sol\":2317:2331  isOwner[owner] */\n  0xffffffffffffffffffffffffffffffffffffffff\n  and\n  0xffffffffffffffffffffffffffffffffffffffff\n  and\n  dup2\n  mstore\n  0x20\n  add\n  swap1\n  dup2\n  mstore\n  0x20\n  add\n  0x00\n  keccak256\n  0x00\n  swap1\n  sload\n  swap1\n  0x0100\n  exp\n  swap1\n  div\n  0xff\n  and\n    /* \"constructors/Project.sol\":2316:2331  !isOwner[owner] */\n  iszero\n    /* \"constructors/Project.sol\":2308:2356  require(!isOwner[owner], \"owner is not allowed\") */\n  tag_22\n  jumpi\n  mload(0x40)\n  0x08c379a000000000000000000000000000000000000000000000000000000000\n  dup2\n  mstore\n  0x04\n  add\n  tag_23\n  swap1\n  tag_24\n  jump\t// in\ntag_23:\n  mload(0x40)\n  dup1\n  swap2\n  sub\n  swap1\n  revert\ntag_22:\n    /* \"constructors/Project.sol\":2388:2392  true */\n  0x01\n    /* \"constructors/Project.sol\":2371:2378  isOwner */\n  0x04\n    /* \"constructors/Project.sol\":2371:2385  isOwner[owner] */\n  0x00\n    /* \"constructors/Project.sol\":2379:2384  owner */\n  dup4\n    /* \"constructors/Project.sol\":2371:2385  isOwner[owner] */\n  0xffffffffffffffffffffffffffffffffffffffff\n  and\n  0xffffffffffffffffffffffffffffffffffffffff\n  and\n  dup2\n  mstore\n  0x20\n  add\n  swap1\n  dup2\n  mstore\n  0x20\n  add\n  0x00\n  keccak256\n  0x00\n    /* \"constructors/Project.sol\":2371:2392  isOwner[owner] = true */\n  0x0100\n  exp\n  dup2\n  sload\n  dup2\n  0xff\n  mul\n  not\n  and\n  swap1\n  dup4\n  iszero\n  iszero\n  mul\n  or\n  swap1\n  sstore\n  pop\n    /* \"constructors/Project.sol\":2406:2412  owners */\n  0x00\n    /* \"constructors/Project.sol\":2418:2423  owner */\n  dup2\n    /* \"constructors/Project.sol\":2406:2424  owners.push(owner) */\n  swap1\n  dup1\n  0x01\n  dup2\n  sload\n  add\n  dup1\n  dup3\n  sstore\n  dup1\n  swap2\n  pop\n  pop\n  0x01\n  swap1\n  sub\n  swap1\n  0x00\n  mstore\n  keccak256(0x00, 0x20)\n  add\n  0x00\n  swap1\n  swap2\n  swap1\n  swap2\n  swap1\n  swap2\n  0x0100\n  exp\n  dup2\n  sload\n  dup2\n  0xffffffffffffffffffffffffffffffffffffffff\n  mul\n  not\n  and\n  swap1\n  dup4\n  0xffffffffffffffffffffffffffffffffffffffff\n  and\n  mul\n  or\n  swap1\n  sstore\n  pop\n    /* \"constructors/Project.sol\":2192:2435  {... */\n  pop\n    /* \"constructors/Project.sol\":2187:2190  i++ */\n  dup1\n  dup1\n  0x01\n  add\n  swap2\n  pop\n  pop\n    /* \"constructors/Project.sol\":2153:2435  for(uint i=0; i < _owners.length; i++) {... */\n  jump(tag_13)\ntag_14:\n  pop\n    /* \"constructors/Project.sol\":2453:2459  _limit */\n  dup1\n    /* \"constructors/Project.sol\":2445:2450  limit */\n  0x01\n    /* \"constructors/Project.sol\":2445:2459  limit = _limit */\n  dup2\n  swap1\n  sstore\n  pop\n    /* \"constructors/Project.sol\":1889:2466  constructor(address[] memory _owners, uint _limit) {... */\n  pop\n  pop\n    /* \"constructors/Project.sol\":219:5006  contract Wallet {... */\n  jump(tag_26)\n    /* \"#utility.yul\":7:82   */\ntag_27:\n    /* \"#utility.yul\":40:46   */\n  0x00\n    /* \"#utility.yul\":73:75   */\n  0x40\n    /* \"#utility.yul\":67:76   */\n  mload\n    /* \"#utility.yul\":57:76   */\n  swap1\n  pop\n    /* \"#utility.yul\":7:82   */\n  swap1\n  jump\t// out\n    /* \"#utility.yul\":88:205   */\ntag_28:\n    /* \"#utility.yul\":197:198   */\n  0x00\n    /* \"#utility.yul\":194:195   */\n  dup1\n    /* \"#utility.yul\":187:199   */\n  revert\n    /* \"#utility.yul\":211:328   */\ntag_29:\n    /* \"#utility.yul\":320:321   */\n  0x00\n    /* \"#utility.yul\":317:318   */\n  dup1\n    /* \"#utility.yul\":310:322   */\n  revert\n    /* \"#utility.yul\":334:451   */\ntag_30:\n    /* \"#utility.yul\":443:444   */\n  0x00\n    /* \"#utility.yul\":440:441   */\n  dup1\n    /* \"#utility.yul\":433:445   */\n  revert\n    /* \"#utility.yul\":457:559   */\ntag_31:\n    /* \"#utility.yul\":498:504   */\n  0x00\n    /* \"#utility.yul\":549:551   */\n  0x1f\n    /* \"#utility.yul\":545:552   */\n  not\n    /* \"#utility.yul\":540:542   */\n  0x1f\n    /* \"#utility.yul\":533:538   */\n  dup4\n    /* \"#utility.yul\":529:543   */\n  add\n    /* \"#utility.yul\":525:553   */\n  and\n    /* \"#utility.yul\":515:553   */\n  swap1\n  pop\n    /* \"#utility.yul\":457:559   */\n  swap2\n  swap1\n  pop\n  jump\t// out\n    /* \"#utility.yul\":565:745   */\ntag_32:\n    /* \"#utility.yul\":613:690   */\n  0x4e487b7100000000000000000000000000000000000000000000000000000000\n    /* \"#utility.yul\":610:611   */\n  0x00\n    /* \"#utility.yul\":603:691   */\n  mstore\n    /* \"#utility.yul\":710:714   */\n  0x41\n    /* \"#utility.yul\":707:708   */\n  0x04\n    /* \"#utility.yul\":700:715   */\n  mstore\n    /* \"#utility.yul\":734:738   */\n  0x24\n    /* \"#utility.yul\":731:732   */\n  0x00\n    /* \"#utility.yul\":724:739   */\n  revert\n    /* \"#utility.yul\":751:1032   */\ntag_33:\n    /* \"#utility.yul\":834:861   */\n  tag_63\n    /* \"#utility.yul\":856:860   */\n  dup3\n    /* \"#utility.yul\":834:861   */\n  tag_31\n  jump\t// in\ntag_63:\n    /* \"#utility.yul\":826:832   */\n  dup2\n    /* \"#utility.yul\":822:862   */\n  add\n    /* \"#utility.yul\":964:970   */\n  dup2\n    /* \"#utility.yul\":952:962   */\n  dup2\n    /* \"#utility.yul\":949:971   */\n  lt\n    /* \"#utility.yul\":928:946   */\n  0xffffffffffffffff\n    /* \"#utility.yul\":916:926   */\n  dup3\n    /* \"#utility.yul\":913:947   */\n  gt\n    /* \"#utility.yul\":910:972   */\n  or\n    /* \"#utility.yul\":907:995   */\n  iszero\n  tag_64\n  jumpi\n    /* \"#utility.yul\":975:993   */\n  tag_65\n  tag_32\n  jump\t// in\ntag_65:\n    /* \"#utility.yul\":907:995   */\ntag_64:\n    /* \"#utility.yul\":1015:1025   */\n  dup1\n    /* \"#utility.yul\":1011:1013   */\n  0x40\n    /* \"#utility.yul\":1004:1026   */\n  mstore\n    /* \"#utility.yul\":794:1032   */\n  pop\n    /* \"#utility.yul\":751:1032   */\n  pop\n  pop\n  jump\t// out\n    /* \"#utility.yul\":1038:1167   */\ntag_34:\n    /* \"#utility.yul\":1072:1078   */\n  0x00\n    /* \"#utility.yul\":1099:1119   */\n  tag_67\n  tag_27\n  jump\t// in\ntag_67:\n    /* \"#utility.yul\":1089:1119   */\n  swap1\n  pop\n    /* \"#utility.yul\":1128:1161   */\n  tag_68\n    /* \"#utility.yul\":1156:1160   */\n  dup3\n    /* \"#utility.yul\":1148:1154   */\n  dup3\n    /* \"#utility.yul\":1128:1161   */\n  tag_33\n  jump\t// in\ntag_68:\n    /* \"#utility.yul\":1038:1167   */\n  swap2\n  swap1\n  pop\n  jump\t// out\n    /* \"#utility.yul\":1173:1484   */\ntag_35:\n    /* \"#utility.yul\":1250:1254   */\n  0x00\n    /* \"#utility.yul\":1340:1358   */\n  0xffffffffffffffff\n    /* \"#utility.yul\":1332:1338   */\n  dup3\n    /* \"#utility.yul\":1329:1359   */\n  gt\n    /* \"#utility.yul\":1326:1382   */\n  iszero\n  tag_70\n  jumpi\n    /* \"#utility.yul\":1362:1380   */\n  tag_71\n  tag_32\n  jump\t// in\ntag_71:\n    /* \"#utility.yul\":1326:1382   */\ntag_70:\n    /* \"#utility.yul\":1412:1416   */\n  0x20\n    /* \"#utility.yul\":1404:1410   */\n  dup3\n    /* \"#utility.yul\":1400:1417   */\n  mul\n    /* \"#utility.yul\":1392:1417   */\n  swap1\n  pop\n    /* \"#utility.yul\":1472:1476   */\n  0x20\n    /* \"#utility.yul\":1466:1470   */\n  dup2\n    /* \"#utility.yul\":1462:1477   */\n  add\n    /* \"#utility.yul\":1454:1477   */\n  swap1\n  pop\n    /* \"#utility.yul\":1173:1484   */\n  swap2\n  swap1\n  pop\n  jump\t// out\n    /* \"#utility.yul\":1490:1607   */\ntag_36:\n    /* \"#utility.yul\":1599:1600   */\n  0x00\n    /* \"#utility.yul\":1596:1597   */\n  dup1\n    /* \"#utility.yul\":1589:1601   */\n  revert\n    /* \"#utility.yul\":1613:1739   */\ntag_37:\n    /* \"#utility.yul\":1650:1657   */\n  0x00\n    /* \"#utility.yul\":1690:1732   */\n  0xffffffffffffffffffffffffffffffffffffffff\n    /* \"#utility.yul\":1683:1688   */\n  dup3\n    /* \"#utility.yul\":1679:1733   */\n  and\n    /* \"#utility.yul\":1668:1733   */\n  swap1\n  pop\n    /* \"#utility.yul\":1613:1739   */\n  swap2\n  swap1\n  pop\n  jump\t// out\n    /* \"#utility.yul\":1745:1841   */\ntag_38:\n    /* \"#utility.yul\":1782:1789   */\n  0x00\n    /* \"#utility.yul\":1811:1835   */\n  tag_75\n    /* \"#utility.yul\":1829:1834   */\n  dup3\n    /* \"#utility.yul\":1811:1835   */\n  tag_37\n  jump\t// in\ntag_75:\n    /* \"#utility.yul\":1800:1835   */\n  swap1\n  pop\n    /* \"#utility.yul\":1745:1841   */\n  swap2\n  swap1\n  pop\n  jump\t// out\n    /* \"#utility.yul\":1847:1969   */\ntag_39:\n    /* \"#utility.yul\":1920:1944   */\n  tag_77\n    /* \"#utility.yul\":1938:1943   */\n  dup2\n    /* \"#utility.yul\":1920:1944   */\n  tag_38\n  jump\t// in\ntag_77:\n    /* \"#utility.yul\":1913:1918   */\n  dup2\n    /* \"#utility.yul\":1910:1945   */\n  eq\n    /* \"#utility.yul\":1900:1963   */\n  tag_78\n  jumpi\n    /* \"#utility.yul\":1959:1960   */\n  0x00\n    /* \"#utility.yul\":1956:1957   */\n  dup1\n    /* \"#utility.yul\":1949:1961   */\n  revert\n    /* \"#utility.yul\":1900:1963   */\ntag_78:\n    /* \"#utility.yul\":1847:1969   */\n  pop\n  jump\t// out\n    /* \"#utility.yul\":1975:2118   */\ntag_40:\n    /* \"#utility.yul\":2032:2037   */\n  0x00\n    /* \"#utility.yul\":2063:2069   */\n  dup2\n    /* \"#utility.yul\":2057:2070   */\n  mload\n    /* \"#utility.yul\":2048:2070   */\n  swap1\n  pop\n    /* \"#utility.yul\":2079:2112   */\n  tag_80\n    /* \"#utility.yul\":2106:2111   */\n  dup2\n    /* \"#utility.yul\":2079:2112   */\n  tag_39\n  jump\t// in\ntag_80:\n    /* \"#utility.yul\":1975:2118   */\n  swap3\n  swap2\n  pop\n  pop\n  jump\t// out\n    /* \"#utility.yul\":2141:2873   */\ntag_41:\n    /* \"#utility.yul\":2248:2253   */\n  0x00\n    /* \"#utility.yul\":2273:2354   */\n  tag_82\n    /* \"#utility.yul\":2289:2353   */\n  tag_83\n    /* \"#utility.yul\":2346:2352   */\n  dup5\n    /* \"#utility.yul\":2289:2353   */\n  tag_35\n  jump\t// in\ntag_83:\n    /* \"#utility.yul\":2273:2354   */\n  tag_34\n  jump\t// in\ntag_82:\n    /* \"#utility.yul\":2264:2354   */\n  swap1\n  pop\n    /* \"#utility.yul\":2374:2379   */\n  dup1\n    /* \"#utility.yul\":2403:2409   */\n  dup4\n    /* \"#utility.yul\":2396:2401   */\n  dup3\n    /* \"#utility.yul\":2389:2410   */\n  mstore\n    /* \"#utility.yul\":2437:2441   */\n  0x20\n    /* \"#utility.yul\":2430:2435   */\n  dup3\n    /* \"#utility.yul\":2426:2442   */\n  add\n    /* \"#utility.yul\":2419:2442   */\n  swap1\n  pop\n    /* \"#utility.yul\":2490:2494   */\n  0x20\n    /* \"#utility.yul\":2482:2488   */\n  dup5\n    /* \"#utility.yul\":2478:2495   */\n  mul\n    /* \"#utility.yul\":2470:2476   */\n  dup4\n    /* \"#utility.yul\":2466:2496   */\n  add\n    /* \"#utility.yul\":2519:2522   */\n  dup6\n    /* \"#utility.yul\":2511:2517   */\n  dup2\n    /* \"#utility.yul\":2508:2523   */\n  gt\n    /* \"#utility.yul\":2505:2627   */\n  iszero\n  tag_84\n  jumpi\n    /* \"#utility.yul\":2538:2617   */\n  tag_85\n  tag_36\n  jump\t// in\ntag_85:\n    /* \"#utility.yul\":2505:2627   */\ntag_84:\n    /* \"#utility.yul\":2653:2659   */\n  dup4\n    /* \"#utility.yul\":2636:2867   */\ntag_86:\n    /* \"#utility.yul\":2670:2676   */\n  dup2\n    /* \"#utility.yul\":2665:2668   */\n  dup2\n    /* \"#utility.yul\":2662:2677   */\n  lt\n    /* \"#utility.yul\":2636:2867   */\n  iszero\n  tag_88\n  jumpi\n    /* \"#utility.yul\":2745:2748   */\n  dup1\n    /* \"#utility.yul\":2774:2822   */\n  tag_89\n    /* \"#utility.yul\":2818:2821   */\n  dup9\n    /* \"#utility.yul\":2806:2816   */\n  dup3\n    /* \"#utility.yul\":2774:2822   */\n  tag_40\n  jump\t// in\ntag_89:\n    /* \"#utility.yul\":2769:2772   */\n  dup5\n    /* \"#utility.yul\":2762:2823   */\n  mstore\n    /* \"#utility.yul\":2852:2856   */\n  0x20\n    /* \"#utility.yul\":2847:2850   */\n  dup5\n    /* \"#utility.yul\":2843:2857   */\n  add\n    /* \"#utility.yul\":2836:2857   */\n  swap4\n  pop\n    /* \"#utility.yul\":2712:2867   */\n  pop\n    /* \"#utility.yul\":2696:2700   */\n  0x20\n    /* \"#utility.yul\":2691:2694   */\n  dup2\n    /* \"#utility.yul\":2687:2701   */\n  add\n    /* \"#utility.yul\":2680:2701   */\n  swap1\n  pop\n    /* \"#utility.yul\":2636:2867   */\n  jump(tag_86)\ntag_88:\n    /* \"#utility.yul\":2640:2661   */\n  pop\n    /* \"#utility.yul\":2254:2873   */\n  pop\n  pop\n    /* \"#utility.yul\":2141:2873   */\n  swap4\n  swap3\n  pop\n  pop\n  pop\n  jump\t// out\n    /* \"#utility.yul\":2896:3281   */\ntag_42:\n    /* \"#utility.yul\":2978:2983   */\n  0x00\n    /* \"#utility.yul\":3027:3030   */\n  dup3\n    /* \"#utility.yul\":3020:3024   */\n  0x1f\n    /* \"#utility.yul\":3012:3018   */\n  dup4\n    /* \"#utility.yul\":3008:3025   */\n  add\n    /* \"#utility.yul\":3004:3031   */\n  slt\n    /* \"#utility.yul\":2994:3116   */\n  tag_91\n  jumpi\n    /* \"#utility.yul\":3035:3114   */\n  tag_92\n  tag_30\n  jump\t// in\ntag_92:\n    /* \"#utility.yul\":2994:3116   */\ntag_91:\n    /* \"#utility.yul\":3145:3151   */\n  dup2\n    /* \"#utility.yul\":3139:3152   */\n  mload\n    /* \"#utility.yul\":3170:3275   */\n  tag_93\n    /* \"#utility.yul\":3271:3274   */\n  dup5\n    /* \"#utility.yul\":3263:3269   */\n  dup3\n    /* \"#utility.yul\":3256:3260   */\n  0x20\n    /* \"#utility.yul\":3248:3254   */\n  dup7\n    /* \"#utility.yul\":3244:3261   */\n  add\n    /* \"#utility.yul\":3170:3275   */\n  tag_41\n  jump\t// in\ntag_93:\n    /* \"#utility.yul\":3161:3275   */\n  swap2\n  pop\n    /* \"#utility.yul\":2984:3281   */\n  pop\n    /* \"#utility.yul\":2896:3281   */\n  swap3\n  swap2\n  pop\n  pop\n  jump\t// out\n    /* \"#utility.yul\":3287:3364   */\ntag_43:\n    /* \"#utility.yul\":3324:3331   */\n  0x00\n    /* \"#utility.yul\":3353:3358   */\n  dup2\n    /* \"#utility.yul\":3342:3358   */\n  swap1\n  pop\n    /* \"#utility.yul\":3287:3364   */\n  swap2\n  swap1\n  pop\n  jump\t// out\n    /* \"#utility.yul\":3370:3492   */\ntag_44:\n    /* \"#utility.yul\":3443:3467   */\n  tag_96\n    /* \"#utility.yul\":3461:3466   */\n  dup2\n    /* \"#utility.yul\":3443:3467   */\n  tag_43\n  jump\t// in\ntag_96:\n    /* \"#utility.yul\":3436:3441   */\n  dup2\n    /* \"#utility.yul\":3433:3468   */\n  eq\n    /* \"#utility.yul\":3423:3486   */\n  tag_97\n  jumpi\n    /* \"#utility.yul\":3482:3483   */\n  0x00\n    /* \"#utility.yul\":3479:3480   */\n  dup1\n    /* \"#utility.yul\":3472:3484   */\n  revert\n    /* \"#utility.yul\":3423:3486   */\ntag_97:\n    /* \"#utility.yul\":3370:3492   */\n  pop\n  jump\t// out\n    /* \"#utility.yul\":3498:3641   */\ntag_45:\n    /* \"#utility.yul\":3555:3560   */\n  0x00\n    /* \"#utility.yul\":3586:3592   */\n  dup2\n    /* \"#utility.yul\":3580:3593   */\n  mload\n    /* \"#utility.yul\":3571:3593   */\n  swap1\n  pop\n    /* \"#utility.yul\":3602:3635   */\n  tag_99\n    /* \"#utility.yul\":3629:3634   */\n  dup2\n    /* \"#utility.yul\":3602:3635   */\n  tag_44\n  jump\t// in\ntag_99:\n    /* \"#utility.yul\":3498:3641   */\n  swap3\n  swap2\n  pop\n  pop\n  jump\t// out\n    /* \"#utility.yul\":3647:4357   */\ntag_3:\n    /* \"#utility.yul\":3751:3757   */\n  0x00\n    /* \"#utility.yul\":3759:3765   */\n  dup1\n    /* \"#utility.yul\":3808:3810   */\n  0x40\n    /* \"#utility.yul\":3796:3805   */\n  dup4\n    /* \"#utility.yul\":3787:3794   */\n  dup6\n    /* \"#utility.yul\":3783:3806   */\n  sub\n    /* \"#utility.yul\":3779:3811   */\n  slt\n    /* \"#utility.yul\":3776:3895   */\n  iszero\n  tag_101\n  jumpi\n    /* \"#utility.yul\":3814:3893   */\n  tag_102\n  tag_28\n  jump\t// in\ntag_102:\n    /* \"#utility.yul\":3776:3895   */\ntag_101:\n    /* \"#utility.yul\":3955:3956   */\n  0x00\n    /* \"#utility.yul\":3944:3953   */\n  dup4\n    /* \"#utility.yul\":3940:3957   */\n  add\n    /* \"#utility.yul\":3934:3958   */\n  mload\n    /* \"#utility.yul\":3985:4003   */\n  0xffffffffffffffff\n    /* \"#utility.yul\":3977:3983   */\n  dup2\n    /* \"#utility.yul\":3974:4004   */\n  gt\n    /* \"#utility.yul\":3971:4088   */\n  iszero\n  tag_103\n  jumpi\n    /* \"#utility.yul\":4007:4086   */\n  tag_104\n  tag_29\n  jump\t// in\ntag_104:\n    /* \"#utility.yul\":3971:4088   */\ntag_103:\n    /* \"#utility.yul\":4112:4201   */\n  tag_105\n    /* \"#utility.yul\":4193:4200   */\n  dup6\n    /* \"#utility.yul\":4184:4190   */\n  dup3\n    /* \"#utility.yul\":4173:4182   */\n  dup7\n    /* \"#utility.yul\":4169:4191   */\n  add\n    /* \"#utility.yul\":4112:4201   */\n  tag_42\n  jump\t// in\ntag_105:\n    /* \"#utility.yul\":4102:4201   */\n  swap3\n  pop\n    /* \"#utility.yul\":3905:4211   */\n  pop\n    /* \"#utility.yul\":4250:4252   */\n  0x20\n    /* \"#utility.yul\":4276:4340   */\n  tag_106\n    /* \"#utility.yul\":4332:4339   */\n  dup6\n    /* \"#utility.yul\":4323:4329   */\n  dup3\n    /* \"#utility.yul\":4312:4321   */\n  dup7\n    /* \"#utility.yul\":4308:4330   */\n  add\n    /* \"#utility.yul\":4276:4340   */\n  tag_45\n  jump\t// in\ntag_106:\n    /* \"#utility.yul\":4266:4340   */\n  swap2\n  pop\n    /* \"#utility.yul\":4221:4350   */\n  pop\n    /* \"#utility.yul\":3647:4357   */\n  swap3\n  pop\n  swap3\n  swap1\n  pop\n  jump\t// out\n    /* \"#utility.yul\":4363:4532   */\ntag_46:\n    /* \"#utility.yul\":4447:4458   */\n  0x00\n    /* \"#utility.yul\":4481:4487   */\n  dup3\n    /* \"#utility.yul\":4476:4479   */\n  dup3\n    /* \"#utility.yul\":4469:4488   */\n  mstore\n    /* \"#utility.yul\":4521:4525   */\n  0x20\n    /* \"#utility.yul\":4516:4519   */\n  dup3\n    /* \"#utility.yul\":4512:4526   */\n  add\n    /* \"#utility.yul\":4497:4526   */\n  swap1\n  pop\n    /* \"#utility.yul\":4363:4532   */\n  swap3\n  swap2\n  pop\n  pop\n  jump\t// out\n    /* \"#utility.yul\":4538:4703   */\ntag_47:\n    /* \"#utility.yul\":4678:4695   */\n  0x4f776e6572732072657175697265640000000000000000000000000000000000\n    /* \"#utility.yul\":4674:4675   */\n  0x00\n    /* \"#utility.yul\":4666:4672   */\n  dup3\n    /* \"#utility.yul\":4662:4676   */\n  add\n    /* \"#utility.yul\":4655:4696   */\n  mstore\n    /* \"#utility.yul\":4538:4703   */\n  pop\n  jump\t// out\n    /* \"#utility.yul\":4709:5075   */\ntag_48:\n    /* \"#utility.yul\":4851:4854   */\n  0x00\n    /* \"#utility.yul\":4872:4939   */\n  tag_110\n    /* \"#utility.yul\":4936:4938   */\n  0x0f\n    /* \"#utility.yul\":4931:4934   */\n  dup4\n    /* \"#utility.yul\":4872:4939   */\n  tag_46\n  jump\t// in\ntag_110:\n    /* \"#utility.yul\":4865:4939   */\n  swap2\n  pop\n    /* \"#utility.yul\":4948:5041   */\n  tag_111\n    /* \"#utility.yul\":5037:5040   */\n  dup3\n    /* \"#utility.yul\":4948:5041   */\n  tag_47\n  jump\t// in\ntag_111:\n    /* \"#utility.yul\":5066:5068   */\n  0x20\n    /* \"#utility.yul\":5061:5064   */\n  dup3\n    /* \"#utility.yul\":5057:5069   */\n  add\n    /* \"#utility.yul\":5050:5069   */\n  swap1\n  pop\n    /* \"#utility.yul\":4709:5075   */\n  swap2\n  swap1\n  pop\n  jump\t// out\n    /* \"#utility.yul\":5081:5500   */\ntag_8:\n    /* \"#utility.yul\":5247:5251   */\n  0x00\n    /* \"#utility.yul\":5285:5287   */\n  0x20\n    /* \"#utility.yul\":5274:5283   */\n  dup3\n    /* \"#utility.yul\":5270:5288   */\n  add\n    /* \"#utility.yul\":5262:5288   */\n  swap1\n  pop\n    /* \"#utility.yul\":5334:5343   */\n  dup2\n    /* \"#utility.yul\":5328:5332   */\n  dup2\n    /* \"#utility.yul\":5324:5344   */\n  sub\n    /* \"#utility.yul\":5320:5321   */\n  0x00\n    /* \"#utility.yul\":5309:5318   */\n  dup4\n    /* \"#utility.yul\":5305:5322   */\n  add\n    /* \"#utility.yul\":5298:5345   */\n  mstore\n    /* \"#utility.yul\":5362:5493   */\n  tag_113\n    /* \"#utility.yul\":5488:5492   */\n  dup2\n    /* \"#utility.yul\":5362:5493   */\n  tag_48\n  jump\t// in\ntag_113:\n    /* \"#utility.yul\":5354:5493   */\n  swap1\n  pop\n    /* \"#utility.yul\":5081:5500   */\n  swap2\n  swap1\n  pop\n  jump\t// out\n    /* \"#utility.yul\":5506:5684   */\ntag_49:\n    /* \"#utility.yul\":5646:5676   */\n  0x496e76616c6964206e756d626572206f66207369676e61747572657300000000\n    /* \"#utility.yul\":5642:5643   */\n  0x00\n    /* \"#utility.yul\":5634:5640   */\n  dup3\n    /* \"#utility.yul\":5630:5644   */\n  add\n    /* \"#utility.yul\":5623:5677   */\n  mstore\n    /* \"#utility.yul\":5506:5684   */\n  pop\n  jump\t// out\n    /* \"#utility.yul\":5690:6056   */\ntag_50:\n    /* \"#utility.yul\":5832:5835   */\n  0x00\n    /* \"#utility.yul\":5853:5920   */\n  tag_116\n    /* \"#utility.yul\":5917:5919   */\n  0x1c\n    /* \"#utility.yul\":5912:5915   */\n  dup4\n    /* \"#utility.yul\":5853:5920   */\n  tag_46\n  jump\t// in\ntag_116:\n    /* \"#utility.yul\":5846:5920   */\n  swap2\n  pop\n    /* \"#utility.yul\":5929:6022   */\n  tag_117\n    /* \"#utility.yul\":6018:6021   */\n  dup3\n    /* \"#utility.yul\":5929:6022   */\n  tag_49\n  jump\t// in\ntag_117:\n    /* \"#utility.yul\":6047:6049   */\n  0x20\n    /* \"#utility.yul\":6042:6045   */\n  dup3\n    /* \"#utility.yul\":6038:6050   */\n  add\n    /* \"#utility.yul\":6031:6050   */\n  swap1\n  pop\n    /* \"#utility.yul\":5690:6056   */\n  swap2\n  swap1\n  pop\n  jump\t// out\n    /* \"#utility.yul\":6062:6481   */\ntag_12:\n    /* \"#utility.yul\":6228:6232   */\n  0x00\n    /* \"#utility.yul\":6266:6268   */\n  0x20\n    /* \"#utility.yul\":6255:6264   */\n  dup3\n    /* \"#utility.yul\":6251:6269   */\n  add\n    /* \"#utility.yul\":6243:6269   */\n  swap1\n  pop\n    /* \"#utility.yul\":6315:6324   */\n  dup2\n    /* \"#utility.yul\":6309:6313   */\n  dup2\n    /* \"#utility.yul\":6305:6325   */\n  sub\n    /* \"#utility.yul\":6301:6302   */\n  0x00\n    /* \"#utility.yul\":6290:6299   */\n  dup4\n    /* \"#utility.yul\":6286:6303   */\n  add\n    /* \"#utility.yul\":6279:6326   */\n  mstore\n    /* \"#utility.yul\":6343:6474   */\n  tag_119\n    /* \"#utility.yul\":6469:6473   */\n  dup2\n    /* \"#utility.yul\":6343:6474   */\n  tag_50\n  jump\t// in\ntag_119:\n    /* \"#utility.yul\":6335:6474   */\n  swap1\n  pop\n    /* \"#utility.yul\":6062:6481   */\n  swap2\n  swap1\n  pop\n  jump\t// out\n    /* \"#utility.yul\":6487:6667   */\ntag_18:\n    /* \"#utility.yul\":6535:6612   */\n  0x4e487b7100000000000000000000000000000000000000000000000000000000\n    /* \"#utility.yul\":6532:6533   */\n  0x00\n    /* \"#utility.yul\":6525:6613   */\n  mstore\n    /* \"#utility.yul\":6632:6636   */\n  0x32\n    /* \"#utility.yul\":6629:6630   */\n  0x04\n    /* \"#utility.yul\":6622:6637   */\n  mstore\n    /* \"#utility.yul\":6656:6660   */\n  0x24\n    /* \"#utility.yul\":6653:6654   */\n  0x00\n    /* \"#utility.yul\":6646:6661   */\n  revert\n    /* \"#utility.yul\":6673:6836   */\ntag_51:\n    /* \"#utility.yul\":6813:6828   */\n  0x496e76616c6964206f776e657200000000000000000000000000000000000000\n    /* \"#utility.yul\":6809:6810   */\n  0x00\n    /* \"#utility.yul\":6801:6807   */\n  dup3\n    /* \"#utility.yul\":6797:6811   */\n  add\n    /* \"#utility.yul\":6790:6829   */\n  mstore\n    /* \"#utility.yul\":6673:6836   */\n  pop\n  jump\t// out\n    /* \"#utility.yul\":6842:7208   */\ntag_52:\n    /* \"#utility.yul\":6984:6987   */\n  0x00\n    /* \"#utility.yul\":7005:7072   */\n  tag_123\n    /* \"#utility.yul\":7069:7071   */\n  0x0d\n    /* \"#utility.yul\":7064:7067   */\n  dup4\n    /* \"#utility.yul\":7005:7072   */\n  tag_46\n  jump\t// in\ntag_123:\n    /* \"#utility.yul\":6998:7072   */\n  swap2\n  pop\n    /* \"#utility.yul\":7081:7174   */\n  tag_124\n    /* \"#utility.yul\":7170:7173   */\n  dup3\n    /* \"#utility.yul\":7081:7174   */\n  tag_51\n  jump\t// in\ntag_124:\n    /* \"#utility.yul\":7199:7201   */\n  0x20\n    /* \"#utility.yul\":7194:7197   */\n  dup3\n    /* \"#utility.yul\":7190:7202   */\n  add\n    /* \"#utility.yul\":7183:7202   */\n  swap1\n  pop\n    /* \"#utility.yul\":6842:7208   */\n  swap2\n  swap1\n  pop\n  jump\t// out\n    /* \"#utility.yul\":7214:7633   */\ntag_21:\n    /* \"#utility.yul\":7380:7384   */\n  0x00\n    /* \"#utility.yul\":7418:7420   */\n  0x20\n    /* \"#utility.yul\":7407:7416   */\n  dup3\n    /* \"#utility.yul\":7403:7421   */\n  add\n    /* \"#utility.yul\":7395:7421   */\n  swap1\n  pop\n    /* \"#utility.yul\":7467:7476   */\n  dup2\n    /* \"#utility.yul\":7461:7465   */\n  dup2\n    /* \"#utility.yul\":7457:7477   */\n  sub\n    /* \"#utility.yul\":7453:7454   */\n  0x00\n    /* \"#utility.yul\":7442:7451   */\n  dup4\n    /* \"#utility.yul\":7438:7455   */\n  add\n    /* \"#utility.yul\":7431:7478   */\n  mstore\n    /* \"#utility.yul\":7495:7626   */\n  tag_126\n    /* \"#utility.yul\":7621:7625   */\n  dup2\n    /* \"#utility.yul\":7495:7626   */\n  tag_52\n  jump\t// in\ntag_126:\n    /* \"#utility.yul\":7487:7626   */\n  swap1\n  pop\n    /* \"#utility.yul\":7214:7633   */\n  swap2\n  swap1\n  pop\n  jump\t// out\n    /* \"#utility.yul\":7639:7809   */\ntag_53:\n    /* \"#utility.yul\":7779:7801   */\n  0x6f776e6572206973206e6f7420616c6c6f776564000000000000000000000000\n    /* \"#utility.yul\":7775:7776   */\n  0x00\n    /* \"#utility.yul\":7767:7773   */\n  dup3\n    /* \"#utility.yul\":7763:7777   */\n  add\n    /* \"#utility.yul\":7756:7802   */\n  mstore\n    /* \"#utility.yul\":7639:7809   */\n  pop\n  jump\t// out\n    /* \"#utility.yul\":7815:8181   */\ntag_54:\n    /* \"#utility.yul\":7957:7960   */\n  0x00\n    /* \"#utility.yul\":7978:8045   */\n  tag_129\n    /* \"#utility.yul\":8042:8044   */\n  0x14\n    /* \"#utility.yul\":8037:8040   */\n  dup4\n    /* \"#utility.yul\":7978:8045   */\n  tag_46\n  jump\t// in\ntag_129:\n    /* \"#utility.yul\":7971:8045   */\n  swap2\n  pop\n    /* \"#utility.yul\":8054:8147   */\n  tag_130\n    /* \"#utility.yul\":8143:8146   */\n  dup3\n    /* \"#utility.yul\":8054:8147   */\n  tag_53\n  jump\t// in\ntag_130:\n    /* \"#utility.yul\":8172:8174   */\n  0x20\n    /* \"#utility.yul\":8167:8170   */\n  dup3\n    /* \"#utility.yul\":8163:8175   */\n  add\n    /* \"#utility.yul\":8156:8175   */\n  swap1\n  pop\n    /* \"#utility.yul\":7815:8181   */\n  swap2\n  swap1\n  pop\n  jump\t// out\n    /* \"#utility.yul\":8187:8606   */\ntag_24:\n    /* \"#utility.yul\":8353:8357   */\n  0x00\n    /* \"#utility.yul\":8391:8393   */\n  0x20\n    /* \"#utility.yul\":8380:8389   */\n  dup3\n    /* \"#utility.yul\":8376:8394   */\n  add\n    /* \"#utility.yul\":8368:8394   */\n  swap1\n  pop\n    /* \"#utility.yul\":8440:8449   */\n  dup2\n    /* \"#utility.yul\":8434:8438   */\n  dup2\n    /* \"#utility.yul\":8430:8450   */\n  sub\n    /* \"#utility.yul\":8426:8427   */\n  0x00\n    /* \"#utility.yul\":8415:8424   */\n  dup4\n    /* \"#utility.yul\":8411:8428   */\n  add\n    /* \"#utility.yul\":8404:8451   */\n  mstore\n    /* \"#utility.yul\":8468:8599   */\n  tag_132\n    /* \"#utility.yul\":8594:8598   */\n  dup2\n    /* \"#utility.yul\":8468:8599   */\n  tag_54\n  jump\t// in\ntag_132:\n    /* \"#utility.yul\":8460:8599   */\n  swap1\n  pop\n    /* \"#utility.yul\":8187:8606   */\n  swap2\n  swap1\n  pop\n  jump\t// out\n    /* \"constructors/Project.sol\":219:5006  contract Wallet {... */\ntag_26:\n  dataSize(sub_0)\n  dup1\n  dataOffset(sub_0)\n  0x00\n  codecopy\n  0x00\n  return\nstop\n\nsub_0: assembly {\n        /* \"constructors/Project.sol\":219:5006  contract Wallet {... */\n      mstore(0x40, 0x80)\n      jumpi(tag_1, lt(calldatasize, 0x04))\n      shr(0xe0, calldataload(0x00))\n      dup1\n      0x329a27e7\n      gt\n      tag_9\n      jumpi\n      dup1\n      0x329a27e7\n      eq\n      tag_5\n      jumpi\n      dup1\n      0x4c12fa47\n      eq\n      tag_6\n      jumpi\n      dup1\n      0x8d0d8cb6\n      eq\n      tag_7\n      jumpi\n      dup1\n      0xa04ef145\n      eq\n      tag_8\n      jumpi\n      jump(tag_1)\n    tag_9:\n      dup1\n      0x025e7c27\n      eq\n      tag_2\n      jumpi\n      dup1\n      0x12065fe0\n      eq\n      tag_3\n      jumpi\n      dup1\n      0x1f1e1295\n      eq\n      tag_4\n      jumpi\n    tag_1:\n      0x00\n      dup1\n      revert\n        /* \"constructors/Project.sol\":242:265  address[] public owners */\n    tag_2:\n      callvalue\n      dup1\n      iszero\n      tag_10\n      jumpi\n      0x00\n      dup1\n      revert\n    tag_10:\n      pop\n      tag_11\n      0x04\n      dup1\n      calldatasize\n      sub\n      dup2\n      add\n      swap1\n      tag_12\n      swap2\n      swap1\n      tag_13\n      jump\t// in\n    tag_12:\n      tag_14\n      jump\t// in\n    tag_11:\n      mload(0x40)\n      tag_15\n      swap2\n      swap1\n      tag_16\n      jump\t// in\n    tag_15:\n      mload(0x40)\n      dup1\n      swap2\n      sub\n      swap1\n      return\n        /* \"constructors/Project.sol\":4912:5002  function getBalance() public view returns(uint){... */\n    tag_3:\n      callvalue\n      dup1\n      iszero\n      tag_17\n      jumpi\n      0x00\n      dup1\n      revert\n    tag_17:\n      pop\n      tag_18\n      tag_19\n      jump\t// in\n    tag_18:\n      mload(0x40)\n      tag_20\n      swap2\n      swap1\n      tag_21\n      jump\t// in\n    tag_20:\n      mload(0x40)\n      dup1\n      swap2\n      sub\n      swap1\n      return\n        /* \"constructors/Project.sol\":3592:4307  function isApprove(uint _id) public onlyOwner{... */\n    tag_4:\n      callvalue\n      dup1\n      iszero\n      tag_22\n      jumpi\n      0x00\n      dup1\n      revert\n    tag_22:\n      pop\n      tag_23\n      0x04\n      dup1\n      calldatasize\n      sub\n      dup2\n      add\n      swap1\n      tag_24\n      swap2\n      swap1\n      tag_13\n      jump\t// in\n    tag_24:\n      tag_25\n      jump\t// in\n    tag_23:\n      stop\n        /* \"constructors/Project.sol\":4633:4858  function getWalletBalance() public view returns(uint){... */\n    tag_5:\n      callvalue\n      dup1\n      iszero\n      tag_26\n      jumpi\n      0x00\n      dup1\n      revert\n    tag_26:\n      pop\n      tag_27\n      tag_28\n      jump\t// in\n    tag_27:\n      mload(0x40)\n      tag_29\n      swap2\n      swap1\n      tag_21\n      jump\t// in\n    tag_29:\n      mload(0x40)\n      dup1\n      swap2\n      sub\n      swap1\n      return\n        /* \"constructors/Project.sol\":2842:3140  function createTransfer(uint _amount, address payable _receiver) public onlyOwner {... */\n    tag_6:\n      callvalue\n      dup1\n      iszero\n      tag_30\n      jumpi\n      0x00\n      dup1\n      revert\n    tag_30:\n      pop\n      tag_31\n      0x04\n      dup1\n      calldatasize\n      sub\n      dup2\n      add\n      swap1\n      tag_32\n      swap2\n      swap1\n      tag_33\n      jump\t// in\n    tag_32:\n      tag_34\n      jump\t// in\n    tag_31:\n      stop\n        /* \"constructors/Project.sol\":2510:2704  function depositFund() public onlyOwner payable {... */\n    tag_7:\n      tag_35\n      tag_36\n      jump\t// in\n    tag_35:\n      stop\n        /* \"constructors/Project.sol\":4470:4579  function getTransferRequests() public view returns (Transfer[] memory){... */\n    tag_8:\n      callvalue\n      dup1\n      iszero\n      tag_37\n      jumpi\n      0x00\n      dup1\n      revert\n    tag_37:\n      pop\n      tag_38\n      tag_39\n      jump\t// in\n    tag_38:\n      mload(0x40)\n      tag_40\n      swap2\n      swap1\n      tag_41\n      jump\t// in\n    tag_40:\n      mload(0x40)\n      dup1\n      swap2\n      sub\n      swap1\n      return\n        /* \"constructors/Project.sol\":242:265  address[] public owners */\n    tag_14:\n      0x00\n      dup2\n      dup2\n      sload\n      dup2\n      lt\n      tag_42\n      jumpi\n      0x00\n      dup1\n      revert\n    tag_42:\n      swap1\n      0x00\n      mstore\n      keccak256(0x00, 0x20)\n      add\n      0x00\n      swap2\n      pop\n      sload\n      swap1\n      0x0100\n      exp\n      swap1\n      div\n      0xffffffffffffffffffffffffffffffffffffffff\n      and\n      dup2\n      jump\t// out\n        /* \"constructors/Project.sol\":4912:5002  function getBalance() public view returns(uint){... */\n    tag_19:\n        /* \"constructors/Project.sol\":4954:4958  uint */\n      0x00\n        /* \"constructors/Project.sol\":4976:4983  balance */\n      0x05\n        /* \"constructors/Project.sol\":4976:4995  balance[msg.sender] */\n      0x00\n        /* \"constructors/Project.sol\":4984:4994  msg.sender */\n      caller\n        /* \"constructors/Project.sol\":4976:4995  balance[msg.sender] */\n      0xffffffffffffffffffffffffffffffffffffffff\n      and\n      0xffffffffffffffffffffffffffffffffffffffff\n      and\n      dup2\n      mstore\n      0x20\n      add\n      swap1\n      dup2\n      mstore\n      0x20\n      add\n      0x00\n      keccak256\n      sload\n        /* \"constructors/Project.sol\":4969:4995  return balance[msg.sender] */\n      swap1\n      pop\n        /* \"constructors/Project.sol\":4912:5002  function getBalance() public view returns(uint){... */\n      swap1\n      jump\t// out\n        /* \"constructors/Project.sol\":3592:4307  function isApprove(uint _id) public onlyOwner{... */\n    tag_25:\n        /* \"constructors/Project.sol\":1612:1622  bool owner */\n      0x00\n        /* \"constructors/Project.sol\":1644:1650  uint i */\n      dup1\n        /* \"constructors/Project.sol\":1640:1773  for(uint i=0; i<owners.length; i++) {... */\n    tag_46:\n        /* \"constructors/Project.sol\":1656:1662  owners */\n      0x00\n        /* \"constructors/Project.sol\":1656:1669  owners.length */\n      dup1\n      sload\n      swap1\n      pop\n        /* \"constructors/Project.sol\":1654:1655  i */\n      dup2\n        /* \"constructors/Project.sol\":1654:1669  i<owners.length */\n      lt\n        /* \"constructors/Project.sol\":1640:1773  for(uint i=0; i<owners.length; i++) {... */\n      iszero\n      tag_47\n      jumpi\n        /* \"constructors/Project.sol\":1706:1716  msg.sender */\n      caller\n        /* \"constructors/Project.sol\":1693:1716  owners[i] == msg.sender */\n      0xffffffffffffffffffffffffffffffffffffffff\n      and\n        /* \"constructors/Project.sol\":1693:1699  owners */\n      0x00\n        /* \"constructors/Project.sol\":1700:1701  i */\n      dup3\n        /* \"constructors/Project.sol\":1693:1702  owners[i] */\n      dup2\n      sload\n      dup2\n      lt\n      tag_49\n      jumpi\n      tag_50\n      tag_51\n      jump\t// in\n    tag_50:\n    tag_49:\n      swap1\n      0x00\n      mstore\n      keccak256(0x00, 0x20)\n      add\n      0x00\n      swap1\n      sload\n      swap1\n      0x0100\n      exp\n      swap1\n      div\n      0xffffffffffffffffffffffffffffffffffffffff\n      and\n        /* \"constructors/Project.sol\":1693:1716  owners[i] == msg.sender */\n      0xffffffffffffffffffffffffffffffffffffffff\n      and\n      sub\n        /* \"constructors/Project.sol\":1690:1763  if(owners[i] == msg.sender) {... */\n      tag_53\n      jumpi\n        /* \"constructors/Project.sol\":1744:1748  true */\n      0x01\n        /* \"constructors/Project.sol\":1736:1748  owner = true */\n      swap2\n      pop\n        /* \"constructors/Project.sol\":1690:1763  if(owners[i] == msg.sender) {... */\n    tag_53:\n        /* \"constructors/Project.sol\":1671:1674  i++ */\n      dup1\n      dup1\n      0x01\n      add\n      swap2\n      pop\n      pop\n        /* \"constructors/Project.sol\":1640:1773  for(uint i=0; i<owners.length; i++) {... */\n      jump(tag_46)\n    tag_47:\n      pop\n        /* \"constructors/Project.sol\":1800:1804  true */\n      0x01\n        /* \"constructors/Project.sol\":1791:1804  owner == true */\n      iszero\n      iszero\n        /* \"constructors/Project.sol\":1791:1796  owner */\n      dup2\n        /* \"constructors/Project.sol\":1791:1804  owner == true */\n      iszero\n      iszero\n      eq\n        /* \"constructors/Project.sol\":1783:1821  require(owner == true, \"Not an owner\") */\n      tag_54\n      jumpi\n      mload(0x40)\n      0x08c379a000000000000000000000000000000000000000000000000000000000\n      dup2\n      mstore\n      0x04\n      add\n      tag_55\n      swap1\n      tag_56\n      jump\t// in\n    tag_55:\n      mload(0x40)\n      dup1\n      swap2\n      sub\n      swap1\n      revert\n    tag_54:\n        /* \"constructors/Project.sol\":3685:3690  false */\n      0x00\n        /* \"constructors/Project.sol\":3655:3690  approvals[msg.sender][_id] == false */\n      iszero\n      iszero\n        /* \"constructors/Project.sol\":3655:3664  approvals */\n      0x03\n        /* \"constructors/Project.sol\":3655:3676  approvals[msg.sender] */\n      0x00\n        /* \"constructors/Project.sol\":3665:3675  msg.sender */\n      caller\n        /* \"constructors/Project.sol\":3655:3676  approvals[msg.sender] */\n      0xffffffffffffffffffffffffffffffffffffffff\n      and\n      0xffffffffffffffffffffffffffffffffffffffff\n      and\n      dup2\n      mstore\n      0x20\n      add\n      swap1\n      dup2\n      mstore\n      0x20\n      add\n      0x00\n      keccak256\n        /* \"constructors/Project.sol\":3655:3681  approvals[msg.sender][_id] */\n      0x00\n        /* \"constructors/Project.sol\":3677:3680  _id */\n      dup5\n        /* \"constructors/Project.sol\":3655:3681  approvals[msg.sender][_id] */\n      dup2\n      mstore\n      0x20\n      add\n      swap1\n      dup2\n      mstore\n      0x20\n      add\n      0x00\n      keccak256\n      0x00\n      swap1\n      sload\n      swap1\n      0x0100\n      exp\n      swap1\n      div\n      0xff\n      and\n        /* \"constructors/Project.sol\":3655:3690  approvals[msg.sender][_id] == false */\n      iszero\n      iszero\n      eq\n        /* \"constructors/Project.sol\":3647:3724  require(approvals[msg.sender][_id] == false, \"Transfer Approval is rejected\") */\n      tag_58\n      jumpi\n      mload(0x40)\n      0x08c379a000000000000000000000000000000000000000000000000000000000\n      dup2\n      mstore\n      0x04\n      add\n      tag_59\n      swap1\n      tag_60\n      jump\t// in\n    tag_59:\n      mload(0x40)\n      dup1\n      swap2\n      sub\n      swap1\n      revert\n    tag_58:\n        /* \"constructors/Project.sol\":3774:3779  false */\n      0x00\n        /* \"constructors/Project.sol\":3742:3779  TransferRequest[_id].hasSent == false */\n      iszero\n      iszero\n        /* \"constructors/Project.sol\":3742:3757  TransferRequest */\n      0x02\n        /* \"constructors/Project.sol\":3758:3761  _id */\n      dup4\n        /* \"constructors/Project.sol\":3742:3762  TransferRequest[_id] */\n      dup2\n      sload\n      dup2\n      lt\n      tag_61\n      jumpi\n      tag_62\n      tag_51\n      jump\t// in\n    tag_62:\n    tag_61:\n      swap1\n      0x00\n      mstore\n      keccak256(0x00, 0x20)\n      swap1\n      0x05\n      mul\n      add\n        /* \"constructors/Project.sol\":3742:3770  TransferRequest[_id].hasSent */\n      0x04\n      add\n      0x00\n      swap1\n      sload\n      swap1\n      0x0100\n      exp\n      swap1\n      div\n      0xff\n      and\n        /* \"constructors/Project.sol\":3742:3779  TransferRequest[_id].hasSent == false */\n      iszero\n      iszero\n      eq\n        /* \"constructors/Project.sol\":3734:3814  require(TransferRequest[_id].hasSent == false, \"Must sent the transfer request\") */\n      tag_64\n      jumpi\n      mload(0x40)\n      0x08c379a000000000000000000000000000000000000000000000000000000000\n      dup2\n      mstore\n      0x04\n      add\n      tag_65\n      swap1\n      tag_66\n      jump\t// in\n    tag_65:\n      mload(0x40)\n      dup1\n      swap2\n      sub\n      swap1\n      revert\n    tag_64:\n        /* \"constructors/Project.sol\":3854:3858  true */\n      0x01\n        /* \"constructors/Project.sol\":3825:3834  approvals */\n      0x03\n        /* \"constructors/Project.sol\":3825:3846  approvals[msg.sender] */\n      0x00\n        /* \"constructors/Project.sol\":3835:3845  msg.sender */\n      caller\n        /* \"constructors/Project.sol\":3825:3846  approvals[msg.sender] */\n      0xffffffffffffffffffffffffffffffffffffffff\n      and\n      0xffffffffffffffffffffffffffffffffffffffff\n      and\n      dup2\n      mstore\n      0x20\n      add\n      swap1\n      dup2\n      mstore\n      0x20\n      add\n      0x00\n      keccak256\n        /* \"constructors/Project.sol\":3825:3851  approvals[msg.sender][_id] */\n      0x00\n        /* \"constructors/Project.sol\":3847:3850  _id */\n      dup5\n        /* \"constructors/Project.sol\":3825:3851  approvals[msg.sender][_id] */\n      dup2\n      mstore\n      0x20\n      add\n      swap1\n      dup2\n      mstore\n      0x20\n      add\n      0x00\n      keccak256\n      0x00\n        /* \"constructors/Project.sol\":3825:3858  approvals[msg.sender][_id] = true */\n      0x0100\n      exp\n      dup2\n      sload\n      dup2\n      0xff\n      mul\n      not\n      and\n      swap1\n      dup4\n      iszero\n      iszero\n      mul\n      or\n      swap1\n      sstore\n      pop\n        /* \"constructors/Project.sol\":3888:3903  TransferRequest */\n      0x02\n        /* \"constructors/Project.sol\":3904:3907  _id */\n      dup3\n        /* \"constructors/Project.sol\":3888:3908  TransferRequest[_id] */\n      dup2\n      sload\n      dup2\n      lt\n      tag_67\n      jumpi\n      tag_68\n      tag_51\n      jump\t// in\n    tag_68:\n    tag_67:\n      swap1\n      0x00\n      mstore\n      keccak256(0x00, 0x20)\n      swap1\n      0x05\n      mul\n      add\n        /* \"constructors/Project.sol\":3888:3918  TransferRequest[_id].approvals */\n      0x00\n      add\n      0x00\n        /* \"constructors/Project.sol\":3888:3920  TransferRequest[_id].approvals++ */\n      dup2\n      sload\n      dup1\n      swap3\n      swap2\n      swap1\n      tag_70\n      swap1\n      tag_71\n      jump\t// in\n    tag_70:\n      swap2\n      swap1\n      pop\n      sstore\n      pop\n        /* \"constructors/Project.sol\":3991:4056  ApprovalRecieved(_id, TransferRequest[_id].approvals, msg.sender) */\n      0xaf7140a50d53d80db2d043fb8f79454a19799336e888a4036bc8c487901fb915\n        /* \"constructors/Project.sol\":4008:4011  _id */\n      dup3\n        /* \"constructors/Project.sol\":4013:4028  TransferRequest */\n      0x02\n        /* \"constructors/Project.sol\":4029:4032  _id */\n      dup5\n        /* \"constructors/Project.sol\":4013:4033  TransferRequest[_id] */\n      dup2\n      sload\n      dup2\n      lt\n      tag_72\n      jumpi\n      tag_73\n      tag_51\n      jump\t// in\n    tag_73:\n    tag_72:\n      swap1\n      0x00\n      mstore\n      keccak256(0x00, 0x20)\n      swap1\n      0x05\n      mul\n      add\n        /* \"constructors/Project.sol\":4013:4043  TransferRequest[_id].approvals */\n      0x00\n      add\n      sload\n        /* \"constructors/Project.sol\":4045:4055  msg.sender */\n      caller\n        /* \"constructors/Project.sol\":3991:4056  ApprovalRecieved(_id, TransferRequest[_id].approvals, msg.sender) */\n      mload(0x40)\n      tag_75\n      swap4\n      swap3\n      swap2\n      swap1\n      tag_76\n      jump\t// in\n    tag_75:\n      mload(0x40)\n      dup1\n      swap2\n      sub\n      swap1\n      log1\n        /* \"constructors/Project.sol\":4104:4109  limit */\n      sload(0x01)\n        /* \"constructors/Project.sol\":4070:4085  TransferRequest */\n      0x02\n        /* \"constructors/Project.sol\":4086:4089  _id */\n      dup4\n        /* \"constructors/Project.sol\":4070:4090  TransferRequest[_id] */\n      dup2\n      sload\n      dup2\n      lt\n      tag_77\n      jumpi\n      tag_78\n      tag_51\n      jump\t// in\n    tag_78:\n    tag_77:\n      swap1\n      0x00\n      mstore\n      keccak256(0x00, 0x20)\n      swap1\n      0x05\n      mul\n      add\n        /* \"constructors/Project.sol\":4070:4100  TransferRequest[_id].approvals */\n      0x00\n      add\n      sload\n        /* \"constructors/Project.sol\":4070:4109  TransferRequest[_id].approvals >= limit */\n      lt\n        /* \"constructors/Project.sol\":4067:4301  if(TransferRequest[_id].approvals >= limit) {... */\n      tag_80\n      jumpi\n        /* \"constructors/Project.sol\":4156:4160  true */\n      0x01\n        /* \"constructors/Project.sol\":4125:4140  TransferRequest */\n      0x02\n        /* \"constructors/Project.sol\":4141:4144  _id */\n      dup4\n        /* \"constructors/Project.sol\":4125:4145  TransferRequest[_id] */\n      dup2\n      sload\n      dup2\n      lt\n      tag_81\n      jumpi\n      tag_82\n      tag_51\n      jump\t// in\n    tag_82:\n    tag_81:\n      swap1\n      0x00\n      mstore\n      keccak256(0x00, 0x20)\n      swap1\n      0x05\n      mul\n      add\n        /* \"constructors/Project.sol\":4125:4153  TransferRequest[_id].hasSent */\n      0x04\n      add\n      0x00\n        /* \"constructors/Project.sol\":4125:4160  TransferRequest[_id].hasSent = true */\n      0x0100\n      exp\n      dup2\n      sload\n      dup2\n      0xff\n      mul\n      not\n      and\n      swap1\n      dup4\n      iszero\n      iszero\n      mul\n      or\n      swap1\n      sstore\n      pop\n        /* \"constructors/Project.sol\":4182:4197  TransferRequest */\n      0x02\n        /* \"constructors/Project.sol\":4198:4201  _id */\n      dup3\n        /* \"constructors/Project.sol\":4182:4202  TransferRequest[_id] */\n      dup2\n      sload\n      dup2\n      lt\n      tag_84\n      jumpi\n      tag_85\n      tag_51\n      jump\t// in\n    tag_85:\n    tag_84:\n      swap1\n      0x00\n      mstore\n      keccak256(0x00, 0x20)\n      swap1\n      0x05\n      mul\n      add\n        /* \"constructors/Project.sol\":4182:4211  TransferRequest[_id].reciever */\n      0x01\n      add\n      0x00\n      swap1\n      sload\n      swap1\n      0x0100\n      exp\n      swap1\n      div\n      0xffffffffffffffffffffffffffffffffffffffff\n      and\n        /* \"constructors/Project.sol\":4174:4221  payable(TransferRequest[_id].reciever).transfer */\n      0xffffffffffffffffffffffffffffffffffffffff\n      and\n        /* \"constructors/Project.sol\":4174:4250  payable(TransferRequest[_id].reciever).transfer(TransferRequest[_id].amount) */\n      0x08fc\n        /* \"constructors/Project.sol\":4222:4237  TransferRequest */\n      0x02\n        /* \"constructors/Project.sol\":4238:4241  _id */\n      dup5\n        /* \"constructors/Project.sol\":4222:4242  TransferRequest[_id] */\n      dup2\n      sload\n      dup2\n      lt\n      tag_87\n      jumpi\n      tag_88\n      tag_51\n      jump\t// in\n    tag_88:\n    tag_87:\n      swap1\n      0x00\n      mstore\n      keccak256(0x00, 0x20)\n      swap1\n      0x05\n      mul\n      add\n        /* \"constructors/Project.sol\":4222:4249  TransferRequest[_id].amount */\n      0x02\n      add\n      sload\n        /* \"constructors/Project.sol\":4174:4250  payable(TransferRequest[_id].reciever).transfer(TransferRequest[_id].amount) */\n      swap1\n      dup2\n      iszero\n      mul\n      swap1\n      mload(0x40)\n      0x00\n      mload(0x40)\n      dup1\n      dup4\n      sub\n      dup2\n      dup6\n      dup9\n      dup9\n      call\n      swap4\n      pop\n      pop\n      pop\n      pop\n      iszero\n      dup1\n      iszero\n      tag_91\n      jumpi\n      returndatasize\n      0x00\n      dup1\n      returndatacopy\n      revert(0x00, returndatasize)\n    tag_91:\n      pop\n        /* \"constructors/Project.sol\":4269:4290  TransferApproved(_id) */\n      0xd9bbf1d8bef570b7e92ef1ba025425fc15915ae01f3d3be144cdc8be05442eb5\n        /* \"constructors/Project.sol\":4286:4289  _id */\n      dup3\n        /* \"constructors/Project.sol\":4269:4290  TransferApproved(_id) */\n      mload(0x40)\n      tag_92\n      swap2\n      swap1\n      tag_21\n      jump\t// in\n    tag_92:\n      mload(0x40)\n      dup1\n      swap2\n      sub\n      swap1\n      log1\n        /* \"constructors/Project.sol\":4067:4301  if(TransferRequest[_id].approvals >= limit) {... */\n    tag_80:\n        /* \"constructors/Project.sol\":1602:1840  {... */\n      pop\n        /* \"constructors/Project.sol\":3592:4307  function isApprove(uint _id) public onlyOwner{... */\n      pop\n      jump\t// out\n        /* \"constructors/Project.sol\":4633:4858  function getWalletBalance() public view returns(uint){... */\n    tag_28:\n        /* \"constructors/Project.sol\":4681:4685  uint */\n      0x00\n        /* \"constructors/Project.sol\":4696:4713  uint totalBalance */\n      dup1\n        /* \"constructors/Project.sol\":4716:4717  0 */\n      0x00\n        /* \"constructors/Project.sol\":4696:4717  uint totalBalance = 0 */\n      swap1\n      pop\n        /* \"constructors/Project.sol\":4732:4738  uint i */\n      0x00\n        /* \"constructors/Project.sol\":4728:4822  for(uint i=0; i<owners.length; i++){... */\n    tag_94:\n        /* \"constructors/Project.sol\":4744:4750  owners */\n      0x00\n        /* \"constructors/Project.sol\":4744:4757  owners.length */\n      dup1\n      sload\n      swap1\n      pop\n        /* \"constructors/Project.sol\":4742:4743  i */\n      dup2\n        /* \"constructors/Project.sol\":4742:4757  i<owners.length */\n      lt\n        /* \"constructors/Project.sol\":4728:4822  for(uint i=0; i<owners.length; i++){... */\n      iszero\n      tag_95\n      jumpi\n        /* \"constructors/Project.sol\":4793:4800  balance */\n      0x05\n        /* \"constructors/Project.sol\":4793:4811  balance[owners[i]] */\n      0x00\n        /* \"constructors/Project.sol\":4801:4807  owners */\n      dup1\n        /* \"constructors/Project.sol\":4808:4809  i */\n      dup4\n        /* \"constructors/Project.sol\":4801:4810  owners[i] */\n      dup2\n      sload\n      dup2\n      lt\n      tag_97\n      jumpi\n      tag_98\n      tag_51\n      jump\t// in\n    tag_98:\n    tag_97:\n      swap1\n      0x00\n      mstore\n      keccak256(0x00, 0x20)\n      add\n      0x00\n      swap1\n      sload\n      swap1\n      0x0100\n      exp\n      swap1\n      div\n      0xffffffffffffffffffffffffffffffffffffffff\n      and\n        /* \"constructors/Project.sol\":4793:4811  balance[owners[i]] */\n      0xffffffffffffffffffffffffffffffffffffffff\n      and\n      0xffffffffffffffffffffffffffffffffffffffff\n      and\n      dup2\n      mstore\n      0x20\n      add\n      swap1\n      dup2\n      mstore\n      0x20\n      add\n      0x00\n      keccak256\n      sload\n        /* \"constructors/Project.sol\":4777:4811  totalBalance += balance[owners[i]] */\n      dup3\n      tag_100\n      swap2\n      swap1\n      tag_101\n      jump\t// in\n    tag_100:\n      swap2\n      pop\n        /* \"constructors/Project.sol\":4759:4762  i++ */\n      dup1\n      dup1\n      0x01\n      add\n      swap2\n      pop\n      pop\n        /* \"constructors/Project.sol\":4728:4822  for(uint i=0; i<owners.length; i++){... */\n      jump(tag_94)\n    tag_95:\n      pop\n        /* \"constructors/Project.sol\":4839:4851  totalBalance */\n      dup1\n        /* \"constructors/Project.sol\":4832:4851  return totalBalance */\n      swap2\n      pop\n      pop\n        /* \"constructors/Project.sol\":4633:4858  function getWalletBalance() public view returns(uint){... */\n      swap1\n      jump\t// out\n        /* \"constructors/Project.sol\":2842:3140  function createTransfer(uint _amount, address payable _receiver) public onlyOwner {... */\n    tag_34:\n        /* \"constructors/Project.sol\":1612:1622  bool owner */\n      0x00\n        /* \"constructors/Project.sol\":1644:1650  uint i */\n      dup1\n        /* \"constructors/Project.sol\":1640:1773  for(uint i=0; i<owners.length; i++) {... */\n    tag_103:\n        /* \"constructors/Project.sol\":1656:1662  owners */\n      0x00\n        /* \"constructors/Project.sol\":1656:1669  owners.length */\n      dup1\n      sload\n      swap1\n      pop\n        /* \"constructors/Project.sol\":1654:1655  i */\n      dup2\n        /* \"constructors/Project.sol\":1654:1669  i<owners.length */\n      lt\n        /* \"constructors/Project.sol\":1640:1773  for(uint i=0; i<owners.length; i++) {... */\n      iszero\n      tag_104\n      jumpi\n        /* \"constructors/Project.sol\":1706:1716  msg.sender */\n      caller\n        /* \"constructors/Project.sol\":1693:1716  owners[i] == msg.sender */\n      0xffffffffffffffffffffffffffffffffffffffff\n      and\n        /* \"constructors/Project.sol\":1693:1699  owners */\n      0x00\n        /* \"constructors/Project.sol\":1700:1701  i */\n      dup3\n        /* \"constructors/Project.sol\":1693:1702  owners[i] */\n      dup2\n      sload\n      dup2\n      lt\n      tag_106\n      jumpi\n      tag_107\n      tag_51\n      jump\t// in\n    tag_107:\n    tag_106:\n      swap1\n      0x00\n      mstore\n      keccak256(0x00, 0x20)\n      add\n      0x00\n      swap1\n      sload\n      swap1\n      0x0100\n      exp\n      swap1\n      div\n      0xffffffffffffffffffffffffffffffffffffffff\n      and\n        /* \"constructors/Project.sol\":1693:1716  owners[i] == msg.sender */\n      0xffffffffffffffffffffffffffffffffffffffff\n      and\n      sub\n        /* \"constructors/Project.sol\":1690:1763  if(owners[i] == msg.sender) {... */\n      tag_109\n      jumpi\n        /* \"constructors/Project.sol\":1744:1748  true */\n      0x01\n        /* \"constructors/Project.sol\":1736:1748  owner = true */\n      swap2\n      pop\n        /* \"constructors/Project.sol\":1690:1763  if(owners[i] == msg.sender) {... */\n    tag_109:\n        /* \"constructors/Project.sol\":1671:1674  i++ */\n      dup1\n      dup1\n      0x01\n      add\n      swap2\n      pop\n      pop\n        /* \"constructors/Project.sol\":1640:1773  for(uint i=0; i<owners.length; i++) {... */\n      jump(tag_103)\n    tag_104:\n      pop\n        /* \"constructors/Project.sol\":1800:1804  true */\n      0x01\n        /* \"constructors/Project.sol\":1791:1804  owner == true */\n      iszero\n      iszero\n        /* \"constructors/Project.sol\":1791:1796  owner */\n      dup2\n        /* \"constructors/Project.sol\":1791:1804  owner == true */\n      iszero\n      iszero\n      eq\n        /* \"constructors/Project.sol\":1783:1821  require(owner == true, \"Not an owner\") */\n      tag_110\n      jumpi\n      mload(0x40)\n      0x08c379a000000000000000000000000000000000000000000000000000000000\n      dup2\n      mstore\n      0x04\n      add\n      tag_111\n      swap1\n      tag_56\n      jump\t// in\n    tag_111:\n      mload(0x40)\n      dup1\n      swap2\n      sub\n      swap1\n      revert\n    tag_110:\n        /* \"constructors/Project.sol\":2939:3017  TransferRequestCreated(TransferRequest.length, _amount, msg.sender, _receiver) */\n      0x099c4ec4ecfc26f7c8b27aeee5443f92120fa2c4e91ba6020369ae71a4d44278\n        /* \"constructors/Project.sol\":2962:2977  TransferRequest */\n      0x02\n        /* \"constructors/Project.sol\":2962:2984  TransferRequest.length */\n      dup1\n      sload\n      swap1\n      pop\n        /* \"constructors/Project.sol\":2986:2993  _amount */\n      dup5\n        /* \"constructors/Project.sol\":2995:3005  msg.sender */\n      caller\n        /* \"constructors/Project.sol\":3007:3016  _receiver */\n      dup6\n        /* \"constructors/Project.sol\":2939:3017  TransferRequestCreated(TransferRequest.length, _amount, msg.sender, _receiver) */\n      mload(0x40)\n      tag_113\n      swap5\n      swap4\n      swap3\n      swap2\n      swap1\n      tag_114\n      jump\t// in\n    tag_113:\n      mload(0x40)\n      dup1\n      swap2\n      sub\n      swap1\n      log1\n        /* \"constructors/Project.sol\":3027:3042  TransferRequest */\n      0x02\n        /* \"constructors/Project.sol\":3061:3123  Transfer(0, _receiver, _amount, TransferRequest.length, false) */\n      mload(0x40)\n      dup1\n      0xa0\n      add\n      0x40\n      mstore\n      dup1\n        /* \"constructors/Project.sol\":3070:3071  0 */\n      0x00\n        /* \"constructors/Project.sol\":3061:3123  Transfer(0, _receiver, _amount, TransferRequest.length, false) */\n      dup2\n      mstore\n      0x20\n      add\n        /* \"constructors/Project.sol\":3073:3082  _receiver */\n      dup5\n        /* \"constructors/Project.sol\":3061:3123  Transfer(0, _receiver, _amount, TransferRequest.length, false) */\n      0xffffffffffffffffffffffffffffffffffffffff\n      and\n      dup2\n      mstore\n      0x20\n      add\n        /* \"constructors/Project.sol\":3084:3091  _amount */\n      dup6\n        /* \"constructors/Project.sol\":3061:3123  Transfer(0, _receiver, _amount, TransferRequest.length, false) */\n      dup2\n      mstore\n      0x20\n      add\n        /* \"constructors/Project.sol\":3093:3108  TransferRequest */\n      0x02\n        /* \"constructors/Project.sol\":3093:3115  TransferRequest.length */\n      dup1\n      sload\n      swap1\n      pop\n        /* \"constructors/Project.sol\":3061:3123  Transfer(0, _receiver, _amount, TransferRequest.length, false) */\n      dup2\n      mstore\n      0x20\n      add\n        /* \"constructors/Project.sol\":3117:3122  false */\n      0x00\n        /* \"constructors/Project.sol\":3061:3123  Transfer(0, _receiver, _amount, TransferRequest.length, false) */\n      iszero\n      iszero\n      dup2\n      mstore\n      pop\n        /* \"constructors/Project.sol\":3027:3133  TransferRequest.push(... */\n      swap1\n      dup1\n      0x01\n      dup2\n      sload\n      add\n      dup1\n      dup3\n      sstore\n      dup1\n      swap2\n      pop\n      pop\n      0x01\n      swap1\n      sub\n      swap1\n      0x00\n      mstore\n      keccak256(0x00, 0x20)\n      swap1\n      0x05\n      mul\n      add\n      0x00\n      swap1\n      swap2\n      swap1\n      swap2\n      swap1\n      swap2\n      pop\n      0x00\n      dup3\n      add\n      mload\n      dup2\n      0x00\n      add\n      sstore\n      0x20\n      dup3\n      add\n      mload\n      dup2\n      0x01\n      add\n      exp(0x0100, 0x00)\n      dup2\n      sload\n      dup2\n      0xffffffffffffffffffffffffffffffffffffffff\n      mul\n      not\n      and\n      swap1\n      dup4\n      0xffffffffffffffffffffffffffffffffffffffff\n      and\n      mul\n      or\n      swap1\n      sstore\n      pop\n      0x40\n      dup3\n      add\n      mload\n      dup2\n      0x02\n      add\n      sstore\n      0x60\n      dup3\n      add\n      mload\n      dup2\n      0x03\n      add\n      sstore\n      0x80\n      dup3\n      add\n      mload\n      dup2\n      0x04\n      add\n      exp(0x0100, 0x00)\n      dup2\n      sload\n      dup2\n      0xff\n      mul\n      not\n      and\n      swap1\n      dup4\n      iszero\n      iszero\n      mul\n      or\n      swap1\n      sstore\n      pop\n      pop\n      pop\n        /* \"constructors/Project.sol\":1602:1840  {... */\n      pop\n        /* \"constructors/Project.sol\":2842:3140  function createTransfer(uint _amount, address payable _receiver) public onlyOwner {... */\n      pop\n      pop\n      jump\t// out\n        /* \"constructors/Project.sol\":2510:2704  function depositFund() public onlyOwner payable {... */\n    tag_36:\n        /* \"constructors/Project.sol\":1612:1622  bool owner */\n      0x00\n        /* \"constructors/Project.sol\":1644:1650  uint i */\n      dup1\n        /* \"constructors/Project.sol\":1640:1773  for(uint i=0; i<owners.length; i++) {... */\n    tag_117:\n        /* \"constructors/Project.sol\":1656:1662  owners */\n      0x00\n        /* \"constructors/Project.sol\":1656:1669  owners.length */\n      dup1\n      sload\n      swap1\n      pop\n        /* \"constructors/Project.sol\":1654:1655  i */\n      dup2\n        /* \"constructors/Project.sol\":1654:1669  i<owners.length */\n      lt\n        /* \"constructors/Project.sol\":1640:1773  for(uint i=0; i<owners.length; i++) {... */\n      iszero\n      tag_118\n      jumpi\n        /* \"constructors/Project.sol\":1706:1716  msg.sender */\n      caller\n        /* \"constructors/Project.sol\":1693:1716  owners[i] == msg.sender */\n      0xffffffffffffffffffffffffffffffffffffffff\n      and\n        /* \"constructors/Project.sol\":1693:1699  owners */\n      0x00\n        /* \"constructors/Project.sol\":1700:1701  i */\n      dup3\n        /* \"constructors/Project.sol\":1693:1702  owners[i] */\n      dup2\n      sload\n      dup2\n      lt\n      tag_120\n      jumpi\n      tag_121\n      tag_51\n      jump\t// in\n    tag_121:\n    tag_120:\n      swap1\n      0x00\n      mstore\n      keccak256(0x00, 0x20)\n      add\n      0x00\n      swap1\n      sload\n      swap1\n      0x0100\n      exp\n      swap1\n      div\n      0xffffffffffffffffffffffffffffffffffffffff\n      and\n        /* \"constructors/Project.sol\":1693:1716  owners[i] == msg.sender */\n      0xffffffffffffffffffffffffffffffffffffffff\n      and\n      sub\n        /* \"constructors/Project.sol\":1690:1763  if(owners[i] == msg.sender) {... */\n      tag_123\n      jumpi\n        /* \"constructors/Project.sol\":1744:1748  true */\n      0x01\n        /* \"constructors/Project.sol\":1736:1748  owner = true */\n      swap2\n      pop\n        /* \"constructors/Project.sol\":1690:1763  if(owners[i] == msg.sender) {... */\n    tag_123:\n        /* \"constructors/Project.sol\":1671:1674  i++ */\n      dup1\n      dup1\n      0x01\n      add\n      swap2\n      pop\n      pop\n        /* \"constructors/Project.sol\":1640:1773  for(uint i=0; i<owners.length; i++) {... */\n      jump(tag_117)\n    tag_118:\n      pop\n        /* \"constructors/Project.sol\":1800:1804  true */\n      0x01\n        /* \"constructors/Project.sol\":1791:1804  owner == true */\n      iszero\n      iszero\n        /* \"constructors/Project.sol\":1791:1796  owner */\n      dup2\n        /* \"constructors/Project.sol\":1791:1804  owner == true */\n      iszero\n      iszero\n      eq\n        /* \"constructors/Project.sol\":1783:1821  require(owner == true, \"Not an owner\") */\n      tag_124\n      jumpi\n      mload(0x40)\n      0x08c379a000000000000000000000000000000000000000000000000000000000\n      dup2\n      mstore\n      0x04\n      add\n      tag_125\n      swap1\n      tag_56\n      jump\t// in\n    tag_125:\n      mload(0x40)\n      dup1\n      swap2\n      sub\n      swap1\n      revert\n    tag_124:\n        /* \"constructors/Project.sol\":2637:2646  msg.value */\n      callvalue\n        /* \"constructors/Project.sol\":2614:2621  balance */\n      0x05\n        /* \"constructors/Project.sol\":2614:2633  balance[msg.sender] */\n      0x00\n        /* \"constructors/Project.sol\":2622:2632  msg.sender */\n      caller\n        /* \"constructors/Project.sol\":2614:2633  balance[msg.sender] */\n      0xffffffffffffffffffffffffffffffffffffffff\n      and\n      0xffffffffffffffffffffffffffffffffffffffff\n      and\n      dup2\n      mstore\n      0x20\n      add\n      swap1\n      dup2\n      mstore\n      0x20\n      add\n      0x00\n      keccak256\n      0x00\n        /* \"constructors/Project.sol\":2614:2646  balance[msg.sender] += msg.value */\n      dup3\n      dup3\n      sload\n      tag_127\n      swap2\n      swap1\n      tag_101\n      jump\t// in\n    tag_127:\n      swap3\n      pop\n      pop\n      dup2\n      swap1\n      sstore\n      pop\n        /* \"constructors/Project.sol\":2661:2697  DepositedFund(msg.sender, msg.value) */\n      0x64bc4fa244140a0e75b75244f4f67e55e5b1c59dd9c7082bcedd794ac5100013\n        /* \"constructors/Project.sol\":2675:2685  msg.sender */\n      caller\n        /* \"constructors/Project.sol\":2687:2696  msg.value */\n      callvalue\n        /* \"constructors/Project.sol\":2661:2697  DepositedFund(msg.sender, msg.value) */\n      mload(0x40)\n      tag_128\n      swap3\n      swap2\n      swap1\n      tag_129\n      jump\t// in\n    tag_128:\n      mload(0x40)\n      dup1\n      swap2\n      sub\n      swap1\n      log1\n        /* \"constructors/Project.sol\":1602:1840  {... */\n      pop\n        /* \"constructors/Project.sol\":2510:2704  function depositFund() public onlyOwner payable {... */\n      jump\t// out\n        /* \"constructors/Project.sol\":4470:4579  function getTransferRequests() public view returns (Transfer[] memory){... */\n    tag_39:\n        /* \"constructors/Project.sol\":4522:4539  Transfer[] memory */\n      0x60\n        /* \"constructors/Project.sol\":4557:4572  TransferRequest */\n      0x02\n        /* \"constructors/Project.sol\":4550:4572  return TransferRequest */\n      dup1\n      sload\n      dup1\n      0x20\n      mul\n      0x20\n      add\n      mload(0x40)\n      swap1\n      dup2\n      add\n      0x40\n      mstore\n      dup1\n      swap3\n      swap2\n      swap1\n      dup2\n      dup2\n      mstore\n      0x20\n      add\n      0x00\n      swap1\n    tag_131:\n      dup3\n      dup3\n      lt\n      iszero\n      tag_132\n      jumpi\n      dup4\n      dup3\n      swap1\n      0x00\n      mstore\n      keccak256(0x00, 0x20)\n      swap1\n      0x05\n      mul\n      add\n      mload(0x40)\n      dup1\n      0xa0\n      add\n      0x40\n      mstore\n      swap1\n      dup2\n      0x00\n      dup3\n      add\n      sload\n      dup2\n      mstore\n      0x20\n      add\n      0x01\n      dup3\n      add\n      0x00\n      swap1\n      sload\n      swap1\n      0x0100\n      exp\n      swap1\n      div\n      0xffffffffffffffffffffffffffffffffffffffff\n      and\n      0xffffffffffffffffffffffffffffffffffffffff\n      and\n      0xffffffffffffffffffffffffffffffffffffffff\n      and\n      dup2\n      mstore\n      0x20\n      add\n      0x02\n      dup3\n      add\n      sload\n      dup2\n      mstore\n      0x20\n      add\n      0x03\n      dup3\n      add\n      sload\n      dup2\n      mstore\n      0x20\n      add\n      0x04\n      dup3\n      add\n      0x00\n      swap1\n      sload\n      swap1\n      0x0100\n      exp\n      swap1\n      div\n      0xff\n      and\n      iszero\n      iszero\n      iszero\n      iszero\n      dup2\n      mstore\n      pop\n      pop\n      dup2\n      mstore\n      0x20\n      add\n      swap1\n      0x01\n      add\n      swap1\n      jump(tag_131)\n    tag_132:\n      pop\n      pop\n      pop\n      pop\n      swap1\n      pop\n        /* \"constructors/Project.sol\":4470:4579  function getTransferRequests() public view returns (Transfer[] memory){... */\n      swap1\n      jump\t// out\n        /* \"#utility.yul\":88:205   */\n    tag_135:\n        /* \"#utility.yul\":197:198   */\n      0x00\n        /* \"#utility.yul\":194:195   */\n      dup1\n        /* \"#utility.yul\":187:199   */\n      revert\n        /* \"#utility.yul\":334:411   */\n    tag_137:\n        /* \"#utility.yul\":371:378   */\n      0x00\n        /* \"#utility.yul\":400:405   */\n      dup2\n        /* \"#utility.yul\":389:405   */\n      swap1\n      pop\n        /* \"#utility.yul\":334:411   */\n      swap2\n      swap1\n      pop\n      jump\t// out\n        /* \"#utility.yul\":417:539   */\n    tag_138:\n        /* \"#utility.yul\":490:514   */\n      tag_177\n        /* \"#utility.yul\":508:513   */\n      dup2\n        /* \"#utility.yul\":490:514   */\n      tag_137\n      jump\t// in\n    tag_177:\n        /* \"#utility.yul\":483:488   */\n      dup2\n        /* \"#utility.yul\":480:515   */\n      eq\n        /* \"#utility.yul\":470:533   */\n      tag_178\n      jumpi\n        /* \"#utility.yul\":529:530   */\n      0x00\n        /* \"#utility.yul\":526:527   */\n      dup1\n        /* \"#utility.yul\":519:531   */\n      revert\n        /* \"#utility.yul\":470:533   */\n    tag_178:\n        /* \"#utility.yul\":417:539   */\n      pop\n      jump\t// out\n        /* \"#utility.yul\":545:684   */\n    tag_139:\n        /* \"#utility.yul\":591:596   */\n      0x00\n        /* \"#utility.yul\":629:635   */\n      dup2\n        /* \"#utility.yul\":616:636   */\n      calldataload\n        /* \"#utility.yul\":607:636   */\n      swap1\n      pop\n        /* \"#utility.yul\":645:678   */\n      tag_180\n        /* \"#utility.yul\":672:677   */\n      dup2\n        /* \"#utility.yul\":645:678   */\n      tag_138\n      jump\t// in\n    tag_180:\n        /* \"#utility.yul\":545:684   */\n      swap3\n      swap2\n      pop\n      pop\n      jump\t// out\n        /* \"#utility.yul\":690:1019   */\n    tag_13:\n        /* \"#utility.yul\":749:755   */\n      0x00\n        /* \"#utility.yul\":798:800   */\n      0x20\n        /* \"#utility.yul\":786:795   */\n      dup3\n        /* \"#utility.yul\":777:784   */\n      dup5\n        /* \"#utility.yul\":773:796   */\n      sub\n        /* \"#utility.yul\":769:801   */\n      slt\n        /* \"#utility.yul\":766:885   */\n      iszero\n      tag_182\n      jumpi\n        /* \"#utility.yul\":804:883   */\n      tag_183\n      tag_135\n      jump\t// in\n    tag_183:\n        /* \"#utility.yul\":766:885   */\n    tag_182:\n        /* \"#utility.yul\":924:925   */\n      0x00\n        /* \"#utility.yul\":949:1002   */\n      tag_184\n        /* \"#utility.yul\":994:1001   */\n      dup5\n        /* \"#utility.yul\":985:991   */\n      dup3\n        /* \"#utility.yul\":974:983   */\n      dup6\n        /* \"#utility.yul\":970:992   */\n      add\n        /* \"#utility.yul\":949:1002   */\n      tag_139\n      jump\t// in\n    tag_184:\n        /* \"#utility.yul\":939:1002   */\n      swap2\n      pop\n        /* \"#utility.yul\":895:1012   */\n      pop\n        /* \"#utility.yul\":690:1019   */\n      swap3\n      swap2\n      pop\n      pop\n      jump\t// out\n        /* \"#utility.yul\":1025:1151   */\n    tag_140:\n        /* \"#utility.yul\":1062:1069   */\n      0x00\n        /* \"#utility.yul\":1102:1144   */\n      0xffffffffffffffffffffffffffffffffffffffff\n        /* \"#utility.yul\":1095:1100   */\n      dup3\n        /* \"#utility.yul\":1091:1145   */\n      and\n        /* \"#utility.yul\":1080:1145   */\n      swap1\n      pop\n        /* \"#utility.yul\":1025:1151   */\n      swap2\n      swap1\n      pop\n      jump\t// out\n        /* \"#utility.yul\":1157:1253   */\n    tag_141:\n        /* \"#utility.yul\":1194:1201   */\n      0x00\n        /* \"#utility.yul\":1223:1247   */\n      tag_187\n        /* \"#utility.yul\":1241:1246   */\n      dup3\n        /* \"#utility.yul\":1223:1247   */\n      tag_140\n      jump\t// in\n    tag_187:\n        /* \"#utility.yul\":1212:1247   */\n      swap1\n      pop\n        /* \"#utility.yul\":1157:1253   */\n      swap2\n      swap1\n      pop\n      jump\t// out\n        /* \"#utility.yul\":1259:1377   */\n    tag_142:\n        /* \"#utility.yul\":1346:1370   */\n      tag_189\n        /* \"#utility.yul\":1364:1369   */\n      dup2\n        /* \"#utility.yul\":1346:1370   */\n      tag_141\n      jump\t// in\n    tag_189:\n        /* \"#utility.yul\":1341:1344   */\n      dup3\n        /* \"#utility.yul\":1334:1371   */\n      mstore\n        /* \"#utility.yul\":1259:1377   */\n      pop\n      pop\n      jump\t// out\n        /* \"#utility.yul\":1383:1605   */\n    tag_16:\n        /* \"#utility.yul\":1476:1480   */\n      0x00\n        /* \"#utility.yul\":1514:1516   */\n      0x20\n        /* \"#utility.yul\":1503:1512   */\n      dup3\n        /* \"#utility.yul\":1499:1517   */\n      add\n        /* \"#utility.yul\":1491:1517   */\n      swap1\n      pop\n        /* \"#utility.yul\":1527:1598   */\n      tag_191\n        /* \"#utility.yul\":1595:1596   */\n      0x00\n        /* \"#utility.yul\":1584:1593   */\n      dup4\n        /* \"#utility.yul\":1580:1597   */\n      add\n        /* \"#utility.yul\":1571:1577   */\n      dup5\n        /* \"#utility.yul\":1527:1598   */\n      tag_142\n      jump\t// in\n    tag_191:\n        /* \"#utility.yul\":1383:1605   */\n      swap3\n      swap2\n      pop\n      pop\n      jump\t// out\n        /* \"#utility.yul\":1611:1729   */\n    tag_143:\n        /* \"#utility.yul\":1698:1722   */\n      tag_193\n        /* \"#utility.yul\":1716:1721   */\n      dup2\n        /* \"#utility.yul\":1698:1722   */\n      tag_137\n      jump\t// in\n    tag_193:\n        /* \"#utility.yul\":1693:1696   */\n      dup3\n        /* \"#utility.yul\":1686:1723   */\n      mstore\n        /* \"#utility.yul\":1611:1729   */\n      pop\n      pop\n      jump\t// out\n        /* \"#utility.yul\":1735:1957   */\n    tag_21:\n        /* \"#utility.yul\":1828:1832   */\n      0x00\n        /* \"#utility.yul\":1866:1868   */\n      0x20\n        /* \"#utility.yul\":1855:1864   */\n      dup3\n        /* \"#utility.yul\":1851:1869   */\n      add\n        /* \"#utility.yul\":1843:1869   */\n      swap1\n      pop\n        /* \"#utility.yul\":1879:1950   */\n      tag_195\n        /* \"#utility.yul\":1947:1948   */\n      0x00\n        /* \"#utility.yul\":1936:1945   */\n      dup4\n        /* \"#utility.yul\":1932:1949   */\n      add\n        /* \"#utility.yul\":1923:1929   */\n      dup5\n        /* \"#utility.yul\":1879:1950   */\n      tag_143\n      jump\t// in\n    tag_195:\n        /* \"#utility.yul\":1735:1957   */\n      swap3\n      swap2\n      pop\n      pop\n      jump\t// out\n        /* \"#utility.yul\":1963:2067   */\n    tag_144:\n        /* \"#utility.yul\":2008:2015   */\n      0x00\n        /* \"#utility.yul\":2037:2061   */\n      tag_197\n        /* \"#utility.yul\":2055:2060   */\n      dup3\n        /* \"#utility.yul\":2037:2061   */\n      tag_140\n      jump\t// in\n    tag_197:\n        /* \"#utility.yul\":2026:2061   */\n      swap1\n      pop\n        /* \"#utility.yul\":1963:2067   */\n      swap2\n      swap1\n      pop\n      jump\t// out\n        /* \"#utility.yul\":2073:2211   */\n    tag_145:\n        /* \"#utility.yul\":2154:2186   */\n      tag_199\n        /* \"#utility.yul\":2180:2185   */\n      dup2\n        /* \"#utility.yul\":2154:2186   */\n      tag_144\n      jump\t// in\n    tag_199:\n        /* \"#utility.yul\":2147:2152   */\n      dup2\n        /* \"#utility.yul\":2144:2187   */\n      eq\n        /* \"#utility.yul\":2134:2205   */\n      tag_200\n      jumpi\n        /* \"#utility.yul\":2201:2202   */\n      0x00\n        /* \"#utility.yul\":2198:2199   */\n      dup1\n        /* \"#utility.yul\":2191:2203   */\n      revert\n        /* \"#utility.yul\":2134:2205   */\n    tag_200:\n        /* \"#utility.yul\":2073:2211   */\n      pop\n      jump\t// out\n        /* \"#utility.yul\":2217:2372   */\n    tag_146:\n        /* \"#utility.yul\":2271:2276   */\n      0x00\n        /* \"#utility.yul\":2309:2315   */\n      dup2\n        /* \"#utility.yul\":2296:2316   */\n      calldataload\n        /* \"#utility.yul\":2287:2316   */\n      swap1\n      pop\n        /* \"#utility.yul\":2325:2366   */\n      tag_202\n        /* \"#utility.yul\":2360:2365   */\n      dup2\n        /* \"#utility.yul\":2325:2366   */\n      tag_145\n      jump\t// in\n    tag_202:\n        /* \"#utility.yul\":2217:2372   */\n      swap3\n      swap2\n      pop\n      pop\n      jump\t// out\n        /* \"#utility.yul\":2378:2868   */\n    tag_33:\n        /* \"#utility.yul\":2454:2460   */\n      0x00\n        /* \"#utility.yul\":2462:2468   */\n      dup1\n        /* \"#utility.yul\":2511:2513   */\n      0x40\n        /* \"#utility.yul\":2499:2508   */\n      dup4\n        /* \"#utility.yul\":2490:2497   */\n      dup6\n        /* \"#utility.yul\":2486:2509   */\n      sub\n        /* \"#utility.yul\":2482:2514   */\n      slt\n        /* \"#utility.yul\":2479:2598   */\n      iszero\n      tag_204\n      jumpi\n        /* \"#utility.yul\":2517:2596   */\n      tag_205\n      tag_135\n      jump\t// in\n    tag_205:\n        /* \"#utility.yul\":2479:2598   */\n    tag_204:\n        /* \"#utility.yul\":2637:2638   */\n      0x00\n        /* \"#utility.yul\":2662:2715   */\n      tag_206\n        /* \"#utility.yul\":2707:2714   */\n      dup6\n        /* \"#utility.yul\":2698:2704   */\n      dup3\n        /* \"#utility.yul\":2687:2696   */\n      dup7\n        /* \"#utility.yul\":2683:2705   */\n      add\n        /* \"#utility.yul\":2662:2715   */\n      tag_139\n      jump\t// in\n    tag_206:\n        /* \"#utility.yul\":2652:2715   */\n      swap3\n      pop\n        /* \"#utility.yul\":2608:2725   */\n      pop\n        /* \"#utility.yul\":2764:2766   */\n      0x20\n        /* \"#utility.yul\":2790:2851   */\n      tag_207\n        /* \"#utility.yul\":2843:2850   */\n      dup6\n        /* \"#utility.yul\":2834:2840   */\n      dup3\n        /* \"#utility.yul\":2823:2832   */\n      dup7\n        /* \"#utility.yul\":2819:2841   */\n      add\n        /* \"#utility.yul\":2790:2851   */\n      tag_146\n      jump\t// in\n    tag_207:\n        /* \"#utility.yul\":2780:2851   */\n      swap2\n      pop\n        /* \"#utility.yul\":2735:2861   */\n      pop\n        /* \"#utility.yul\":2378:2868   */\n      swap3\n      pop\n      swap3\n      swap1\n      pop\n      jump\t// out\n        /* \"#utility.yul\":2874:3012   */\n    tag_147:\n        /* \"#utility.yul\":2965:2971   */\n      0x00\n        /* \"#utility.yul\":2999:3004   */\n      dup2\n        /* \"#utility.yul\":2993:3005   */\n      mload\n        /* \"#utility.yul\":2983:3005   */\n      swap1\n      pop\n        /* \"#utility.yul\":2874:3012   */\n      swap2\n      swap1\n      pop\n      jump\t// out\n        /* \"#utility.yul\":3018:3226   */\n    tag_148:\n        /* \"#utility.yul\":3141:3152   */\n      0x00\n        /* \"#utility.yul\":3175:3181   */\n      dup3\n        /* \"#utility.yul\":3170:3173   */\n      dup3\n        /* \"#utility.yul\":3163:3182   */\n      mstore\n        /* \"#utility.yul\":3215:3219   */\n      0x20\n        /* \"#utility.yul\":3210:3213   */\n      dup3\n        /* \"#utility.yul\":3206:3220   */\n      add\n        /* \"#utility.yul\":3191:3220   */\n      swap1\n      pop\n        /* \"#utility.yul\":3018:3226   */\n      swap3\n      swap2\n      pop\n      pop\n      jump\t// out\n        /* \"#utility.yul\":3232:3388   */\n    tag_149:\n        /* \"#utility.yul\":3323:3327   */\n      0x00\n        /* \"#utility.yul\":3346:3349   */\n      dup2\n        /* \"#utility.yul\":3338:3349   */\n      swap1\n      pop\n        /* \"#utility.yul\":3376:3380   */\n      0x20\n        /* \"#utility.yul\":3371:3374   */\n      dup3\n        /* \"#utility.yul\":3367:3381   */\n      add\n        /* \"#utility.yul\":3359:3381   */\n      swap1\n      pop\n        /* \"#utility.yul\":3232:3388   */\n      swap2\n      swap1\n      pop\n      jump\t// out\n        /* \"#utility.yul\":3394:3502   */\n    tag_150:\n        /* \"#utility.yul\":3471:3495   */\n      tag_212\n        /* \"#utility.yul\":3489:3494   */\n      dup2\n        /* \"#utility.yul\":3471:3495   */\n      tag_137\n      jump\t// in\n    tag_212:\n        /* \"#utility.yul\":3466:3469   */\n      dup3\n        /* \"#utility.yul\":3459:3496   */\n      mstore\n        /* \"#utility.yul\":3394:3502   */\n      pop\n      pop\n      jump\t// out\n        /* \"#utility.yul\":3508:3616   */\n    tag_151:\n        /* \"#utility.yul\":3585:3609   */\n      tag_214\n        /* \"#utility.yul\":3603:3608   */\n      dup2\n        /* \"#utility.yul\":3585:3609   */\n      tag_141\n      jump\t// in\n    tag_214:\n        /* \"#utility.yul\":3580:3583   */\n      dup3\n        /* \"#utility.yul\":3573:3610   */\n      mstore\n        /* \"#utility.yul\":3508:3616   */\n      pop\n      pop\n      jump\t// out\n        /* \"#utility.yul\":3622:3712   */\n    tag_152:\n        /* \"#utility.yul\":3656:3663   */\n      0x00\n        /* \"#utility.yul\":3699:3704   */\n      dup2\n        /* \"#utility.yul\":3692:3705   */\n      iszero\n        /* \"#utility.yul\":3685:3706   */\n      iszero\n        /* \"#utility.yul\":3674:3706   */\n      swap1\n      pop\n        /* \"#utility.yul\":3622:3712   */\n      swap2\n      swap1\n      pop\n      jump\t// out\n        /* \"#utility.yul\":3718:3817   */\n    tag_153:\n        /* \"#utility.yul\":3789:3810   */\n      tag_217\n        /* \"#utility.yul\":3804:3809   */\n      dup2\n        /* \"#utility.yul\":3789:3810   */\n      tag_152\n      jump\t// in\n    tag_217:\n        /* \"#utility.yul\":3784:3787   */\n      dup3\n        /* \"#utility.yul\":3777:3811   */\n      mstore\n        /* \"#utility.yul\":3718:3817   */\n      pop\n      pop\n      jump\t// out\n        /* \"#utility.yul\":3879:4902   */\n    tag_154:\n        /* \"#utility.yul\":4014:4018   */\n      0xa0\n        /* \"#utility.yul\":4009:4012   */\n      dup3\n        /* \"#utility.yul\":4005:4019   */\n      add\n        /* \"#utility.yul\":4106:4110   */\n      0x00\n        /* \"#utility.yul\":4099:4104   */\n      dup3\n        /* \"#utility.yul\":4095:4111   */\n      add\n        /* \"#utility.yul\":4089:4112   */\n      mload\n        /* \"#utility.yul\":4125:4188   */\n      tag_219\n        /* \"#utility.yul\":4182:4186   */\n      0x00\n        /* \"#utility.yul\":4177:4180   */\n      dup6\n        /* \"#utility.yul\":4173:4187   */\n      add\n        /* \"#utility.yul\":4159:4171   */\n      dup3\n        /* \"#utility.yul\":4125:4188   */\n      tag_150\n      jump\t// in\n    tag_219:\n        /* \"#utility.yul\":4029:4198   */\n      pop\n        /* \"#utility.yul\":4284:4288   */\n      0x20\n        /* \"#utility.yul\":4277:4282   */\n      dup3\n        /* \"#utility.yul\":4273:4289   */\n      add\n        /* \"#utility.yul\":4267:4290   */\n      mload\n        /* \"#utility.yul\":4303:4366   */\n      tag_220\n        /* \"#utility.yul\":4360:4364   */\n      0x20\n        /* \"#utility.yul\":4355:4358   */\n      dup6\n        /* \"#utility.yul\":4351:4365   */\n      add\n        /* \"#utility.yul\":4337:4349   */\n      dup3\n        /* \"#utility.yul\":4303:4366   */\n      tag_151\n      jump\t// in\n    tag_220:\n        /* \"#utility.yul\":4208:4376   */\n      pop\n        /* \"#utility.yul\":4460:4464   */\n      0x40\n        /* \"#utility.yul\":4453:4458   */\n      dup3\n        /* \"#utility.yul\":4449:4465   */\n      add\n        /* \"#utility.yul\":4443:4466   */\n      mload\n        /* \"#utility.yul\":4479:4542   */\n      tag_221\n        /* \"#utility.yul\":4536:4540   */\n      0x40\n        /* \"#utility.yul\":4531:4534   */\n      dup6\n        /* \"#utility.yul\":4527:4541   */\n      add\n        /* \"#utility.yul\":4513:4525   */\n      dup3\n        /* \"#utility.yul\":4479:4542   */\n      tag_150\n      jump\t// in\n    tag_221:\n        /* \"#utility.yul\":4386:4552   */\n      pop\n        /* \"#utility.yul\":4632:4636   */\n      0x60\n        /* \"#utility.yul\":4625:4630   */\n      dup3\n        /* \"#utility.yul\":4621:4637   */\n      add\n        /* \"#utility.yul\":4615:4638   */\n      mload\n        /* \"#utility.yul\":4651:4714   */\n      tag_222\n        /* \"#utility.yul\":4708:4712   */\n      0x60\n        /* \"#utility.yul\":4703:4706   */\n      dup6\n        /* \"#utility.yul\":4699:4713   */\n      add\n        /* \"#utility.yul\":4685:4697   */\n      dup3\n        /* \"#utility.yul\":4651:4714   */\n      tag_150\n      jump\t// in\n    tag_222:\n        /* \"#utility.yul\":4562:4724   */\n      pop\n        /* \"#utility.yul\":4809:4813   */\n      0x80\n        /* \"#utility.yul\":4802:4807   */\n      dup3\n        /* \"#utility.yul\":4798:4814   */\n      add\n        /* \"#utility.yul\":4792:4815   */\n      mload\n        /* \"#utility.yul\":4828:4885   */\n      tag_223\n        /* \"#utility.yul\":4879:4883   */\n      0x80\n        /* \"#utility.yul\":4874:4877   */\n      dup6\n        /* \"#utility.yul\":4870:4884   */\n      add\n        /* \"#utility.yul\":4856:4868   */\n      dup3\n        /* \"#utility.yul\":4828:4885   */\n      tag_153\n      jump\t// in\n    tag_223:\n        /* \"#utility.yul\":4734:4895   */\n      pop\n        /* \"#utility.yul\":3983:4902   */\n      pop\n        /* \"#utility.yul\":3879:4902   */\n      pop\n      pop\n      jump\t// out\n        /* \"#utility.yul\":4908:5183   */\n    tag_155:\n        /* \"#utility.yul\":5025:5035   */\n      0x00\n        /* \"#utility.yul\":5046:5140   */\n      tag_225\n        /* \"#utility.yul\":5136:5139   */\n      dup4\n        /* \"#utility.yul\":5128:5134   */\n      dup4\n        /* \"#utility.yul\":5046:5140   */\n      tag_154\n      jump\t// in\n    tag_225:\n        /* \"#utility.yul\":5172:5176   */\n      0xa0\n        /* \"#utility.yul\":5167:5170   */\n      dup4\n        /* \"#utility.yul\":5163:5177   */\n      add\n        /* \"#utility.yul\":5149:5177   */\n      swap1\n      pop\n        /* \"#utility.yul\":4908:5183   */\n      swap3\n      swap2\n      pop\n      pop\n      jump\t// out\n        /* \"#utility.yul\":5189:5326   */\n    tag_156:\n        /* \"#utility.yul\":5283:5287   */\n      0x00\n        /* \"#utility.yul\":5315:5319   */\n      0x20\n        /* \"#utility.yul\":5310:5313   */\n      dup3\n        /* \"#utility.yul\":5306:5320   */\n      add\n        /* \"#utility.yul\":5298:5320   */\n      swap1\n      pop\n        /* \"#utility.yul\":5189:5326   */\n      swap2\n      swap1\n      pop\n      jump\t// out\n        /* \"#utility.yul\":5392:6316   */\n    tag_157:\n        /* \"#utility.yul\":5559:5562   */\n      0x00\n        /* \"#utility.yul\":5588:5666   */\n      tag_228\n        /* \"#utility.yul\":5660:5665   */\n      dup3\n        /* \"#utility.yul\":5588:5666   */\n      tag_147\n      jump\t// in\n    tag_228:\n        /* \"#utility.yul\":5682:5792   */\n      tag_229\n        /* \"#utility.yul\":5785:5791   */\n      dup2\n        /* \"#utility.yul\":5780:5783   */\n      dup6\n        /* \"#utility.yul\":5682:5792   */\n      tag_148\n      jump\t// in\n    tag_229:\n        /* \"#utility.yul\":5675:5792   */\n      swap4\n      pop\n        /* \"#utility.yul\":5816:5896   */\n      tag_230\n        /* \"#utility.yul\":5890:5895   */\n      dup4\n        /* \"#utility.yul\":5816:5896   */\n      tag_149\n      jump\t// in\n    tag_230:\n        /* \"#utility.yul\":5919:5926   */\n      dup1\n        /* \"#utility.yul\":5950:5951   */\n      0x00\n        /* \"#utility.yul\":5935:6291   */\n    tag_231:\n        /* \"#utility.yul\":5960:5966   */\n      dup4\n        /* \"#utility.yul\":5957:5958   */\n      dup2\n        /* \"#utility.yul\":5954:5967   */\n      lt\n        /* \"#utility.yul\":5935:6291   */\n      iszero\n      tag_233\n      jumpi\n        /* \"#utility.yul\":6036:6042   */\n      dup2\n        /* \"#utility.yul\":6030:6043   */\n      mload\n        /* \"#utility.yul\":6063:6174   */\n      tag_234\n        /* \"#utility.yul\":6170:6173   */\n      dup9\n        /* \"#utility.yul\":6155:6168   */\n      dup3\n        /* \"#utility.yul\":6063:6174   */\n      tag_155\n      jump\t// in\n    tag_234:\n        /* \"#utility.yul\":6056:6174   */\n      swap8\n      pop\n        /* \"#utility.yul\":6197:6281   */\n      tag_235\n        /* \"#utility.yul\":6274:6280   */\n      dup4\n        /* \"#utility.yul\":6197:6281   */\n      tag_156\n      jump\t// in\n    tag_235:\n        /* \"#utility.yul\":6187:6281   */\n      swap3\n      pop\n        /* \"#utility.yul\":5995:6291   */\n      pop\n        /* \"#utility.yul\":5982:5983   */\n      0x01\n        /* \"#utility.yul\":5979:5980   */\n      dup2\n        /* \"#utility.yul\":5975:5984   */\n      add\n        /* \"#utility.yul\":5970:5984   */\n      swap1\n      pop\n        /* \"#utility.yul\":5935:6291   */\n      jump(tag_231)\n    tag_233:\n        /* \"#utility.yul\":5939:5953   */\n      pop\n        /* \"#utility.yul\":6307:6310   */\n      dup6\n        /* \"#utility.yul\":6300:6310   */\n      swap4\n      pop\n        /* \"#utility.yul\":5564:6316   */\n      pop\n      pop\n      pop\n        /* \"#utility.yul\":5392:6316   */\n      swap3\n      swap2\n      pop\n      pop\n      jump\t// out\n        /* \"#utility.yul\":6322:6791   */\n    tag_41:\n        /* \"#utility.yul\":6513:6517   */\n      0x00\n        /* \"#utility.yul\":6551:6553   */\n      0x20\n        /* \"#utility.yul\":6540:6549   */\n      dup3\n        /* \"#utility.yul\":6536:6554   */\n      add\n        /* \"#utility.yul\":6528:6554   */\n      swap1\n      pop\n        /* \"#utility.yul\":6600:6609   */\n      dup2\n        /* \"#utility.yul\":6594:6598   */\n      dup2\n        /* \"#utility.yul\":6590:6610   */\n      sub\n        /* \"#utility.yul\":6586:6587   */\n      0x00\n        /* \"#utility.yul\":6575:6584   */\n      dup4\n        /* \"#utility.yul\":6571:6588   */\n      add\n        /* \"#utility.yul\":6564:6611   */\n      mstore\n        /* \"#utility.yul\":6628:6784   */\n      tag_237\n        /* \"#utility.yul\":6779:6783   */\n      dup2\n        /* \"#utility.yul\":6770:6776   */\n      dup5\n        /* \"#utility.yul\":6628:6784   */\n      tag_157\n      jump\t// in\n    tag_237:\n        /* \"#utility.yul\":6620:6784   */\n      swap1\n      pop\n        /* \"#utility.yul\":6322:6791   */\n      swap3\n      swap2\n      pop\n      pop\n      jump\t// out\n        /* \"#utility.yul\":6797:6977   */\n    tag_51:\n        /* \"#utility.yul\":6845:6922   */\n      0x4e487b7100000000000000000000000000000000000000000000000000000000\n        /* \"#utility.yul\":6842:6843   */\n      0x00\n        /* \"#utility.yul\":6835:6923   */\n      mstore\n        /* \"#utility.yul\":6942:6946   */\n      0x32\n        /* \"#utility.yul\":6939:6940   */\n      0x04\n        /* \"#utility.yul\":6932:6947   */\n      mstore\n        /* \"#utility.yul\":6966:6970   */\n      0x24\n        /* \"#utility.yul\":6963:6964   */\n      0x00\n        /* \"#utility.yul\":6956:6971   */\n      revert\n        /* \"#utility.yul\":6983:7152   */\n    tag_158:\n        /* \"#utility.yul\":7067:7078   */\n      0x00\n        /* \"#utility.yul\":7101:7107   */\n      dup3\n        /* \"#utility.yul\":7096:7099   */\n      dup3\n        /* \"#utility.yul\":7089:7108   */\n      mstore\n        /* \"#utility.yul\":7141:7145   */\n      0x20\n        /* \"#utility.yul\":7136:7139   */\n      dup3\n        /* \"#utility.yul\":7132:7146   */\n      add\n        /* \"#utility.yul\":7117:7146   */\n      swap1\n      pop\n        /* \"#utility.yul\":6983:7152   */\n      swap3\n      swap2\n      pop\n      pop\n      jump\t// out\n        /* \"#utility.yul\":7158:7320   */\n    tag_159:\n        /* \"#utility.yul\":7298:7312   */\n      0x4e6f7420616e206f776e65720000000000000000000000000000000000000000\n        /* \"#utility.yul\":7294:7295   */\n      0x00\n        /* \"#utility.yul\":7286:7292   */\n      dup3\n        /* \"#utility.yul\":7282:7296   */\n      add\n        /* \"#utility.yul\":7275:7313   */\n      mstore\n        /* \"#utility.yul\":7158:7320   */\n      pop\n      jump\t// out\n        /* \"#utility.yul\":7326:7692   */\n    tag_160:\n        /* \"#utility.yul\":7468:7471   */\n      0x00\n        /* \"#utility.yul\":7489:7556   */\n      tag_242\n        /* \"#utility.yul\":7553:7555   */\n      0x0c\n        /* \"#utility.yul\":7548:7551   */\n      dup4\n        /* \"#utility.yul\":7489:7556   */\n      tag_158\n      jump\t// in\n    tag_242:\n        /* \"#utility.yul\":7482:7556   */\n      swap2\n      pop\n        /* \"#utility.yul\":7565:7658   */\n      tag_243\n        /* \"#utility.yul\":7654:7657   */\n      dup3\n        /* \"#utility.yul\":7565:7658   */\n      tag_159\n      jump\t// in\n    tag_243:\n        /* \"#utility.yul\":7683:7685   */\n      0x20\n        /* \"#utility.yul\":7678:7681   */\n      dup3\n        /* \"#utility.yul\":7674:7686   */\n      add\n        /* \"#utility.yul\":7667:7686   */\n      swap1\n      pop\n        /* \"#utility.yul\":7326:7692   */\n      swap2\n      swap1\n      pop\n      jump\t// out\n        /* \"#utility.yul\":7698:8117   */\n    tag_56:\n        /* \"#utility.yul\":7864:7868   */\n      0x00\n        /* \"#utility.yul\":7902:7904   */\n      0x20\n        /* \"#utility.yul\":7891:7900   */\n      dup3\n        /* \"#utility.yul\":7887:7905   */\n      add\n        /* \"#utility.yul\":7879:7905   */\n      swap1\n      pop\n        /* \"#utility.yul\":7951:7960   */\n      dup2\n        /* \"#utility.yul\":7945:7949   */\n      dup2\n        /* \"#utility.yul\":7941:7961   */\n      sub\n        /* \"#utility.yul\":7937:7938   */\n      0x00\n        /* \"#utility.yul\":7926:7935   */\n      dup4\n        /* \"#utility.yul\":7922:7939   */\n      add\n        /* \"#utility.yul\":7915:7962   */\n      mstore\n        /* \"#utility.yul\":7979:8110   */\n      tag_245\n        /* \"#utility.yul\":8105:8109   */\n      dup2\n        /* \"#utility.yul\":7979:8110   */\n      tag_160\n      jump\t// in\n    tag_245:\n        /* \"#utility.yul\":7971:8110   */\n      swap1\n      pop\n        /* \"#utility.yul\":7698:8117   */\n      swap2\n      swap1\n      pop\n      jump\t// out\n        /* \"#utility.yul\":8123:8302   */\n    tag_161:\n        /* \"#utility.yul\":8263:8294   */\n      0x5472616e7366657220417070726f76616c2069732072656a6563746564000000\n        /* \"#utility.yul\":8259:8260   */\n      0x00\n        /* \"#utility.yul\":8251:8257   */\n      dup3\n        /* \"#utility.yul\":8247:8261   */\n      add\n        /* \"#utility.yul\":8240:8295   */\n      mstore\n        /* \"#utility.yul\":8123:8302   */\n      pop\n      jump\t// out\n        /* \"#utility.yul\":8308:8674   */\n    tag_162:\n        /* \"#utility.yul\":8450:8453   */\n      0x00\n        /* \"#utility.yul\":8471:8538   */\n      tag_248\n        /* \"#utility.yul\":8535:8537   */\n      0x1d\n        /* \"#utility.yul\":8530:8533   */\n      dup4\n        /* \"#utility.yul\":8471:8538   */\n      tag_158\n      jump\t// in\n    tag_248:\n        /* \"#utility.yul\":8464:8538   */\n      swap2\n      pop\n        /* \"#utility.yul\":8547:8640   */\n      tag_249\n        /* \"#utility.yul\":8636:8639   */\n      dup3\n        /* \"#utility.yul\":8547:8640   */\n      tag_161\n      jump\t// in\n    tag_249:\n        /* \"#utility.yul\":8665:8667   */\n      0x20\n        /* \"#utility.yul\":8660:8663   */\n      dup3\n        /* \"#utility.yul\":8656:8668   */\n      add\n        /* \"#utility.yul\":8649:8668   */\n      swap1\n      pop\n        /* \"#utility.yul\":8308:8674   */\n      swap2\n      swap1\n      pop\n      jump\t// out\n        /* \"#utility.yul\":8680:9099   */\n    tag_60:\n        /* \"#utility.yul\":8846:8850   */\n      0x00\n        /* \"#utility.yul\":8884:8886   */\n      0x20\n        /* \"#utility.yul\":8873:8882   */\n      dup3\n        /* \"#utility.yul\":8869:8887   */\n      add\n        /* \"#utility.yul\":8861:8887   */\n      swap1\n      pop\n        /* \"#utility.yul\":8933:8942   */\n      dup2\n        /* \"#utility.yul\":8927:8931   */\n      dup2\n        /* \"#utility.yul\":8923:8943   */\n      sub\n        /* \"#utility.yul\":8919:8920   */\n      0x00\n        /* \"#utility.yul\":8908:8917   */\n      dup4\n        /* \"#utility.yul\":8904:8921   */\n      add\n        /* \"#utility.yul\":8897:8944   */\n      mstore\n        /* \"#utility.yul\":8961:9092   */\n      tag_251\n        /* \"#utility.yul\":9087:9091   */\n      dup2\n        /* \"#utility.yul\":8961:9092   */\n      tag_162\n      jump\t// in\n    tag_251:\n        /* \"#utility.yul\":8953:9092   */\n      swap1\n      pop\n        /* \"#utility.yul\":8680:9099   */\n      swap2\n      swap1\n      pop\n      jump\t// out\n        /* \"#utility.yul\":9105:9285   */\n    tag_163:\n        /* \"#utility.yul\":9245:9277   */\n      0x4d7573742073656e7420746865207472616e7366657220726571756573740000\n        /* \"#utility.yul\":9241:9242   */\n      0x00\n        /* \"#utility.yul\":9233:9239   */\n      dup3\n        /* \"#utility.yul\":9229:9243   */\n      add\n        /* \"#utility.yul\":9222:9278   */\n      mstore\n        /* \"#utility.yul\":9105:9285   */\n      pop\n      jump\t// out\n        /* \"#utility.yul\":9291:9657   */\n    tag_164:\n        /* \"#utility.yul\":9433:9436   */\n      0x00\n        /* \"#utility.yul\":9454:9521   */\n      tag_254\n        /* \"#utility.yul\":9518:9520   */\n      0x1e\n        /* \"#utility.yul\":9513:9516   */\n      dup4\n        /* \"#utility.yul\":9454:9521   */\n      tag_158\n      jump\t// in\n    tag_254:\n        /* \"#utility.yul\":9447:9521   */\n      swap2\n      pop\n        /* \"#utility.yul\":9530:9623   */\n      tag_255\n        /* \"#utility.yul\":9619:9622   */\n      dup3\n        /* \"#utility.yul\":9530:9623   */\n      tag_163\n      jump\t// in\n    tag_255:\n        /* \"#utility.yul\":9648:9650   */\n      0x20\n        /* \"#utility.yul\":9643:9646   */\n      dup3\n        /* \"#utility.yul\":9639:9651   */\n      add\n        /* \"#utility.yul\":9632:9651   */\n      swap1\n      pop\n        /* \"#utility.yul\":9291:9657   */\n      swap2\n      swap1\n      pop\n      jump\t// out\n        /* \"#utility.yul\":9663:10082   */\n    tag_66:\n        /* \"#utility.yul\":9829:9833   */\n      0x00\n        /* \"#utility.yul\":9867:9869   */\n      0x20\n        /* \"#utility.yul\":9856:9865   */\n      dup3\n        /* \"#utility.yul\":9852:9870   */\n      add\n        /* \"#utility.yul\":9844:9870   */\n      swap1\n      pop\n        /* \"#utility.yul\":9916:9925   */\n      dup2\n        /* \"#utility.yul\":9910:9914   */\n      dup2\n        /* \"#utility.yul\":9906:9926   */\n      sub\n        /* \"#utility.yul\":9902:9903   */\n      0x00\n        /* \"#utility.yul\":9891:9900   */\n      dup4\n        /* \"#utility.yul\":9887:9904   */\n      add\n        /* \"#utility.yul\":9880:9927   */\n      mstore\n        /* \"#utility.yul\":9944:10075   */\n      tag_257\n        /* \"#utility.yul\":10070:10074   */\n      dup2\n        /* \"#utility.yul\":9944:10075   */\n      tag_164\n      jump\t// in\n    tag_257:\n        /* \"#utility.yul\":9936:10075   */\n      swap1\n      pop\n        /* \"#utility.yul\":9663:10082   */\n      swap2\n      swap1\n      pop\n      jump\t// out\n        /* \"#utility.yul\":10088:10268   */\n    tag_165:\n        /* \"#utility.yul\":10136:10213   */\n      0x4e487b7100000000000000000000000000000000000000000000000000000000\n        /* \"#utility.yul\":10133:10134   */\n      0x00\n        /* \"#utility.yul\":10126:10214   */\n      mstore\n        /* \"#utility.yul\":10233:10237   */\n      0x11\n        /* \"#utility.yul\":10230:10231   */\n      0x04\n        /* \"#utility.yul\":10223:10238   */\n      mstore\n        /* \"#utility.yul\":10257:10261   */\n      0x24\n        /* \"#utility.yul\":10254:10255   */\n      0x00\n        /* \"#utility.yul\":10247:10262   */\n      revert\n        /* \"#utility.yul\":10274:10507   */\n    tag_71:\n        /* \"#utility.yul\":10313:10316   */\n      0x00\n        /* \"#utility.yul\":10336:10360   */\n      tag_260\n        /* \"#utility.yul\":10354:10359   */\n      dup3\n        /* \"#utility.yul\":10336:10360   */\n      tag_137\n      jump\t// in\n    tag_260:\n        /* \"#utility.yul\":10327:10360   */\n      swap2\n      pop\n        /* \"#utility.yul\":10382:10448   */\n      0xffffffffffffffffffffffffffffffffffffffffffffffffffffffffffffffff\n        /* \"#utility.yul\":10375:10380   */\n      dup3\n        /* \"#utility.yul\":10372:10449   */\n      sub\n        /* \"#utility.yul\":10369:10472   */\n      tag_261\n      jumpi\n        /* \"#utility.yul\":10452:10470   */\n      tag_262\n      tag_165\n      jump\t// in\n    tag_262:\n        /* \"#utility.yul\":10369:10472   */\n    tag_261:\n        /* \"#utility.yul\":10499:10500   */\n      0x01\n        /* \"#utility.yul\":10492:10497   */\n      dup3\n        /* \"#utility.yul\":10488:10501   */\n      add\n        /* \"#utility.yul\":10481:10501   */\n      swap1\n      pop\n        /* \"#utility.yul\":10274:10507   */\n      swap2\n      swap1\n      pop\n      jump\t// out\n        /* \"#utility.yul\":10513:10955   */\n    tag_76:\n        /* \"#utility.yul\":10662:10666   */\n      0x00\n        /* \"#utility.yul\":10700:10702   */\n      0x60\n        /* \"#utility.yul\":10689:10698   */\n      dup3\n        /* \"#utility.yul\":10685:10703   */\n      add\n        /* \"#utility.yul\":10677:10703   */\n      swap1\n      pop\n        /* \"#utility.yul\":10713:10784   */\n      tag_264\n        /* \"#utility.yul\":10781:10782   */\n      0x00\n        /* \"#utility.yul\":10770:10779   */\n      dup4\n        /* \"#utility.yul\":10766:10783   */\n      add\n        /* \"#utility.yul\":10757:10763   */\n      dup7\n        /* \"#utility.yul\":10713:10784   */\n      tag_143\n      jump\t// in\n    tag_264:\n        /* \"#utility.yul\":10794:10866   */\n      tag_265\n        /* \"#utility.yul\":10862:10864   */\n      0x20\n        /* \"#utility.yul\":10851:10860   */\n      dup4\n        /* \"#utility.yul\":10847:10865   */\n      add\n        /* \"#utility.yul\":10838:10844   */\n      dup6\n        /* \"#utility.yul\":10794:10866   */\n      tag_143\n      jump\t// in\n    tag_265:\n        /* \"#utility.yul\":10876:10948   */\n      tag_266\n        /* \"#utility.yul\":10944:10946   */\n      0x40\n        /* \"#utility.yul\":10933:10942   */\n      dup4\n        /* \"#utility.yul\":10929:10947   */\n      add\n        /* \"#utility.yul\":10920:10926   */\n      dup5\n        /* \"#utility.yul\":10876:10948   */\n      tag_142\n      jump\t// in\n    tag_266:\n        /* \"#utility.yul\":10513:10955   */\n      swap5\n      swap4\n      pop\n      pop\n      pop\n      pop\n      jump\t// out\n        /* \"#utility.yul\":10961:11152   */\n    tag_101:\n        /* \"#utility.yul\":11001:11004   */\n      0x00\n        /* \"#utility.yul\":11020:11040   */\n      tag_268\n        /* \"#utility.yul\":11038:11039   */\n      dup3\n        /* \"#utility.yul\":11020:11040   */\n      tag_137\n      jump\t// in\n    tag_268:\n        /* \"#utility.yul\":11015:11040   */\n      swap2\n      pop\n        /* \"#utility.yul\":11054:11074   */\n      tag_269\n        /* \"#utility.yul\":11072:11073   */\n      dup4\n        /* \"#utility.yul\":11054:11074   */\n      tag_137\n      jump\t// in\n    tag_269:\n        /* \"#utility.yul\":11049:11074   */\n      swap3\n      pop\n        /* \"#utility.yul\":11097:11098   */\n      dup3\n        /* \"#utility.yul\":11094:11095   */\n      dup3\n        /* \"#utility.yul\":11090:11099   */\n      add\n        /* \"#utility.yul\":11083:11099   */\n      swap1\n      pop\n        /* \"#utility.yul\":11118:11121   */\n      dup1\n        /* \"#utility.yul\":11115:11116   */\n      dup3\n        /* \"#utility.yul\":11112:11122   */\n      gt\n        /* \"#utility.yul\":11109:11145   */\n      iszero\n      tag_270\n      jumpi\n        /* \"#utility.yul\":11125:11143   */\n      tag_271\n      tag_165\n      jump\t// in\n    tag_271:\n        /* \"#utility.yul\":11109:11145   */\n    tag_270:\n        /* \"#utility.yul\":10961:11152   */\n      swap3\n      swap2\n      pop\n      pop\n      jump\t// out\n        /* \"#utility.yul\":11158:11218   */\n    tag_166:\n        /* \"#utility.yul\":11186:11189   */\n      0x00\n        /* \"#utility.yul\":11207:11212   */\n      dup2\n        /* \"#utility.yul\":11200:11212   */\n      swap1\n      pop\n        /* \"#utility.yul\":11158:11218   */\n      swap2\n      swap1\n      pop\n      jump\t// out\n        /* \"#utility.yul\":11224:11366   */\n    tag_167:\n        /* \"#utility.yul\":11274:11283   */\n      0x00\n        /* \"#utility.yul\":11307:11360   */\n      tag_274\n        /* \"#utility.yul\":11325:11359   */\n      tag_275\n        /* \"#utility.yul\":11334:11358   */\n      tag_276\n        /* \"#utility.yul\":11352:11357   */\n      dup5\n        /* \"#utility.yul\":11334:11358   */\n      tag_140\n      jump\t// in\n    tag_276:\n        /* \"#utility.yul\":11325:11359   */\n      tag_166\n      jump\t// in\n    tag_275:\n        /* \"#utility.yul\":11307:11360   */\n      tag_140\n      jump\t// in\n    tag_274:\n        /* \"#utility.yul\":11294:11360   */\n      swap1\n      pop\n        /* \"#utility.yul\":11224:11366   */\n      swap2\n      swap1\n      pop\n      jump\t// out\n        /* \"#utility.yul\":11372:11498   */\n    tag_168:\n        /* \"#utility.yul\":11422:11431   */\n      0x00\n        /* \"#utility.yul\":11455:11492   */\n      tag_278\n        /* \"#utility.yul\":11486:11491   */\n      dup3\n        /* \"#utility.yul\":11455:11492   */\n      tag_167\n      jump\t// in\n    tag_278:\n        /* \"#utility.yul\":11442:11492   */\n      swap1\n      pop\n        /* \"#utility.yul\":11372:11498   */\n      swap2\n      swap1\n      pop\n      jump\t// out\n        /* \"#utility.yul\":11504:11638   */\n    tag_169:\n        /* \"#utility.yul\":11562:11571   */\n      0x00\n        /* \"#utility.yul\":11595:11632   */\n      tag_280\n        /* \"#utility.yul\":11626:11631   */\n      dup3\n        /* \"#utility.yul\":11595:11632   */\n      tag_168\n      jump\t// in\n    tag_280:\n        /* \"#utility.yul\":11582:11632   */\n      swap1\n      pop\n        /* \"#utility.yul\":11504:11638   */\n      swap2\n      swap1\n      pop\n      jump\t// out\n        /* \"#utility.yul\":11644:11791   */\n    tag_170:\n        /* \"#utility.yul\":11739:11784   */\n      tag_282\n        /* \"#utility.yul\":11778:11783   */\n      dup2\n        /* \"#utility.yul\":11739:11784   */\n      tag_169\n      jump\t// in\n    tag_282:\n        /* \"#utility.yul\":11734:11737   */\n      dup3\n        /* \"#utility.yul\":11727:11785   */\n      mstore\n        /* \"#utility.yul\":11644:11791   */\n      pop\n      pop\n      jump\t// out\n        /* \"#utility.yul\":11797:12366   */\n    tag_114:\n        /* \"#utility.yul\":11982:11986   */\n      0x00\n        /* \"#utility.yul\":12020:12023   */\n      0x80\n        /* \"#utility.yul\":12009:12018   */\n      dup3\n        /* \"#utility.yul\":12005:12024   */\n      add\n        /* \"#utility.yul\":11997:12024   */\n      swap1\n      pop\n        /* \"#utility.yul\":12034:12105   */\n      tag_284\n        /* \"#utility.yul\":12102:12103   */\n      0x00\n        /* \"#utility.yul\":12091:12100   */\n      dup4\n        /* \"#utility.yul\":12087:12104   */\n      add\n        /* \"#utility.yul\":12078:12084   */\n      dup8\n        /* \"#utility.yul\":12034:12105   */\n      tag_143\n      jump\t// in\n    tag_284:\n        /* \"#utility.yul\":12115:12187   */\n      tag_285\n        /* \"#utility.yul\":12183:12185   */\n      0x20\n        /* \"#utility.yul\":12172:12181   */\n      dup4\n        /* \"#utility.yul\":12168:12186   */\n      add\n        /* \"#utility.yul\":12159:12165   */\n      dup7\n        /* \"#utility.yul\":12115:12187   */\n      tag_143\n      jump\t// in\n    tag_285:\n        /* \"#utility.yul\":12197:12269   */\n      tag_286\n        /* \"#utility.yul\":12265:12267   */\n      0x40\n        /* \"#utility.yul\":12254:12263   */\n      dup4\n        /* \"#utility.yul\":12250:12268   */\n      add\n        /* \"#utility.yul\":12241:12247   */\n      dup6\n        /* \"#utility.yul\":12197:12269   */\n      tag_142\n      jump\t// in\n    tag_286:\n        /* \"#utility.yul\":12279:12359   */\n      tag_287\n        /* \"#utility.yul\":12355:12357   */\n      0x60\n        /* \"#utility.yul\":12344:12353   */\n      dup4\n        /* \"#utility.yul\":12340:12358   */\n      add\n        /* \"#utility.yul\":12331:12337   */\n      dup5\n        /* \"#utility.yul\":12279:12359   */\n      tag_170\n      jump\t// in\n    tag_287:\n        /* \"#utility.yul\":11797:12366   */\n      swap6\n      swap5\n      pop\n      pop\n      pop\n      pop\n      pop\n      jump\t// out\n        /* \"#utility.yul\":12372:12704   */\n    tag_129:\n        /* \"#utility.yul\":12493:12497   */\n      0x00\n        /* \"#utility.yul\":12531:12533   */\n      0x40\n        /* \"#utility.yul\":12520:12529   */\n      dup3\n        /* \"#utility.yul\":12516:12534   */\n      add\n        /* \"#utility.yul\":12508:12534   */\n      swap1\n      pop\n        /* \"#utility.yul\":12544:12615   */\n      tag_289\n        /* \"#utility.yul\":12612:12613   */\n      0x00\n        /* \"#utility.yul\":12601:12610   */\n      dup4\n        /* \"#utility.yul\":12597:12614   */\n      add\n        /* \"#utility.yul\":12588:12594   */\n      dup6\n        /* \"#utility.yul\":12544:12615   */\n      tag_142\n      jump\t// in\n    tag_289:\n        /* \"#utility.yul\":12625:12697   */\n      tag_290\n        /* \"#utility.yul\":12693:12695   */\n      0x20\n        /* \"#utility.yul\":12682:12691   */\n      dup4\n        /* \"#utility.yul\":12678:12696   */\n      add\n        /* \"#utility.yul\":12669:12675   */\n      dup5\n        /* \"#utility.yul\":12625:12697   */\n      tag_143\n      jump\t// in\n    tag_290:\n        /* \"#utility.yul\":12372:12704   */\n      swap4\n      swap3\n      pop\n      pop\n      pop\n      jump\t// out\n\n    auxdata: 0xa2646970667358221220b6193a9ccf11d4f116014a577eeeb6384fb226872fa37b2248078a1fef4a3caf64736f6c63430008160033\n}\n",
				"bytecode": {
					"linkReferences": {},
					"object": "608060405234801562000010575f80fd5b506040516200188e3803806200188e8339818101604052810190620000369190620004e3565b5f8251116200007c576040517f08c379a00000000000000000000000000000000000000000000000000000000081526004016200007390620005a5565b60405180910390fd5b5f811180156200008d575081518111155b620000cf576040517f08c379a0000000000000000000000000000000000000000000000000000000008152600401620000c69062000613565b60405180910390fd5b5f5b8251811015620002bd575f838281518110620000f257620000f162000633565b5b602002602001015190505f73ffffffffffffffffffffffffffffffffffffffff168173ffffffffffffffffffffffffffffffffffffffff16036200016d576040517f08c379a00000000000000000000000000000000000000000000000000000000081526004016200016490620006ae565b60405180910390fd5b60045f8273ffffffffffffffffffffffffffffffffffffffff1673ffffffffffffffffffffffffffffffffffffffff1681526020019081526020015f205f9054906101000a900460ff1615620001fa576040517f08c379a0000000000000000000000000000000000000000000000000000000008152600401620001f1906200071c565b60405180910390fd5b600160045f8373ffffffffffffffffffffffffffffffffffffffff1673ffffffffffffffffffffffffffffffffffffffff1681526020019081526020015f205f6101000a81548160ff0219169083151502179055505f81908060018154018082558091505060019003905f5260205f20015f9091909190916101000a81548173ffffffffffffffffffffffffffffffffffffffff021916908373ffffffffffffffffffffffffffffffffffffffff160217905550508080600101915050620000d1565b508060018190555050506200073c565b5f604051905090565b5f80fd5b5f80fd5b5f80fd5b5f601f19601f8301169050919050565b7f4e487b71000000000000000000000000000000000000000000000000000000005f52604160045260245ffd5b6200032a82620002e2565b810181811067ffffffffffffffff821117156200034c576200034b620002f2565b5b80604052505050565b5f62000360620002cd565b90506200036e82826200031f565b919050565b5f67ffffffffffffffff82111562000390576200038f620002f2565b5b602082029050602081019050919050565b5f80fd5b5f73ffffffffffffffffffffffffffffffffffffffff82169050919050565b5f620003d082620003a5565b9050919050565b620003e281620003c4565b8114620003ed575f80fd5b50565b5f815190506200040081620003d7565b92915050565b5f6200041c620004168462000373565b62000355565b90508083825260208201905060208402830185811115620004425762000441620003a1565b5b835b818110156200046f57806200045a8882620003f0565b84526020840193505060208101905062000444565b5050509392505050565b5f82601f83011262000490576200048f620002de565b5b8151620004a284826020860162000406565b91505092915050565b5f819050919050565b620004bf81620004ab565b8114620004ca575f80fd5b50565b5f81519050620004dd81620004b4565b92915050565b5f8060408385031215620004fc57620004fb620002d6565b5b5f83015167ffffffffffffffff8111156200051c576200051b620002da565b5b6200052a8582860162000479565b92505060206200053d85828601620004cd565b9150509250929050565b5f82825260208201905092915050565b7f4f776e65727320726571756972656400000000000000000000000000000000005f82015250565b5f6200058d600f8362000547565b91506200059a8262000557565b602082019050919050565b5f6020820190508181035f830152620005be816200057f565b9050919050565b7f496e76616c6964206e756d626572206f66207369676e617475726573000000005f82015250565b5f620005fb601c8362000547565b91506200060882620005c5565b602082019050919050565b5f6020820190508181035f8301526200062c81620005ed565b9050919050565b7f4e487b71000000000000000000000000000000000000000000000000000000005f52603260045260245ffd5b7f496e76616c6964206f776e6572000000000000000000000000000000000000005f82015250565b5f62000696600d8362000547565b9150620006a38262000660565b602082019050919050565b5f6020820190508181035f830152620006c78162000688565b9050919050565b7f6f776e6572206973206e6f7420616c6c6f7765640000000000000000000000005f82015250565b5f6200070460148362000547565b91506200071182620006ce565b602082019050919050565b5f6020820190508181035f8301526200073581620006f6565b9050919050565b611144806200074a5f395ff3fe60806040526004361061006f575f3560e01c8063329a27e71161004d578063329a27e7146101015780634c12fa471461012b5780638d0d8cb614610153578063a04ef1451461015d5761006f565b8063025e7c271461007357806312065fe0146100af5780631f1e1295146100d9575b5f80fd5b34801561007e575f80fd5b5061009960048036038101906100949190610b6e565b610187565b6040516100a69190610bd8565b60405180910390f35b3480156100ba575f80fd5b506100c36101c1565b6040516100d09190610c00565b60405180910390f35b3480156100e4575f80fd5b506100ff60048036038101906100fa9190610b6e565b610205565b005b34801561010c575f80fd5b50610115610631565b6040516101229190610c00565b60405180910390f35b348015610136575f80fd5b50610151600480360381019061014c9190610c54565b6106de565b005b61015b6108ea565b005b348015610168575f80fd5b50610171610a4f565b60405161017e9190610dd8565b60405180910390f35b5f8181548110610195575f80fd5b905f5260205f20015f915054906101000a900473ffffffffffffffffffffffffffffffffffffffff1681565b5f60055f3373ffffffffffffffffffffffffffffffffffffffff1673ffffffffffffffffffffffffffffffffffffffff1681526020019081526020015f2054905090565b5f805b5f80549050811015610293573373ffffffffffffffffffffffffffffffffffffffff165f828154811061023e5761023d610df8565b5b905f5260205f20015f9054906101000a900473ffffffffffffffffffffffffffffffffffffffff1673ffffffffffffffffffffffffffffffffffffffff160361028657600191505b8080600101915050610208565b5060011515811515146102db576040517f08c379a00000000000000000000000000000000000000000000000000000000081526004016102d290610e7f565b60405180910390fd5b5f151560035f3373ffffffffffffffffffffffffffffffffffffffff1673ffffffffffffffffffffffffffffffffffffffff1681526020019081526020015f205f8481526020019081526020015f205f9054906101000a900460ff16151514610379576040517f08c379a000000000000000000000000000000000000000000000000000000000815260040161037090610ee7565b60405180910390fd5b5f1515600283815481106103905761038f610df8565b5b905f5260205f2090600502016004015f9054906101000a900460ff161515146103ee576040517f08c379a00000000000000000000000000000000000000000000000000000000081526004016103e590610f4f565b60405180910390fd5b600160035f3373ffffffffffffffffffffffffffffffffffffffff1673ffffffffffffffffffffffffffffffffffffffff1681526020019081526020015f205f8481526020019081526020015f205f6101000a81548160ff0219169083151502179055506002828154811061046657610465610df8565b5b905f5260205f2090600502015f015f81548092919061048490610f9a565b91905055507faf7140a50d53d80db2d043fb8f79454a19799336e888a4036bc8c487901fb91582600284815481106104bf576104be610df8565b5b905f5260205f2090600502015f0154336040516104de93929190610fe1565b60405180910390a1600154600283815481106104fd576104fc610df8565b5b905f5260205f2090600502015f01541061062d5760016002838154811061052757610526610df8565b5b905f5260205f2090600502016004015f6101000a81548160ff021916908315150217905550600282815481106105605761055f610df8565b5b905f5260205f2090600502016001015f9054906101000a900473ffffffffffffffffffffffffffffffffffffffff1673ffffffffffffffffffffffffffffffffffffffff166108fc600284815481106105bc576105bb610df8565b5b905f5260205f2090600502016002015490811502906040515f60405180830381858888f193505050501580156105f4573d5f803e3d5ffd5b507fd9bbf1d8bef570b7e92ef1ba025425fc15915ae01f3d3be144cdc8be05442eb5826040516106249190610c00565b60405180910390a15b5050565b5f805f90505f5b5f805490508110156106d65760055f80838154811061065a57610659610df8565b5b905f5260205f20015f9054906101000a900473ffffffffffffffffffffffffffffffffffffffff1673ffffffffffffffffffffffffffffffffffffffff1673ffffffffffffffffffffffffffffffffffffffff1681526020019081526020015f2054826106c79190611016565b91508080600101915050610638565b508091505090565b5f805b5f8054905081101561076c573373ffffffffffffffffffffffffffffffffffffffff165f828154811061071757610716610df8565b5b905f5260205f20015f9054906101000a900473ffffffffffffffffffffffffffffffffffffffff1673ffffffffffffffffffffffffffffffffffffffff160361075f57600191505b80806001019150506106e1565b5060011515811515146107b4576040517f08c379a00000000000000000000000000000000000000000000000000000000081526004016107ab90610e7f565b60405180910390fd5b7f099c4ec4ecfc26f7c8b27aeee5443f92120fa2c4e91ba6020369ae71a4d442786002805490508433856040516107ee94939291906110a4565b60405180910390a160026040518060a001604052805f81526020018473ffffffffffffffffffffffffffffffffffffffff16815260200185815260200160028054905081526020015f1515815250908060018154018082558091505060019003905f5260205f2090600502015f909190919091505f820151815f01556020820151816001015f6101000a81548173ffffffffffffffffffffffffffffffffffffffff021916908373ffffffffffffffffffffffffffffffffffffffff16021790555060408201518160020155606082015181600301556080820151816004015f6101000a81548160ff0219169083151502179055505050505050565b5f805b5f80549050811015610978573373ffffffffffffffffffffffffffffffffffffffff165f828154811061092357610922610df8565b5b905f5260205f20015f9054906101000a900473ffffffffffffffffffffffffffffffffffffffff1673ffffffffffffffffffffffffffffffffffffffff160361096b57600191505b80806001019150506108ed565b5060011515811515146109c0576040517f08c379a00000000000000000000000000000000000000000000000000000000081526004016109b790610e7f565b60405180910390fd5b3460055f3373ffffffffffffffffffffffffffffffffffffffff1673ffffffffffffffffffffffffffffffffffffffff1681526020019081526020015f205f828254610a0c9190611016565b925050819055507f64bc4fa244140a0e75b75244f4f67e55e5b1c59dd9c7082bcedd794ac51000133334604051610a449291906110e7565b60405180910390a150565b60606002805480602002602001604051908101604052809291908181526020015f905b82821015610b2e578382905f5260205f2090600502016040518060a00160405290815f8201548152602001600182015f9054906101000a900473ffffffffffffffffffffffffffffffffffffffff1673ffffffffffffffffffffffffffffffffffffffff1673ffffffffffffffffffffffffffffffffffffffff1681526020016002820154815260200160038201548152602001600482015f9054906101000a900460ff16151515158152505081526020019060010190610a72565b50505050905090565b5f80fd5b5f819050919050565b610b4d81610b3b565b8114610b57575f80fd5b50565b5f81359050610b6881610b44565b92915050565b5f60208284031215610b8357610b82610b37565b5b5f610b9084828501610b5a565b91505092915050565b5f73ffffffffffffffffffffffffffffffffffffffff82169050919050565b5f610bc282610b99565b9050919050565b610bd281610bb8565b82525050565b5f602082019050610beb5f830184610bc9565b92915050565b610bfa81610b3b565b82525050565b5f602082019050610c135f830184610bf1565b92915050565b5f610c2382610b99565b9050919050565b610c3381610c19565b8114610c3d575f80fd5b50565b5f81359050610c4e81610c2a565b92915050565b5f8060408385031215610c6a57610c69610b37565b5b5f610c7785828601610b5a565b9250506020610c8885828601610c40565b9150509250929050565b5f81519050919050565b5f82825260208201905092915050565b5f819050602082019050919050565b610cc481610b3b565b82525050565b610cd381610bb8565b82525050565b5f8115159050919050565b610ced81610cd9565b82525050565b60a082015f820151610d075f850182610cbb565b506020820151610d1a6020850182610cca565b506040820151610d2d6040850182610cbb565b506060820151610d406060850182610cbb565b506080820151610d536080850182610ce4565b50505050565b5f610d648383610cf3565b60a08301905092915050565b5f602082019050919050565b5f610d8682610c92565b610d908185610c9c565b9350610d9b83610cac565b805f5b83811015610dcb578151610db28882610d59565b9750610dbd83610d70565b925050600181019050610d9e565b5085935050505092915050565b5f6020820190508181035f830152610df08184610d7c565b905092915050565b7f4e487b71000000000000000000000000000000000000000000000000000000005f52603260045260245ffd5b5f82825260208201905092915050565b7f4e6f7420616e206f776e657200000000000000000000000000000000000000005f82015250565b5f610e69600c83610e25565b9150610e7482610e35565b602082019050919050565b5f6020820190508181035f830152610e9681610e5d565b9050919050565b7f5472616e7366657220417070726f76616c2069732072656a65637465640000005f82015250565b5f610ed1601d83610e25565b9150610edc82610e9d565b602082019050919050565b5f6020820190508181035f830152610efe81610ec5565b9050919050565b7f4d7573742073656e7420746865207472616e73666572207265717565737400005f82015250565b5f610f39601e83610e25565b9150610f4482610f05565b602082019050919050565b5f6020820190508181035f830152610f6681610f2d565b9050919050565b7f4e487b71000000000000000000000000000000000000000000000000000000005f52601160045260245ffd5b5f610fa482610b3b565b91507fffffffffffffffffffffffffffffffffffffffffffffffffffffffffffffffff8203610fd657610fd5610f6d565b5b600182019050919050565b5f606082019050610ff45f830186610bf1565b6110016020830185610bf1565b61100e6040830184610bc9565b949350505050565b5f61102082610b3b565b915061102b83610b3b565b925082820190508082111561104357611042610f6d565b5b92915050565b5f819050919050565b5f61106c61106761106284610b99565b611049565b610b99565b9050919050565b5f61107d82611052565b9050919050565b5f61108e82611073565b9050919050565b61109e81611084565b82525050565b5f6080820190506110b75f830187610bf1565b6110c46020830186610bf1565b6110d16040830185610bc9565b6110de6060830184611095565b95945050505050565b5f6040820190506110fa5f830185610bc9565b6111076020830184610bf1565b939250505056fea2646970667358221220b6193a9ccf11d4f116014a577eeeb6384fb226872fa37b2248078a1fef4a3caf64736f6c63430008160033",
					"opcodes": "PUSH1 0x80 PUSH1 0x40 MSTORE CALLVALUE DUP1 ISZERO PUSH3 0x10 JUMPI PUSH0 DUP1 REVERT JUMPDEST POP PUSH1 0x40 MLOAD PUSH3 0x188E CODESIZE SUB DUP1 PUSH3 0x188E DUP4 CODECOPY DUP2 DUP2 ADD PUSH1 0x40 MSTORE DUP2 ADD SWAP1 PUSH3 0x36 SWAP2 SWAP1 PUSH3 0x4E3 JUMP JUMPDEST PUSH0 DUP3 MLOAD GT PUSH3 0x7C JUMPI PUSH1 0x40 MLOAD PUSH32 0x8C379A000000000000000000000000000000000000000000000000000000000 DUP2 MSTORE PUSH1 0x4 ADD PUSH3 0x73 SWAP1 PUSH3 0x5A5 JUMP JUMPDEST PUSH1 0x40 MLOAD DUP1 SWAP2 SUB SWAP1 REVERT JUMPDEST PUSH0 DUP2 GT DUP1 ISZERO PUSH3 0x8D JUMPI POP DUP2 MLOAD DUP2 GT ISZERO JUMPDEST PUSH3 0xCF JUMPI PUSH1 0x40 MLOAD PUSH32 0x8C379A000000000000000000000000000000000000000000000000000000000 DUP2 MSTORE PUSH1 0x4 ADD PUSH3 0xC6 SWAP1 PUSH3 0x613 JUMP JUMPDEST PUSH1 0x40 MLOAD DUP1 SWAP2 SUB SWAP1 REVERT JUMPDEST PUSH0 JUMPDEST DUP3 MLOAD DUP2 LT ISZERO PUSH3 0x2BD JUMPI PUSH0 DUP4 DUP3 DUP2 MLOAD DUP2 LT PUSH3 0xF2 JUMPI PUSH3 0xF1 PUSH3 0x633 JUMP JUMPDEST JUMPDEST PUSH1 0x20 MUL PUSH1 0x20 ADD ADD MLOAD SWAP1 POP PUSH0 PUSH20 0xFFFFFFFFFFFFFFFFFFFFFFFFFFFFFFFFFFFFFFFF AND DUP2 PUSH20 0xFFFFFFFFFFFFFFFFFFFFFFFFFFFFFFFFFFFFFFFF AND SUB PUSH3 0x16D JUMPI PUSH1 0x40 MLOAD PUSH32 0x8C379A000000000000000000000000000000000000000000000000000000000 DUP2 MSTORE PUSH1 0x4 ADD PUSH3 0x164 SWAP1 PUSH3 0x6AE JUMP JUMPDEST PUSH1 0x40 MLOAD DUP1 SWAP2 SUB SWAP1 REVERT JUMPDEST PUSH1 0x4 PUSH0 DUP3 PUSH20 0xFFFFFFFFFFFFFFFFFFFFFFFFFFFFFFFFFFFFFFFF AND PUSH20 0xFFFFFFFFFFFFFFFFFFFFFFFFFFFFFFFFFFFFFFFF AND DUP2 MSTORE PUSH1 0x20 ADD SWAP1 DUP2 MSTORE PUSH1 0x20 ADD PUSH0 KECCAK256 PUSH0 SWAP1 SLOAD SWAP1 PUSH2 0x100 EXP SWAP1 DIV PUSH1 0xFF AND ISZERO PUSH3 0x1FA JUMPI PUSH1 0x40 MLOAD PUSH32 0x8C379A000000000000000000000000000000000000000000000000000000000 DUP2 MSTORE PUSH1 0x4 ADD PUSH3 0x1F1 SWAP1 PUSH3 0x71C JUMP JUMPDEST PUSH1 0x40 MLOAD DUP1 SWAP2 SUB SWAP1 REVERT JUMPDEST PUSH1 0x1 PUSH1 0x4 PUSH0 DUP4 PUSH20 0xFFFFFFFFFFFFFFFFFFFFFFFFFFFFFFFFFFFFFFFF AND PUSH20 0xFFFFFFFFFFFFFFFFFFFFFFFFFFFFFFFFFFFFFFFF AND DUP2 MSTORE PUSH1 0x20 ADD SWAP1 DUP2 MSTORE PUSH1 0x20 ADD PUSH0 KECCAK256 PUSH0 PUSH2 0x100 EXP DUP2 SLOAD DUP2 PUSH1 0xFF MUL NOT AND SWAP1 DUP4 ISZERO ISZERO MUL OR SWAP1 SSTORE POP PUSH0 DUP2 SWAP1 DUP1 PUSH1 0x1 DUP2 SLOAD ADD DUP1 DUP3 SSTORE DUP1 SWAP2 POP POP PUSH1 0x1 SWAP1 SUB SWAP1 PUSH0 MSTORE PUSH1 0x20 PUSH0 KECCAK256 ADD PUSH0 SWAP1 SWAP2 SWAP1 SWAP2 SWAP1 SWAP2 PUSH2 0x100 EXP DUP2 SLOAD DUP2 PUSH20 0xFFFFFFFFFFFFFFFFFFFFFFFFFFFFFFFFFFFFFFFF MUL NOT AND SWAP1 DUP4 PUSH20 0xFFFFFFFFFFFFFFFFFFFFFFFFFFFFFFFFFFFFFFFF AND MUL OR SWAP1 SSTORE POP POP DUP1 DUP1 PUSH1 0x1 ADD SWAP2 POP POP PUSH3 0xD1 JUMP JUMPDEST POP DUP1 PUSH1 0x1 DUP2 SWAP1 SSTORE POP POP POP PUSH3 0x73C JUMP JUMPDEST PUSH0 PUSH1 0x40 MLOAD SWAP1 POP SWAP1 JUMP JUMPDEST PUSH0 DUP1 REVERT JUMPDEST PUSH0 DUP1 REVERT JUMPDEST PUSH0 DUP1 REVERT JUMPDEST PUSH0 PUSH1 0x1F NOT PUSH1 0x1F DUP4 ADD AND SWAP1 POP SWAP2 SWAP1 POP JUMP JUMPDEST PUSH32 0x4E487B7100000000000000000000000000000000000000000000000000000000 PUSH0 MSTORE PUSH1 0x41 PUSH1 0x4 MSTORE PUSH1 0x24 PUSH0 REVERT JUMPDEST PUSH3 0x32A DUP3 PUSH3 0x2E2 JUMP JUMPDEST DUP2 ADD DUP2 DUP2 LT PUSH8 0xFFFFFFFFFFFFFFFF DUP3 GT OR ISZERO PUSH3 0x34C JUMPI PUSH3 0x34B PUSH3 0x2F2 JUMP JUMPDEST JUMPDEST DUP1 PUSH1 0x40 MSTORE POP POP POP JUMP JUMPDEST PUSH0 PUSH3 0x360 PUSH3 0x2CD JUMP JUMPDEST SWAP1 POP PUSH3 0x36E DUP3 DUP3 PUSH3 0x31F JUMP JUMPDEST SWAP2 SWAP1 POP JUMP JUMPDEST PUSH0 PUSH8 0xFFFFFFFFFFFFFFFF DUP3 GT ISZERO PUSH3 0x390 JUMPI PUSH3 0x38F PUSH3 0x2F2 JUMP JUMPDEST JUMPDEST PUSH1 0x20 DUP3 MUL SWAP1 POP PUSH1 0x20 DUP2 ADD SWAP1 POP SWAP2 SWAP1 POP JUMP JUMPDEST PUSH0 DUP1 REVERT JUMPDEST PUSH0 PUSH20 0xFFFFFFFFFFFFFFFFFFFFFFFFFFFFFFFFFFFFFFFF DUP3 AND SWAP1 POP SWAP2 SWAP1 POP JUMP JUMPDEST PUSH0 PUSH3 0x3D0 DUP3 PUSH3 0x3A5 JUMP JUMPDEST SWAP1 POP SWAP2 SWAP1 POP JUMP JUMPDEST PUSH3 0x3E2 DUP2 PUSH3 0x3C4 JUMP JUMPDEST DUP2 EQ PUSH3 0x3ED JUMPI PUSH0 DUP1 REVERT JUMPDEST POP JUMP JUMPDEST PUSH0 DUP2 MLOAD SWAP1 POP PUSH3 0x400 DUP2 PUSH3 0x3D7 JUMP JUMPDEST SWAP3 SWAP2 POP POP JUMP JUMPDEST PUSH0 PUSH3 0x41C PUSH3 0x416 DUP5 PUSH3 0x373 JUMP JUMPDEST PUSH3 0x355 JUMP JUMPDEST SWAP1 POP DUP1 DUP4 DUP3 MSTORE PUSH1 0x20 DUP3 ADD SWAP1 POP PUSH1 0x20 DUP5 MUL DUP4 ADD DUP6 DUP2 GT ISZERO PUSH3 0x442 JUMPI PUSH3 0x441 PUSH3 0x3A1 JUMP JUMPDEST JUMPDEST DUP4 JUMPDEST DUP2 DUP2 LT ISZERO PUSH3 0x46F JUMPI DUP1 PUSH3 0x45A DUP9 DUP3 PUSH3 0x3F0 JUMP JUMPDEST DUP5 MSTORE PUSH1 0x20 DUP5 ADD SWAP4 POP POP PUSH1 0x20 DUP2 ADD SWAP1 POP PUSH3 0x444 JUMP JUMPDEST POP POP POP SWAP4 SWAP3 POP POP POP JUMP JUMPDEST PUSH0 DUP3 PUSH1 0x1F DUP4 ADD SLT PUSH3 0x490 JUMPI PUSH3 0x48F PUSH3 0x2DE JUMP JUMPDEST JUMPDEST DUP2 MLOAD PUSH3 0x4A2 DUP5 DUP3 PUSH1 0x20 DUP7 ADD PUSH3 0x406 JUMP JUMPDEST SWAP2 POP POP SWAP3 SWAP2 POP POP JUMP JUMPDEST PUSH0 DUP2 SWAP1 POP SWAP2 SWAP1 POP JUMP JUMPDEST PUSH3 0x4BF DUP2 PUSH3 0x4AB JUMP JUMPDEST DUP2 EQ PUSH3 0x4CA JUMPI PUSH0 DUP1 REVERT JUMPDEST POP JUMP JUMPDEST PUSH0 DUP2 MLOAD SWAP1 POP PUSH3 0x4DD DUP2 PUSH3 0x4B4 JUMP JUMPDEST SWAP3 SWAP2 POP POP JUMP JUMPDEST PUSH0 DUP1 PUSH1 0x40 DUP4 DUP6 SUB SLT ISZERO PUSH3 0x4FC JUMPI PUSH3 0x4FB PUSH3 0x2D6 JUMP JUMPDEST JUMPDEST PUSH0 DUP4 ADD MLOAD PUSH8 0xFFFFFFFFFFFFFFFF DUP2 GT ISZERO PUSH3 0x51C JUMPI PUSH3 0x51B PUSH3 0x2DA JUMP JUMPDEST JUMPDEST PUSH3 0x52A DUP6 DUP3 DUP7 ADD PUSH3 0x479 JUMP JUMPDEST SWAP3 POP POP PUSH1 0x20 PUSH3 0x53D DUP6 DUP3 DUP7 ADD PUSH3 0x4CD JUMP JUMPDEST SWAP2 POP POP SWAP3 POP SWAP3 SWAP1 POP JUMP JUMPDEST PUSH0 DUP3 DUP3 MSTORE PUSH1 0x20 DUP3 ADD SWAP1 POP SWAP3 SWAP2 POP POP JUMP JUMPDEST PUSH32 0x4F776E6572732072657175697265640000000000000000000000000000000000 PUSH0 DUP3 ADD MSTORE POP JUMP JUMPDEST PUSH0 PUSH3 0x58D PUSH1 0xF DUP4 PUSH3 0x547 JUMP JUMPDEST SWAP2 POP PUSH3 0x59A DUP3 PUSH3 0x557 JUMP JUMPDEST PUSH1 0x20 DUP3 ADD SWAP1 POP SWAP2 SWAP1 POP JUMP JUMPDEST PUSH0 PUSH1 0x20 DUP3 ADD SWAP1 POP DUP2 DUP2 SUB PUSH0 DUP4 ADD MSTORE PUSH3 0x5BE DUP2 PUSH3 0x57F JUMP JUMPDEST SWAP1 POP SWAP2 SWAP1 POP JUMP JUMPDEST PUSH32 0x496E76616C6964206E756D626572206F66207369676E61747572657300000000 PUSH0 DUP3 ADD MSTORE POP JUMP JUMPDEST PUSH0 PUSH3 0x5FB PUSH1 0x1C DUP4 PUSH3 0x547 JUMP JUMPDEST SWAP2 POP PUSH3 0x608 DUP3 PUSH3 0x5C5 JUMP JUMPDEST PUSH1 0x20 DUP3 ADD SWAP1 POP SWAP2 SWAP1 POP JUMP JUMPDEST PUSH0 PUSH1 0x20 DUP3 ADD SWAP1 POP DUP2 DUP2 SUB PUSH0 DUP4 ADD MSTORE PUSH3 0x62C DUP2 PUSH3 0x5ED JUMP JUMPDEST SWAP1 POP SWAP2 SWAP1 POP JUMP JUMPDEST PUSH32 0x4E487B7100000000000000000000000000000000000000000000000000000000 PUSH0 MSTORE PUSH1 0x32 PUSH1 0x4 MSTORE PUSH1 0x24 PUSH0 REVERT JUMPDEST PUSH32 0x496E76616C6964206F776E657200000000000000000000000000000000000000 PUSH0 DUP3 ADD MSTORE POP JUMP JUMPDEST PUSH0 PUSH3 0x696 PUSH1 0xD DUP4 PUSH3 0x547 JUMP JUMPDEST SWAP2 POP PUSH3 0x6A3 DUP3 PUSH3 0x660 JUMP JUMPDEST PUSH1 0x20 DUP3 ADD SWAP1 POP SWAP2 SWAP1 POP JUMP JUMPDEST PUSH0 PUSH1 0x20 DUP3 ADD SWAP1 POP DUP2 DUP2 SUB PUSH0 DUP4 ADD MSTORE PUSH3 0x6C7 DUP2 PUSH3 0x688 JUMP JUMPDEST SWAP1 POP SWAP2 SWAP1 POP JUMP JUMPDEST PUSH32 0x6F776E6572206973206E6F7420616C6C6F776564000000000000000000000000 PUSH0 DUP3 ADD MSTORE POP JUMP JUMPDEST PUSH0 PUSH3 0x704 PUSH1 0x14 DUP4 PUSH3 0x547 JUMP JUMPDEST SWAP2 POP PUSH3 0x711 DUP3 PUSH3 0x6CE JUMP JUMPDEST PUSH1 0x20 DUP3 ADD SWAP1 POP SWAP2 SWAP1 POP JUMP JUMPDEST PUSH0 PUSH1 0x20 DUP3 ADD SWAP1 POP DUP2 DUP2 SUB PUSH0 DUP4 ADD MSTORE PUSH3 0x735 DUP2 PUSH3 0x6F6 JUMP JUMPDEST SWAP1 POP SWAP2 SWAP1 POP JUMP JUMPDEST PUSH2 0x1144 DUP1 PUSH3 0x74A PUSH0 CODECOPY PUSH0 RETURN INVALID PUSH1 0x80 PUSH1 0x40 MSTORE PUSH1 0x4 CALLDATASIZE LT PUSH2 0x6F JUMPI PUSH0 CALLDATALOAD PUSH1 0xE0 SHR DUP1 PUSH4 0x329A27E7 GT PUSH2 0x4D JUMPI DUP1 PUSH4 0x329A27E7 EQ PUSH2 0x101 JUMPI DUP1 PUSH4 0x4C12FA47 EQ PUSH2 0x12B JUMPI DUP1 PUSH4 0x8D0D8CB6 EQ PUSH2 0x153 JUMPI DUP1 PUSH4 0xA04EF145 EQ PUSH2 0x15D JUMPI PUSH2 0x6F JUMP JUMPDEST DUP1 PUSH4 0x25E7C27 EQ PUSH2 0x73 JUMPI DUP1 PUSH4 0x12065FE0 EQ PUSH2 0xAF JUMPI DUP1 PUSH4 0x1F1E1295 EQ PUSH2 0xD9 JUMPI JUMPDEST PUSH0 DUP1 REVERT JUMPDEST CALLVALUE DUP1 ISZERO PUSH2 0x7E JUMPI PUSH0 DUP1 REVERT JUMPDEST POP PUSH2 0x99 PUSH1 0x4 DUP1 CALLDATASIZE SUB DUP2 ADD SWAP1 PUSH2 0x94 SWAP2 SWAP1 PUSH2 0xB6E JUMP JUMPDEST PUSH2 0x187 JUMP JUMPDEST PUSH1 0x40 MLOAD PUSH2 0xA6 SWAP2 SWAP1 PUSH2 0xBD8 JUMP JUMPDEST PUSH1 0x40 MLOAD DUP1 SWAP2 SUB SWAP1 RETURN JUMPDEST CALLVALUE DUP1 ISZERO PUSH2 0xBA JUMPI PUSH0 DUP1 REVERT JUMPDEST POP PUSH2 0xC3 PUSH2 0x1C1 JUMP JUMPDEST PUSH1 0x40 MLOAD PUSH2 0xD0 SWAP2 SWAP1 PUSH2 0xC00 JUMP JUMPDEST PUSH1 0x40 MLOAD DUP1 SWAP2 SUB SWAP1 RETURN JUMPDEST CALLVALUE DUP1 ISZERO PUSH2 0xE4 JUMPI PUSH0 DUP1 REVERT JUMPDEST POP PUSH2 0xFF PUSH1 0x4 DUP1 CALLDATASIZE SUB DUP2 ADD SWAP1 PUSH2 0xFA SWAP2 SWAP1 PUSH2 0xB6E JUMP JUMPDEST PUSH2 0x205 JUMP JUMPDEST STOP JUMPDEST CALLVALUE DUP1 ISZERO PUSH2 0x10C JUMPI PUSH0 DUP1 REVERT JUMPDEST POP PUSH2 0x115 PUSH2 0x631 JUMP JUMPDEST PUSH1 0x40 MLOAD PUSH2 0x122 SWAP2 SWAP1 PUSH2 0xC00 JUMP JUMPDEST PUSH1 0x40 MLOAD DUP1 SWAP2 SUB SWAP1 RETURN JUMPDEST CALLVALUE DUP1 ISZERO PUSH2 0x136 JUMPI PUSH0 DUP1 REVERT JUMPDEST POP PUSH2 0x151 PUSH1 0x4 DUP1 CALLDATASIZE SUB DUP2 ADD SWAP1 PUSH2 0x14C SWAP2 SWAP1 PUSH2 0xC54 JUMP JUMPDEST PUSH2 0x6DE JUMP JUMPDEST STOP JUMPDEST PUSH2 0x15B PUSH2 0x8EA JUMP JUMPDEST STOP JUMPDEST CALLVALUE DUP1 ISZERO PUSH2 0x168 JUMPI PUSH0 DUP1 REVERT JUMPDEST POP PUSH2 0x171 PUSH2 0xA4F JUMP JUMPDEST PUSH1 0x40 MLOAD PUSH2 0x17E SWAP2 SWAP1 PUSH2 0xDD8 JUMP JUMPDEST PUSH1 0x40 MLOAD DUP1 SWAP2 SUB SWAP1 RETURN JUMPDEST PUSH0 DUP2 DUP2 SLOAD DUP2 LT PUSH2 0x195 JUMPI PUSH0 DUP1 REVERT JUMPDEST SWAP1 PUSH0 MSTORE PUSH1 0x20 PUSH0 KECCAK256 ADD PUSH0 SWAP2 POP SLOAD SWAP1 PUSH2 0x100 EXP SWAP1 DIV PUSH20 0xFFFFFFFFFFFFFFFFFFFFFFFFFFFFFFFFFFFFFFFF AND DUP2 JUMP JUMPDEST PUSH0 PUSH1 0x5 PUSH0 CALLER PUSH20 0xFFFFFFFFFFFFFFFFFFFFFFFFFFFFFFFFFFFFFFFF AND PUSH20 0xFFFFFFFFFFFFFFFFFFFFFFFFFFFFFFFFFFFFFFFF AND DUP2 MSTORE PUSH1 0x20 ADD SWAP1 DUP2 MSTORE PUSH1 0x20 ADD PUSH0 KECCAK256 SLOAD SWAP1 POP SWAP1 JUMP JUMPDEST PUSH0 DUP1 JUMPDEST PUSH0 DUP1 SLOAD SWAP1 POP DUP2 LT ISZERO PUSH2 0x293 JUMPI CALLER PUSH20 0xFFFFFFFFFFFFFFFFFFFFFFFFFFFFFFFFFFFFFFFF AND PUSH0 DUP3 DUP2 SLOAD DUP2 LT PUSH2 0x23E JUMPI PUSH2 0x23D PUSH2 0xDF8 JUMP JUMPDEST JUMPDEST SWAP1 PUSH0 MSTORE PUSH1 0x20 PUSH0 KECCAK256 ADD PUSH0 SWAP1 SLOAD SWAP1 PUSH2 0x100 EXP SWAP1 DIV PUSH20 0xFFFFFFFFFFFFFFFFFFFFFFFFFFFFFFFFFFFFFFFF AND PUSH20 0xFFFFFFFFFFFFFFFFFFFFFFFFFFFFFFFFFFFFFFFF AND SUB PUSH2 0x286 JUMPI PUSH1 0x1 SWAP2 POP JUMPDEST DUP1 DUP1 PUSH1 0x1 ADD SWAP2 POP POP PUSH2 0x208 JUMP JUMPDEST POP PUSH1 0x1 ISZERO ISZERO DUP2 ISZERO ISZERO EQ PUSH2 0x2DB JUMPI PUSH1 0x40 MLOAD PUSH32 0x8C379A000000000000000000000000000000000000000000000000000000000 DUP2 MSTORE PUSH1 0x4 ADD PUSH2 0x2D2 SWAP1 PUSH2 0xE7F JUMP JUMPDEST PUSH1 0x40 MLOAD DUP1 SWAP2 SUB SWAP1 REVERT JUMPDEST PUSH0 ISZERO ISZERO PUSH1 0x3 PUSH0 CALLER PUSH20 0xFFFFFFFFFFFFFFFFFFFFFFFFFFFFFFFFFFFFFFFF AND PUSH20 0xFFFFFFFFFFFFFFFFFFFFFFFFFFFFFFFFFFFFFFFF AND DUP2 MSTORE PUSH1 0x20 ADD SWAP1 DUP2 MSTORE PUSH1 0x20 ADD PUSH0 KECCAK256 PUSH0 DUP5 DUP2 MSTORE PUSH1 0x20 ADD SWAP1 DUP2 MSTORE PUSH1 0x20 ADD PUSH0 KECCAK256 PUSH0 SWAP1 SLOAD SWAP1 PUSH2 0x100 EXP SWAP1 DIV PUSH1 0xFF AND ISZERO ISZERO EQ PUSH2 0x379 JUMPI PUSH1 0x40 MLOAD PUSH32 0x8C379A000000000000000000000000000000000000000000000000000000000 DUP2 MSTORE PUSH1 0x4 ADD PUSH2 0x370 SWAP1 PUSH2 0xEE7 JUMP JUMPDEST PUSH1 0x40 MLOAD DUP1 SWAP2 SUB SWAP1 REVERT JUMPDEST PUSH0 ISZERO ISZERO PUSH1 0x2 DUP4 DUP2 SLOAD DUP2 LT PUSH2 0x390 JUMPI PUSH2 0x38F PUSH2 0xDF8 JUMP JUMPDEST JUMPDEST SWAP1 PUSH0 MSTORE PUSH1 0x20 PUSH0 KECCAK256 SWAP1 PUSH1 0x5 MUL ADD PUSH1 0x4 ADD PUSH0 SWAP1 SLOAD SWAP1 PUSH2 0x100 EXP SWAP1 DIV PUSH1 0xFF AND ISZERO ISZERO EQ PUSH2 0x3EE JUMPI PUSH1 0x40 MLOAD PUSH32 0x8C379A000000000000000000000000000000000000000000000000000000000 DUP2 MSTORE PUSH1 0x4 ADD PUSH2 0x3E5 SWAP1 PUSH2 0xF4F JUMP JUMPDEST PUSH1 0x40 MLOAD DUP1 SWAP2 SUB SWAP1 REVERT JUMPDEST PUSH1 0x1 PUSH1 0x3 PUSH0 CALLER PUSH20 0xFFFFFFFFFFFFFFFFFFFFFFFFFFFFFFFFFFFFFFFF AND PUSH20 0xFFFFFFFFFFFFFFFFFFFFFFFFFFFFFFFFFFFFFFFF AND DUP2 MSTORE PUSH1 0x20 ADD SWAP1 DUP2 MSTORE PUSH1 0x20 ADD PUSH0 KECCAK256 PUSH0 DUP5 DUP2 MSTORE PUSH1 0x20 ADD SWAP1 DUP2 MSTORE PUSH1 0x20 ADD PUSH0 KECCAK256 PUSH0 PUSH2 0x100 EXP DUP2 SLOAD DUP2 PUSH1 0xFF MUL NOT AND SWAP1 DUP4 ISZERO ISZERO MUL OR SWAP1 SSTORE POP PUSH1 0x2 DUP3 DUP2 SLOAD DUP2 LT PUSH2 0x466 JUMPI PUSH2 0x465 PUSH2 0xDF8 JUMP JUMPDEST JUMPDEST SWAP1 PUSH0 MSTORE PUSH1 0x20 PUSH0 KECCAK256 SWAP1 PUSH1 0x5 MUL ADD PUSH0 ADD PUSH0 DUP2 SLOAD DUP1 SWAP3 SWAP2 SWAP1 PUSH2 0x484 SWAP1 PUSH2 0xF9A JUMP JUMPDEST SWAP2 SWAP1 POP SSTORE POP PUSH32 0xAF7140A50D53D80DB2D043FB8F79454A19799336E888A4036BC8C487901FB915 DUP3 PUSH1 0x2 DUP5 DUP2 SLOAD DUP2 LT PUSH2 0x4BF JUMPI PUSH2 0x4BE PUSH2 0xDF8 JUMP JUMPDEST JUMPDEST SWAP1 PUSH0 MSTORE PUSH1 0x20 PUSH0 KECCAK256 SWAP1 PUSH1 0x5 MUL ADD PUSH0 ADD SLOAD CALLER PUSH1 0x40 MLOAD PUSH2 0x4DE SWAP4 SWAP3 SWAP2 SWAP1 PUSH2 0xFE1 JUMP JUMPDEST PUSH1 0x40 MLOAD DUP1 SWAP2 SUB SWAP1 LOG1 PUSH1 0x1 SLOAD PUSH1 0x2 DUP4 DUP2 SLOAD DUP2 LT PUSH2 0x4FD JUMPI PUSH2 0x4FC PUSH2 0xDF8 JUMP JUMPDEST JUMPDEST SWAP1 PUSH0 MSTORE PUSH1 0x20 PUSH0 KECCAK256 SWAP1 PUSH1 0x5 MUL ADD PUSH0 ADD SLOAD LT PUSH2 0x62D JUMPI PUSH1 0x1 PUSH1 0x2 DUP4 DUP2 SLOAD DUP2 LT PUSH2 0x527 JUMPI PUSH2 0x526 PUSH2 0xDF8 JUMP JUMPDEST JUMPDEST SWAP1 PUSH0 MSTORE PUSH1 0x20 PUSH0 KECCAK256 SWAP1 PUSH1 0x5 MUL ADD PUSH1 0x4 ADD PUSH0 PUSH2 0x100 EXP DUP2 SLOAD DUP2 PUSH1 0xFF MUL NOT AND SWAP1 DUP4 ISZERO ISZERO MUL OR SWAP1 SSTORE POP PUSH1 0x2 DUP3 DUP2 SLOAD DUP2 LT PUSH2 0x560 JUMPI PUSH2 0x55F PUSH2 0xDF8 JUMP JUMPDEST JUMPDEST SWAP1 PUSH0 MSTORE PUSH1 0x20 PUSH0 KECCAK256 SWAP1 PUSH1 0x5 MUL ADD PUSH1 0x1 ADD PUSH0 SWAP1 SLOAD SWAP1 PUSH2 0x100 EXP SWAP1 DIV PUSH20 0xFFFFFFFFFFFFFFFFFFFFFFFFFFFFFFFFFFFFFFFF AND PUSH20 0xFFFFFFFFFFFFFFFFFFFFFFFFFFFFFFFFFFFFFFFF AND PUSH2 0x8FC PUSH1 0x2 DUP5 DUP2 SLOAD DUP2 LT PUSH2 0x5BC JUMPI PUSH2 0x5BB PUSH2 0xDF8 JUMP JUMPDEST JUMPDEST SWAP1 PUSH0 MSTORE PUSH1 0x20 PUSH0 KECCAK256 SWAP1 PUSH1 0x5 MUL ADD PUSH1 0x2 ADD SLOAD SWAP1 DUP2 ISZERO MUL SWAP1 PUSH1 0x40 MLOAD PUSH0 PUSH1 0x40 MLOAD DUP1 DUP4 SUB DUP2 DUP6 DUP9 DUP9 CALL SWAP4 POP POP POP POP ISZERO DUP1 ISZERO PUSH2 0x5F4 JUMPI RETURNDATASIZE PUSH0 DUP1 RETURNDATACOPY RETURNDATASIZE PUSH0 REVERT JUMPDEST POP PUSH32 0xD9BBF1D8BEF570B7E92EF1BA025425FC15915AE01F3D3BE144CDC8BE05442EB5 DUP3 PUSH1 0x40 MLOAD PUSH2 0x624 SWAP2 SWAP1 PUSH2 0xC00 JUMP JUMPDEST PUSH1 0x40 MLOAD DUP1 SWAP2 SUB SWAP1 LOG1 JUMPDEST POP POP JUMP JUMPDEST PUSH0 DUP1 PUSH0 SWAP1 POP PUSH0 JUMPDEST PUSH0 DUP1 SLOAD SWAP1 POP DUP2 LT ISZERO PUSH2 0x6D6 JUMPI PUSH1 0x5 PUSH0 DUP1 DUP4 DUP2 SLOAD DUP2 LT PUSH2 0x65A JUMPI PUSH2 0x659 PUSH2 0xDF8 JUMP JUMPDEST JUMPDEST SWAP1 PUSH0 MSTORE PUSH1 0x20 PUSH0 KECCAK256 ADD PUSH0 SWAP1 SLOAD SWAP1 PUSH2 0x100 EXP SWAP1 DIV PUSH20 0xFFFFFFFFFFFFFFFFFFFFFFFFFFFFFFFFFFFFFFFF AND PUSH20 0xFFFFFFFFFFFFFFFFFFFFFFFFFFFFFFFFFFFFFFFF AND PUSH20 0xFFFFFFFFFFFFFFFFFFFFFFFFFFFFFFFFFFFFFFFF AND DUP2 MSTORE PUSH1 0x20 ADD SWAP1 DUP2 MSTORE PUSH1 0x20 ADD PUSH0 KECCAK256 SLOAD DUP3 PUSH2 0x6C7 SWAP2 SWAP1 PUSH2 0x1016 JUMP JUMPDEST SWAP2 POP DUP1 DUP1 PUSH1 0x1 ADD SWAP2 POP POP PUSH2 0x638 JUMP JUMPDEST POP DUP1 SWAP2 POP POP SWAP1 JUMP JUMPDEST PUSH0 DUP1 JUMPDEST PUSH0 DUP1 SLOAD SWAP1 POP DUP2 LT ISZERO PUSH2 0x76C JUMPI CALLER PUSH20 0xFFFFFFFFFFFFFFFFFFFFFFFFFFFFFFFFFFFFFFFF AND PUSH0 DUP3 DUP2 SLOAD DUP2 LT PUSH2 0x717 JUMPI PUSH2 0x716 PUSH2 0xDF8 JUMP JUMPDEST JUMPDEST SWAP1 PUSH0 MSTORE PUSH1 0x20 PUSH0 KECCAK256 ADD PUSH0 SWAP1 SLOAD SWAP1 PUSH2 0x100 EXP SWAP1 DIV PUSH20 0xFFFFFFFFFFFFFFFFFFFFFFFFFFFFFFFFFFFFFFFF AND PUSH20 0xFFFFFFFFFFFFFFFFFFFFFFFFFFFFFFFFFFFFFFFF AND SUB PUSH2 0x75F JUMPI PUSH1 0x1 SWAP2 POP JUMPDEST DUP1 DUP1 PUSH1 0x1 ADD SWAP2 POP POP PUSH2 0x6E1 JUMP JUMPDEST POP PUSH1 0x1 ISZERO ISZERO DUP2 ISZERO ISZERO EQ PUSH2 0x7B4 JUMPI PUSH1 0x40 MLOAD PUSH32 0x8C379A000000000000000000000000000000000000000000000000000000000 DUP2 MSTORE PUSH1 0x4 ADD PUSH2 0x7AB SWAP1 PUSH2 0xE7F JUMP JUMPDEST PUSH1 0x40 MLOAD DUP1 SWAP2 SUB SWAP1 REVERT JUMPDEST PUSH32 0x99C4EC4ECFC26F7C8B27AEEE5443F92120FA2C4E91BA6020369AE71A4D44278 PUSH1 0x2 DUP1 SLOAD SWAP1 POP DUP5 CALLER DUP6 PUSH1 0x40 MLOAD PUSH2 0x7EE SWAP5 SWAP4 SWAP3 SWAP2 SWAP1 PUSH2 0x10A4 JUMP JUMPDEST PUSH1 0x40 MLOAD DUP1 SWAP2 SUB SWAP1 LOG1 PUSH1 0x2 PUSH1 0x40 MLOAD DUP1 PUSH1 0xA0 ADD PUSH1 0x40 MSTORE DUP1 PUSH0 DUP2 MSTORE PUSH1 0x20 ADD DUP5 PUSH20 0xFFFFFFFFFFFFFFFFFFFFFFFFFFFFFFFFFFFFFFFF AND DUP2 MSTORE PUSH1 0x20 ADD DUP6 DUP2 MSTORE PUSH1 0x20 ADD PUSH1 0x2 DUP1 SLOAD SWAP1 POP DUP2 MSTORE PUSH1 0x20 ADD PUSH0 ISZERO ISZERO DUP2 MSTORE POP SWAP1 DUP1 PUSH1 0x1 DUP2 SLOAD ADD DUP1 DUP3 SSTORE DUP1 SWAP2 POP POP PUSH1 0x1 SWAP1 SUB SWAP1 PUSH0 MSTORE PUSH1 0x20 PUSH0 KECCAK256 SWAP1 PUSH1 0x5 MUL ADD PUSH0 SWAP1 SWAP2 SWAP1 SWAP2 SWAP1 SWAP2 POP PUSH0 DUP3 ADD MLOAD DUP2 PUSH0 ADD SSTORE PUSH1 0x20 DUP3 ADD MLOAD DUP2 PUSH1 0x1 ADD PUSH0 PUSH2 0x100 EXP DUP2 SLOAD DUP2 PUSH20 0xFFFFFFFFFFFFFFFFFFFFFFFFFFFFFFFFFFFFFFFF MUL NOT AND SWAP1 DUP4 PUSH20 0xFFFFFFFFFFFFFFFFFFFFFFFFFFFFFFFFFFFFFFFF AND MUL OR SWAP1 SSTORE POP PUSH1 0x40 DUP3 ADD MLOAD DUP2 PUSH1 0x2 ADD SSTORE PUSH1 0x60 DUP3 ADD MLOAD DUP2 PUSH1 0x3 ADD SSTORE PUSH1 0x80 DUP3 ADD MLOAD DUP2 PUSH1 0x4 ADD PUSH0 PUSH2 0x100 EXP DUP2 SLOAD DUP2 PUSH1 0xFF MUL NOT AND SWAP1 DUP4 ISZERO ISZERO MUL OR SWAP1 SSTORE POP POP POP POP POP POP JUMP JUMPDEST PUSH0 DUP1 JUMPDEST PUSH0 DUP1 SLOAD SWAP1 POP DUP2 LT ISZERO PUSH2 0x978 JUMPI CALLER PUSH20 0xFFFFFFFFFFFFFFFFFFFFFFFFFFFFFFFFFFFFFFFF AND PUSH0 DUP3 DUP2 SLOAD DUP2 LT PUSH2 0x923 JUMPI PUSH2 0x922 PUSH2 0xDF8 JUMP JUMPDEST JUMPDEST SWAP1 PUSH0 MSTORE PUSH1 0x20 PUSH0 KECCAK256 ADD PUSH0 SWAP1 SLOAD SWAP1 PUSH2 0x100 EXP SWAP1 DIV PUSH20 0xFFFFFFFFFFFFFFFFFFFFFFFFFFFFFFFFFFFFFFFF AND PUSH20 0xFFFFFFFFFFFFFFFFFFFFFFFFFFFFFFFFFFFFFFFF AND SUB PUSH2 0x96B JUMPI PUSH1 0x1 SWAP2 POP JUMPDEST DUP1 DUP1 PUSH1 0x1 ADD SWAP2 POP POP PUSH2 0x8ED JUMP JUMPDEST POP PUSH1 0x1 ISZERO ISZERO DUP2 ISZERO ISZERO EQ PUSH2 0x9C0 JUMPI PUSH1 0x40 MLOAD PUSH32 0x8C379A000000000000000000000000000000000000000000000000000000000 DUP2 MSTORE PUSH1 0x4 ADD PUSH2 0x9B7 SWAP1 PUSH2 0xE7F JUMP JUMPDEST PUSH1 0x40 MLOAD DUP1 SWAP2 SUB SWAP1 REVERT JUMPDEST CALLVALUE PUSH1 0x5 PUSH0 CALLER PUSH20 0xFFFFFFFFFFFFFFFFFFFFFFFFFFFFFFFFFFFFFFFF AND PUSH20 0xFFFFFFFFFFFFFFFFFFFFFFFFFFFFFFFFFFFFFFFF AND DUP2 MSTORE PUSH1 0x20 ADD SWAP1 DUP2 MSTORE PUSH1 0x20 ADD PUSH0 KECCAK256 PUSH0 DUP3 DUP3 SLOAD PUSH2 0xA0C SWAP2 SWAP1 PUSH2 0x1016 JUMP JUMPDEST SWAP3 POP POP DUP2 SWAP1 SSTORE POP PUSH32 0x64BC4FA244140A0E75B75244F4F67E55E5B1C59DD9C7082BCEDD794AC5100013 CALLER CALLVALUE PUSH1 0x40 MLOAD PUSH2 0xA44 SWAP3 SWAP2 SWAP1 PUSH2 0x10E7 JUMP JUMPDEST PUSH1 0x40 MLOAD DUP1 SWAP2 SUB SWAP1 LOG1 POP JUMP JUMPDEST PUSH1 0x60 PUSH1 0x2 DUP1 SLOAD DUP1 PUSH1 0x20 MUL PUSH1 0x20 ADD PUSH1 0x40 MLOAD SWAP1 DUP2 ADD PUSH1 0x40 MSTORE DUP1 SWAP3 SWAP2 SWAP1 DUP2 DUP2 MSTORE PUSH1 0x20 ADD PUSH0 SWAP1 JUMPDEST DUP3 DUP3 LT ISZERO PUSH2 0xB2E JUMPI DUP4 DUP3 SWAP1 PUSH0 MSTORE PUSH1 0x20 PUSH0 KECCAK256 SWAP1 PUSH1 0x5 MUL ADD PUSH1 0x40 MLOAD DUP1 PUSH1 0xA0 ADD PUSH1 0x40 MSTORE SWAP1 DUP2 PUSH0 DUP3 ADD SLOAD DUP2 MSTORE PUSH1 0x20 ADD PUSH1 0x1 DUP3 ADD PUSH0 SWAP1 SLOAD SWAP1 PUSH2 0x100 EXP SWAP1 DIV PUSH20 0xFFFFFFFFFFFFFFFFFFFFFFFFFFFFFFFFFFFFFFFF AND PUSH20 0xFFFFFFFFFFFFFFFFFFFFFFFFFFFFFFFFFFFFFFFF AND PUSH20 0xFFFFFFFFFFFFFFFFFFFFFFFFFFFFFFFFFFFFFFFF AND DUP2 MSTORE PUSH1 0x20 ADD PUSH1 0x2 DUP3 ADD SLOAD DUP2 MSTORE PUSH1 0x20 ADD PUSH1 0x3 DUP3 ADD SLOAD DUP2 MSTORE PUSH1 0x20 ADD PUSH1 0x4 DUP3 ADD PUSH0 SWAP1 SLOAD SWAP1 PUSH2 0x100 EXP SWAP1 DIV PUSH1 0xFF AND ISZERO ISZERO ISZERO ISZERO DUP2 MSTORE POP POP DUP2 MSTORE PUSH1 0x20 ADD SWAP1 PUSH1 0x1 ADD SWAP1 PUSH2 0xA72 JUMP JUMPDEST POP POP POP POP SWAP1 POP SWAP1 JUMP JUMPDEST PUSH0 DUP1 REVERT JUMPDEST PUSH0 DUP2 SWAP1 POP SWAP2 SWAP1 POP JUMP JUMPDEST PUSH2 0xB4D DUP2 PUSH2 0xB3B JUMP JUMPDEST DUP2 EQ PUSH2 0xB57 JUMPI PUSH0 DUP1 REVERT JUMPDEST POP JUMP JUMPDEST PUSH0 DUP2 CALLDATALOAD SWAP1 POP PUSH2 0xB68 DUP2 PUSH2 0xB44 JUMP JUMPDEST SWAP3 SWAP2 POP POP JUMP JUMPDEST PUSH0 PUSH1 0x20 DUP3 DUP5 SUB SLT ISZERO PUSH2 0xB83 JUMPI PUSH2 0xB82 PUSH2 0xB37 JUMP JUMPDEST JUMPDEST PUSH0 PUSH2 0xB90 DUP5 DUP3 DUP6 ADD PUSH2 0xB5A JUMP JUMPDEST SWAP2 POP POP SWAP3 SWAP2 POP POP JUMP JUMPDEST PUSH0 PUSH20 0xFFFFFFFFFFFFFFFFFFFFFFFFFFFFFFFFFFFFFFFF DUP3 AND SWAP1 POP SWAP2 SWAP1 POP JUMP JUMPDEST PUSH0 PUSH2 0xBC2 DUP3 PUSH2 0xB99 JUMP JUMPDEST SWAP1 POP SWAP2 SWAP1 POP JUMP JUMPDEST PUSH2 0xBD2 DUP2 PUSH2 0xBB8 JUMP JUMPDEST DUP3 MSTORE POP POP JUMP JUMPDEST PUSH0 PUSH1 0x20 DUP3 ADD SWAP1 POP PUSH2 0xBEB PUSH0 DUP4 ADD DUP5 PUSH2 0xBC9 JUMP JUMPDEST SWAP3 SWAP2 POP POP JUMP JUMPDEST PUSH2 0xBFA DUP2 PUSH2 0xB3B JUMP JUMPDEST DUP3 MSTORE POP POP JUMP JUMPDEST PUSH0 PUSH1 0x20 DUP3 ADD SWAP1 POP PUSH2 0xC13 PUSH0 DUP4 ADD DUP5 PUSH2 0xBF1 JUMP JUMPDEST SWAP3 SWAP2 POP POP JUMP JUMPDEST PUSH0 PUSH2 0xC23 DUP3 PUSH2 0xB99 JUMP JUMPDEST SWAP1 POP SWAP2 SWAP1 POP JUMP JUMPDEST PUSH2 0xC33 DUP2 PUSH2 0xC19 JUMP JUMPDEST DUP2 EQ PUSH2 0xC3D JUMPI PUSH0 DUP1 REVERT JUMPDEST POP JUMP JUMPDEST PUSH0 DUP2 CALLDATALOAD SWAP1 POP PUSH2 0xC4E DUP2 PUSH2 0xC2A JUMP JUMPDEST SWAP3 SWAP2 POP POP JUMP JUMPDEST PUSH0 DUP1 PUSH1 0x40 DUP4 DUP6 SUB SLT ISZERO PUSH2 0xC6A JUMPI PUSH2 0xC69 PUSH2 0xB37 JUMP JUMPDEST JUMPDEST PUSH0 PUSH2 0xC77 DUP6 DUP3 DUP7 ADD PUSH2 0xB5A JUMP JUMPDEST SWAP3 POP POP PUSH1 0x20 PUSH2 0xC88 DUP6 DUP3 DUP7 ADD PUSH2 0xC40 JUMP JUMPDEST SWAP2 POP POP SWAP3 POP SWAP3 SWAP1 POP JUMP JUMPDEST PUSH0 DUP2 MLOAD SWAP1 POP SWAP2 SWAP1 POP JUMP JUMPDEST PUSH0 DUP3 DUP3 MSTORE PUSH1 0x20 DUP3 ADD SWAP1 POP SWAP3 SWAP2 POP POP JUMP JUMPDEST PUSH0 DUP2 SWAP1 POP PUSH1 0x20 DUP3 ADD SWAP1 POP SWAP2 SWAP1 POP JUMP JUMPDEST PUSH2 0xCC4 DUP2 PUSH2 0xB3B JUMP JUMPDEST DUP3 MSTORE POP POP JUMP JUMPDEST PUSH2 0xCD3 DUP2 PUSH2 0xBB8 JUMP JUMPDEST DUP3 MSTORE POP POP JUMP JUMPDEST PUSH0 DUP2 ISZERO ISZERO SWAP1 POP SWAP2 SWAP1 POP JUMP JUMPDEST PUSH2 0xCED DUP2 PUSH2 0xCD9 JUMP JUMPDEST DUP3 MSTORE POP POP JUMP JUMPDEST PUSH1 0xA0 DUP3 ADD PUSH0 DUP3 ADD MLOAD PUSH2 0xD07 PUSH0 DUP6 ADD DUP3 PUSH2 0xCBB JUMP JUMPDEST POP PUSH1 0x20 DUP3 ADD MLOAD PUSH2 0xD1A PUSH1 0x20 DUP6 ADD DUP3 PUSH2 0xCCA JUMP JUMPDEST POP PUSH1 0x40 DUP3 ADD MLOAD PUSH2 0xD2D PUSH1 0x40 DUP6 ADD DUP3 PUSH2 0xCBB JUMP JUMPDEST POP PUSH1 0x60 DUP3 ADD MLOAD PUSH2 0xD40 PUSH1 0x60 DUP6 ADD DUP3 PUSH2 0xCBB JUMP JUMPDEST POP PUSH1 0x80 DUP3 ADD MLOAD PUSH2 0xD53 PUSH1 0x80 DUP6 ADD DUP3 PUSH2 0xCE4 JUMP JUMPDEST POP POP POP POP JUMP JUMPDEST PUSH0 PUSH2 0xD64 DUP4 DUP4 PUSH2 0xCF3 JUMP JUMPDEST PUSH1 0xA0 DUP4 ADD SWAP1 POP SWAP3 SWAP2 POP POP JUMP JUMPDEST PUSH0 PUSH1 0x20 DUP3 ADD SWAP1 POP SWAP2 SWAP1 POP JUMP JUMPDEST PUSH0 PUSH2 0xD86 DUP3 PUSH2 0xC92 JUMP JUMPDEST PUSH2 0xD90 DUP2 DUP6 PUSH2 0xC9C JUMP JUMPDEST SWAP4 POP PUSH2 0xD9B DUP4 PUSH2 0xCAC JUMP JUMPDEST DUP1 PUSH0 JUMPDEST DUP4 DUP2 LT ISZERO PUSH2 0xDCB JUMPI DUP2 MLOAD PUSH2 0xDB2 DUP9 DUP3 PUSH2 0xD59 JUMP JUMPDEST SWAP8 POP PUSH2 0xDBD DUP4 PUSH2 0xD70 JUMP JUMPDEST SWAP3 POP POP PUSH1 0x1 DUP2 ADD SWAP1 POP PUSH2 0xD9E JUMP JUMPDEST POP DUP6 SWAP4 POP POP POP POP SWAP3 SWAP2 POP POP JUMP JUMPDEST PUSH0 PUSH1 0x20 DUP3 ADD SWAP1 POP DUP2 DUP2 SUB PUSH0 DUP4 ADD MSTORE PUSH2 0xDF0 DUP2 DUP5 PUSH2 0xD7C JUMP JUMPDEST SWAP1 POP SWAP3 SWAP2 POP POP JUMP JUMPDEST PUSH32 0x4E487B7100000000000000000000000000000000000000000000000000000000 PUSH0 MSTORE PUSH1 0x32 PUSH1 0x4 MSTORE PUSH1 0x24 PUSH0 REVERT JUMPDEST PUSH0 DUP3 DUP3 MSTORE PUSH1 0x20 DUP3 ADD SWAP1 POP SWAP3 SWAP2 POP POP JUMP JUMPDEST PUSH32 0x4E6F7420616E206F776E65720000000000000000000000000000000000000000 PUSH0 DUP3 ADD MSTORE POP JUMP JUMPDEST PUSH0 PUSH2 0xE69 PUSH1 0xC DUP4 PUSH2 0xE25 JUMP JUMPDEST SWAP2 POP PUSH2 0xE74 DUP3 PUSH2 0xE35 JUMP JUMPDEST PUSH1 0x20 DUP3 ADD SWAP1 POP SWAP2 SWAP1 POP JUMP JUMPDEST PUSH0 PUSH1 0x20 DUP3 ADD SWAP1 POP DUP2 DUP2 SUB PUSH0 DUP4 ADD MSTORE PUSH2 0xE96 DUP2 PUSH2 0xE5D JUMP JUMPDEST SWAP1 POP SWAP2 SWAP1 POP JUMP JUMPDEST PUSH32 0x5472616E7366657220417070726F76616C2069732072656A6563746564000000 PUSH0 DUP3 ADD MSTORE POP JUMP JUMPDEST PUSH0 PUSH2 0xED1 PUSH1 0x1D DUP4 PUSH2 0xE25 JUMP JUMPDEST SWAP2 POP PUSH2 0xEDC DUP3 PUSH2 0xE9D JUMP JUMPDEST PUSH1 0x20 DUP3 ADD SWAP1 POP SWAP2 SWAP1 POP JUMP JUMPDEST PUSH0 PUSH1 0x20 DUP3 ADD SWAP1 POP DUP2 DUP2 SUB PUSH0 DUP4 ADD MSTORE PUSH2 0xEFE DUP2 PUSH2 0xEC5 JUMP JUMPDEST SWAP1 POP SWAP2 SWAP1 POP JUMP JUMPDEST PUSH32 0x4D7573742073656E7420746865207472616E7366657220726571756573740000 PUSH0 DUP3 ADD MSTORE POP JUMP JUMPDEST PUSH0 PUSH2 0xF39 PUSH1 0x1E DUP4 PUSH2 0xE25 JUMP JUMPDEST SWAP2 POP PUSH2 0xF44 DUP3 PUSH2 0xF05 JUMP JUMPDEST PUSH1 0x20 DUP3 ADD SWAP1 POP SWAP2 SWAP1 POP JUMP JUMPDEST PUSH0 PUSH1 0x20 DUP3 ADD SWAP1 POP DUP2 DUP2 SUB PUSH0 DUP4 ADD MSTORE PUSH2 0xF66 DUP2 PUSH2 0xF2D JUMP JUMPDEST SWAP1 POP SWAP2 SWAP1 POP JUMP JUMPDEST PUSH32 0x4E487B7100000000000000000000000000000000000000000000000000000000 PUSH0 MSTORE PUSH1 0x11 PUSH1 0x4 MSTORE PUSH1 0x24 PUSH0 REVERT JUMPDEST PUSH0 PUSH2 0xFA4 DUP3 PUSH2 0xB3B JUMP JUMPDEST SWAP2 POP PUSH32 0xFFFFFFFFFFFFFFFFFFFFFFFFFFFFFFFFFFFFFFFFFFFFFFFFFFFFFFFFFFFFFFFF DUP3 SUB PUSH2 0xFD6 JUMPI PUSH2 0xFD5 PUSH2 0xF6D JUMP JUMPDEST JUMPDEST PUSH1 0x1 DUP3 ADD SWAP1 POP SWAP2 SWAP1 POP JUMP JUMPDEST PUSH0 PUSH1 0x60 DUP3 ADD SWAP1 POP PUSH2 0xFF4 PUSH0 DUP4 ADD DUP7 PUSH2 0xBF1 JUMP JUMPDEST PUSH2 0x1001 PUSH1 0x20 DUP4 ADD DUP6 PUSH2 0xBF1 JUMP JUMPDEST PUSH2 0x100E PUSH1 0x40 DUP4 ADD DUP5 PUSH2 0xBC9 JUMP JUMPDEST SWAP5 SWAP4 POP POP POP POP JUMP JUMPDEST PUSH0 PUSH2 0x1020 DUP3 PUSH2 0xB3B JUMP JUMPDEST SWAP2 POP PUSH2 0x102B DUP4 PUSH2 0xB3B JUMP JUMPDEST SWAP3 POP DUP3 DUP3 ADD SWAP1 POP DUP1 DUP3 GT ISZERO PUSH2 0x1043 JUMPI PUSH2 0x1042 PUSH2 0xF6D JUMP JUMPDEST JUMPDEST SWAP3 SWAP2 POP POP JUMP JUMPDEST PUSH0 DUP2 SWAP1 POP SWAP2 SWAP1 POP JUMP JUMPDEST PUSH0 PUSH2 0x106C PUSH2 0x1067 PUSH2 0x1062 DUP5 PUSH2 0xB99 JUMP JUMPDEST PUSH2 0x1049 JUMP JUMPDEST PUSH2 0xB99 JUMP JUMPDEST SWAP1 POP SWAP2 SWAP1 POP JUMP JUMPDEST PUSH0 PUSH2 0x107D DUP3 PUSH2 0x1052 JUMP JUMPDEST SWAP1 POP SWAP2 SWAP1 POP JUMP JUMPDEST PUSH0 PUSH2 0x108E DUP3 PUSH2 0x1073 JUMP JUMPDEST SWAP1 POP SWAP2 SWAP1 POP JUMP JUMPDEST PUSH2 0x109E DUP2 PUSH2 0x1084 JUMP JUMPDEST DUP3 MSTORE POP POP JUMP JUMPDEST PUSH0 PUSH1 0x80 DUP3 ADD SWAP1 POP PUSH2 0x10B7 PUSH0 DUP4 ADD DUP8 PUSH2 0xBF1 JUMP JUMPDEST PUSH2 0x10C4 PUSH1 0x20 DUP4 ADD DUP7 PUSH2 0xBF1 JUMP JUMPDEST PUSH2 0x10D1 PUSH1 0x40 DUP4 ADD DUP6 PUSH2 0xBC9 JUMP JUMPDEST PUSH2 0x10DE PUSH1 0x60 DUP4 ADD DUP5 PUSH2 0x1095 JUMP JUMPDEST SWAP6 SWAP5 POP POP POP POP POP JUMP JUMPDEST PUSH0 PUSH1 0x40 DUP3 ADD SWAP1 POP PUSH2 0x10FA PUSH0 DUP4 ADD DUP6 PUSH2 0xBC9 JUMP JUMPDEST PUSH2 0x1107 PUSH1 0x20 DUP4 ADD DUP5 PUSH2 0xBF1 JUMP JUMPDEST SWAP4 SWAP3 POP POP POP JUMP INVALID LOG2 PUSH5 0x6970667358 0x22 SLT KECCAK256 0xB6 NOT GASPRICE SWAP13 0xCF GT 0xD4 CALL AND ADD 0x4A JUMPI PUSH31 0xEEB6384FB226872FA37B2248078A1FEF4A3CAF64736F6C6343000816003300 "
				},
				"gasEstimates": {
					"creation": {
						"codeDepositCost": "884000",
						"executionCost": "infinite",
						"totalCost": "infinite"
					},
					"external": {
						"createTransfer(uint256,address)": "infinite",
						"depositFund()": "infinite",
						"getBalance()": "2542",
						"getTransferRequests()": "infinite",
						"getWalletBalance()": "infinite",
						"isApprove(uint256)": "infinite",
						"owners(uint256)": "4944"
					}
				},
				"methodIdentifiers": {
					"createTransfer(uint256,address)": "4c12fa47",
					"depositFund()": "8d0d8cb6",
					"getBalance()": "12065fe0",
					"getTransferRequests()": "a04ef145",
					"getWalletBalance()": "329a27e7",
					"isApprove(uint256)": "1f1e1295",
					"owners(uint256)": "025e7c27"
				}
			},
			"storageLayout": {
				"storage": [
					{
						"astId": 5,
						"contract": "constructors/Project.sol:Wallet",
						"label": "owners",
						"offset": 0,
						"slot": "0",
						"type": "t_array(t_address)dyn_storage"
					},
					{
						"astId": 7,
						"contract": "constructors/Project.sol:Wallet",
						"label": "limit",
						"offset": 0,
						"slot": "1",
						"type": "t_uint256"
					},
					{
						"astId": 22,
						"contract": "constructors/Project.sol:Wallet",
						"label": "TransferRequest",
						"offset": 0,
						"slot": "2",
						"type": "t_array(t_struct(Transfer)18_storage)dyn_storage"
					},
					{
						"astId": 28,
						"contract": "constructors/Project.sol:Wallet",
						"label": "approvals",
						"offset": 0,
						"slot": "3",
						"type": "t_mapping(t_address,t_mapping(t_uint256,t_bool))"
					},
					{
						"astId": 32,
						"contract": "constructors/Project.sol:Wallet",
						"label": "isOwner",
						"offset": 0,
						"slot": "4",
						"type": "t_mapping(t_address,t_bool)"
					},
					{
						"astId": 36,
						"contract": "constructors/Project.sol:Wallet",
						"label": "balance",
						"offset": 0,
						"slot": "5",
						"type": "t_mapping(t_address,t_uint256)"
					}
				],
				"types": {
					"t_address": {
						"encoding": "inplace",
						"label": "address",
						"numberOfBytes": "20"
					},
					"t_array(t_address)dyn_storage": {
						"base": "t_address",
						"encoding": "dynamic_array",
						"label": "address[]",
						"numberOfBytes": "32"
					},
					"t_array(t_struct(Transfer)18_storage)dyn_storage": {
						"base": "t_struct(Transfer)18_storage",
						"encoding": "dynamic_array",
						"label": "struct Wallet.Transfer[]",
						"numberOfBytes": "32"
					},
					"t_bool": {
						"encoding": "inplace",
						"label": "bool",
						"numberOfBytes": "1"
					},
					"t_mapping(t_address,t_bool)": {
						"encoding": "mapping",
						"key": "t_address",
						"label": "mapping(address => bool)",
						"numberOfBytes": "32",
						"value": "t_bool"
					},
					"t_mapping(t_address,t_mapping(t_uint256,t_bool))": {
						"encoding": "mapping",
						"key": "t_address",
						"label": "mapping(address => mapping(uint256 => bool))",
						"numberOfBytes": "32",
						"value": "t_mapping(t_uint256,t_bool)"
					},
					"t_mapping(t_address,t_uint256)": {
						"encoding": "mapping",
						"key": "t_address",
						"label": "mapping(address => uint256)",
						"numberOfBytes": "32",
						"value": "t_uint256"
					},
					"t_mapping(t_uint256,t_bool)": {
						"encoding": "mapping",
						"key": "t_uint256",
						"label": "mapping(uint256 => bool)",
						"numberOfBytes": "32",
						"value": "t_bool"
					},
					"t_struct(Transfer)18_storage": {
						"encoding": "inplace",
						"label": "struct Wallet.Transfer",
						"members": [
							{
								"astId": 9,
								"contract": "constructors/Project.sol:Wallet",
								"label": "approvals",
								"offset": 0,
								"slot": "0",
								"type": "t_uint256"
							},
							{
								"astId": 11,
								"contract": "constructors/Project.sol:Wallet",
								"label": "reciever",
								"offset": 0,
								"slot": "1",
								"type": "t_address"
							},
							{
								"astId": 13,
								"contract": "constructors/Project.sol:Wallet",
								"label": "amount",
								"offset": 0,
								"slot": "2",
								"type": "t_uint256"
							},
							{
								"astId": 15,
								"contract": "constructors/Project.sol:Wallet",
								"label": "id",
								"offset": 0,
								"slot": "3",
								"type": "t_uint256"
							},
							{
								"astId": 17,
								"contract": "constructors/Project.sol:Wallet",
								"label": "hasSent",
								"offset": 0,
								"slot": "4",
								"type": "t_bool"
							}
						],
						"numberOfBytes": "160"
					},
					"t_uint256": {
						"encoding": "inplace",
						"label": "uint256",
						"numberOfBytes": "32"
					}
				}
			},
			"userdoc": {
				"kind": "user",
				"methods": {},
				"version": 1
			}
		}
	}
}